{
  "contractName": "AMBMock",
  "abi": [
    {
      "constant": true,
      "inputs": [],
      "name": "transactionHash",
      "outputs": [
        {
          "name": "",
          "type": "bytes32"
        }
      ],
      "payable": false,
      "stateMutability": "view",
      "type": "function"
    },
    {
      "constant": true,
      "inputs": [
        {
          "name": "",
          "type": "bytes32"
        }
      ],
      "name": "failedMessageReceiver",
      "outputs": [
        {
          "name": "",
          "type": "address"
        }
      ],
      "payable": false,
      "stateMutability": "view",
      "type": "function"
    },
    {
      "constant": true,
      "inputs": [
        {
          "name": "",
          "type": "bytes32"
        }
      ],
      "name": "failedMessageSender",
      "outputs": [
        {
          "name": "",
          "type": "address"
        }
      ],
      "payable": false,
      "stateMutability": "view",
      "type": "function"
    },
    {
      "constant": true,
      "inputs": [],
      "name": "messageId",
      "outputs": [
        {
          "name": "",
          "type": "bytes32"
        }
      ],
      "payable": false,
      "stateMutability": "view",
      "type": "function"
    },
    {
      "constant": true,
      "inputs": [],
      "name": "messageSourceChainId",
      "outputs": [
        {
          "name": "",
          "type": "uint256"
        }
      ],
      "payable": false,
      "stateMutability": "view",
      "type": "function"
    },
    {
      "constant": true,
      "inputs": [],
      "name": "nonce",
      "outputs": [
        {
          "name": "",
          "type": "uint64"
        }
      ],
      "payable": false,
      "stateMutability": "view",
      "type": "function"
    },
    {
      "constant": true,
      "inputs": [
        {
          "name": "",
          "type": "bytes32"
        }
      ],
      "name": "messageCallStatus",
      "outputs": [
        {
          "name": "",
          "type": "bool"
        }
      ],
      "payable": false,
      "stateMutability": "view",
      "type": "function"
    },
    {
      "constant": true,
      "inputs": [],
      "name": "messageSender",
      "outputs": [
        {
          "name": "",
          "type": "address"
        }
      ],
      "payable": false,
      "stateMutability": "view",
      "type": "function"
    },
    {
      "constant": true,
      "inputs": [
        {
          "name": "",
          "type": "bytes32"
        }
      ],
      "name": "failedMessageDataHash",
      "outputs": [
        {
          "name": "",
          "type": "bytes32"
        }
      ],
      "payable": false,
      "stateMutability": "view",
      "type": "function"
    },
    {
      "constant": true,
      "inputs": [],
      "name": "maxGasPerTx",
      "outputs": [
        {
          "name": "",
          "type": "uint256"
        }
      ],
      "payable": false,
      "stateMutability": "view",
      "type": "function"
    },
    {
      "anonymous": false,
      "inputs": [
        {
          "indexed": true,
          "name": "messageId",
          "type": "bytes32"
        },
        {
          "indexed": false,
          "name": "encodedData",
          "type": "bytes"
        }
      ],
      "name": "MockedEvent",
      "type": "event"
    },
    {
      "constant": false,
      "inputs": [
        {
          "name": "_value",
          "type": "uint256"
        }
      ],
      "name": "setMaxGasPerTx",
      "outputs": [],
      "payable": false,
      "stateMutability": "nonpayable",
      "type": "function"
    },
    {
      "constant": false,
      "inputs": [
        {
          "name": "_contract",
          "type": "address"
        },
        {
          "name": "_sender",
          "type": "address"
        },
        {
          "name": "_data",
          "type": "bytes"
        },
        {
          "name": "_messageId",
          "type": "bytes32"
        },
        {
          "name": "_gas",
          "type": "uint256"
        }
      ],
      "name": "executeMessageCall",
      "outputs": [],
      "payable": false,
      "stateMutability": "nonpayable",
      "type": "function"
    },
    {
      "constant": false,
      "inputs": [
        {
          "name": "_contract",
          "type": "address"
        },
        {
          "name": "_data",
          "type": "bytes"
        },
        {
          "name": "_gas",
          "type": "uint256"
        }
      ],
      "name": "requireToPassMessage",
      "outputs": [
        {
          "name": "",
          "type": "bytes32"
        }
      ],
      "payable": false,
      "stateMutability": "nonpayable",
      "type": "function"
    },
    {
      "constant": false,
      "inputs": [
        {
          "name": "_contract",
          "type": "address"
        },
        {
          "name": "_data",
          "type": "bytes"
        },
        {
          "name": "_gas",
          "type": "uint256"
        }
      ],
      "name": "requireToConfirmMessage",
      "outputs": [
        {
          "name": "",
          "type": "bytes32"
        }
      ],
      "payable": false,
      "stateMutability": "nonpayable",
      "type": "function"
    },
    {
      "constant": true,
      "inputs": [],
      "name": "sourceChainId",
      "outputs": [
        {
          "name": "",
          "type": "uint256"
        }
      ],
      "payable": false,
      "stateMutability": "pure",
      "type": "function"
    }
  ],
  "bytecode": "0x608060405234801561001057600080fd5b506109f8806100206000396000f3006080604052600436106100da5763ffffffff7c01000000000000000000000000000000000000000000000000000000006000350416630ac1c31381146100df5780631544298e146101065780633f9a8e7e1461011b5780634a610b041461014f578063669f618b146101675780637bac29c71461017c578063942759631461019657806394643f711461020e5780639e307dff1461023e578063affed0e014610253578063cb08a10c14610285578063d67bdd25146102b1578063dc8601b3146102c6578063e37c3289146102f6578063e5789d031461030e575b600080fd5b3480156100eb57600080fd5b506100f4610323565b60408051918252519081900360200190f35b34801561011257600080fd5b506100f4610329565b34801561012757600080fd5b5061013360043561032f565b60408051600160a060020a039092168252519081900360200190f35b34801561015b57600080fd5b5061013360043561034a565b34801561017357600080fd5b506100f4610365565b34801561018857600080fd5b5061019460043561036b565b005b3480156101a257600080fd5b50604080516020600460443581810135601f8101849004840285018401909552848452610194948235600160a060020a03908116956024803590921695369594606494929301919081908401838280828437509497505084359550505060209092013591506103709050565b34801561021a57600080fd5b506100f460048035600160a060020a0316906024803590810191013560443561052b565b34801561024a57600080fd5b506100f4610575565b34801561025f57600080fd5b5061026861057b565b6040805167ffffffffffffffff9092168252519081900360200190f35b34801561029157600080fd5b5061029d60043561058b565b604080519115158252519081900360200190f35b3480156102bd57600080fd5b506101336105a0565b3480156102d257600080fd5b506100f460048035600160a060020a031690602480359081019101356044356105af565b34801561030257600080fd5b506100f46004356105f0565b34801561031a57600080fd5b506100f4610602565b60025481565b61053990565b600860205260009081526040902054600160a060020a031681565b600760205260009081526040902054600160a060020a031681565b60035481565b600155565b6000805473ffffffffffffffffffffffffffffffffffffffff1916600160a060020a038681169190911782556003849055600284905561053960055560405185519188169184918791819060208401908083838a5b838110156103dd5781810151838201526020016103c5565b50505050905090810190601f16801561040a5780820380516001836020036101000a031916815260200191505b5091505060006040518083038160008787f16000805473ffffffffffffffffffffffffffffffffffffffff19168155600381905560028190556005819055878152600660205260409020805460ff1916821515908117909155909450925061052391505057836040518082805190602001908083835b6020831061049f5780518252601f199092019160209182019101610480565b51815160001960209485036101000a01908116901991909116179052604080519490920184900390932060008981526009855282812091909155600884528181208054600160a060020a03808f1673ffffffffffffffffffffffffffffffffffffffff199283161790925560079095529190208054918b1691909316179091555050505b505050505050565b600061056c8585858080601f016020809104026020016040519081016040528093929190818152602001838380828437820191505050505050846080610608565b95945050505050565b60055481565b60045467ffffffffffffffff1681565b60066020526000908152604090205460ff1681565b600054600160a060020a031681565b600061056c8585858080601f016020809104026020016040519081016040528093929190818152602001838380828437820191505050505050846000610608565b60096020526000908152604090205481565b60015481565b600354600090819081906060901561061f57600080fd5b604080517f05390000000000000000000000000000000000000000000000000000000000006020808301919091526c010000000000000000000000003002602283015282516016818403018152603690920192839052815191929182918401908083835b602083106106a25780518252601f199092019160209182019101610683565b6001836020036101000a03801982511681845116808217855250505050505090500191505060405180910390207bffffffffffffffffffffffffffffffffffffffff0000000000000000600102169250600460009054906101000a900467ffffffffffffffff1667ffffffffffffffff16600102837f1122334400000000000000000000000000000000000000000000000000000000600102171791506001600460008282829054906101000a900467ffffffffffffffff160192506101000a81548167ffffffffffffffff021916908367ffffffffffffffff160217905550813389886002808a61053961053a8f604051602001808b600019166000191681526020018a600160a060020a0316600160a060020a03166c0100000000000000000000000002815260140189600160a060020a0316600160a060020a03166c010000000000000000000000000281526014018863ffffffff1663ffffffff167c01000000000000000000000000000000000000000000000000000000000281526004018760ff1660ff1660f860020a0281526001018660ff1660ff1660f860020a0281526001018560ff1660ff1660f860020a0281526001018461ffff1661ffff167e010000000000000000000000000000000000000000000000000000000000000281526002018361ffff1661ffff167e0100000000000000000000000000000000000000000000000000000000000002815260020182805190602001908083835b602083106108e45780518252601f1990920191602091820191016108c5565b6001836020036101000a0380198251168184511680821785525050505050509050019a5050505050505050505050604051602081830303815290604052905081600019167ffba1d61c8783fe6430101e1c17b86283d23c953c4be9abb813603b4744d4851e826040518080602001828103825283818151815260200191508051906020019080838360005b8381101561098757818101518382015260200161096f565b50505050905090810190601f1680156109b45780820380516001836020036101000a031916815260200191505b509250505060405180910390a25096955050505050505600a165627a7a72305820a0c927179132659102ccc617850a9339a31557d31401be3fbc7d1a8211dd99800029",
  "source": "pragma solidity 0.4.24;\n\nimport \"../libraries/Bytes.sol\";\n\ncontract AMBMock {\n    event MockedEvent(bytes32 indexed messageId, bytes encodedData);\n\n    address public messageSender;\n    uint256 public maxGasPerTx;\n    bytes32 public transactionHash;\n    bytes32 public messageId;\n    uint64 public nonce;\n    uint256 public messageSourceChainId;\n    mapping(bytes32 => bool) public messageCallStatus;\n    mapping(bytes32 => address) public failedMessageSender;\n    mapping(bytes32 => address) public failedMessageReceiver;\n    mapping(bytes32 => bytes32) public failedMessageDataHash;\n\n    function setMaxGasPerTx(uint256 _value) public {\n        maxGasPerTx = _value;\n    }\n\n    function executeMessageCall(address _contract, address _sender, bytes _data, bytes32 _messageId, uint256 _gas)\n        public\n    {\n        messageSender = _sender;\n        messageId = _messageId;\n        transactionHash = _messageId;\n        messageSourceChainId = 1337;\n        bool status = _contract.call.gas(_gas)(_data);\n        messageSender = address(0);\n        messageId = bytes32(0);\n        transactionHash = bytes32(0);\n        messageSourceChainId = 0;\n\n        messageCallStatus[_messageId] = status;\n        if (!status) {\n            failedMessageDataHash[_messageId] = keccak256(_data);\n            failedMessageReceiver[_messageId] = _contract;\n            failedMessageSender[_messageId] = _sender;\n        }\n    }\n\n    function requireToPassMessage(address _contract, bytes _data, uint256 _gas) external returns (bytes32) {\n        return _sendMessage(_contract, _data, _gas, 0x00);\n    }\n\n    function requireToConfirmMessage(address _contract, bytes _data, uint256 _gas) external returns (bytes32) {\n        return _sendMessage(_contract, _data, _gas, 0x80);\n    }\n\n    function _sendMessage(address _contract, bytes _data, uint256 _gas, uint256 _dataType) internal returns (bytes32) {\n        require(messageId == bytes32(0));\n        bytes32 bridgeId = keccak256(abi.encodePacked(uint16(1337), address(this))) &\n            0x00000000ffffffffffffffffffffffffffffffffffffffff0000000000000000;\n\n        bytes32 _messageId = bytes32(0x11223344 << 224) | bridgeId | bytes32(nonce);\n        nonce += 1;\n        bytes memory eventData = abi.encodePacked(\n            _messageId,\n            msg.sender,\n            _contract,\n            uint32(_gas),\n            uint8(2),\n            uint8(2),\n            uint8(_dataType),\n            uint16(1337),\n            uint16(1338),\n            _data\n        );\n\n        emit MockedEvent(_messageId, eventData);\n        return _messageId;\n    }\n\n    function sourceChainId() external pure returns (uint256) {\n        return 1337;\n    }\n}\n",
  "sourcePath": "/home/analiser/bridge-frontend/contracts/mocks/AMBMock.sol",
  "compiler": {
    "name": "solc",
    "version": "0.4.24+commit.e67f0147.Emscripten.clang"
  },
  "schemaVersion": "3.4.3",
  "updatedAt": "2021-09-03T05:10:27.297Z",
  "devdoc": {
    "methods": {}
  },
  "userdoc": {
    "methods": {}
  }
}