{
  "contractName": "BridgeValidatorsDeterministic",
  "abi": [
    {
      "constant": true,
      "inputs": [],
      "name": "validatorCount",
      "outputs": [
        {
          "name": "",
          "type": "uint256"
        }
      ],
      "payable": false,
      "stateMutability": "view",
      "type": "function"
    },
    {
      "constant": true,
      "inputs": [],
      "name": "getBridgeValidatorsInterfacesVersion",
      "outputs": [
        {
          "name": "major",
          "type": "uint64"
        },
        {
          "name": "minor",
          "type": "uint64"
        },
        {
          "name": "patch",
          "type": "uint64"
        }
      ],
      "payable": false,
      "stateMutability": "pure",
      "type": "function"
    },
    {
      "constant": true,
      "inputs": [],
      "name": "isInitialized",
      "outputs": [
        {
          "name": "",
          "type": "bool"
        }
      ],
      "payable": false,
      "stateMutability": "view",
      "type": "function"
    },
    {
      "constant": false,
      "inputs": [
        {
          "name": "_validator",
          "type": "address"
        }
      ],
      "name": "removeValidator",
      "outputs": [],
      "payable": false,
      "stateMutability": "nonpayable",
      "type": "function"
    },
    {
      "constant": false,
      "inputs": [
        {
          "name": "_validator",
          "type": "address"
        }
      ],
      "name": "addValidator",
      "outputs": [],
      "payable": false,
      "stateMutability": "nonpayable",
      "type": "function"
    },
    {
      "constant": false,
      "inputs": [
        {
          "name": "_requiredSignatures",
          "type": "uint256"
        },
        {
          "name": "_initialValidators",
          "type": "address[]"
        },
        {
          "name": "_owner",
          "type": "address"
        }
      ],
      "name": "initialize",
      "outputs": [
        {
          "name": "",
          "type": "bool"
        }
      ],
      "payable": false,
      "stateMutability": "nonpayable",
      "type": "function"
    },
    {
      "constant": true,
      "inputs": [],
      "name": "validatorList",
      "outputs": [
        {
          "name": "",
          "type": "address[]"
        }
      ],
      "payable": false,
      "stateMutability": "view",
      "type": "function"
    },
    {
      "constant": false,
      "inputs": [
        {
          "name": "_requiredSignatures",
          "type": "uint256"
        }
      ],
      "name": "setRequiredSignatures",
      "outputs": [],
      "payable": false,
      "stateMutability": "nonpayable",
      "type": "function"
    },
    {
      "constant": true,
      "inputs": [],
      "name": "requiredSignatures",
      "outputs": [
        {
          "name": "",
          "type": "uint256"
        }
      ],
      "payable": false,
      "stateMutability": "view",
      "type": "function"
    },
    {
      "constant": true,
      "inputs": [
        {
          "name": "_address",
          "type": "address"
        }
      ],
      "name": "getNextValidator",
      "outputs": [
        {
          "name": "",
          "type": "address"
        }
      ],
      "payable": false,
      "stateMutability": "view",
      "type": "function"
    },
    {
      "constant": true,
      "inputs": [],
      "name": "owner",
      "outputs": [
        {
          "name": "",
          "type": "address"
        }
      ],
      "payable": false,
      "stateMutability": "view",
      "type": "function"
    },
    {
      "constant": true,
      "inputs": [],
      "name": "deployedAtBlock",
      "outputs": [
        {
          "name": "",
          "type": "uint256"
        }
      ],
      "payable": false,
      "stateMutability": "view",
      "type": "function"
    },
    {
      "constant": true,
      "inputs": [],
      "name": "F_ADDR",
      "outputs": [
        {
          "name": "",
          "type": "address"
        }
      ],
      "payable": false,
      "stateMutability": "view",
      "type": "function"
    },
    {
      "constant": false,
      "inputs": [
        {
          "name": "newOwner",
          "type": "address"
        }
      ],
      "name": "transferOwnership",
      "outputs": [],
      "payable": false,
      "stateMutability": "nonpayable",
      "type": "function"
    },
    {
      "constant": true,
      "inputs": [
        {
          "name": "_validator",
          "type": "address"
        }
      ],
      "name": "isValidator",
      "outputs": [
        {
          "name": "",
          "type": "bool"
        }
      ],
      "payable": false,
      "stateMutability": "view",
      "type": "function"
    },
    {
      "anonymous": false,
      "inputs": [
        {
          "indexed": true,
          "name": "validator",
          "type": "address"
        }
      ],
      "name": "ValidatorAdded",
      "type": "event"
    },
    {
      "anonymous": false,
      "inputs": [
        {
          "indexed": true,
          "name": "validator",
          "type": "address"
        }
      ],
      "name": "ValidatorRemoved",
      "type": "event"
    },
    {
      "anonymous": false,
      "inputs": [
        {
          "indexed": false,
          "name": "requiredSignatures",
          "type": "uint256"
        }
      ],
      "name": "RequiredSignaturesChanged",
      "type": "event"
    },
    {
      "anonymous": false,
      "inputs": [
        {
          "indexed": false,
          "name": "previousOwner",
          "type": "address"
        },
        {
          "indexed": false,
          "name": "newOwner",
          "type": "address"
        }
      ],
      "name": "OwnershipTransferred",
      "type": "event"
    },
    {
      "constant": true,
      "inputs": [
        {
          "name": "_validator",
          "type": "address"
        }
      ],
      "name": "isValidatorDuty",
      "outputs": [
        {
          "name": "",
          "type": "bool"
        }
      ],
      "payable": false,
      "stateMutability": "view",
      "type": "function"
    }
  ],
  "bytecode": "0x608060405234801561001057600080fd5b506112d4806100206000396000f3006080604052600436106100e55763ffffffff7c01000000000000000000000000000000000000000000000000000000006000350416630f43a67781146100ea5780632bda4eee14610111578063392e53cd1461015257806340a141ff1461017b5780634d238c8e1461019e57806352af719f146101bf5780635890ef79146101ef5780637d2b9cc0146102545780638d0680431461026c5780638d37052c146102815780638da5cb5b146102be5780638e4ec60a146102d35780639a454b99146102f4578063c794c76914610309578063f2fde38b1461031e578063facd743b1461033f575b600080fd5b3480156100f657600080fd5b506100ff610360565b60408051918252519081900360200190f35b34801561011d57600080fd5b506101266103ae565b6040805167ffffffffffffffff9485168152928416602084015292168183015290519081900360600190f35b34801561015e57600080fd5b506101676103b9565b604080519115158252519081900360200190f35b34801561018757600080fd5b5061019c600160a060020a036004351661040a565b005b3480156101aa57600080fd5b5061019c600160a060020a0360043516610466565b3480156101cb57600080fd5b50610167600480359060248035908101910135600160a060020a03604435166104c2565b3480156101fb57600080fd5b506102046108f8565b60408051602080825283518183015283519192839290830191858101910280838360005b83811015610240578181015183820152602001610228565b505050509050019250505060405180910390f35b34801561026057600080fd5b5061019c6004356109c6565b34801561027857600080fd5b506100ff610a88565b34801561028d57600080fd5b506102a2600160a060020a0360043516610ad6565b60408051600160a060020a039092168252519081900360200190f35b3480156102ca57600080fd5b506102a2610bbe565b3480156102df57600080fd5b50610167600160a060020a0360043516610c15565b34801561030057600080fd5b506100ff610c5c565b34801561031557600080fd5b506102a2610caa565b34801561032a57600080fd5b5061019c600160a060020a0360043516610cb5565b34801561034b57600080fd5b50610167600160a060020a0360043516610cdd565b7f8656d603d9f985c3483946a92789d52202f49736384ba131cb92f62c4c1aa08260009081526020527f95d17efd9f452ee83a125e41a6180e225f2e2ff7d47d2c1f6cd9b2e14a207ba15490565b600260036000909192565b7f0a6f646cd611241d8073675e00d1a1ff700fbf1b53fcf473de56d1e6e4b714ba60005260046020527f078d888f9b66f3f8bfa10909e31f1e16240db73449f0500afdbbe3a70da457cc5460ff1690565b610412610bbe565b600160a060020a0316331461042657600080fd5b61042f81610d10565b604051600160a060020a038216907fe1434e25d6611e0db941968fdc97811c982ac1602e951637d206f5fdda9dd8f190600090a250565b61046e610bbe565b600160a060020a0316331461048257600080fd5b61048b81610e3a565b604051600160a060020a038216907fe366c1c0452ed8eec96861e9e54141ebff23c9ec89fe27b996b45f5ec388498790600090a250565b60408051600481526024810182526020810180517bffffffffffffffffffffffffffffffffffffffffffffffffffffffff167f6fde8202000000000000000000000000000000000000000000000000000000001781529151815160009384933093909290918291808383895b8381101561054657818101518382015260200161052e565b50505050905090810190601f1680156105735780820380516001836020036101000a031916815260200191505b509150506000604051808303816000865af1915050158061061e575030600160a060020a0316636fde82026040518163ffffffff167c0100000000000000000000000000000000000000000000000000000000028152600401602060405180830381600087803b1580156105e657600080fd5b505af11580156105fa573d6000803e3d6000fd5b505050506040513d602081101561061057600080fd5b5051600160a060020a031633145b8061062857503330145b151561063357600080fd5b61063b6103b9565b1561064557600080fd5b61064e83610edd565b85151561065a57600080fd5b8584101561066757600080fd5b5060005b8381101561083157600085858381811061068157fe5b90506020020135600160a060020a0316600160a060020a0316141580156106d35750600160a060020a038585838181106106b757fe5b90506020020135600160a060020a0316600160a060020a031614155b15156106de57600080fd5b6107028585838181106106ed57fe5b90506020020135600160a060020a0316610cdd565b1561070c57600080fd5b8015156107795761073f600160a060020a0386868481811061072a57fe5b90506020020135600160a060020a0316610fb4565b60018414156107745761077485858381811061075757fe5b90506020020135600160a060020a0316600160a060020a03610fb4565b6107d8565b60001984018114156107c5576107b68585600019840181811061079857fe5b90506020020135600160a060020a0316868684818110151561072a57fe5b61077485858381811061075757fe5b6107d88585600019840181811061079857fe5b8484828181106107e457fe5b90506020020135600160a060020a0316600160a060020a03167fe366c1c0452ed8eec96861e9e54141ebff23c9ec89fe27b996b45f5ec388498760405160405180910390a260010161066b565b61083a846110bb565b600060208190527f8a247e09a5673bd4d93a4e76d8fb9553523aa0d77f51f3d576e7421f5295b9bc8790557fb120ceec05576ad0c710bc6e85f1768535e27554458f05dcbb5c65b8c7a749b09052437fe66bef0282a446f9848e2903380099bb6e431483ee78778868f33b4a154c818b556108b3611116565b6040805187815290517f10dbc913050d3180c3b99f7da91fd514af7cbc9c1bb59a0da5d2bc38f0cf395a9181900360200190a16108ee6103b9565b9695505050505050565b606080600080610906610360565b60405190808252806020026020018201604052801561092f578160200160208202803883390190505b50925060009150610946600160a060020a03610ad6565b9050600160a060020a038116151561095d57600080fd5b600160a060020a03818116146109be5780838381518110151561097c57fe5b600160a060020a0390921660209283029091019091015261099c81610ad6565b6001909201919050600160a060020a03811615156109b957600080fd5b61095d565b509092915050565b6109ce610bbe565b600160a060020a031633146109e257600080fd5b806109eb610360565b10156109f657600080fd5b801515610a0257600080fd5b7fd18ea17c351d6834a0e568067fb71804d2a588d5e26d60f792b1c724b1bd53b1600090815260209081527f8a247e09a5673bd4d93a4e76d8fb9553523aa0d77f51f3d576e7421f5295b9bc8290556040805183815290517f10dbc913050d3180c3b99f7da91fd514af7cbc9c1bb59a0da5d2bc38f0cf395a929181900390910190a150565b7fd18ea17c351d6834a0e568067fb71804d2a588d5e26d60f792b1c724b1bd53b160009081526020527f8a247e09a5673bd4d93a4e76d8fb9553523aa0d77f51f3d576e7421f5295b9bc5490565b6000600260008360405160200180807f76616c696461746f72734c697374000000000000000000000000000000000000815250600e0182600160a060020a0316600160a060020a03166c010000000000000000000000000281526014019150506040516020818303038152906040526040518082805190602001908083835b60208310610b745780518252601f199092019160209182019101610b55565b51815160209384036101000a6000190180199092169116179052604080519290940182900390912086528501959095529290920160002054600160a060020a031695945050505050565b7f02016836a56b71f0d02689e69e326f4f4c1b9057164ef592671cf0d37c8040c060005260026020527fb7802e97e87ef2842a6cce7da7ffaeaedaa2f61a6a7870b23d9d01fc9b73712e54600160a060020a031690565b600080610c28600160a060020a03610ad6565b9050600160a060020a0381161515610c3f57600080fd5b80600160a060020a031683600160a060020a031614915050919050565b7fb120ceec05576ad0c710bc6e85f1768535e27554458f05dcbb5c65b8c7a749b060009081526020527fe66bef0282a446f9848e2903380099bb6e431483ee78778868f33b4a154c818b5490565b600160a060020a0381565b610cbd610bbe565b600160a060020a03163314610cd157600080fd5b610cda81610edd565b50565b6000600160a060020a0382811614801590610d0a57506000610cfe83610ad6565b600160a060020a031614155b92915050565b6000806000610d1d610a88565b610d25610360565b11610d2f57600080fd5b610d3884610cdd565b1515610d4357600080fd5b610d4c84610ad6565b9250600160a060020a039150610d6182610ad6565b9050600160a060020a0381161515610d7857600080fd5b600160a060020a0381811690851614610dca57809150610d9782610ad6565b9050600160a060020a0380821614801590610dba5750600160a060020a03811615155b1515610dc557600080fd5b610d78565b610dd48284610fb4565b610e136040805190810160405280600e81526020017f76616c696461746f72734c6973740000000000000000000000000000000000008152508561116d565b610e34610e2f6001610e23610360565b9063ffffffff61128916565b6110bb565b50505050565b6000600160a060020a03821615801590610e5d5750600160a060020a0382811614155b1515610e6857600080fd5b610e7182610cdd565b15610e7b57600080fd5b610e8b600160a060020a03610ad6565b9050600160a060020a0381161515610ea257600080fd5b610eac8282610fb4565b610ebd600160a060020a0383610fb4565b610ed9610e2f6001610ecd610360565b9063ffffffff61129b16565b5050565b600160a060020a0381161515610ef257600080fd5b7f8be0079c531659141344cd1fd0a4f28419497f9722a3daafe3b4186f6b6457e0610f1b610bbe565b60408051600160a060020a03928316815291841660208301528051918290030190a17f02016836a56b71f0d02689e69e326f4f4c1b9057164ef592671cf0d37c8040c060005260026020527fb7802e97e87ef2842a6cce7da7ffaeaedaa2f61a6a7870b23d9d01fc9b73712e805473ffffffffffffffffffffffffffffffffffffffff1916600160a060020a0392909216919091179055565b80600260008460405160200180807f76616c696461746f72734c697374000000000000000000000000000000000000815250600e0182600160a060020a0316600160a060020a03166c010000000000000000000000000281526014019150506040516020818303038152906040526040518082805190602001908083835b602083106110515780518252601f199092019160209182019101611032565b51815160209384036101000a60001901801990921691161790526040805192909401829003909120865285019590955292909201600020805473ffffffffffffffffffffffffffffffffffffffff1916600160a060020a0395909516949094179093555050505050565b60328111156110c957600080fd5b7f8656d603d9f985c3483946a92789d52202f49736384ba131cb92f62c4c1aa08260009081526020527f95d17efd9f452ee83a125e41a6180e225f2e2ff7d47d2c1f6cd9b2e14a207ba155565b7f0a6f646cd611241d8073675e00d1a1ff700fbf1b53fcf473de56d1e6e4b714ba60005260046020527f078d888f9b66f3f8bfa10909e31f1e16240db73449f0500afdbbe3a70da457cc805460ff19166001179055565b6002600083836040516020018083805190602001908083835b602083106111a55780518252601f199092019160209182019101611186565b6001836020036101000a03801982511681845116808217855250505050505090500182600160a060020a0316600160a060020a03166c01000000000000000000000000028152601401925050506040516020818303038152906040526040518082805190602001908083835b602083106112305780518252601f199092019160209182019101611211565b51815160209384036101000a60001901801990921691161790526040805192909401829003909120865285019590955292909201600020805473ffffffffffffffffffffffffffffffffffffffff191690555050505050565b60008282111561129557fe5b50900390565b81810182811015610d0a57fe00a165627a7a72305820988f5da37ea75974d5c4c8c57fcdf907cfa01f0af1bd53e4b33960a1ac31a0be0029",
  "source": "pragma solidity 0.4.24;\n\nimport \"../upgradeable_contracts/BridgeValidators.sol\";\n\ncontract BridgeValidatorsDeterministic is BridgeValidators {\n    function isValidatorDuty(address _validator) external view returns (bool) {\n        address next = getNextValidator(F_ADDR);\n        require(next != address(0));\n\n        // first validator is always on duty, others are always not\n        return _validator == next;\n    }\n}\n",
  "sourcePath": "/home/analiser/bridge-frontend/contracts/mocks/BridgeValidatorsDeterministic.sol",
  "compiler": {
    "name": "solc",
    "version": "0.4.24+commit.e67f0147.Emscripten.clang"
  },
  "schemaVersion": "3.4.3",
  "updatedAt": "2021-09-03T05:10:27.338Z",
  "devdoc": {
    "methods": {
      "owner()": {
        "details": "Tells the address of the owner",
        "return": "the address of the owner"
      },
      "transferOwnership(address)": {
        "details": "Allows the current owner to transfer control of the contract to a newOwner.",
        "params": {
          "newOwner": "the address to transfer ownership to."
        }
      }
    }
  },
  "userdoc": {
    "methods": {}
  }
}