{
  "contractName": "ERC677BridgeTokenRewardableMock",
  "abi": [
    {
      "constant": false,
      "inputs": [
        {
          "name": "_bridge",
          "type": "address"
        }
      ],
      "name": "removeBridge",
      "outputs": [],
      "payable": false,
      "stateMutability": "nonpayable",
      "type": "function"
    },
    {
      "constant": true,
      "inputs": [],
      "name": "mintingFinished",
      "outputs": [
        {
          "name": "",
          "type": "bool"
        }
      ],
      "payable": false,
      "stateMutability": "view",
      "type": "function"
    },
    {
      "constant": true,
      "inputs": [],
      "name": "name",
      "outputs": [
        {
          "name": "",
          "type": "string"
        }
      ],
      "payable": false,
      "stateMutability": "view",
      "type": "function"
    },
    {
      "constant": false,
      "inputs": [
        {
          "name": "_to",
          "type": "address"
        },
        {
          "name": "_value",
          "type": "uint256"
        }
      ],
      "name": "approve",
      "outputs": [
        {
          "name": "result",
          "type": "bool"
        }
      ],
      "payable": false,
      "stateMutability": "nonpayable",
      "type": "function"
    },
    {
      "constant": false,
      "inputs": [
        {
          "name": "",
          "type": "address"
        }
      ],
      "name": "setBridgeContract",
      "outputs": [],
      "payable": false,
      "stateMutability": "nonpayable",
      "type": "function"
    },
    {
      "constant": true,
      "inputs": [],
      "name": "totalSupply",
      "outputs": [
        {
          "name": "",
          "type": "uint256"
        }
      ],
      "payable": false,
      "stateMutability": "view",
      "type": "function"
    },
    {
      "constant": false,
      "inputs": [
        {
          "name": "_from",
          "type": "address"
        },
        {
          "name": "_to",
          "type": "address"
        },
        {
          "name": "_value",
          "type": "uint256"
        }
      ],
      "name": "transferFrom",
      "outputs": [
        {
          "name": "",
          "type": "bool"
        }
      ],
      "payable": false,
      "stateMutability": "nonpayable",
      "type": "function"
    },
    {
      "constant": false,
      "inputs": [
        {
          "name": "_blockRewardContract",
          "type": "address"
        }
      ],
      "name": "setBlockRewardContract",
      "outputs": [],
      "payable": false,
      "stateMutability": "nonpayable",
      "type": "function"
    },
    {
      "constant": true,
      "inputs": [],
      "name": "PERMIT_TYPEHASH",
      "outputs": [
        {
          "name": "",
          "type": "bytes32"
        }
      ],
      "payable": false,
      "stateMutability": "view",
      "type": "function"
    },
    {
      "constant": true,
      "inputs": [],
      "name": "decimals",
      "outputs": [
        {
          "name": "",
          "type": "uint8"
        }
      ],
      "payable": false,
      "stateMutability": "view",
      "type": "function"
    },
    {
      "constant": true,
      "inputs": [],
      "name": "DOMAIN_SEPARATOR",
      "outputs": [
        {
          "name": "",
          "type": "bytes32"
        }
      ],
      "payable": false,
      "stateMutability": "view",
      "type": "function"
    },
    {
      "constant": false,
      "inputs": [
        {
          "name": "_to",
          "type": "address"
        },
        {
          "name": "_addedValue",
          "type": "uint256"
        }
      ],
      "name": "increaseAllowance",
      "outputs": [
        {
          "name": "result",
          "type": "bool"
        }
      ],
      "payable": false,
      "stateMutability": "nonpayable",
      "type": "function"
    },
    {
      "constant": false,
      "inputs": [
        {
          "name": "_to",
          "type": "address"
        },
        {
          "name": "_value",
          "type": "uint256"
        },
        {
          "name": "_data",
          "type": "bytes"
        }
      ],
      "name": "transferAndCall",
      "outputs": [
        {
          "name": "",
          "type": "bool"
        }
      ],
      "payable": false,
      "stateMutability": "nonpayable",
      "type": "function"
    },
    {
      "constant": false,
      "inputs": [
        {
          "name": "_to",
          "type": "address"
        },
        {
          "name": "_amount",
          "type": "uint256"
        }
      ],
      "name": "mint",
      "outputs": [
        {
          "name": "",
          "type": "bool"
        }
      ],
      "payable": false,
      "stateMutability": "nonpayable",
      "type": "function"
    },
    {
      "constant": false,
      "inputs": [
        {
          "name": "_value",
          "type": "uint256"
        }
      ],
      "name": "burn",
      "outputs": [],
      "payable": false,
      "stateMutability": "nonpayable",
      "type": "function"
    },
    {
      "constant": true,
      "inputs": [
        {
          "name": "",
          "type": "address"
        }
      ],
      "name": "bridgePointers",
      "outputs": [
        {
          "name": "",
          "type": "address"
        }
      ],
      "payable": false,
      "stateMutability": "view",
      "type": "function"
    },
    {
      "constant": true,
      "inputs": [],
      "name": "version",
      "outputs": [
        {
          "name": "",
          "type": "string"
        }
      ],
      "payable": false,
      "stateMutability": "view",
      "type": "function"
    },
    {
      "constant": true,
      "inputs": [],
      "name": "blockRewardContract",
      "outputs": [
        {
          "name": "",
          "type": "address"
        }
      ],
      "payable": false,
      "stateMutability": "view",
      "type": "function"
    },
    {
      "constant": false,
      "inputs": [
        {
          "name": "_spender",
          "type": "address"
        },
        {
          "name": "_subtractedValue",
          "type": "uint256"
        }
      ],
      "name": "decreaseApproval",
      "outputs": [
        {
          "name": "",
          "type": "bool"
        }
      ],
      "payable": false,
      "stateMutability": "nonpayable",
      "type": "function"
    },
    {
      "constant": false,
      "inputs": [
        {
          "name": "_token",
          "type": "address"
        },
        {
          "name": "_to",
          "type": "address"
        }
      ],
      "name": "claimTokens",
      "outputs": [],
      "payable": false,
      "stateMutability": "nonpayable",
      "type": "function"
    },
    {
      "constant": true,
      "inputs": [
        {
          "name": "_owner",
          "type": "address"
        }
      ],
      "name": "balanceOf",
      "outputs": [
        {
          "name": "",
          "type": "uint256"
        }
      ],
      "payable": false,
      "stateMutability": "view",
      "type": "function"
    },
    {
      "constant": false,
      "inputs": [],
      "name": "renounceOwnership",
      "outputs": [],
      "payable": false,
      "stateMutability": "nonpayable",
      "type": "function"
    },
    {
      "constant": true,
      "inputs": [
        {
          "name": "_address",
          "type": "address"
        }
      ],
      "name": "isBridge",
      "outputs": [
        {
          "name": "",
          "type": "bool"
        }
      ],
      "payable": false,
      "stateMutability": "view",
      "type": "function"
    },
    {
      "constant": false,
      "inputs": [],
      "name": "finishMinting",
      "outputs": [
        {
          "name": "",
          "type": "bool"
        }
      ],
      "payable": false,
      "stateMutability": "nonpayable",
      "type": "function"
    },
    {
      "constant": true,
      "inputs": [
        {
          "name": "",
          "type": "address"
        }
      ],
      "name": "nonces",
      "outputs": [
        {
          "name": "",
          "type": "uint256"
        }
      ],
      "payable": false,
      "stateMutability": "view",
      "type": "function"
    },
    {
      "constant": true,
      "inputs": [],
      "name": "getTokenInterfacesVersion",
      "outputs": [
        {
          "name": "major",
          "type": "uint64"
        },
        {
          "name": "minor",
          "type": "uint64"
        },
        {
          "name": "patch",
          "type": "uint64"
        }
      ],
      "payable": false,
      "stateMutability": "pure",
      "type": "function"
    },
    {
      "constant": true,
      "inputs": [],
      "name": "owner",
      "outputs": [
        {
          "name": "",
          "type": "address"
        }
      ],
      "payable": false,
      "stateMutability": "view",
      "type": "function"
    },
    {
      "constant": false,
      "inputs": [
        {
          "name": "_holder",
          "type": "address"
        },
        {
          "name": "_spender",
          "type": "address"
        },
        {
          "name": "_nonce",
          "type": "uint256"
        },
        {
          "name": "_expiry",
          "type": "uint256"
        },
        {
          "name": "_allowed",
          "type": "bool"
        },
        {
          "name": "_v",
          "type": "uint8"
        },
        {
          "name": "_r",
          "type": "bytes32"
        },
        {
          "name": "_s",
          "type": "bytes32"
        }
      ],
      "name": "permit",
      "outputs": [],
      "payable": false,
      "stateMutability": "nonpayable",
      "type": "function"
    },
    {
      "constant": false,
      "inputs": [
        {
          "name": "_amount",
          "type": "uint256"
        }
      ],
      "name": "mintReward",
      "outputs": [],
      "payable": false,
      "stateMutability": "nonpayable",
      "type": "function"
    },
    {
      "constant": true,
      "inputs": [],
      "name": "symbol",
      "outputs": [
        {
          "name": "",
          "type": "string"
        }
      ],
      "payable": false,
      "stateMutability": "view",
      "type": "function"
    },
    {
      "constant": false,
      "inputs": [
        {
          "name": "_bridge",
          "type": "address"
        }
      ],
      "name": "addBridge",
      "outputs": [],
      "payable": false,
      "stateMutability": "nonpayable",
      "type": "function"
    },
    {
      "constant": true,
      "inputs": [],
      "name": "bridgeList",
      "outputs": [
        {
          "name": "",
          "type": "address[]"
        }
      ],
      "payable": false,
      "stateMutability": "view",
      "type": "function"
    },
    {
      "constant": false,
      "inputs": [
        {
          "name": "_stakingContract",
          "type": "address"
        }
      ],
      "name": "setStakingContract",
      "outputs": [],
      "payable": false,
      "stateMutability": "nonpayable",
      "type": "function"
    },
    {
      "constant": false,
      "inputs": [
        {
          "name": "spender",
          "type": "address"
        },
        {
          "name": "subtractedValue",
          "type": "uint256"
        }
      ],
      "name": "decreaseAllowance",
      "outputs": [
        {
          "name": "",
          "type": "bool"
        }
      ],
      "payable": false,
      "stateMutability": "nonpayable",
      "type": "function"
    },
    {
      "constant": false,
      "inputs": [
        {
          "name": "_to",
          "type": "address"
        },
        {
          "name": "_value",
          "type": "uint256"
        }
      ],
      "name": "transfer",
      "outputs": [
        {
          "name": "",
          "type": "bool"
        }
      ],
      "payable": false,
      "stateMutability": "nonpayable",
      "type": "function"
    },
    {
      "constant": false,
      "inputs": [
        {
          "name": "_staker",
          "type": "address"
        },
        {
          "name": "_amount",
          "type": "uint256"
        }
      ],
      "name": "stake",
      "outputs": [],
      "payable": false,
      "stateMutability": "nonpayable",
      "type": "function"
    },
    {
      "constant": false,
      "inputs": [
        {
          "name": "_to",
          "type": "address"
        },
        {
          "name": "_amount",
          "type": "uint256"
        }
      ],
      "name": "push",
      "outputs": [],
      "payable": false,
      "stateMutability": "nonpayable",
      "type": "function"
    },
    {
      "constant": false,
      "inputs": [
        {
          "name": "_from",
          "type": "address"
        },
        {
          "name": "_to",
          "type": "address"
        },
        {
          "name": "_amount",
          "type": "uint256"
        }
      ],
      "name": "move",
      "outputs": [],
      "payable": false,
      "stateMutability": "nonpayable",
      "type": "function"
    },
    {
      "constant": true,
      "inputs": [],
      "name": "F_ADDR",
      "outputs": [
        {
          "name": "",
          "type": "address"
        }
      ],
      "payable": false,
      "stateMutability": "view",
      "type": "function"
    },
    {
      "constant": true,
      "inputs": [],
      "name": "bridgeContract",
      "outputs": [
        {
          "name": "",
          "type": "address"
        }
      ],
      "payable": false,
      "stateMutability": "view",
      "type": "function"
    },
    {
      "constant": false,
      "inputs": [
        {
          "name": "_spender",
          "type": "address"
        },
        {
          "name": "_addedValue",
          "type": "uint256"
        }
      ],
      "name": "increaseApproval",
      "outputs": [
        {
          "name": "",
          "type": "bool"
        }
      ],
      "payable": false,
      "stateMutability": "nonpayable",
      "type": "function"
    },
    {
      "constant": true,
      "inputs": [
        {
          "name": "_owner",
          "type": "address"
        },
        {
          "name": "_spender",
          "type": "address"
        }
      ],
      "name": "allowance",
      "outputs": [
        {
          "name": "",
          "type": "uint256"
        }
      ],
      "payable": false,
      "stateMutability": "view",
      "type": "function"
    },
    {
      "constant": true,
      "inputs": [],
      "name": "stakingContract",
      "outputs": [
        {
          "name": "",
          "type": "address"
        }
      ],
      "payable": false,
      "stateMutability": "view",
      "type": "function"
    },
    {
      "constant": false,
      "inputs": [
        {
          "name": "_from",
          "type": "address"
        },
        {
          "name": "_amount",
          "type": "uint256"
        }
      ],
      "name": "pull",
      "outputs": [],
      "payable": false,
      "stateMutability": "nonpayable",
      "type": "function"
    },
    {
      "constant": false,
      "inputs": [
        {
          "name": "_newOwner",
          "type": "address"
        }
      ],
      "name": "transferOwnership",
      "outputs": [],
      "payable": false,
      "stateMutability": "nonpayable",
      "type": "function"
    },
    {
      "constant": true,
      "inputs": [],
      "name": "bridgeCount",
      "outputs": [
        {
          "name": "",
          "type": "uint256"
        }
      ],
      "payable": false,
      "stateMutability": "view",
      "type": "function"
    },
    {
      "constant": true,
      "inputs": [
        {
          "name": "",
          "type": "address"
        },
        {
          "name": "",
          "type": "address"
        }
      ],
      "name": "expirations",
      "outputs": [
        {
          "name": "",
          "type": "uint256"
        }
      ],
      "payable": false,
      "stateMutability": "view",
      "type": "function"
    },
    {
      "inputs": [
        {
          "name": "_name",
          "type": "string"
        },
        {
          "name": "_symbol",
          "type": "string"
        },
        {
          "name": "_decimals",
          "type": "uint8"
        },
        {
          "name": "_chainId",
          "type": "uint256"
        }
      ],
      "payable": false,
      "stateMutability": "nonpayable",
      "type": "constructor"
    },
    {
      "anonymous": false,
      "inputs": [
        {
          "indexed": true,
          "name": "bridge",
          "type": "address"
        }
      ],
      "name": "BridgeAdded",
      "type": "event"
    },
    {
      "anonymous": false,
      "inputs": [
        {
          "indexed": true,
          "name": "bridge",
          "type": "address"
        }
      ],
      "name": "BridgeRemoved",
      "type": "event"
    },
    {
      "anonymous": false,
      "inputs": [
        {
          "indexed": true,
          "name": "to",
          "type": "address"
        },
        {
          "indexed": false,
          "name": "amount",
          "type": "uint256"
        }
      ],
      "name": "Mint",
      "type": "event"
    },
    {
      "anonymous": false,
      "inputs": [],
      "name": "MintFinished",
      "type": "event"
    },
    {
      "anonymous": false,
      "inputs": [
        {
          "indexed": true,
          "name": "previousOwner",
          "type": "address"
        }
      ],
      "name": "OwnershipRenounced",
      "type": "event"
    },
    {
      "anonymous": false,
      "inputs": [
        {
          "indexed": true,
          "name": "previousOwner",
          "type": "address"
        },
        {
          "indexed": true,
          "name": "newOwner",
          "type": "address"
        }
      ],
      "name": "OwnershipTransferred",
      "type": "event"
    },
    {
      "anonymous": false,
      "inputs": [
        {
          "indexed": true,
          "name": "burner",
          "type": "address"
        },
        {
          "indexed": false,
          "name": "value",
          "type": "uint256"
        }
      ],
      "name": "Burn",
      "type": "event"
    },
    {
      "anonymous": false,
      "inputs": [
        {
          "indexed": true,
          "name": "from",
          "type": "address"
        },
        {
          "indexed": true,
          "name": "to",
          "type": "address"
        },
        {
          "indexed": false,
          "name": "value",
          "type": "uint256"
        },
        {
          "indexed": false,
          "name": "data",
          "type": "bytes"
        }
      ],
      "name": "Transfer",
      "type": "event"
    },
    {
      "anonymous": false,
      "inputs": [
        {
          "indexed": true,
          "name": "owner",
          "type": "address"
        },
        {
          "indexed": true,
          "name": "spender",
          "type": "address"
        },
        {
          "indexed": false,
          "name": "value",
          "type": "uint256"
        }
      ],
      "name": "Approval",
      "type": "event"
    },
    {
      "anonymous": false,
      "inputs": [
        {
          "indexed": true,
          "name": "from",
          "type": "address"
        },
        {
          "indexed": true,
          "name": "to",
          "type": "address"
        },
        {
          "indexed": false,
          "name": "value",
          "type": "uint256"
        }
      ],
      "name": "Transfer",
      "type": "event"
    },
    {
      "constant": false,
      "inputs": [
        {
          "name": "_blockRewardContract",
          "type": "address"
        }
      ],
      "name": "setBlockRewardContractMock",
      "outputs": [],
      "payable": false,
      "stateMutability": "nonpayable",
      "type": "function"
    },
    {
      "constant": false,
      "inputs": [
        {
          "name": "_stakingContract",
          "type": "address"
        }
      ],
      "name": "setStakingContractMock",
      "outputs": [],
      "payable": false,
      "stateMutability": "nonpayable",
      "type": "function"
    },
    {
      "constant": false,
      "inputs": [
        {
          "name": "_timestamp",
          "type": "uint256"
        }
      ],
      "name": "setNow",
      "outputs": [],
      "payable": false,
      "stateMutability": "nonpayable",
      "type": "function"
    }
  ],
  "bytecode": "0x60806040526006805460a060020a60ff02191690553480156200002157600080fd5b506040516200280138038062002801833981018060405281019080805182019291906020018051820192919060200180519060200190929190805190602001909291905050508383838383838383838383838383838282828260009080519060200190620000919291906200034f565b508151620000a79060019060208501906200034f565b506002805460ff90921660ff19909216919091179055505060068054600160a060020a03191633179055505050801515620000e157600080fd5b60405180807f454950373132446f6d61696e28737472696e67206e616d652c737472696e672081526020017f76657273696f6e2c75696e7432353620636861696e49642c616464726573732081526020017f766572696679696e67436f6e747261637429000000000000000000000000000081525060520190506040518091039020846040518082805190602001908083835b60208310620001955780518252601f19909201916020918201910162000174565b51815160209384036101000a600019018019909216911617905260408051929094018290038220828501855260018084527f3100000000000000000000000000000000000000000000000000000000000000928401928352945190965091945090928392508083835b602083106200021f5780518252601f199092019160209182019101620001fe565b51815160209384036101000a6000190180199092169116179052604080519290940182900382208282019890985281840196909652606081019690965250608085018690523060a0808701919091528151808703909101815260c09095019081905284519093849350850191508083835b60208310620002b15780518252601f19909201916020918201910162000290565b6001836020036101000a03801982511681845116808217855250505050505090500191505060405180910390206008816000191690555050505050600160a060020a03600b6000600160a060020a038016600160a060020a0316815260200190815260200160002060006101000a815481600160a060020a030219169083600160a060020a03160217905550505050505050505050505050620003f4565b828054600181600116156101000203166002900490600052602060002090601f016020900481019282601f106200039257805160ff1916838001178555620003c2565b82800160010185558215620003c2579182015b82811115620003c2578251825591602001919060010190620003a5565b50620003d0929150620003d4565b5090565b620003f191905b80821115620003d05760008155600101620003db565b90565b6123fd80620004046000396000f3006080604052600436106102425763ffffffff60e060020a60003504166304df017d811461024757806305d2035b1461026a57806306fdde0314610293578063095ea7b31461031d5780630b26cf661461034157806318160ddd1461036257806323b872dd1461038957806327a3e16b146103b357806330adf81f146103d4578063313ce567146103e95780633644e5151461041457806339509351146104295780634000aea01461044d57806340c10f191461047e57806342966c68146104a25780634bcb88bc146104ba57806354fd4d50146104f757806356b54bae1461050c578063661884631461052157806369ffa08a1461054557806370a082311461056c578063715018a61461058d578063726600ce146105a25780637d64bcb4146105c35780637ecebe00146105d8578063859ba28c146105f95780638da5cb5b1461063a5780638fcbaf0c1461064f57806391c0aabf1461068d57806395d89b41146106a55780639712fdf8146106ba5780639c55af4c146106db5780639da38e2f146106fc5780639dd373b914610761578063a457c2d714610782578063a6085128146107a6578063a9059cbb146107c7578063adc9772e146107eb578063b753a98c1461080f578063bb35783b14610833578063c794c7691461085d578063cd59658314610872578063d73dd62314610887578063dd62ed3e146108ab578063e380ae96146108d2578063ee99205c146108ea578063f2d5d56b146108ff578063f2fde38b14610923578063fbb2a53f14610944578063ff9e884d14610959575b600080fd5b34801561025357600080fd5b50610268600160a060020a0360043516610980565b005b34801561027657600080fd5b5061027f610aec565b604080519115158252519081900360200190f35b34801561029f57600080fd5b506102a8610b0d565b6040805160208082528351818301528351919283929083019185019080838360005b838110156102e25781810151838201526020016102ca565b50505050905090810190601f16801561030f5780820380516001836020036101000a031916815260200191505b509250505060405180910390f35b34801561032957600080fd5b5061027f600160a060020a0360043516602435610b9b565b34801561034d57600080fd5b50610268600160a060020a0360043516610242565b34801561036e57600080fd5b50610377610bde565b60408051918252519081900360200190f35b34801561039557600080fd5b5061027f600160a060020a0360043581169060243516604435610be4565b3480156103bf57600080fd5b50610268600160a060020a0360043516610c30565b3480156103e057600080fd5b50610377610c8a565b3480156103f557600080fd5b506103fe610cae565b6040805160ff9092168252519081900360200190f35b34801561042057600080fd5b50610377610cb7565b34801561043557600080fd5b5061027f600160a060020a0360043516602435610cbd565b34801561045957600080fd5b5061027f60048035600160a060020a0316906024803591604435918201910135610d23565b34801561048a57600080fd5b5061027f600160a060020a0360043516602435610e34565b3480156104ae57600080fd5b50610268600435610f3f565b3480156104c657600080fd5b506104db600160a060020a0360043516610f4c565b60408051600160a060020a039092168252519081900360200190f35b34801561050357600080fd5b506102a8610f67565b34801561051857600080fd5b506104db610f9e565b34801561052d57600080fd5b5061027f600160a060020a0360043516602435610fad565b34801561055157600080fd5b50610268600160a060020a036004358116906024351661108a565b34801561057857600080fd5b50610377600160a060020a03600435166110af565b34801561059957600080fd5b506102686110ca565b3480156105ae57600080fd5b5061027f600160a060020a03600435166110e1565b3480156105cf57600080fd5b5061027f611118565b3480156105e457600080fd5b50610377600160a060020a036004351661111f565b34801561060557600080fd5b5061060e611131565b6040805167ffffffffffffffff9485168152928416602084015292168183015290519081900360600190f35b34801561064657600080fd5b506104db61113c565b34801561065b57600080fd5b50610268600160a060020a0360043581169060243516604435606435608435151560ff60a4351660c43560e43561114b565b34801561069957600080fd5b5061026860043561149f565b3480156106b157600080fd5b506102a8611599565b3480156106c657600080fd5b50610268600160a060020a03600435166115f3565b3480156106e757600080fd5b50610268600160a060020a0360043516610c5b565b34801561070857600080fd5b50610711611713565b60408051602080825283518183015283519192839290830191858101910280838360005b8381101561074d578181015183820152602001610735565b505050509050019250505060405180910390f35b34801561076d57600080fd5b50610268600160a060020a03600435166117e8565b34801561078e57600080fd5b5061027f600160a060020a0360043516602435611855565b3480156107b257600080fd5b50610268600160a060020a0360043516611826565b3480156107d357600080fd5b5061027f600160a060020a0360043516602435611868565b3480156107f757600080fd5b50610268600160a060020a03600435166024356118ab565b34801561081b57600080fd5b50610268600160a060020a0360043516602435611974565b34801561083f57600080fd5b50610268600160a060020a0360043581169060243516604435611984565b34801561086957600080fd5b506104db611995565b34801561087e57600080fd5b506104db611118565b34801561089357600080fd5b5061027f600160a060020a03600435166024356119a0565b3480156108b757600080fd5b50610377600160a060020a0360043581169060243516611a27565b3480156108de57600080fd5b50610268600435611a52565b3480156108f657600080fd5b506104db611a57565b34801561090b57600080fd5b50610268600160a060020a0360043516602435611a66565b34801561092f57600080fd5b50610268600160a060020a0360043516611a71565b34801561095057600080fd5b50610377611a91565b34801561096557600080fd5b50610377600160a060020a0360043581169060243516611a97565b60065460009081908190600160a060020a0316331461099e57600080fd5b6109a7846110e1565b15156109b257600080fd5b505050600160a060020a038082166000908152600b60205260408120549082905260008051602061237283398151915254908216919081168015156109f657600080fd5b600160a060020a0381811690851614610a5157600160a060020a038082166000908152600b6020526040902054919250908116908114801590610a415750600160a060020a03811615155b1515610a4c57600080fd5b6109f6565b600160a060020a038083166000908152600b6020526040808220805484881673ffffffffffffffffffffffffffffffffffffffff19918216179091559287168252902080549091169055600c54610aaf90600163ffffffff611ab416565b600c55604051600160a060020a038516907f5d9d5034656cb3ebfb0655057cd7f9b4077a9b42ff42ce223cbac5bc586d212690600090a250505050565b60065474010000000000000000000000000000000000000000900460ff1681565b6000805460408051602060026001851615610100026000190190941693909304601f81018490048402820184019092528181529291830182828015610b935780601f10610b6857610100808354040283529160200191610b93565b820191906000526020600020905b815481529060010190602001808311610b7657829003601f168201915b505050505081565b6000610ba78383611ac6565b9050600019821415610bd857336000908152600a60209081526040808320600160a060020a03871684529091528120555b92915050565b60045490565b600d54600090600160a060020a0384811691161415610c0257600080fd5b600e54600160a060020a0384811691161415610c1d57600080fd5b610c28848484611b1a565b949350505050565b600654600160a060020a03163314610c4757600080fd5b610c5081611ce9565b1515610c5b57600080fd5b600d805473ffffffffffffffffffffffffffffffffffffffff1916600160a060020a0392909216919091179055565b7fea2aa0a1be11a07ed86d755c93467f4f82362b452371d1ba94d1715123511acb81565b60025460ff1681565b60085481565b6000610cc98383611cf1565b336000908152600560209081526040808320600160a060020a03881684529091529020549091506000191415610bd857336000908152600a60209081526040808320600160a060020a038716845290915281205592915050565b600084600160a060020a03811615801590610d475750600160a060020a0381163014155b1515610d5257600080fd5b610d5c8686611cfd565b1515610d6757600080fd5b85600160a060020a031633600160a060020a03167fe19260aff97b920c7df27010903aeb9c8d2be5d310a2c67824cf3f15396e4c16878787604051808481526020018060200182810382528484828181526020019250808284376040519201829003965090945050505050a3610ddc86611ce9565b15610e2857610e1d33878787878080601f01602080910402602001604051908101604052809392919081815260200183838082843750611d09945050505050565b1515610e2857600080fd5b50600195945050505050565b600654600090600160a060020a03163314610e4e57600080fd5b60065474010000000000000000000000000000000000000000900460ff1615610e7657600080fd5b600454610e89908363ffffffff611e8616565b600455600160a060020a038316600090815260036020526040902054610eb5908363ffffffff611e8616565b600160a060020a038416600081815260036020908152604091829020939093558051858152905191927f0f6798a560793a54c3bcfe86a93cde1e73087d944c0ea20544137d412139688592918290030190a2604080518381529051600160a060020a038516916000916000805160206123928339815191529181900360200190a350600192915050565b610f493382611e93565b50565b600b60205260009081526040902054600160a060020a031681565b60408051808201909152600181527f3100000000000000000000000000000000000000000000000000000000000000602082015281565b600d54600160a060020a031681565b336000908152600560209081526040808320600160a060020a038616845290915281205480831061100157336000908152600560209081526040808320600160a060020a0388168452909152812055611036565b611011818463ffffffff611ab416565b336000908152600560209081526040808320600160a060020a03891684529091529020555b336000818152600560209081526040808320600160a060020a0389168085529083529281902054815190815290519293926000805160206123b2833981519152929181900390910190a35060019392505050565b600654600160a060020a031633146110a157600080fd5b6110ab8282611f82565b5050565b600160a060020a031660009081526003602052604090205490565b600654600160a060020a0316331461024257600080fd5b6000600160a060020a0382811614801590610bd8575050600160a060020a039081166000908152600b602052604090205416151590565b6000806000fd5b60096020526000908152604090205481565b600260046000909192565b600654600160a060020a031681565b600080600160a060020a038a16151561116357600080fd5b600160a060020a038916151561117857600080fd5b86158061118c575086611189611fc0565b11155b151561119757600080fd5b8460ff16601b14806111ac57508460ff16601c145b15156111b757600080fd5b7f7fffffffffffffffffffffffffffffff5d576e7357a4501ddfe92f46681b20a08311156111e457600080fd5b600854604080517fea2aa0a1be11a07ed86d755c93467f4f82362b452371d1ba94d1715123511acb602080830191909152600160a060020a03808f16838501528d166060830152608082018c905260a082018b905289151560c0808401919091528351808403909101815260e090920192839052815191929182918401908083835b602083106112855780518252601f199092019160209182019101611266565b51815160209384036101000a6000190180199092169116179052604080519290940182900382207f190100000000000000000000000000000000000000000000000000000000000083830152602283019790975260428083019790975283518083039097018752606290910192839052855192945084935085019190508083835b602083106113255780518252601f199092019160209182019101611306565b51815160209384036101000a600019018019909216911617905260408051929094018290038220600080845283830180875282905260ff8d1684870152606084018c9052608084018b905294519098506001965060a080840196509194601f19820194509281900390910191865af11580156113a5573d6000803e3d6000fd5b50505060206040510351600160a060020a03168a600160a060020a03161415156113ce57600080fd5b600160a060020a038a16600090815260096020526040902080546001810190915588146113fa57600080fd5b8561140657600061140a565b6000195b600160a060020a03808c166000908152600560209081526040808320938e16835292905220819055905085611440576000611442565b865b600160a060020a03808c166000818152600a60209081526040808320948f16808452948252918290209490945580518581529051929391926000805160206123b2833981519152929181900390910190a350505050505050505050565b600d54600090600160a060020a031633146114b957600080fd5b8115156114c5576110ab565b50600d54600454600160a060020a03909116906114e8908363ffffffff611e8616565b600455600160a060020a038116600090815260036020526040902054611514908363ffffffff611e8616565b600160a060020a038216600081815260036020908152604091829020939093558051858152905191927f0f6798a560793a54c3bcfe86a93cde1e73087d944c0ea20544137d412139688592918290030190a2604080518381529051600160a060020a038316916000916000805160206123928339815191529181900360200190a35050565b60018054604080516020600284861615610100026000190190941693909304601f81018490048402820184019092528181529291830182828015610b935780601f10610b6857610100808354040283529160200191610b93565b600654600090600160a060020a0316331461160d57600080fd5b600c5460321161161c57600080fd5b61162582611ce9565b151561163057600080fd5b611639826110e1565b1561164357600080fd5b50600160a060020a036000819052600b602052600080516020612372833981519152541680151561167357600080fd5b600b602052600080516020612372833981519152805473ffffffffffffffffffffffffffffffffffffffff19908116600160a060020a038581169182179093556000908152604090208054909116918316919091179055600c546116d8906001611e86565b600c55604051600160a060020a038316907f3cda433c5679ae4c6a5dea50840e222a42cba3695e4663de4366be899348422190600090a25050565b606080600080600c54604051908082528060200260200182016040528015611745578160200160208202803883390190505b50600160a060020a036000818152600b60205260008051602061237283398151915254929550935016905080151561177c57600080fd5b600160a060020a03818116146117e05780838381518110151561179b57fe5b600160a060020a0392831660209182029092018101919091529181166000908152600b90925260409091205460019290920191168015156117db57600080fd5b61177c565b509092915050565b600654600160a060020a031633146117ff57600080fd5b61180881611ce9565b151561181357600080fd5b61181c816110af565b1561182657600080fd5b600e805473ffffffffffffffffffffffffffffffffffffffff1916600160a060020a0392909216919091179055565b60006118618383610fad565b9392505050565b600d54600090600160a060020a038481169116141561188657600080fd5b600e54600160a060020a03848116911614156118a157600080fd5b6118618383611fdc565b600e54600160a060020a031633146118c257600080fd5b600160a060020a0382166000908152600360205260409020546118eb908263ffffffff611ab416565b600160a060020a0380841660009081526003602052604080822093909355600e5490911681522054611923908263ffffffff611e8616565b600e8054600160a060020a0390811660009081526003602090815260409182902094909455915482518581529251908216939186169260008051602061239283398151915292908290030190a35050565b61197f338383610be4565b505050565b61198f838383610be4565b50505050565b600160a060020a0381565b336000908152600560209081526040808320600160a060020a03861684529091528120546119d4908363ffffffff611e8616565b336000818152600560209081526040808320600160a060020a0389168085529083529281902085905580519485525191936000805160206123b2833981519152929081900390910190a350600192915050565b600160a060020a03918216600090815260056020908152604080832093909416825291909152205490565b600f55565b600e54600160a060020a031681565b61197f823383610be4565b600654600160a060020a03163314611a8857600080fd5b610f4981612007565b600c5481565b600a60209081526000928352604080842090915290825290205481565b600082821115611ac057fe5b50900390565b336000818152600560209081526040808320600160a060020a038716808552908352818420869055815186815291519394909390926000805160206123b2833981519152928290030190a350600192915050565b600080600160a060020a0385161515611b3257600080fd5b600160a060020a0384161515611b4757600080fd5b600160a060020a038516600090815260036020526040902054611b70908463ffffffff611ab416565b600160a060020a038087166000908152600360205260408082209390935590861681522054611ba5908463ffffffff611e8616565b600160a060020a03808616600081815260036020908152604091829020949094558051878152905191939289169260008051602061239283398151915292918290030190a3600160a060020a0385163314611cd357611c048533611a27565b90506000198114611c6e57611c1f818463ffffffff611ab416565b600160a060020a0386166000818152600560209081526040808320338085529083529281902085905580519485525191936000805160206123b2833981519152929081900390910190a3611cd3565b600160a060020a0385166000908152600a602090815260408083203384529091529020541580611cc85750611ca1611fc0565b600160a060020a0386166000908152600a6020908152604080832033845290915290205410155b1515611cd357600080fd5b611cde858585612085565b506001949350505050565b6000903b1190565b600061186183836119a0565b600061186183836120bc565b600083600160a060020a031663a4c0ed3660e060020a028685856040516024018084600160a060020a0316600160a060020a0316815260200183815260200180602001828103825283818151815260200191508051906020019080838360005b83811015611d81578181015183820152602001611d69565b50505050905090810190601f168015611dae5780820380516001836020036101000a031916815260200191505b5060408051601f198184030181529181526020820180517bffffffffffffffffffffffffffffffffffffffffffffffffffffffff167fffffffff00000000000000000000000000000000000000000000000000000000909916989098178852518151919790965086955093509150819050838360005b83811015611e3c578181015183820152602001611e24565b50505050905090810190601f168015611e695780820380516001836020036101000a031916815260200191505b509150506000604051808303816000865af1979650505050505050565b81810182811015610bd857fe5b600160a060020a038216600090815260036020526040902054811115611eb857600080fd5b600160a060020a038216600090815260036020526040902054611ee1908263ffffffff611ab416565b600160a060020a038316600090815260036020526040902055600454611f0d908263ffffffff611ab416565b600455604080518281529051600160a060020a038416917fcc16f5dbb4873280815c1ee09dbd06736cffcc184412cf7a71a0fdb75d397ca5919081900360200190a2604080518281529051600091600160a060020a038516916000805160206123928339815191529181900360200190a35050565b80600160a060020a0381161515611f9857600080fd5b600160a060020a0383161515611fb657611fb18261218b565b61197f565b61197f8383612197565b6000600f5460001415611fd35742611fd7565b600f545b905090565b6000611fe88383611cfd565b1515611ff357600080fd5b611ffe338484612085565b50600192915050565b600160a060020a038116151561201c57600080fd5b600654604051600160a060020a038084169216907f8be0079c531659141344cd1fd0a4f28419497f9722a3daafe3b4186f6b6457e090600090a36006805473ffffffffffffffffffffffffffffffffffffffff1916600160a060020a0392909216919091179055565b61208e826110e1565b1561197f576040805160008152602081019091526120b190849084908490611d09565b151561197f57600080fd5b336000908152600360205260408120548211156120d857600080fd5b600160a060020a03831615156120ed57600080fd5b3360009081526003602052604090205461210d908363ffffffff611ab416565b3360009081526003602052604080822092909255600160a060020a0385168152205461213f908363ffffffff611e8616565b600160a060020a0384166000818152600360209081526040918290209390935580518581529051919233926000805160206123928339815191529281900390910190a350600192915050565b30316110ab8282612244565b604080517f70a0823100000000000000000000000000000000000000000000000000000000815230600482015290518391600091600160a060020a038416916370a0823191602480830192602092919082900301818787803b1580156121fc57600080fd5b505af1158015612210573d6000803e3d6000fd5b505050506040513d602081101561222657600080fd5b5051905061198f600160a060020a038516848363ffffffff6122ac16565b604051600160a060020a0383169082156108fc029083906000818181858888f1935050505015156110ab578082612279612341565b600160a060020a039091168152604051908190036020019082f0801580156122a5573d6000803e3d6000fd5b5050505050565b82600160a060020a031663a9059cbb83836040518363ffffffff1660e060020a0281526004018083600160a060020a0316600160a060020a0316815260200182815260200192505050600060405180830381600087803b15801561230f57600080fd5b505af1158015612323573d6000803e3d6000fd5b505050503d1561197f5760206000803e600051151561197f57600080fd5b604051602180612351833901905600608060405260405160208060218339810160405251600160a060020a038116ff00bd0a91c9f9d084bad1a56f4df6c4c08bf6a3c9ff457e1c2f0ccbc02ffda9d3b1ddf252ad1be2c89b69c2b068fc378daa952ba7f163c4a11628f55a4df523b3ef8c5be1e5ebec7d5bd14f71427d1e84f3dd0314c0f7b2291e5b200ac8c7c3b925a165627a7a723058201efb30b8559226db5bc6b8f0a660fcdbfa5a2a37de94ccd63d060ff202a2fd8a0029",
  "source": "pragma solidity 0.4.24;\n\nimport \"../ERC677BridgeTokenRewardable.sol\";\n\ncontract ERC677BridgeTokenRewardableMock is ERC677BridgeTokenRewardable {\n    uint256 private _blockTimestamp;\n\n    constructor(string _name, string _symbol, uint8 _decimals, uint256 _chainId)\n        public\n        ERC677BridgeTokenRewardable(_name, _symbol, _decimals, _chainId)\n    {\n        // solhint-disable-previous-line no-empty-blocks\n    }\n\n    function setBlockRewardContractMock(address _blockRewardContract) public {\n        blockRewardContract = _blockRewardContract;\n    }\n\n    function setStakingContractMock(address _stakingContract) public {\n        stakingContract = _stakingContract;\n    }\n\n    function setNow(uint256 _timestamp) public {\n        _blockTimestamp = _timestamp;\n    }\n\n    function _now() internal view returns (uint256) {\n        return _blockTimestamp != 0 ? _blockTimestamp : now;\n    }\n\n}\n",
  "sourcePath": "/home/analiser/bridge-frontend/contracts/mocks/ERC677BridgeTokenRewardableMock.sol",
  "compiler": {
    "name": "solc",
    "version": "0.4.24+commit.e67f0147.Emscripten.clang"
  },
  "schemaVersion": "3.4.3",
  "updatedAt": "2021-09-03T05:10:27.480Z",
  "devdoc": {
    "methods": {
      "addBridge(address)": {
        "details": "Adds one more bridge contract into the list",
        "params": {
          "_bridge": "bridge contract address"
        }
      },
      "allowance(address,address)": {
        "details": "Function to check the amount of tokens that an owner allowed to a spender.",
        "params": {
          "_owner": "address The address which owns the funds.",
          "_spender": "address The address which will spend the funds."
        },
        "return": "A uint256 specifying the amount of tokens still available for the spender."
      },
      "approve(address,uint256)": {
        "details": "Approve the passed address to spend the specified amount of tokens on behalf of msg.sender.",
        "params": {
          "_to": "The address which will spend the funds.",
          "_value": "The amount of tokens to be spent."
        }
      },
      "balanceOf(address)": {
        "details": "Gets the balance of the specified address.",
        "params": {
          "_owner": "The address to query the the balance of."
        },
        "return": "An uint256 representing the amount owned by the passed address."
      },
      "bridgeContract()": {
        "details": "Removes unused getter from ERC677BridgeToken contract"
      },
      "bridgeList()": {
        "details": "Returns all recorded bridge contract addresses",
        "return": "address[] bridge contract addresses"
      },
      "burn(uint256)": {
        "details": "Burns a specific amount of tokens.",
        "params": {
          "_value": "The amount of token to be burned."
        }
      },
      "claimTokens(address,address)": {
        "details": "Withdraws the erc20 tokens or native coins from this contract.",
        "params": {
          "_to": "address of the tokens/coins receiver.",
          "_token": "address of the claimed token or address(0) for native coins."
        }
      },
      "decreaseApproval(address,uint256)": {
        "details": "Decrease the amount of tokens that an owner allowed to a spender. approve should be called when allowed[_spender] == 0. To decrement allowed value is better to use this function to avoid 2 calls (and wait until the first transaction is mined) From MonolithDAO Token.sol",
        "params": {
          "_spender": "The address which will spend the funds.",
          "_subtractedValue": "The amount of tokens to decrease the allowance by."
        }
      },
      "increaseAllowance(address,uint256)": {
        "details": "Atomically increases the allowance granted to spender by the caller.",
        "params": {
          "_addedValue": "The amount of tokens to increase the allowance by.",
          "_to": "The address which will spend the funds."
        }
      },
      "increaseApproval(address,uint256)": {
        "details": "Increase the amount of tokens that an owner allowed to a spender. approve should be called when allowed[_spender] == 0. To increment allowed value is better to use this function to avoid 2 calls (and wait until the first transaction is mined) From MonolithDAO Token.sol",
        "params": {
          "_addedValue": "The amount of tokens to increase the allowance by.",
          "_spender": "The address which will spend the funds."
        }
      },
      "isBridge(address)": {
        "details": "Checks if given address is included into bridge contracts list",
        "params": {
          "_address": "bridge contract address"
        },
        "return": "bool true, if given address is a known bridge contract "
      },
      "mint(address,uint256)": {
        "details": "Function to mint tokens",
        "params": {
          "_amount": "The amount of tokens to mint.",
          "_to": "The address that will receive the minted tokens."
        },
        "return": "A boolean that indicates if the operation was successful."
      },
      "move(address,address,uint256)": {
        "details": "An alias for `transferFrom` function.",
        "params": {
          "_amount": "The value to transfer.",
          "_from": "The address of the sender.",
          "_to": "The address of the recipient."
        }
      },
      "permit(address,address,uint256,uint256,bool,uint8,bytes32,bytes32)": {
        "details": "Allows to spend holder's unlimited amount by the specified spender. The function can be called by anyone, but requires having allowance parameters signed by the holder according to EIP712.",
        "params": {
          "_allowed": "True to enable unlimited allowance for the spender by the holder. False to disable.",
          "_expiry": "The allowance expiration date (unix timestamp in UTC). Can be zero for no expiration. Forced to zero if `_allowed` is `false`. Note that timestamps are not precise, malicious miner/validator can manipulate them to some extend. Assume that there can be a 900 seconds time delta between the desired timestamp and the actual expiration.",
          "_holder": "The holder's address.",
          "_nonce": "The nonce taken from `nonces(_holder)` public getter.",
          "_r": "The first 32 bytes of signature (ECDSA component).",
          "_s": "The second 32 bytes of signature (ECDSA component).",
          "_spender": "The spender's address.",
          "_v": "A final byte of signature (ECDSA component)."
        }
      },
      "pull(address,uint256)": {
        "details": "Makes a request to transfer the specified amount from the specified address to the caller's address.",
        "params": {
          "_amount": "The value to transfer.",
          "_from": "The address of the holder."
        }
      },
      "push(address,uint256)": {
        "details": "An alias for `transfer` function.",
        "params": {
          "_amount": "The value to transfer.",
          "_to": "The address of the recipient."
        }
      },
      "removeBridge(address)": {
        "details": "Removes one existing bridge contract from the list",
        "params": {
          "_bridge": "bridge contract address"
        }
      },
      "setBlockRewardContract(address)": {
        "details": "Updates the address of the used block reward contract. Only the token owner can call this method.  Even though this function is inteded only for the initialization purpose, it is still possible to change the already used block reward contract. In this case users of the old contract won't lose their accumulated rewards, they can proceed with the withdrawal by calling the old block reward contract directly.",
        "params": {
          "_blockRewardContract": "address of the new block reward contract."
        }
      },
      "setBridgeContract(address)": {
        "details": "Removes unused function from ERC677BridgeToken contract"
      },
      "setStakingContract(address)": {
        "details": "Updates the address of the used staking contract. Only the token owner can call this method.  Even though this function is inteded only for the initialization purpose, it is still possible to change the already used staking contract. In this case users of the old staking contract won't lose their tokens, they can proceed with the withdrawal by calling the old staking contract directly.",
        "params": {
          "_stakingContract": "address of the new staking contract."
        }
      },
      "totalSupply()": {
        "details": "Total number of tokens in existence"
      },
      "transferOwnership(address)": {
        "details": "Allows the current owner to transfer control of the contract to a newOwner.",
        "params": {
          "_newOwner": "The address to transfer ownership to."
        }
      }
    }
  },
  "userdoc": {
    "methods": {}
  }
}