{
  "contractName": "ForeignAMBWithGasTokenMock",
  "abi": [
    {
      "constant": true,
      "inputs": [],
      "name": "transactionHash",
      "outputs": [
        {
          "name": "",
          "type": "bytes32"
        }
      ],
      "payable": false,
      "stateMutability": "view",
      "type": "function"
    },
    {
      "constant": true,
      "inputs": [],
      "name": "sourceChainId",
      "outputs": [
        {
          "name": "",
          "type": "uint256"
        }
      ],
      "payable": false,
      "stateMutability": "view",
      "type": "function"
    },
    {
      "constant": false,
      "inputs": [
        {
          "name": "_contract",
          "type": "address"
        },
        {
          "name": "_data",
          "type": "bytes"
        },
        {
          "name": "_gas",
          "type": "uint256"
        },
        {
          "name": "_dataType",
          "type": "uint256"
        }
      ],
      "name": "_sendMessage",
      "outputs": [
        {
          "name": "",
          "type": "bytes32"
        }
      ],
      "payable": false,
      "stateMutability": "nonpayable",
      "type": "function"
    },
    {
      "constant": true,
      "inputs": [
        {
          "name": "_txHash",
          "type": "bytes32"
        }
      ],
      "name": "relayedMessages",
      "outputs": [
        {
          "name": "",
          "type": "bool"
        }
      ],
      "payable": false,
      "stateMutability": "view",
      "type": "function"
    },
    {
      "constant": false,
      "inputs": [
        {
          "name": "_targetMintValue",
          "type": "uint256"
        }
      ],
      "name": "setGasTokenTargetMintValue",
      "outputs": [],
      "payable": false,
      "stateMutability": "nonpayable",
      "type": "function"
    },
    {
      "constant": false,
      "inputs": [
        {
          "name": "_data",
          "type": "bytes"
        },
        {
          "name": "_signatures",
          "type": "bytes"
        }
      ],
      "name": "safeExecuteSignaturesWithAutoGasLimit",
      "outputs": [],
      "payable": false,
      "stateMutability": "nonpayable",
      "type": "function"
    },
    {
      "constant": false,
      "inputs": [
        {
          "name": "_sourceChainId",
          "type": "uint256"
        },
        {
          "name": "_destinationChainId",
          "type": "uint256"
        },
        {
          "name": "_validatorContract",
          "type": "address"
        },
        {
          "name": "_maxGasPerTx",
          "type": "uint256"
        },
        {
          "name": "_gasPrice",
          "type": "uint256"
        },
        {
          "name": "_requiredBlockConfirmations",
          "type": "uint256"
        },
        {
          "name": "_owner",
          "type": "address"
        }
      ],
      "name": "initialize",
      "outputs": [
        {
          "name": "",
          "type": "bool"
        }
      ],
      "payable": false,
      "stateMutability": "nonpayable",
      "type": "function"
    },
    {
      "constant": true,
      "inputs": [],
      "name": "isInitialized",
      "outputs": [
        {
          "name": "",
          "type": "bool"
        }
      ],
      "payable": false,
      "stateMutability": "view",
      "type": "function"
    },
    {
      "constant": true,
      "inputs": [],
      "name": "requiredBlockConfirmations",
      "outputs": [
        {
          "name": "",
          "type": "uint256"
        }
      ],
      "payable": false,
      "stateMutability": "view",
      "type": "function"
    },
    {
      "constant": false,
      "inputs": [
        {
          "name": "_data",
          "type": "bytes"
        },
        {
          "name": "_signatures",
          "type": "bytes"
        }
      ],
      "name": "executeSignatures",
      "outputs": [],
      "payable": false,
      "stateMutability": "nonpayable",
      "type": "function"
    },
    {
      "constant": true,
      "inputs": [
        {
          "name": "_data",
          "type": "bytes"
        }
      ],
      "name": "getMinimumGasUsage",
      "outputs": [
        {
          "name": "gas",
          "type": "uint256"
        }
      ],
      "payable": false,
      "stateMutability": "pure",
      "type": "function"
    },
    {
      "constant": true,
      "inputs": [
        {
          "name": "_messageId",
          "type": "bytes32"
        }
      ],
      "name": "failedMessageReceiver",
      "outputs": [
        {
          "name": "",
          "type": "address"
        }
      ],
      "payable": false,
      "stateMutability": "view",
      "type": "function"
    },
    {
      "constant": true,
      "inputs": [],
      "name": "getBridgeMode",
      "outputs": [
        {
          "name": "_data",
          "type": "bytes4"
        }
      ],
      "payable": false,
      "stateMutability": "pure",
      "type": "function"
    },
    {
      "constant": false,
      "inputs": [
        {
          "name": "_sourceChainId",
          "type": "uint256"
        },
        {
          "name": "_destinationChainId",
          "type": "uint256"
        }
      ],
      "name": "setChainIds",
      "outputs": [],
      "payable": false,
      "stateMutability": "nonpayable",
      "type": "function"
    },
    {
      "constant": true,
      "inputs": [
        {
          "name": "_messageId",
          "type": "bytes32"
        }
      ],
      "name": "failedMessageSender",
      "outputs": [
        {
          "name": "",
          "type": "address"
        }
      ],
      "payable": false,
      "stateMutability": "view",
      "type": "function"
    },
    {
      "constant": true,
      "inputs": [],
      "name": "allowReentrantRequests",
      "outputs": [
        {
          "name": "",
          "type": "bool"
        }
      ],
      "payable": false,
      "stateMutability": "view",
      "type": "function"
    },
    {
      "constant": true,
      "inputs": [],
      "name": "messageId",
      "outputs": [
        {
          "name": "id",
          "type": "bytes32"
        }
      ],
      "payable": false,
      "stateMutability": "view",
      "type": "function"
    },
    {
      "constant": true,
      "inputs": [],
      "name": "gasTokenReceiver",
      "outputs": [
        {
          "name": "",
          "type": "address"
        }
      ],
      "payable": false,
      "stateMutability": "view",
      "type": "function"
    },
    {
      "constant": false,
      "inputs": [
        {
          "name": "_maxGasPerTx",
          "type": "uint256"
        }
      ],
      "name": "setMaxGasPerTx",
      "outputs": [],
      "payable": false,
      "stateMutability": "nonpayable",
      "type": "function"
    },
    {
      "constant": true,
      "inputs": [],
      "name": "requiredSignatures",
      "outputs": [
        {
          "name": "",
          "type": "uint256"
        }
      ],
      "payable": false,
      "stateMutability": "view",
      "type": "function"
    },
    {
      "constant": true,
      "inputs": [],
      "name": "owner",
      "outputs": [
        {
          "name": "",
          "type": "address"
        }
      ],
      "payable": false,
      "stateMutability": "view",
      "type": "function"
    },
    {
      "constant": true,
      "inputs": [],
      "name": "validatorContract",
      "outputs": [
        {
          "name": "",
          "type": "address"
        }
      ],
      "payable": false,
      "stateMutability": "view",
      "type": "function"
    },
    {
      "constant": true,
      "inputs": [],
      "name": "deployedAtBlock",
      "outputs": [
        {
          "name": "",
          "type": "uint256"
        }
      ],
      "payable": false,
      "stateMutability": "view",
      "type": "function"
    },
    {
      "constant": true,
      "inputs": [],
      "name": "getBridgeInterfacesVersion",
      "outputs": [
        {
          "name": "major",
          "type": "uint64"
        },
        {
          "name": "minor",
          "type": "uint64"
        },
        {
          "name": "patch",
          "type": "uint64"
        }
      ],
      "payable": false,
      "stateMutability": "pure",
      "type": "function"
    },
    {
      "constant": true,
      "inputs": [],
      "name": "messageSourceChainId",
      "outputs": [
        {
          "name": "id",
          "type": "uint256"
        }
      ],
      "payable": false,
      "stateMutability": "view",
      "type": "function"
    },
    {
      "constant": false,
      "inputs": [
        {
          "name": "_receiver",
          "type": "address"
        }
      ],
      "name": "setGasTokenReceiver",
      "outputs": [],
      "payable": false,
      "stateMutability": "nonpayable",
      "type": "function"
    },
    {
      "constant": false,
      "inputs": [
        {
          "name": "_blockConfirmations",
          "type": "uint256"
        }
      ],
      "name": "setRequiredBlockConfirmations",
      "outputs": [],
      "payable": false,
      "stateMutability": "nonpayable",
      "type": "function"
    },
    {
      "constant": true,
      "inputs": [],
      "name": "destinationChainId",
      "outputs": [
        {
          "name": "",
          "type": "uint256"
        }
      ],
      "payable": false,
      "stateMutability": "view",
      "type": "function"
    },
    {
      "constant": false,
      "inputs": [
        {
          "name": "_gasPrice",
          "type": "uint256"
        }
      ],
      "name": "setGasPrice",
      "outputs": [],
      "payable": false,
      "stateMutability": "nonpayable",
      "type": "function"
    },
    {
      "constant": false,
      "inputs": [
        {
          "name": "_enable",
          "type": "bool"
        }
      ],
      "name": "setAllowReentrantRequests",
      "outputs": [],
      "payable": false,
      "stateMutability": "nonpayable",
      "type": "function"
    },
    {
      "constant": true,
      "inputs": [
        {
          "name": "_messageId",
          "type": "bytes32"
        }
      ],
      "name": "messageCallStatus",
      "outputs": [
        {
          "name": "",
          "type": "bool"
        }
      ],
      "payable": false,
      "stateMutability": "view",
      "type": "function"
    },
    {
      "constant": true,
      "inputs": [],
      "name": "messageSender",
      "outputs": [
        {
          "name": "sender",
          "type": "address"
        }
      ],
      "payable": false,
      "stateMutability": "view",
      "type": "function"
    },
    {
      "constant": true,
      "inputs": [],
      "name": "decimalShift",
      "outputs": [
        {
          "name": "",
          "type": "int256"
        }
      ],
      "payable": false,
      "stateMutability": "view",
      "type": "function"
    },
    {
      "constant": false,
      "inputs": [
        {
          "name": "_contract",
          "type": "address"
        },
        {
          "name": "_data",
          "type": "bytes"
        },
        {
          "name": "_gas",
          "type": "uint256"
        }
      ],
      "name": "requireToPassMessage",
      "outputs": [
        {
          "name": "messageId",
          "type": "bytes32"
        }
      ],
      "payable": false,
      "stateMutability": "nonpayable",
      "type": "function"
    },
    {
      "constant": true,
      "inputs": [],
      "name": "gasTokenTargetMintValue",
      "outputs": [
        {
          "name": "",
          "type": "uint256"
        }
      ],
      "payable": false,
      "stateMutability": "view",
      "type": "function"
    },
    {
      "constant": true,
      "inputs": [
        {
          "name": "_messageId",
          "type": "bytes32"
        }
      ],
      "name": "failedMessageDataHash",
      "outputs": [
        {
          "name": "",
          "type": "bytes32"
        }
      ],
      "payable": false,
      "stateMutability": "view",
      "type": "function"
    },
    {
      "constant": true,
      "inputs": [],
      "name": "maxGasPerTx",
      "outputs": [
        {
          "name": "",
          "type": "uint256"
        }
      ],
      "payable": false,
      "stateMutability": "view",
      "type": "function"
    },
    {
      "constant": false,
      "inputs": [
        {
          "name": "_data",
          "type": "bytes"
        },
        {
          "name": "_signatures",
          "type": "bytes"
        },
        {
          "name": "_gas",
          "type": "uint32"
        }
      ],
      "name": "safeExecuteSignaturesWithGasLimit",
      "outputs": [],
      "payable": false,
      "stateMutability": "nonpayable",
      "type": "function"
    },
    {
      "constant": false,
      "inputs": [
        {
          "name": "_data",
          "type": "bytes"
        },
        {
          "name": "_signatures",
          "type": "bytes"
        }
      ],
      "name": "safeExecuteSignatures",
      "outputs": [],
      "payable": false,
      "stateMutability": "nonpayable",
      "type": "function"
    },
    {
      "constant": false,
      "inputs": [
        {
          "name": "_targetMintValue",
          "type": "uint256"
        },
        {
          "name": "_receiver",
          "type": "address"
        }
      ],
      "name": "setGasTokenParameters",
      "outputs": [],
      "payable": false,
      "stateMutability": "nonpayable",
      "type": "function"
    },
    {
      "constant": false,
      "inputs": [
        {
          "name": "newOwner",
          "type": "address"
        }
      ],
      "name": "transferOwnership",
      "outputs": [],
      "payable": false,
      "stateMutability": "nonpayable",
      "type": "function"
    },
    {
      "constant": true,
      "inputs": [],
      "name": "gasPrice",
      "outputs": [
        {
          "name": "",
          "type": "uint256"
        }
      ],
      "payable": false,
      "stateMutability": "view",
      "type": "function"
    },
    {
      "anonymous": false,
      "inputs": [
        {
          "indexed": true,
          "name": "messageId",
          "type": "bytes32"
        },
        {
          "indexed": false,
          "name": "encodedData",
          "type": "bytes"
        }
      ],
      "name": "UserRequestForAffirmation",
      "type": "event"
    },
    {
      "anonymous": false,
      "inputs": [
        {
          "indexed": true,
          "name": "sender",
          "type": "address"
        },
        {
          "indexed": true,
          "name": "executor",
          "type": "address"
        },
        {
          "indexed": true,
          "name": "messageId",
          "type": "bytes32"
        },
        {
          "indexed": false,
          "name": "status",
          "type": "bool"
        }
      ],
      "name": "RelayedMessage",
      "type": "event"
    },
    {
      "anonymous": false,
      "inputs": [
        {
          "indexed": false,
          "name": "gasPrice",
          "type": "uint256"
        }
      ],
      "name": "GasPriceChanged",
      "type": "event"
    },
    {
      "anonymous": false,
      "inputs": [
        {
          "indexed": false,
          "name": "requiredBlockConfirmations",
          "type": "uint256"
        }
      ],
      "name": "RequiredBlockConfirmationChanged",
      "type": "event"
    },
    {
      "anonymous": false,
      "inputs": [
        {
          "indexed": false,
          "name": "previousOwner",
          "type": "address"
        },
        {
          "indexed": false,
          "name": "newOwner",
          "type": "address"
        }
      ],
      "name": "OwnershipTransferred",
      "type": "event"
    },
    {
      "constant": true,
      "inputs": [],
      "name": "gasToken",
      "outputs": [
        {
          "name": "",
          "type": "address"
        }
      ],
      "payable": false,
      "stateMutability": "pure",
      "type": "function"
    },
    {
      "constant": false,
      "inputs": [],
      "name": "collectGasTokens",
      "outputs": [],
      "payable": false,
      "stateMutability": "nonpayable",
      "type": "function"
    }
  ],
  "bytecode": "0x608060405234801561001057600080fd5b5061346f806100206000396000f3006080604052600436106102005763ffffffff60e060020a6000350416630ac1c31381146102055780631544298e1461022c578063163cef351461024157806321d800ec146102b157806323b4a1fd146102dd57806323caab49146102f757806325fbf4ee14610323578063392e53cd1461035c5780633f0a9f65146103715780633f7658fd146103865780633f768c061461041d5780633f9a8e7e14610476578063437764df146104aa578063467ad35a146104f15780634a610b041461050c5780634d4cb7a214610524578063669f618b146105395780636a9bf6491461054e5780636c388e54146105635780637bac29c7146105785780638d068043146105905780638da5cb5b146105a557806399439089146105ba5780639a454b99146105cf5780639cb7595a146105e45780639e307dff146106255780639f1ed0c71461063a578063acf5c6891461065b578063b075061114610673578063bf1fe42014610688578063c2231ad2146106a0578063c91d59fe146106ba578063cb08a10c146106cf578063d67bdd25146106e7578063dae5f0fd146106fc578063dc8601b314610711578063de6e02b81461077a578063e37c32891461078f578063e5789d03146107a7578063e6d562a1146107bc578063eaa820d71461085b578063ee03361414610887578063f2fde38b146108ab578063fe173b97146108cc575b600080fd5b34801561021157600080fd5b5061021a6108e1565b60408051918252519081900360200190f35b34801561023857600080fd5b5061021a6108f0565b34801561024d57600080fd5b5060408051602060046024803582810135601f810185900485028601850190965285855261021a958335600160a060020a031695369560449491939091019190819084018382808284375094975050843595505050602090920135915061093e9050565b3480156102bd57600080fd5b506102c9600435610a81565b604080519115158252519081900360200190f35b3480156102e957600080fd5b506102f5600435610b4a565b005b34801561030357600080fd5b506102f56024600480358281019290820135918135918201910135610bb3565b34801561032f57600080fd5b506102c9600435602435600160a060020a03604435811690606435906084359060a4359060c43516610c26565b34801561036857600080fd5b506102c9610e9a565b34801561037d57600080fd5b5061021a610eeb565b34801561039257600080fd5b506040805160206004803580820135601f81018490048402850184019095528484526102f594369492936024939284019190819084018382808284375050604080516020601f89358b018035918201839004830284018301909452808352979a999881019791965091820194509250829150840183828082843750949750610f399650505050505050565b34801561042957600080fd5b506040805160206004803580820135601f810184900484028501840190955284845261021a943694929360249392840191908190840183828082843750949750610f899650505050505050565b34801561048257600080fd5b5061048e600435610fa5565b60408051600160a060020a039092168252519081900360200190f35b3480156104b657600080fd5b506104bf611074565b604080517bffffffffffffffffffffffffffffffffffffffffffffffffffffffff199092168252519081900360200190f35b3480156104fd57600080fd5b506102f5600435602435611098565b34801561051857600080fd5b5061048e6004356110c2565b34801561053057600080fd5b506102c9611146565b34801561054557600080fd5b5061021a611197565b34801561055a57600080fd5b506102f56111bc565b34801561056f57600080fd5b5061048e6111c6565b34801561058457600080fd5b506102f560043561121d565b34801561059c57600080fd5b5061021a611286565b3480156105b157600080fd5b5061048e6112fe565b3480156105c657600080fd5b5061048e611355565b3480156105db57600080fd5b5061021a6113ac565b3480156105f057600080fd5b506105f96113fa565b6040805167ffffffffffffffff9485168152928416602084015292168183015290519081900360600190f35b34801561063157600080fd5b5061021a611405565b34801561064657600080fd5b506102f5600160a060020a036004351661142a565b34801561066757600080fd5b506102f56004356114bd565b34801561067f57600080fd5b5061021a6114e5565b34801561069457600080fd5b506102f5600435611533565b3480156106ac57600080fd5b506102f56004351515611558565b3480156106c657600080fd5b5061048e6115cf565b3480156106db57600080fd5b506102c96004356115e7565b3480156106f357600080fd5b5061048e61166b565b34801561070857600080fd5b5061021a611690565b34801561071d57600080fd5b5060408051602060046024803582810135601f810185900485028601850190965285855261021a958335600160a060020a031695369560449491939091019190819084018382808284375094975050933594506116de9350505050565b34801561078657600080fd5b5061021a6116fc565b34801561079b57600080fd5b5061021a60043561174a565b3480156107b357600080fd5b5061021a61180f565b3480156107c857600080fd5b506040805160206004803580820135601f81018490048402850184019095528484526102f594369492936024939284019190819084018382808284375050604080516020601f89358b018035918201839004830284018301909452808352979a9998810197919650918201945092508291508401838280828437509497505050923563ffffffff16935061185d92505050565b34801561086757600080fd5b506102f560246004803582810192908201359181359182019101356118a3565b34801561089357600080fd5b506102f5600435600160a060020a036024351661190a565b3480156108b757600080fd5b506102f5600160a060020a03600435166119c1565b3480156108d857600080fd5b5061021a6119e6565b60006108eb611197565b905090565b7f67d6f42a1ed69c62022f2d160ddc6f2f0acd37ad1db0c24f4702d7d3343a4add60009081526020527ff6c66672b1a9fe5622677597b0da8fd180a2c85696efbcf7fe4b1e0f4f0f61085490565b6000806060808261094d611197565b148061095c575061095c611146565b151561096757600080fd5b61097087610f89565b8610158015610986575061098261180f565b8611155b151561099157600080fd5b61099c888787611a34565b91506109b16109a9611bd0565b600101611c1e565b6020820151925081876040516020018083805190602001908083835b602083106109ec5780518252601f1990920191602091820191016109cd565b51815160209384036101000a600019018019909216911617905285519190930192850191508083835b60208310610a345780518252601f199092019160209182019101610a15565b6001836020036101000a038019825116818451168082178552505050505050905001925050506040516020818303038152906040529050610a758382611c75565b50909695505050505050565b6000600460008360405160200180807f72656c617965644d657373616765730000000000000000000000000000000000815250600f0182600019166000191681526020019150506040516020818303038152906040526040518082805190602001908083835b60208310610b065780518252601f199092019160209182019101610ae7565b51815160209384036101000a600019018019909216911617905260408051929094018290039091208652850195909552929092016000205460ff1695945050505050565b610b526112fe565b600160a060020a03163314610b6657600080fd5b7f7188f1264c90762deb4dbddcab803d6487a8f108fbcdec3ff08c642d35826f9f60009081526020527f508af815a456b6ded512875db9df6b2d5693ac1edc789fb62dc528b792885e5155565b610c2084848080601f0160208091040260200160405190810160405280939291908181526020018383808284375050604080516020601f8a01819004810282018101909252888152945088935087925082915084018382808284375063ffffffff945061185d9350505050565b50505050565b60408051600481526024810182526020810180517bffffffffffffffffffffffffffffffffffffffffffffffffffffffff167f6fde8202000000000000000000000000000000000000000000000000000000001781529151815160009330939291829190808383895b83811015610ca7578181015183820152602001610c8f565b50505050905090810190601f168015610cd45780820380516001836020036101000a031916815260200191505b509150506000604051808303816000865af19150501580610d66575030600160a060020a0316636fde82026040518163ffffffff1660e060020a028152600401602060405180830381600087803b158015610d2e57600080fd5b505af1158015610d42573d6000803e3d6000fd5b505050506040513d6020811015610d5857600080fd5b5051600160a060020a031633145b80610d7057503330145b1515610d7b57600080fd5b610d83610e9a565b15610d8d57600080fd5b610d9686611d12565b1515610da157600080fd5b610dab8888611d1a565b7fab54f3fbbe62c59b7876a9bf9bd5e0c22dbae93f4d8ee0438f7ce62b198eb0e0805473ffffffffffffffffffffffffffffffffffffffff1916600160a060020a03881617905560006020819052437fe66bef0282a446f9848e2903380099bb6e431483ee78778868f33b4a154c818b557f2670ecc91ec356e32067fd27b36614132d727b84a1e03e08f412a4f2cf07597490527f3d7fe2ee9790702383ef0118b516833ef2542132d3ca4ac6c77f62f1230fa610859055610e6c84611e6a565b610e7583611e80565b610e7e82611f13565b610e86611fea565b610e8e610e9a565b98975050505050505050565b7f0a6f646cd611241d8073675e00d1a1ff700fbf1b53fcf473de56d1e6e4b714ba60005260046020527f078d888f9b66f3f8bfa10909e31f1e16240db73449f0500afdbbe3a70da457cc5460ff1690565b7f916daedf6915000ff68ced2f0b6773fe6f2582237f92c3c95bb4d7940723007160009081526020527fd2ea0feb732edb0ffe32efd33a6b9d24d46b16eb34a4d07ce256537b6f131e425490565b6000806000806000610f49613428565b6060610f558989612041565b610f5e89612069565b959c50939a509198509650945092509050610f7e8787878787878761215a565b505050505050505050565b8051600090610f9f90601063ffffffff6121ca16565b92915050565b6000600260008360405160200180807f6661696c65644d6573736167655265636569766572000000000000000000000081525060150182600019166000191681526020019150506040516020818303038152906040526040518082805190602001908083835b6020831061102a5780518252601f19909201916020918201910161100b565b51815160209384036101000a6000190180199092169116179052604080519290940182900390912086528501959095529290920160002054600160a060020a031695945050505050565b7f2544fbb90000000000000000000000000000000000000000000000000000000090565b6110a06112fe565b600160a060020a031633146110b457600080fd5b6110be8282611d1a565b5050565b6000600260008360405160200180807f6661696c65644d65737361676553656e6465720000000000000000000000000081525060130182600019166000191681526020019150506040516020818303038152906040526040518082805190602001908083836020831061102a5780518252601f19909201916020918201910161100b565b7fffa3a5a0e192028fc343362a39c5688e5a60819a4dc5ab3ee70c25bc25b78dd660005260046020527f265a43ea29ede07170a30cb6d77d0ab5810eee752b72432f7be348bde74aa08f5460ff1690565b7fe34bb2103dc34f2c144cc216c132d6ffb55dac57575c22e089161bbe650833045490565b6111c46121f3565b565b7f6778a39b83358b10315b40840597142f1db77a44f312ed9c0e45ee7af3bbc55260005260026020527fd0cda424605c5e6787a1f6db37df501d2e0a58cfcd57eff91a537a67146f164f54600160a060020a031690565b6112256112fe565b600160a060020a0316331461123957600080fd5b7f2670ecc91ec356e32067fd27b36614132d727b84a1e03e08f412a4f2cf07597460009081526020527f3d7fe2ee9790702383ef0118b516833ef2542132d3ca4ac6c77f62f1230fa61055565b6000611290611355565b600160a060020a0316638d0680436040518163ffffffff1660e060020a028152600401602060405180830381600087803b1580156112cd57600080fd5b505af11580156112e1573d6000803e3d6000fd5b505050506040513d60208110156112f757600080fd5b5051905090565b7f02016836a56b71f0d02689e69e326f4f4c1b9057164ef592671cf0d37c8040c060005260026020527fb7802e97e87ef2842a6cce7da7ffaeaedaa2f61a6a7870b23d9d01fc9b73712e54600160a060020a031690565b7f5a74bb7e202fb8e4bf311841c7d64ec19df195fee77d7e7ae749b27921b6ddfe60005260026020527fab54f3fbbe62c59b7876a9bf9bd5e0c22dbae93f4d8ee0438f7ce62b198eb0e054600160a060020a031690565b7fb120ceec05576ad0c710bc6e85f1768535e27554458f05dcbb5c65b8c7a749b060009081526020527fe66bef0282a446f9848e2903380099bb6e431483ee78778868f33b4a154c818b5490565b600560076000909192565b7f7f0fcd9e49860f055dd0c1682d635d309ecb5e3011654c716d9eb59a7ddec7d25490565b6114326112fe565b600160a060020a0316331461144657600080fd5b7f6778a39b83358b10315b40840597142f1db77a44f312ed9c0e45ee7af3bbc55260005260026020527fd0cda424605c5e6787a1f6db37df501d2e0a58cfcd57eff91a537a67146f164f805473ffffffffffffffffffffffffffffffffffffffff1916600160a060020a0392909216919091179055565b6114c56112fe565b600160a060020a031633146114d957600080fd5b6114e281611e80565b50565b7fbbd454018e72a3f6c02bbd785bacc49e46292744f3f6761276723823aa33232060009081526020527f242329173dfc316001df0a0c3d5a8f58a7ffb1a8b7d99c268303b9a741bacdf95490565b61153b6112fe565b600160a060020a0316331461154f57600080fd5b6114e281611e6a565b6115606112fe565b600160a060020a0316331461157457600080fd5b7fffa3a5a0e192028fc343362a39c5688e5a60819a4dc5ab3ee70c25bc25b78dd660005260046020527f265a43ea29ede07170a30cb6d77d0ab5810eee752b72432f7be348bde74aa08f805460ff1916911515919091179055565b73ec8be1a5630364292e56d01129e8ee8a9578d7d890565b6000600460008360405160200180807f6d65737361676543616c6c537461747573000000000000000000000000000000815250601101826000191660001916815260200191505060405160208183030381529060405260405180828051906020019080838360208310610b065780518252601f199092019160209182019101610ae7565b7f7b58b2a669d8e0992eae9eaef641092c0f686fd31070e7236865557fa1571b5b5490565b7f1e8ecaafaddea96ed9ac6d2642dcdfe1bebe58a930b1085842d8fc122b371ee560009081526020527fd5c78dd9468716ca9bb96be25d56436811b20aab3523a9904b12deef1cab239d5490565b60006116eb848484612625565b90506116f56121f3565b9392505050565b7f7188f1264c90762deb4dbddcab803d6487a8f108fbcdec3ff08c642d35826f9f60009081526020527f508af815a456b6ded512875db9df6b2d5693ac1edc789fb62dc528b792885e515490565b60008060008360405160200180807f6661696c65644d6573736167654461746148617368000000000000000000000081525060150182600019166000191681526020019150506040516020818303038152906040526040518082805190602001908083835b602083106117ce5780518252601f1990920191602091820191016117af565b51815160209384036101000a600019018019909216911617905260408051929094018290039091208652850195909552929092016000205495945050505050565b7f2670ecc91ec356e32067fd27b36614132d727b84a1e03e08f412a4f2cf07597460009081526020527f3d7fe2ee9790702383ef0118b516833ef2542132d3ca4ac6c77f62f1230fa6105490565b60008060008061186b613428565b60606118778989612041565b61188089612069565b959b50939950919750909550909350909150610f7e90508686868a87878761215a565b610c2084848080601f0160208091040260200160405190810160405280939291908181526020018383808284375050604080516020601f8a018190048102820181019092528881529450889350879250829150840183828082843750610f39945050505050565b6119126112fe565b600160a060020a0316331461192657600080fd5b7f508af815a456b6ded512875db9df6b2d5693ac1edc789fb62dc528b792885e51919091557f6778a39b83358b10315b40840597142f1db77a44f312ed9c0e45ee7af3bbc55260005260026020527fd0cda424605c5e6787a1f6db37df501d2e0a58cfcd57eff91a537a67146f164f805473ffffffffffffffffffffffffffffffffffffffff1916600160a060020a03909216919091179055565b6119c96112fe565b600160a060020a031633146119dd57600080fd5b6114e281611f13565b7f55b3774520b5993024893d303890baa4e84b1244a43c60034d1ced2d3cf2b04b60009081526020527ff7d5eefab3776d7f0450bd0193564bcb4f832ce313ff2836c450fc63a4b944195490565b60606000806000806000806000611a496108f0565b9650611a5361263c565b9550611a5d6114e5565b9450611a6761268a565b93507e050000000000000000000000000000000000000000000000000000000000009250611a93611bd0565b6040805160208082018b90526c0100000000000000000000000030028284015282516034818403018152605490920192839052815167ffffffffffffffff949094169550909282918401908083835b60208310611b015780518252601f199092019160209182019101611ae2565b6001836020036101000a03801982511681845116808217855250505050505090500191505060405180910390207bffffffffffffffffffffffffffffffffffffffff00000000000000006001021690508386604f01016040519080825280601f01601f191660200182016040528015611b84578160200160208202803883390190505b50975087518801858152878582035289604f8a015284604e8a015286604d8a01528a604c8a01528b60488a01523360348a0152828217841760208a015250505050505050509392505050565b7f7ab1577440dd7bedf920cb6de2f9fc6bf7ba98c78c85a3fa1f8311aac95e175960009081526020527fa9b0f75b23e377b9b22d27feaca5d8a12329c0049ebce1dc695b905f3aa4cd005490565b7f7ab1577440dd7bedf920cb6de2f9fc6bf7ba98c78c85a3fa1f8311aac95e1759600090815260205267ffffffffffffffff167fa9b0f75b23e377b9b22d27feaca5d8a12329c0049ebce1dc695b905f3aa4cd0055565b604080516020808252835181830152835185937f482515ce3d9494a37ce83f18b72b363449458435fafdd7a53ddea7460fe01b589386939092839283019185019080838360005b83811015611cd4578181015183820152602001611cbc565b50505050905090810190601f168015611d015780820380516001836020036101000a031916815260200191505b509250505060405180910390a25050565b6000903b1190565b600080600080600086118015611d305750600085115b1515611d3b57600080fd5b85851415611d4857600080fd5b506000925082915060ff905060015b831580611d62575082155b15611daa5783158015611d76575085828716145b15611d7f578093505b82158015611d8e575084828616145b15611d97578092505b6101009190910260ff1790600101611d57565b5050600060208190527ff6c66672b1a9fe5622677597b0da8fd180a2c85696efbcf7fe4b1e0f4f0f6108949094557f2f30286a16f86ee067618e1a246990e40c07b7749418a6dd3133f9cfb7e814cc919091557f242329173dfc316001df0a0c3d5a8f58a7ffb1a8b7d99c268303b9a741bacdf9919091557ffb792ae4ad11102b93f26a51b3749c2b3667f8b561566a4806d49896928115949091527f7b62b32ff48350e85ce95b571fde6f8b1096bc44a26db769ad6d0b3a26bf1c6d55565b60008111611e7757600080fd5b6114e2816126d8565b60008111611e8d57600080fd5b7f916daedf6915000ff68ced2f0b6773fe6f2582237f92c3c95bb4d79407230071600090815260209081527fd2ea0feb732edb0ffe32efd33a6b9d24d46b16eb34a4d07ce256537b6f131e428290556040805183815290517f4fb76205cd57c896b21511d2114137d8e901b4ccd659e1a0f97d6306795264fb929181900390910190a150565b600160a060020a0381161515611f2857600080fd5b7f8be0079c531659141344cd1fd0a4f28419497f9722a3daafe3b4186f6b6457e0611f516112fe565b60408051600160a060020a03928316815291841660208301528051918290030190a17f02016836a56b71f0d02689e69e326f4f4c1b9057164ef592671cf0d37c8040c060005260026020527fb7802e97e87ef2842a6cce7da7ffaeaedaa2f61a6a7870b23d9d01fc9b73712e805473ffffffffffffffffffffffffffffffffffffffff1916600160a060020a0392909216919091179055565b7f0a6f646cd611241d8073675e00d1a1ff700fbf1b53fcf473de56d1e6e4b714ba60005260046020527f078d888f9b66f3f8bfa10909e31f1e16240db73449f0500afdbbe3a70da457cc805460ff19166001179055565b600061204b611197565b1461205557600080fd5b6110be8282612062611355565b600161275e565b6000806000806000612079613428565b6060600080604f915060208a01519850600160a060020a0360348b015116975060548a01518060601c975063ffffffff8160401c16965080601a1a95506000607f871611156120c757600080fd5b8060181a6001808260031b1b03818501945080858e01511687528260191a91506001808360031b1b039050818501945080858e0151166020880152848d51039350505050806040519080825280601f01601f191660200182016040528015612139578160200160208202803883390190505b50925060248201915080826004350160208501375050919395979092949650565b612163876129e8565b151561216e57600080fd5b602082015161217c90612a2e565b151561218757600080fd5b61219087610a81565b1561219a57600080fd5b6121a5876001612a40565b6121c186868963ffffffff881687876000602002015187612b12565b50505050505050565b60008215156121db57506000610f9f565b508181028183828115156121eb57fe5b0414610f9f57fe5b6000806000806122016116fc565b935083151561220f57610c20565b6122176111c6565b9250600160a060020a038316151561222e57610c20565b6122366115cf565b604080517fdd62ed3e0000000000000000000000000000000000000000000000000000000081523360048201523060248201529051919350600160a060020a0384169163dd62ed3e916044808201926020929091908290030181600087803b1580156122a157600080fd5b505af11580156122b5573d6000803e3d6000fd5b505050506040513d60208110156122cb57600080fd5b5051905083811061238457604080517f23b872dd000000000000000000000000000000000000000000000000000000008152336004820152600160a060020a038581166024830152604482018790529151918416916323b872dd916064808201926020929091908290030181600087803b15801561234857600080fd5b505af115801561235c573d6000803e3d6000fd5b505050506040513d602081101561237257600080fd5b5051151561237f57600080fd5b61252f565b600081111561243257604080517f23b872dd000000000000000000000000000000000000000000000000000000008152336004820152306024820152604481018390529051600160a060020a038416916323b872dd9160648083019260209291908290030181600087803b1580156123fb57600080fd5b505af115801561240f573d6000803e3d6000fd5b505050506040513d602081101561242557600080fd5b5051151561243257600080fd5b81600160a060020a031663a0712d688286036040518263ffffffff1660e060020a02815260040180828152602001915050600060405180830381600087803b15801561247d57600080fd5b505af1158015612491573d6000803e3d6000fd5b5050505081600160a060020a031663a9059cbb84866040518363ffffffff1660e060020a0281526004018083600160a060020a0316600160a060020a0316815260200182815260200192505050602060405180830381600087803b1580156124f857600080fd5b505af115801561250c573d6000803e3d6000fd5b505050506040513d602081101561252257600080fd5b5051151561252f57600080fd5b604080513060248201526044810186905260606064820152600060848201819052825180830360a401815260c490920183526020820180517bffffffffffffffffffffffffffffffffffffffffffffffffffffffff167fa4c0ed360000000000000000000000000000000000000000000000000000000017815292518251600160a060020a038816949192839291908190849084905b838110156125dd5781810151838201526020016125c5565b50505050905090810190601f16801561260a5780820380516001836020036101000a031916815260200191505b509150506000604051808303816000865af150505050505050565b6000612634848484600061093e565b949350505050565b7fe504ae1fd6471eea80f18b8532a61a9bb91fba4f5b837f80a1cfb6752350af4460009081526020527f2f30286a16f86ee067618e1a246990e40c07b7749418a6dd3133f9cfb7e814cc5490565b7ffb792ae4ad11102b93f26a51b3749c2b3667f8b561566a4806d498969281159460009081526020527f7b62b32ff48350e85ce95b571fde6f8b1096bc44a26db769ad6d0b3a26bf1c6d5490565b7f55b3774520b5993024893d303890baa4e84b1244a43c60034d1ced2d3cf2b04b600090815260209081527ff7d5eefab3776d7f0450bd0193564bcb4f832ce313ff2836c450fc63a4b944198290556040805183815290517f52264b89e0fceafb26e79fd49ef8a366eb6297483bf4035b027f0c99a7ad512e929181900390910190a150565b6000806000606060008060008060008060008b8061278057506127808f612b69565b151561278b57600080fd5b8c600160a060020a0316638d0680436040518163ffffffff1660e060020a028152600401602060405180830381600087803b1580156127c957600080fd5b505af11580156127dd573d6000803e3d6000fd5b505050506040513d60208110156127f357600080fd5b505160018f0151909b5060ff1699508a8a101561280f57600080fd5b6128198f8d612b7d565b98508a604051908082528060200260200182016040528015612845578160200160208202803883390190505b509750600096505b8a8710156129d757866020028a6021010192508960200283019150866002018e01519550828e01519450818e01519350600189878787604051600081526020016040526040518085600019166000191681526020018460ff1660ff1681526020018360001916600019168152602001826000191660001916815260200194505050505060206040516020810390808403906000865af11580156128f4573d6000803e3d6000fd5b5050506020604051035190508c600160a060020a031663facd743b826040518263ffffffff1660e060020a0281526004018082600160a060020a0316600160a060020a03168152602001915050602060405180830381600087803b15801561295b57600080fd5b505af115801561296f573d6000803e3d6000fd5b505050506040513d602081101561298557600080fd5b5051151561299257600080fd5b61299c8882612d97565b156129a657600080fd5b8088888151811015156129b557fe5b600160a060020a0390921660209283029091019091015260019096019561284d565b505050505050505050505050505050565b7bffffffffffffffffffffffffffffffffffffffffffffffffffffffff1981167e0500000000000000000000000000000000000000000000000000000000000014919050565b6000612a386108f0565b909114919050565b80600460008460405160200180807f72656c617965644d657373616765730000000000000000000000000000000000815250600f0182600019166000191681526020019150506040516020818303038152906040526040518082805190602001908083835b60208310612ac45780518252601f199092019160209182019101612aa5565b51815160209384036101000a60001901801990921691161790526040805192909401829003909120865285019590955292909201600020805460ff1916941515949094179093555050505050565b6000612b22888884888a88612df2565b9050612b2e8682612ee8565b801515612b5357612b3f8683612f6b565b612b49868861307a565b612b538689613168565b612b5f888888846131eb565b5050505050505050565b6000612b73613239565b8251149050919050565b60408051808201909152601a81527f19457468657265756d205369676e6564204d6573736167653a0a000000000000602082015260009060608315612d235781612bc7865161323e565b866040516020018084805190602001908083835b60208310612bfa5780518252601f199092019160209182019101612bdb565b51815160209384036101000a600019018019909216911617905286519190930192860191508083835b60208310612c425780518252601f199092019160209182019101612c23565b51815160209384036101000a600019018019909216911617905285519190930192850191508083835b60208310612c8a5780518252601f199092019160209182019101612c6b565b6001836020036101000a03801982511681845116808217855250505050505090500193505050506040516020818303038152906040526040518082805190602001908083835b60208310612cef5780518252601f199092019160209182019101612cd0565b6001836020036101000a03801982511681845116808217855250505050505090500191505060405180910390209250612d8f565b6040805190810160405280600381526020017f3130340000000000000000000000000000000000000000000000000000000000815250905081818660405160200180848051906020019080838360208310612bfa5780518252601f199092019160209182019101612bdb565b505092915050565b6000805b8351811015612de65782600160a060020a03168482815181101515612dbc57fe5b90602001906020020151600160a060020a03161415612dde5760019150612deb565b600101612d9b565b600091505b5092915050565b600080612dfe88613365565b612e0784613389565b612e10836133ad565b8463ffffffff1480612e3057508460405a603f02811515612e2d57fe5b04115b1515612e3b57600080fd5b86600160a060020a0316858760405180828051906020019080838360005b83811015612e71578181015183820152602001612e59565b50505050905090810190601f168015612e9e5780820380516001836020036101000a031916815260200191505b5091505060006040518083038160008787f1925050509050612ebf816133d1565b612ec96000613365565b612ed36000613389565b612edd60006133ad565b979650505050505050565b80600460008460405160200180807f6d65737361676543616c6c537461747573000000000000000000000000000000815250601101826000191660001916815260200191505060405160208183030381529060405260405180828051906020019080838360208310612ac45780518252601f199092019160209182019101612aa5565b806040518082805190602001908083835b60208310612f9b5780518252601f199092019160209182019101612f7c565b51815160209384036101000a6000190180199092169116179052604080519290940182900382207f6661696c65644d657373616765446174614861736800000000000000000000008383015260358084018a905285518085039091018152605590930194859052825190965060009550859492935082918401908083835b602083106130385780518252601f199092019160209182019101613019565b51815160209384036101000a60001901801990921691161790526040805192909401829003909120865285019590955292909201600020939093555050505050565b80600260008460405160200180807f6661696c65644d6573736167655265636569766572000000000000000000000081525060150182600019166000191681526020019150506040516020818303038152906040526040518082805190602001908083835b602083106130fe5780518252601f1990920191602091820191016130df565b51815160209384036101000a60001901801990921691161790526040805192909401829003909120865285019590955292909201600020805473ffffffffffffffffffffffffffffffffffffffff1916600160a060020a0395909516949094179093555050505050565b80600260008460405160200180807f6661696c65644d65737361676553656e646572000000000000000000000000008152506013018260001916600019168152602001915050604051602081830303815290604052604051808280519060200190808383602083106130fe5780518252601f1990920191602091820191016130df565b60408051821515815290518391600160a060020a0380871692908816917f27333edb8bdcd40a0ae944fb121b5e2d62ea782683946654a0f5e607a908d578919081900360200190a450505050565b606890565b606060008082818515156132875760408051808201909152600181527f30000000000000000000000000000000000000000000000000000000000000006020820152945061335c565b8593505b83156132a257600190920191600a8404935061328b565b826040519080825280601f01601f1916602001820160405280156132d0578160200160208202803883390190505b5091505060001982015b85156133585781516000198201917f01000000000000000000000000000000000000000000000000000000000000006030600a8a06010291849190811061331d57fe5b9060200101907effffffffffffffffffffffffffffffffffffffffffffffffffffffffffffff1916908160001a905350600a860495506132da565b8194505b50505050919050565b7f7b58b2a669d8e0992eae9eaef641092c0f686fd31070e7236865557fa1571b5b55565b7fe34bb2103dc34f2c144cc216c132d6ffb55dac57575c22e089161bbe6508330455565b7f7f0fcd9e49860f055dd0c1682d635d309ecb5e3011654c716d9eb59a7ddec7d255565b808061341d57506000357bffffffffffffffffffffffffffffffffffffffffffffffffffffffff19167f3f7658fd00000000000000000000000000000000000000000000000000000000145b15156114e257600080fd5b604080518082018252906002908290803883395091929150505600a165627a7a72305820779d98964fa70e7720a89cb99c2c13224f8726d2e39f5c4667fc6f6dd12e63b60029",
  "source": "pragma solidity 0.4.24;\n\nimport \"../upgradeable_contracts/arbitrary_message/ForeignAMBWithGasToken.sol\";\n\n/**\n* @title ForeignAMBWithGasTokenMock\n* @dev Wrapper on ForeignAMB contract, which supports minting gas tokens while passing messages\n*/\ncontract ForeignAMBWithGasTokenMock is ForeignAMBWithGasToken {\n    function gasToken() public pure returns (IGasToken) {\n        // Address generated in unit test, also hardcoded in GasTokenMock\n        return IGasToken(0xEC8bE1A5630364292E56D01129E8ee8A9578d7D8);\n    }\n\n    function collectGasTokens() external {\n        _collectGasTokens();\n    }\n}\n",
  "sourcePath": "/home/analiser/bridge-frontend/contracts/mocks/ForeignAMBWithGasTokenMock.sol",
  "compiler": {
    "name": "solc",
    "version": "0.4.24+commit.e67f0147.Emscripten.clang"
  },
  "schemaVersion": "3.4.3",
  "updatedAt": "2021-09-03T05:10:27.491Z",
  "devdoc": {
    "methods": {
      "_sendMessage(address,bytes,uint256,uint256)": {
        "details": "Initiates sending of an AMB message to the opposite network",
        "params": {
          "_contract": "executor address on the other side",
          "_data": "calldata passed to the executor on the other side",
          "_dataType": "AMB message dataType to be included as a part of the header",
          "_gas": "gas limit used on the other network for executing a message"
        }
      },
      "allowReentrantRequests()": {
        "return": "true, if reentrant requests are allowed."
      },
      "decimalShift()": {
        "details": "Returns the value of foreign-to-home decimal shift.",
        "return": "decimal shift."
      },
      "destinationChainId()": {
        "return": "chain id for the destination network"
      },
      "executeSignatures(bytes,bytes)": {
        "details": "Validates provided signatures and relays a given message",
        "params": {
          "_data": "bytes to be relayed",
          "_signatures": "bytes blob with signatures to be validated"
        }
      },
      "failedMessageDataHash(bytes32)": {
        "details": "Returns a data hash of the failed message that came from the other side. NOTE: dataHash was used previously to identify outgoing message before AMB message id was introduced. It is kept for backwards compatibility with old mediators contracts.",
        "params": {
          "_messageId": "id of the message from the other side that triggered a call."
        },
        "return": "keccak256 hash of message data."
      },
      "failedMessageReceiver(bytes32)": {
        "details": "Returns a receiver address of the failed message that came from the other side.",
        "params": {
          "_messageId": "id of the message from the other side that triggered a call."
        },
        "return": "receiver address."
      },
      "failedMessageSender(bytes32)": {
        "details": "Returns a sender address of the failed message that came from the other side.",
        "params": {
          "_messageId": "id of the message from the other side that triggered a call."
        },
        "return": "sender address on the other side."
      },
      "gasTokenReceiver()": {
        "return": "Configured gas token receiver"
      },
      "gasTokenTargetMintValue()": {
        "return": "Configured gas token target mint value"
      },
      "getBridgeInterfacesVersion()": {
        "return": "(major, minor, patch) version triple"
      },
      "getMinimumGasUsage(bytes)": {
        "details": "Returns a lower limit on gas limit for the particular message data",
        "params": {
          "_data": "calldata passed to the executor on the other side"
        }
      },
      "initialize(uint256,uint256,address,uint256,uint256,uint256,address)": {
        "params": {
          "_destinationChainId": "chain id of a network where all outgoing messages are directed",
          "_gasPrice": "default gas price used by oracles for sending transactions in this network",
          "_maxGasPerTx": "maximum amount of gas per one message execution",
          "_owner": "address of new bridge owner",
          "_requiredBlockConfirmations": "number of block confirmations oracle will wait before processing passed messages",
          "_sourceChainId": "chain id of a network where this contract is deployed",
          "_validatorContract": "address of the validators contract"
        }
      },
      "messageCallStatus(bytes32)": {
        "details": "Returns a status of the message that came from the other side.",
        "params": {
          "_messageId": "id of the message from the other side that triggered a call."
        },
        "return": "true if call executed successfully."
      },
      "messageId()": {
        "details": "Returns an id of the currently processed message.",
        "return": "id of the message that originated on the other side."
      },
      "messageSender()": {
        "details": "Returns an address of the sender on the other side for the currently processed message. Can be used by executors for getting other side caller address.",
        "return": "address of the sender on the other side."
      },
      "messageSourceChainId()": {
        "details": "Returns an originating chain id of the currently processed message.",
        "return": "source chain id of the message that originated on the other side."
      },
      "owner()": {
        "details": "Tells the address of the owner",
        "return": "the address of the owner"
      },
      "safeExecuteSignatures(bytes,bytes)": {
        "details": "Validates provided signatures and relays a given message. The message is not allowed to fail. The whole tx will be revered if message fails.",
        "params": {
          "_data": "bytes to be relayed",
          "_signatures": "bytes blob with signatures to be validated"
        }
      },
      "safeExecuteSignaturesWithAutoGasLimit(bytes,bytes)": {
        "details": "Validates provided signatures and relays a given message. Passes all available gas for the execution. The message is not allowed to fail. The whole tx will be revered if message fails.",
        "params": {
          "_data": "bytes to be relayed",
          "_signatures": "bytes blob with signatures to be validated"
        }
      },
      "safeExecuteSignaturesWithGasLimit(bytes,bytes,uint32)": {
        "details": "Validates provided signatures and relays a given message. Allows to override the gas limit of the passed message. Usually it makes sense to provide a higher amount of gas for the execution. The message is not allowed to fail. The whole tx will be revered if message fails.",
        "params": {
          "_data": "bytes to be relayed",
          "_signatures": "bytes blob with signatures to be validated"
        }
      },
      "setAllowReentrantRequests(bool)": {
        "params": {
          "_enable": "true, if reentrant requests are allowed."
        }
      },
      "setChainIds(uint256,uint256)": {
        "params": {
          "_destinationChainId": "chain id for opposite network",
          "_sourceChainId": "chain id for current network"
        }
      },
      "setGasPrice(uint256)": {
        "details": "Public setter for fallback gas price value. Only bridge owner can call this method.",
        "params": {
          "_gasPrice": "new value for the gas price."
        }
      },
      "setGasTokenParameters(uint256,address)": {
        "details": "Updates gas token related parameters, target mint value and token receiver",
        "params": {
          "_receiver": "receiver of minted gas token",
          "_targetMintValue": "target amount of token to mint/transfer during one call to _collectGasTokens"
        }
      },
      "setGasTokenReceiver(address)": {
        "details": "Updates gas token receiver",
        "params": {
          "_receiver": "receiver of minted gas token"
        }
      },
      "setGasTokenTargetMintValue(uint256)": {
        "details": "Updates gas token target mint value",
        "params": {
          "_targetMintValue": "target amount of token to mint/transfer during one call to _collectGasTokens"
        }
      },
      "sourceChainId()": {
        "return": "chain id for the current network"
      },
      "transactionHash()": {
        "details": "Returns an id of the currently processed message. NOTE: transactionHash was used previously to identify incoming message before AMB message id was introduced. It is kept for backwards compatibility with old mediators contracts, although it doesn't return txHash anymore.",
        "return": "id of the message that originated on the other side."
      },
      "transferOwnership(address)": {
        "details": "Allows the current owner to transfer control of the contract to a newOwner.",
        "params": {
          "newOwner": "the address to transfer ownership to."
        }
      }
    },
    "title": "ForeignAMBWithGasTokenMock"
  },
  "userdoc": {
    "methods": {
      "allowReentrantRequests()": {
        "notice": "Tells if passing reentrant requests is allowed."
      },
      "destinationChainId()": {
        "notice": "Internal function for retrieving chain id for the destination network"
      },
      "getBridgeInterfacesVersion()": {
        "notice": "Returns currently used bridge version"
      },
      "initialize(uint256,uint256,address,uint256,uint256,uint256,address)": {
        "notice": "Initializes AMB contract"
      },
      "setAllowReentrantRequests(bool)": {
        "notice": "Sets the flag to allow passing new AMB requests in the opposite direction, while other AMB message is being processed. Only owner can call this method."
      },
      "setChainIds(uint256,uint256)": {
        "notice": "Updates chain ids of used networks"
      },
      "sourceChainId()": {
        "notice": "Internal function for retrieving chain id for the source network"
      }
    }
  }
}