{
  "contractName": "ForeignBridgeErcToNativeMock",
  "abi": [
    {
      "constant": false,
      "inputs": [
        {
          "name": "_receiver",
          "type": "address"
        },
        {
          "name": "_amount",
          "type": "uint256"
        }
      ],
      "name": "relayTokens",
      "outputs": [],
      "payable": false,
      "stateMutability": "nonpayable",
      "type": "function"
    },
    {
      "constant": true,
      "inputs": [],
      "name": "erc20token",
      "outputs": [
        {
          "name": "",
          "type": "address"
        }
      ],
      "payable": false,
      "stateMutability": "view",
      "type": "function"
    },
    {
      "constant": true,
      "inputs": [
        {
          "name": "_txHash",
          "type": "bytes32"
        }
      ],
      "name": "relayedMessages",
      "outputs": [
        {
          "name": "",
          "type": "bool"
        }
      ],
      "payable": false,
      "stateMutability": "view",
      "type": "function"
    },
    {
      "constant": true,
      "inputs": [
        {
          "name": "_day",
          "type": "uint256"
        }
      ],
      "name": "totalSpentPerDay",
      "outputs": [
        {
          "name": "",
          "type": "uint256"
        }
      ],
      "payable": false,
      "stateMutability": "view",
      "type": "function"
    },
    {
      "constant": true,
      "inputs": [],
      "name": "isChaiTokenEnabled",
      "outputs": [
        {
          "name": "",
          "type": "bool"
        }
      ],
      "payable": false,
      "stateMutability": "view",
      "type": "function"
    },
    {
      "constant": true,
      "inputs": [],
      "name": "dsrBalance",
      "outputs": [
        {
          "name": "",
          "type": "uint256"
        }
      ],
      "payable": false,
      "stateMutability": "view",
      "type": "function"
    },
    {
      "constant": true,
      "inputs": [],
      "name": "isInitialized",
      "outputs": [
        {
          "name": "",
          "type": "bool"
        }
      ],
      "payable": false,
      "stateMutability": "view",
      "type": "function"
    },
    {
      "constant": false,
      "inputs": [
        {
          "name": "_dailyLimit",
          "type": "uint256"
        }
      ],
      "name": "setExecutionDailyLimit",
      "outputs": [],
      "payable": false,
      "stateMutability": "nonpayable",
      "type": "function"
    },
    {
      "constant": true,
      "inputs": [],
      "name": "getCurrentDay",
      "outputs": [
        {
          "name": "",
          "type": "uint256"
        }
      ],
      "payable": false,
      "stateMutability": "view",
      "type": "function"
    },
    {
      "constant": true,
      "inputs": [],
      "name": "requiredBlockConfirmations",
      "outputs": [
        {
          "name": "",
          "type": "uint256"
        }
      ],
      "payable": false,
      "stateMutability": "view",
      "type": "function"
    },
    {
      "constant": false,
      "inputs": [
        {
          "name": "message",
          "type": "bytes"
        },
        {
          "name": "signatures",
          "type": "bytes"
        }
      ],
      "name": "executeSignatures",
      "outputs": [],
      "payable": false,
      "stateMutability": "nonpayable",
      "type": "function"
    },
    {
      "constant": true,
      "inputs": [],
      "name": "getBridgeMode",
      "outputs": [
        {
          "name": "_data",
          "type": "bytes4"
        }
      ],
      "payable": false,
      "stateMutability": "pure",
      "type": "function"
    },
    {
      "constant": true,
      "inputs": [],
      "name": "executionDailyLimit",
      "outputs": [
        {
          "name": "",
          "type": "uint256"
        }
      ],
      "payable": false,
      "stateMutability": "view",
      "type": "function"
    },
    {
      "constant": true,
      "inputs": [
        {
          "name": "_day",
          "type": "uint256"
        }
      ],
      "name": "totalExecutedPerDay",
      "outputs": [
        {
          "name": "",
          "type": "uint256"
        }
      ],
      "payable": false,
      "stateMutability": "view",
      "type": "function"
    },
    {
      "constant": true,
      "inputs": [],
      "name": "dailyLimit",
      "outputs": [
        {
          "name": "",
          "type": "uint256"
        }
      ],
      "payable": false,
      "stateMutability": "view",
      "type": "function"
    },
    {
      "constant": true,
      "inputs": [],
      "name": "minDaiTokenBalance",
      "outputs": [
        {
          "name": "",
          "type": "uint256"
        }
      ],
      "payable": false,
      "stateMutability": "view",
      "type": "function"
    },
    {
      "constant": false,
      "inputs": [
        {
          "name": "_token",
          "type": "address"
        },
        {
          "name": "_to",
          "type": "address"
        }
      ],
      "name": "claimTokens",
      "outputs": [],
      "payable": false,
      "stateMutability": "nonpayable",
      "type": "function"
    },
    {
      "constant": false,
      "inputs": [
        {
          "name": "_validatorContract",
          "type": "address"
        },
        {
          "name": "_erc20token",
          "type": "address"
        },
        {
          "name": "_requiredBlockConfirmations",
          "type": "uint256"
        },
        {
          "name": "_gasPrice",
          "type": "uint256"
        },
        {
          "name": "_dailyLimitMaxPerTxMinPerTxArray",
          "type": "uint256[3]"
        },
        {
          "name": "_homeDailyLimitHomeMaxPerTxArray",
          "type": "uint256[2]"
        },
        {
          "name": "_owner",
          "type": "address"
        },
        {
          "name": "_decimalShift",
          "type": "int256"
        },
        {
          "name": "_bridgeOnOtherSide",
          "type": "address"
        }
      ],
      "name": "initialize",
      "outputs": [
        {
          "name": "",
          "type": "bool"
        }
      ],
      "payable": false,
      "stateMutability": "nonpayable",
      "type": "function"
    },
    {
      "constant": true,
      "inputs": [
        {
          "name": "_amount",
          "type": "uint256"
        }
      ],
      "name": "withinExecutionLimit",
      "outputs": [
        {
          "name": "",
          "type": "bool"
        }
      ],
      "payable": false,
      "stateMutability": "view",
      "type": "function"
    },
    {
      "constant": true,
      "inputs": [],
      "name": "executionMaxPerTx",
      "outputs": [
        {
          "name": "",
          "type": "uint256"
        }
      ],
      "payable": false,
      "stateMutability": "view",
      "type": "function"
    },
    {
      "constant": true,
      "inputs": [],
      "name": "requiredSignatures",
      "outputs": [
        {
          "name": "",
          "type": "uint256"
        }
      ],
      "payable": false,
      "stateMutability": "view",
      "type": "function"
    },
    {
      "constant": true,
      "inputs": [],
      "name": "owner",
      "outputs": [
        {
          "name": "",
          "type": "address"
        }
      ],
      "payable": false,
      "stateMutability": "view",
      "type": "function"
    },
    {
      "constant": false,
      "inputs": [
        {
          "name": "period",
          "type": "uint256"
        }
      ],
      "name": "setInterestCollectionPeriod",
      "outputs": [],
      "payable": false,
      "stateMutability": "nonpayable",
      "type": "function"
    },
    {
      "constant": true,
      "inputs": [],
      "name": "interestCollectionPeriod",
      "outputs": [
        {
          "name": "",
          "type": "uint256"
        }
      ],
      "payable": false,
      "stateMutability": "view",
      "type": "function"
    },
    {
      "constant": true,
      "inputs": [],
      "name": "maxAvailablePerTx",
      "outputs": [
        {
          "name": "",
          "type": "uint256"
        }
      ],
      "payable": false,
      "stateMutability": "view",
      "type": "function"
    },
    {
      "constant": true,
      "inputs": [],
      "name": "validatorContract",
      "outputs": [
        {
          "name": "",
          "type": "address"
        }
      ],
      "payable": false,
      "stateMutability": "view",
      "type": "function"
    },
    {
      "constant": true,
      "inputs": [],
      "name": "deployedAtBlock",
      "outputs": [
        {
          "name": "",
          "type": "uint256"
        }
      ],
      "payable": false,
      "stateMutability": "view",
      "type": "function"
    },
    {
      "constant": true,
      "inputs": [],
      "name": "getBridgeInterfacesVersion",
      "outputs": [
        {
          "name": "major",
          "type": "uint64"
        },
        {
          "name": "minor",
          "type": "uint64"
        },
        {
          "name": "patch",
          "type": "uint64"
        }
      ],
      "payable": false,
      "stateMutability": "pure",
      "type": "function"
    },
    {
      "constant": false,
      "inputs": [
        {
          "name": "receiver",
          "type": "address"
        }
      ],
      "name": "setInterestReceiver",
      "outputs": [],
      "payable": false,
      "stateMutability": "nonpayable",
      "type": "function"
    },
    {
      "constant": false,
      "inputs": [],
      "name": "payInterest",
      "outputs": [],
      "payable": false,
      "stateMutability": "nonpayable",
      "type": "function"
    },
    {
      "constant": true,
      "inputs": [],
      "name": "isDaiNeedsToBeInvested",
      "outputs": [
        {
          "name": "",
          "type": "bool"
        }
      ],
      "payable": false,
      "stateMutability": "view",
      "type": "function"
    },
    {
      "constant": false,
      "inputs": [
        {
          "name": "_minPerTx",
          "type": "uint256"
        }
      ],
      "name": "setMinPerTx",
      "outputs": [],
      "payable": false,
      "stateMutability": "nonpayable",
      "type": "function"
    },
    {
      "constant": false,
      "inputs": [
        {
          "name": "_minBalance",
          "type": "uint256"
        }
      ],
      "name": "setMinDaiTokenBalance",
      "outputs": [],
      "payable": false,
      "stateMutability": "nonpayable",
      "type": "function"
    },
    {
      "constant": false,
      "inputs": [
        {
          "name": "_blockConfirmations",
          "type": "uint256"
        }
      ],
      "name": "setRequiredBlockConfirmations",
      "outputs": [],
      "payable": false,
      "stateMutability": "nonpayable",
      "type": "function"
    },
    {
      "constant": false,
      "inputs": [
        {
          "name": "_dailyLimit",
          "type": "uint256"
        }
      ],
      "name": "setDailyLimit",
      "outputs": [],
      "payable": false,
      "stateMutability": "nonpayable",
      "type": "function"
    },
    {
      "constant": true,
      "inputs": [],
      "name": "investedAmountInDai",
      "outputs": [
        {
          "name": "",
          "type": "uint256"
        }
      ],
      "payable": false,
      "stateMutability": "view",
      "type": "function"
    },
    {
      "constant": false,
      "inputs": [
        {
          "name": "_gasPrice",
          "type": "uint256"
        }
      ],
      "name": "setGasPrice",
      "outputs": [],
      "payable": false,
      "stateMutability": "nonpayable",
      "type": "function"
    },
    {
      "constant": false,
      "inputs": [
        {
          "name": "_maxPerTx",
          "type": "uint256"
        }
      ],
      "name": "setMaxPerTx",
      "outputs": [],
      "payable": false,
      "stateMutability": "nonpayable",
      "type": "function"
    },
    {
      "constant": true,
      "inputs": [],
      "name": "interestReceiver",
      "outputs": [
        {
          "name": "",
          "type": "address"
        }
      ],
      "payable": false,
      "stateMutability": "view",
      "type": "function"
    },
    {
      "constant": false,
      "inputs": [
        {
          "name": "_interestReceiver",
          "type": "address"
        }
      ],
      "name": "initializeChaiToken",
      "outputs": [],
      "payable": false,
      "stateMutability": "nonpayable",
      "type": "function"
    },
    {
      "constant": true,
      "inputs": [],
      "name": "chaiBalance",
      "outputs": [
        {
          "name": "",
          "type": "uint256"
        }
      ],
      "payable": false,
      "stateMutability": "view",
      "type": "function"
    },
    {
      "constant": false,
      "inputs": [],
      "name": "convertDaiToChai",
      "outputs": [],
      "payable": false,
      "stateMutability": "nonpayable",
      "type": "function"
    },
    {
      "constant": false,
      "inputs": [],
      "name": "removeChaiToken",
      "outputs": [],
      "payable": false,
      "stateMutability": "nonpayable",
      "type": "function"
    },
    {
      "constant": true,
      "inputs": [],
      "name": "decimalShift",
      "outputs": [
        {
          "name": "",
          "type": "int256"
        }
      ],
      "payable": false,
      "stateMutability": "view",
      "type": "function"
    },
    {
      "constant": true,
      "inputs": [],
      "name": "minPerTx",
      "outputs": [
        {
          "name": "",
          "type": "uint256"
        }
      ],
      "payable": false,
      "stateMutability": "view",
      "type": "function"
    },
    {
      "constant": true,
      "inputs": [
        {
          "name": "_amount",
          "type": "uint256"
        }
      ],
      "name": "withinLimit",
      "outputs": [
        {
          "name": "",
          "type": "bool"
        }
      ],
      "payable": false,
      "stateMutability": "view",
      "type": "function"
    },
    {
      "constant": true,
      "inputs": [],
      "name": "lastInterestPayment",
      "outputs": [
        {
          "name": "",
          "type": "uint256"
        }
      ],
      "payable": false,
      "stateMutability": "view",
      "type": "function"
    },
    {
      "constant": false,
      "inputs": [],
      "name": "initializeChaiToken",
      "outputs": [],
      "payable": false,
      "stateMutability": "nonpayable",
      "type": "function"
    },
    {
      "constant": false,
      "inputs": [
        {
          "name": "_maxPerTx",
          "type": "uint256"
        }
      ],
      "name": "setExecutionMaxPerTx",
      "outputs": [],
      "payable": false,
      "stateMutability": "nonpayable",
      "type": "function"
    },
    {
      "constant": false,
      "inputs": [
        {
          "name": "newOwner",
          "type": "address"
        }
      ],
      "name": "transferOwnership",
      "outputs": [],
      "payable": false,
      "stateMutability": "nonpayable",
      "type": "function"
    },
    {
      "constant": true,
      "inputs": [],
      "name": "maxPerTx",
      "outputs": [
        {
          "name": "",
          "type": "uint256"
        }
      ],
      "payable": false,
      "stateMutability": "view",
      "type": "function"
    },
    {
      "constant": true,
      "inputs": [],
      "name": "gasPrice",
      "outputs": [
        {
          "name": "",
          "type": "uint256"
        }
      ],
      "payable": false,
      "stateMutability": "view",
      "type": "function"
    },
    {
      "anonymous": false,
      "inputs": [
        {
          "indexed": false,
          "name": "to",
          "type": "address"
        },
        {
          "indexed": false,
          "name": "value",
          "type": "uint256"
        }
      ],
      "name": "PaidInterest",
      "type": "event"
    },
    {
      "anonymous": false,
      "inputs": [
        {
          "indexed": true,
          "name": "from",
          "type": "address"
        },
        {
          "indexed": true,
          "name": "to",
          "type": "address"
        },
        {
          "indexed": false,
          "name": "value",
          "type": "uint256"
        }
      ],
      "name": "TokensSwapped",
      "type": "event"
    },
    {
      "anonymous": false,
      "inputs": [
        {
          "indexed": false,
          "name": "recipient",
          "type": "address"
        },
        {
          "indexed": false,
          "name": "value",
          "type": "uint256"
        },
        {
          "indexed": false,
          "name": "transactionHash",
          "type": "bytes32"
        }
      ],
      "name": "RelayedMessage",
      "type": "event"
    },
    {
      "anonymous": false,
      "inputs": [
        {
          "indexed": false,
          "name": "recipient",
          "type": "address"
        },
        {
          "indexed": false,
          "name": "value",
          "type": "uint256"
        }
      ],
      "name": "UserRequestForAffirmation",
      "type": "event"
    },
    {
      "anonymous": false,
      "inputs": [
        {
          "indexed": false,
          "name": "newLimit",
          "type": "uint256"
        }
      ],
      "name": "DailyLimitChanged",
      "type": "event"
    },
    {
      "anonymous": false,
      "inputs": [
        {
          "indexed": false,
          "name": "newLimit",
          "type": "uint256"
        }
      ],
      "name": "ExecutionDailyLimitChanged",
      "type": "event"
    },
    {
      "anonymous": false,
      "inputs": [
        {
          "indexed": false,
          "name": "gasPrice",
          "type": "uint256"
        }
      ],
      "name": "GasPriceChanged",
      "type": "event"
    },
    {
      "anonymous": false,
      "inputs": [
        {
          "indexed": false,
          "name": "requiredBlockConfirmations",
          "type": "uint256"
        }
      ],
      "name": "RequiredBlockConfirmationChanged",
      "type": "event"
    },
    {
      "anonymous": false,
      "inputs": [
        {
          "indexed": false,
          "name": "previousOwner",
          "type": "address"
        },
        {
          "indexed": false,
          "name": "newOwner",
          "type": "address"
        }
      ],
      "name": "OwnershipTransferred",
      "type": "event"
    },
    {
      "constant": false,
      "inputs": [
        {
          "name": "_chaiToken",
          "type": "address"
        }
      ],
      "name": "setChaiToken",
      "outputs": [],
      "payable": false,
      "stateMutability": "nonpayable",
      "type": "function"
    },
    {
      "constant": true,
      "inputs": [],
      "name": "chaiToken",
      "outputs": [
        {
          "name": "",
          "type": "address"
        }
      ],
      "payable": false,
      "stateMutability": "view",
      "type": "function"
    },
    {
      "constant": false,
      "inputs": [
        {
          "name": "amount",
          "type": "uint256"
        }
      ],
      "name": "convertChaiToDai",
      "outputs": [],
      "payable": false,
      "stateMutability": "nonpayable",
      "type": "function"
    }
  ],
  "bytecode": "0x608060405234801561001057600080fd5b50613e6d806100206000396000f3006080604052600436106102795763ffffffff60e060020a60003504166301e4f53a811461027e5780631dcea427146102a457806321d800ec146102d55780632bd0bb05146103015780633308fda31461032b578063357c016a14610340578063392e53cd146103555780633dd95d1b1461036a5780633e6968b6146103825780633f0a9f65146103975780633f7658fd146103ac578063437764df146103d857806343b37dd3146104225780634fb3fef71461043757806367eeba0c1461044f578063689a0a7f1461046457806369ffa08a146104795780636b10c128146104a05780636da8b996146104b8578063879ce676146105005780638aa1949a146105185780638d0680431461052d5780638da5cb5b146105425780638daf859d1461055757806394806c691461056f57806395e54a171461058457806399439089146105995780639a454b99146105ae5780639cb7595a146105c35780639e994ca814610604578063a15a211c14610625578063a15b7df31461063a578063a2a6ca271461064f578063a662e5c114610667578063aa2dfdaf1461067f578063acf5c68914610694578063b20d30a9146106ac578063b9be4efe146106c4578063bf1fe420146106d9578063c6f6f216146106f1578063c77cf61514610709578063caa3af7f1461071e578063cf8e43a41461073f578063d7f1cfad14610754578063da2cd02914610769578063dae5f0fd1461077e578063df25f3f014610793578063ea9f4968146107a8578063eb3c1196146107c0578063f02a2584146107d5578063f20151e1146107ea578063f2fde38b14610802578063f7069ef214610823578063f968adbe14610844578063fe173b9714610859575b600080fd5b34801561028a57600080fd5b506102a2600160a060020a036004351660243561086e565b005b3480156102b057600080fd5b506102b96109ed565b60408051600160a060020a039092168252519081900360200190f35b3480156102e157600080fd5b506102ed600435610a44565b604080519115158252519081900360200190f35b34801561030d57600080fd5b50610319600435610b0d565b60408051918252519081900360200190f35b34801561033757600080fd5b506102ed610bca565b34801561034c57600080fd5b50610319610c1b565b34801561036157600080fd5b506102ed610cb0565b34801561037657600080fd5b506102a2600435610d01565b34801561038e57600080fd5b50610319610dc1565b3480156103a357600080fd5b50610319610dca565b3480156103b857600080fd5b506102a26024600480358281019290820135918135918201910135610e18565b3480156103e457600080fd5b506103ed610f8d565b604080517fffffffff000000000000000000000000000000000000000000000000000000009092168252519081900360200190f35b34801561042e57600080fd5b50610319610fb1565b34801561044357600080fd5b50610319600435610fff565b34801561045b57600080fd5b5061031961107a565b34801561047057600080fd5b506103196110c8565b34801561048557600080fd5b506102a2600160a060020a0360043581169060243516611116565b3480156104ac57600080fd5b506102a26004356111f6565b3480156104c457600080fd5b506102ed600160a060020a03600435811690602435811690604435906064359060849060e4906101243581169061014435906101643516611202565b34801561050c57600080fd5b506102ed6004356114da565b34801561052457600080fd5b50610319611524565b34801561053957600080fd5b50610319611572565b34801561054e57600080fd5b506102b96115b9565b34801561056357600080fd5b506102a2600435611610565b34801561057b57600080fd5b50610319611679565b34801561059057600080fd5b506103196116c7565b3480156105a557600080fd5b506102b9611721565b3480156105ba57600080fd5b50610319611778565b3480156105cf57600080fd5b506105d86117c6565b6040805167ffffffffffffffff9485168152928416602084015292168183015290519081900360600190f35b34801561061057600080fd5b506102a2600160a060020a03600435166117d1565b34801561063157600080fd5b506102a261187a565b34801561064657600080fd5b506102ed611934565b34801561065b57600080fd5b506102a260043561195f565b34801561067357600080fd5b506102a26004356119fb565b34801561068b57600080fd5b506102b9611a64565b3480156106a057600080fd5b506102a2600435611abb565b3480156106b857600080fd5b506102a2600435611ae0565b3480156106d057600080fd5b50610319611ba0565b3480156106e557600080fd5b506102a2600435611bee565b3480156106fd57600080fd5b506102a2600435611c13565b34801561071557600080fd5b506102b9611cab565b34801561072a57600080fd5b506102a2600160a060020a0360043516611d02565b34801561074b57600080fd5b50610319611d1f565b34801561076057600080fd5b506102a2611d83565b34801561077557600080fd5b506102a2611f71565b34801561078a57600080fd5b5061031961200c565b34801561079f57600080fd5b5061031961205a565b3480156107b457600080fd5b506102ed6004356120a8565b3480156107cc57600080fd5b506103196120f3565b3480156107e157600080fd5b506102a2612141565b3480156107f657600080fd5b506102a26004356122ae565b34801561080e57600080fd5b506102a2600160a060020a036004351661232a565b34801561082f57600080fd5b506102a2600160a060020a036004351661234f565b34801561085057600080fd5b506103196123c6565b34801561086557600080fd5b50610319612414565b610876612462565b600160a060020a038381169116141561088e57600080fd5b600160a060020a03821615156108a357600080fd5b600160a060020a0382163014156108b957600080fd5b600081116108c657600080fd5b6108cf816120a8565b15156108da57600080fd5b6108eb6108e5610dc1565b826124b9565b6108f36109ed565b604080517f23b872dd000000000000000000000000000000000000000000000000000000008152336004820152306024820152604481018490529051600160a060020a0392909216916323b872dd916064808201926020929091908290030181600087803b15801561096457600080fd5b505af1158015610978573d6000803e3d6000fd5b505050506040513d602081101561098e57600080fd5b505060408051600160a060020a03841681526020810183905281517f1d491a427d1f8cc0d447496f300fac39f7306122481d8e663451eb268274146b929181900390910190a16109dc611934565b156109e9576109e9611d83565b5050565b7f15d63b18dbc21bf4438b7972d80076747e1d93c4f87552fe498c90cbde51665e60005260026020527f70dfdbaec92bfd068fb9a67f8c22440e995abe75330f5b6b79a478c9bc8ccbd154600160a060020a031690565b6000600460008360405160200180807f72656c617965644d657373616765730000000000000000000000000000000000815250600f0182600019166000191681526020019150506040516020818303038152906040526040518082805190602001908083835b60208310610ac95780518252601f199092019160209182019101610aaa565b51815160209384036101000a600019018019909216911617905260408051929094018290039091208652850195909552929092016000205460ff1695945050505050565b60008060008360405160200180807f746f74616c5370656e74506572446179000000000000000000000000000000008152506010018281526020019150506040516020818303038152906040526040518082805190602001908083835b60208310610b895780518252601f199092019160209182019101610b6a565b51815160209384036101000a600019018019909216911617905260408051929094018290039091208652850195909552929092016000205495945050505050565b7f2ae87563606f93f71ad2adf4d62661ccdfb63f3f508f94700934d5877fb9227860005260046020527fb43c4ea47a5b3cf194e0662836a0c1d8d8ed020ffeb2302df1043ef3c78cfefa5460ff1690565b6000610c25611a64565b600160a060020a0316636c25b346306040518263ffffffff1660e060020a0281526004018082600160a060020a0316600160a060020a03168152602001915050602060405180830381600087803b158015610c7f57600080fd5b505af1158015610c93573d6000803e3d6000fd5b505050506040513d6020811015610ca957600080fd5b5051905090565b7f0a6f646cd611241d8073675e00d1a1ff700fbf1b53fcf473de56d1e6e4b714ba60005260046020527f078d888f9b66f3f8bfa10909e31f1e16240db73449f0500afdbbe3a70da457cc5460ff1690565b610d096115b9565b600160a060020a03163314610d1d57600080fd5b610d25611524565b811180610d30575080155b1515610d3b57600080fd5b7f21dbcab260e413c20dc13c28b7db95e2b423d1135f42bb8b7d5214a92270d237600090815260209081527fadd938dbd083a16bae12238cd914fca0afc7a30edb55b1cd5c7f1823f1b0e4218290556040805183815290517f9bebf928b90863f24cc31f726a3a7545efd409f1dcf552301b1ee3710da70d3b929181900390910190a150565b62015180420490565b7f916daedf6915000ff68ced2f0b6773fe6f2582237f92c3c95bb4d7940723007160009081526020527fd2ea0feb732edb0ffe32efd33a6b9d24d46b16eb34a4d07ce256537b6f131e425490565b600080600080610e9088888080601f0160208091040260200160405190810160405280939291908181526020018383808284375050604080516020601f8e018190048102820181019092528c815294508c93508b9250829150840183828082843750610e8994506117219350505050565b6000612582565b610ec988888080601f0160208091040260200160405190810160405280939291908181526020018383808284375061280c945050505050565b92965090945092509050610edc836114da565b15610f7857600160a060020a0381163014610ef657600080fd5b610eff82610a44565b15610f0957600080fd5b610f14826001612847565b610f1f848484612919565b1515610f2a57600080fd5b60408051600160a060020a03861681526020810185905280820184905290517f4ab7d581336d92edbea22636a613e8e76c99ac7f91137c1523db38dbfb3bf3299181900360600190a1610f83565b610f83848484610279565b5050505050505050565b7f18762d460000000000000000000000000000000000000000000000000000000090565b7f21dbcab260e413c20dc13c28b7db95e2b423d1135f42bb8b7d5214a92270d23760009081526020527fadd938dbd083a16bae12238cd914fca0afc7a30edb55b1cd5c7f1823f1b0e4215490565b60008060008360405160200180807f746f74616c45786563757465645065724461790000000000000000000000000081525060130182815260200191505060405160208183030381529060405260405180828051906020019080838360208310610b895780518252601f199092019160209182019101610b6a565b7f4a6a899679f26b73530d8cf1001e83b6f7702e04b6fdb98f3c62dc7e47e041a560009081526020527f1ab29a5cca988aee50edccdd61c5bcaa7ad4b29a03b7ee50f298ceccfe14cc4e5490565b7fce70e1dac97909c26a87aa4ada3d490673a153b3a75b22ea3364c4c7df7c551f60009081526020527f9832ebc6a539503ffa825ed4487ebf9838d217d90dfb1bc20fcb8fd2dbeb79845490565b30600160a060020a0316636fde82026040518163ffffffff1660e060020a028152600401602060405180830381600087803b15801561115457600080fd5b505af1158015611168573d6000803e3d6000fd5b505050506040513d602081101561117e57600080fd5b5051600160a060020a0316331461119457600080fd5b61119c6109ed565b600160a060020a03838116911614156111b457600080fd5b6111bc611a64565b600160a060020a031682600160a060020a03161415806111e157506111df610bca565b155b15156111ec57600080fd5b6109e98282612a14565b6111ff81612a57565b50565b60408051600481526024810182526020810180517bffffffffffffffffffffffffffffffffffffffffffffffffffffffff167f6fde8202000000000000000000000000000000000000000000000000000000001781529151815160009330939291829190808383895b8381101561128357818101518382015260200161126b565b50505050905090810190601f1680156112b05780820380516001836020036101000a031916815260200191505b509150506000604051808303816000865af19150501580611342575030600160a060020a0316636fde82026040518163ffffffff1660e060020a028152600401602060405180830381600087803b15801561130a57600080fd5b505af115801561131e573d6000803e3d6000fd5b505050506040513d602081101561133457600080fd5b5051600160a060020a031633145b8061134c57503330145b151561135757600080fd5b61135f610cb0565b1561136957600080fd5b6113728a612bc1565b151561137d57600080fd5b7f5a74bb7e202fb8e4bf311841c7d64ec19df195fee77d7e7ae749b27921b6ddfe60005260026020527fab54f3fbbe62c59b7876a9bf9bd5e0c22dbae93f4d8ee0438f7ce62b198eb0e0805473ffffffffffffffffffffffffffffffffffffffff1916600160a060020a038c161790556113f689612bc9565b7fb120ceec05576ad0c710bc6e85f1768535e27554458f05dcbb5c65b8c7a749b06000908152602052437fe66bef0282a446f9848e2903380099bb6e431483ee78778868f33b4a154c818b5561144b88612c54565b61145487612ce7565b60408051606081810190925261147c918890600390839083908082843750612cfd9350505050565b6040805180820182526114a1918790600290839083908082843750612e5a9350505050565b6114aa83612f2f565b6114b384612f98565b6114bc8261306f565b6114c46130fb565b6114cc610cb0565b9a9950505050505050505050565b6000806114fd836114f16114ec610dc1565b610fff565b9063ffffffff61315216565b905080611508610fb1565b1015801561151d5750611519611524565b8311155b9392505050565b7fc0ed44c192c86d1cc1ba51340b032c2766b4a2b0041031de13c46dd7104888d560009081526020527ff8e983ee86e5e377e9e34c9131b266382c3f04113d20de077f9e12663c7a646b5490565b600061157c611721565b600160a060020a0316638d0680436040518163ffffffff1660e060020a028152600401602060405180830381600087803b158015610c7f57600080fd5b7f02016836a56b71f0d02689e69e326f4f4c1b9057164ef592671cf0d37c8040c060005260026020527fb7802e97e87ef2842a6cce7da7ffaeaedaa2f61a6a7870b23d9d01fc9b73712e54600160a060020a031690565b6116186115b9565b600160a060020a0316331461162c57600080fd5b7f68a6a652d193e5d6439c4309583048050a11a4cfb263a220f4cd798c61c3ad6e60009081526020527f3c2f35701aefcf659746068bfc07cbb316080a369ee530aedd89382885fa526655565b7f68a6a652d193e5d6439c4309583048050a11a4cfb263a220f4cd798c61c3ad6e60009081526020527f3c2f35701aefcf659746068bfc07cbb316080a369ee530aedd89382885fa52665490565b60008060008060006116d76123c6565b93506116e161107a565b92506116f36116ee610dc1565b610b0d565b9150818311611703576000611707565b8183035b90508084106117165780611718565b835b94505050505090565b7f5a74bb7e202fb8e4bf311841c7d64ec19df195fee77d7e7ae749b27921b6ddfe60005260026020527fab54f3fbbe62c59b7876a9bf9bd5e0c22dbae93f4d8ee0438f7ce62b198eb0e054600160a060020a031690565b7fb120ceec05576ad0c710bc6e85f1768535e27554458f05dcbb5c65b8c7a749b060009081526020527fe66bef0282a446f9848e2903380099bb6e431483ee78778868f33b4a154c818b5490565b600560026000909192565b6117d96115b9565b600160a060020a031633146117ed57600080fd5b600160a060020a03811630141561180357600080fd5b7fd88509eb1a8da5d5a2fc7b9bad1c72874c9818c788e81d0bc46b29bfaa83adf660005260026020527f9fce7855975489c294c9e457c529ed8d5e394d90544806223ff4dfd426b3c5a0805473ffffffffffffffffffffffffffffffffffffffff1916600160a060020a0392909216919091179055565b611882610bca565b151561188d57600080fd5b42611896611679565b61189e6120f3565b011080611925575033600160a060020a031630600160a060020a0316636fde82026040518163ffffffff1660e060020a028152600401602060405180830381600087803b1580156118ee57600080fd5b505af1158015611902573d6000803e3d6000fd5b505050506040513d602081101561191857600080fd5b5051600160a060020a0316145b1561193257611932613165565b565b600061193e610bca565b801561195a575061194d6110c8565b6002026119586133bf565b115b905090565b6119676115b9565b600160a060020a0316331461197b57600080fd5b600081118015611991575061198e61107a565b81105b80156119a357506119a06123c6565b81105b15156119ae57600080fd5b7fbbb088c505d18e049d114c7c91f11724e69c55ad6c5397e2b929e68b41fa05d160009081526020527f8df5c48c6b6e11d97548adc824ba0c99103ec09830fa5d53a179984085e6eaa055565b611a036115b9565b600160a060020a03163314611a1757600080fd5b7fce70e1dac97909c26a87aa4ada3d490673a153b3a75b22ea3364c4c7df7c551f60009081526020527f9832ebc6a539503ffa825ed4487ebf9838d217d90dfb1bc20fcb8fd2dbeb798455565b7f5d6f4e61a116947624416975e8d26d4aff8f32e21ea6308dfa35cee98ed41fd860005260026020527fcace41c4dcbc315ff3c859dd019cbe6dc303fbc3ee19cc08729560218a1adb7754600160a060020a031690565b611ac36115b9565b600160a060020a03163314611ad757600080fd5b6111ff81612c54565b611ae86115b9565b600160a060020a03163314611afc57600080fd5b611b046123c6565b811180611b0f575080155b1515611b1a57600080fd5b7f4a6a899679f26b73530d8cf1001e83b6f7702e04b6fdb98f3c62dc7e47e041a5600090815260209081527f1ab29a5cca988aee50edccdd61c5bcaa7ad4b29a03b7ee50f298ceccfe14cc4e8290556040805183815290517fad4123ae17c414d9c6d2fec478b402e6b01856cc250fd01fbfd252fda0089d3c929181900390910190a150565b7fb6afb3323c9d7dc0e9dab5d34c3a1d1ae7739d2224c048d4ee7675d3c759dd1b60009081526020527f3460222b9a3ece8a5d0f3c356d71600f84469cf005d43ebf8cbead2960eb07005490565b611bf66115b9565b600160a060020a03163314611c0a57600080fd5b6111ff81612ce7565b611c1b6115b9565b600160a060020a03163314611c2f57600080fd5b801580611c535750611c3f61205a565b81118015611c535750611c5061107a565b81105b1515611c5e57600080fd5b7f0f8803acad17c63ee38bf2de71e1888bc7a079a6f73658e274b08018bea4e29c60009081526020527f9de0f81379b4d8e60fe509315d071b56e7b732abaf193e74e0d15808b0951d0955565b7fd88509eb1a8da5d5a2fc7b9bad1c72874c9818c788e81d0bc46b29bfaa83adf660005260026020527f9fce7855975489c294c9e457c529ed8d5e394d90544806223ff4dfd426b3c5a054600160a060020a031690565b600160a060020a0381161515611d1757600080fd5b611803612141565b6000611d29611a64565b600160a060020a03166370a08231306040518263ffffffff1660e060020a0281526004018082600160a060020a0316600160a060020a03168152602001915050602060405180830381600087803b158015610c7f57600080fd5b600080611d8e610bca565b1515611d9957600080fd5b611db8611da46110c8565b611dac6133bf565b9063ffffffff6133c916565b915060008211611dc757600080fd5b81611dd0611ba0565b019050611ddc816133db565b611de46109ed565b600160a060020a031663095ea7b3611dfa611a64565b846040518363ffffffff1660e060020a0281526004018083600160a060020a0316600160a060020a0316815260200182815260200192505050602060405180830381600087803b158015611e4d57600080fd5b505af1158015611e61573d6000803e3d6000fd5b505050506040513d6020811015611e7757600080fd5b50611e829050611a64565b600160a060020a0316633b4da69f30846040518363ffffffff1660e060020a0281526004018083600160a060020a0316600160a060020a0316815260200182815260200192505050600060405180830381600087803b158015611ee457600080fd5b505af1158015611ef8573d6000803e3d6000fd5b5050505080611f05610c1b565b612710011015611f1457600080fd5b611f1c611a64565b600160a060020a0316611f2d6109ed565b600160a060020a03167fc9eb26923da1234c68dca895268e287fcc49c6aa94a6da3cc280180ae378de13846040518082815260200191505060405180910390a35050565b611f796115b9565b600160a060020a03163314611f8d57600080fd5b611f95610bca565b1515611fa057600080fd5b611fb0611fab611ba0565b612a57565b611fb8613165565b7f2ae87563606f93f71ad2adf4d62661ccdfb63f3f508f94700934d5877fb9227860005260046020527fb43c4ea47a5b3cf194e0662836a0c1d8d8ed020ffeb2302df1043ef3c78cfefa805460ff19169055565b7f1e8ecaafaddea96ed9ac6d2642dcdfe1bebe58a930b1085842d8fc122b371ee560009081526020527fd5c78dd9468716ca9bb96be25d56436811b20aab3523a9904b12deef1cab239d5490565b7fbbb088c505d18e049d114c7c91f11724e69c55ad6c5397e2b929e68b41fa05d160009081526020527f8df5c48c6b6e11d97548adc824ba0c99103ec09830fa5d53a179984085e6eaa05490565b6000806120ba836114f16116ee610dc1565b9050806120c561107a565b101580156120da57506120d66123c6565b8311155b801561151d57506120e961205a565b9092101592915050565b7fcabd46177a706f95f4bb3e2c2ba45ac4aa1eac9c545425a19c62ab6de4aeea2660009081526020527f9c965725f76a89cb212c2b5980ead7d9327c2447d5a8f0097ac455ad5415c5e35490565b6121496115b9565b600160a060020a0316331461215d57600080fd5b612165610bca565b1561216f57600080fd5b6121776109ed565b600160a060020a0316612188611a64565b600160a060020a031663be22f5466040518163ffffffff1660e060020a028152600401602060405180830381600087803b1580156121c557600080fd5b505af11580156121d9573d6000803e3d6000fd5b505050506040513d60208110156121ef57600080fd5b5051600160a060020a03161461220457600080fd5b7fb43c4ea47a5b3cf194e0662836a0c1d8d8ed020ffeb2302df1043ef3c78cfefa805460ff191660011790556000602081905268056bc75e2d631000007f9832ebc6a539503ffa825ed4487ebf9838d217d90dfb1bc20fcb8fd2dbeb7984557f68a6a652d193e5d6439c4309583048050a11a4cfb263a220f4cd798c61c3ad6e905262093a807f3c2f35701aefcf659746068bfc07cbb316080a369ee530aedd89382885fa526655565b6122b66115b9565b600160a060020a031633146122ca57600080fd5b6122d2610fb1565b81106122dd57600080fd5b7fc0ed44c192c86d1cc1ba51340b032c2766b4a2b0041031de13c46dd7104888d560009081526020527ff8e983ee86e5e377e9e34c9131b266382c3f04113d20de077f9e12663c7a646b55565b6123326115b9565b600160a060020a0316331461234657600080fd5b6111ff81612f98565b7f5d6f4e61a116947624416975e8d26d4aff8f32e21ea6308dfa35cee98ed41fd860005260026020527fcace41c4dcbc315ff3c859dd019cbe6dc303fbc3ee19cc08729560218a1adb77805473ffffffffffffffffffffffffffffffffffffffff1916600160a060020a0392909216919091179055565b7f0f8803acad17c63ee38bf2de71e1888bc7a079a6f73658e274b08018bea4e29c60009081526020527f9de0f81379b4d8e60fe509315d071b56e7b732abaf193e74e0d15808b0951d095490565b7f55b3774520b5993024893d303890baa4e84b1244a43c60034d1ced2d3cf2b04b60009081526020527ff7d5eefab3776d7f0450bd0193564bcb4f832ce313ff2836c450fc63a4b944195490565b7f71483949fe7a14d16644d63320f24d10cf1d60abecc30cc677a340e82b699dd260005260026020527f21ffdf150a5d180f96d98d16f50e7b4dd63e2a067adc8386cf5af55dcecd8dd954600160a060020a031690565b6124c6816114f184610b0d565b6000808460405160200180807f746f74616c5370656e74506572446179000000000000000000000000000000008152506010018281526020019150506040516020818303038152906040526040518082805190602001908083835b602083106125405780518252601f199092019160209182019101612521565b51815160209384036101000a60001901801990921691161790526040805192909401829003909120865285019590955292909201600020939093555050505050565b6000806000606060008060008060008060008b806125a457506125a48f613428565b15156125af57600080fd5b8c600160a060020a0316638d0680436040518163ffffffff1660e060020a028152600401602060405180830381600087803b1580156125ed57600080fd5b505af1158015612601573d6000803e3d6000fd5b505050506040513d602081101561261757600080fd5b505160018f0151909b5060ff1699508a8a101561263357600080fd5b61263d8f8d61343c565b98508a604051908082528060200260200182016040528015612669578160200160208202803883390190505b509750600096505b8a8710156127fb57866020028a6021010192508960200283019150866002018e01519550828e01519450818e01519350600189878787604051600081526020016040526040518085600019166000191681526020018460ff1660ff1681526020018360001916600019168152602001826000191660001916815260200194505050505060206040516020810390808403906000865af1158015612718573d6000803e3d6000fd5b5050506020604051035190508c600160a060020a031663facd743b826040518263ffffffff1660e060020a0281526004018082600160a060020a0316600160a060020a03168152602001915050602060405180830381600087803b15801561277f57600080fd5b505af1158015612793573d6000803e3d6000fd5b505050506040513d60208110156127a957600080fd5b505115156127b657600080fd5b6127c08882613656565b156127ca57600080fd5b8088888151811015156127d957fe5b600160a060020a03909216602092830290910190910152600190960195612671565b505050505050505050505050505050565b60008060008061281b85613428565b151561282657600080fd5b50505050601481015160348201516054830151606890930151919390929190565b80600460008460405160200180807f72656c617965644d657373616765730000000000000000000000000000000000815250600f0182600019166000191681526020019150506040516020818303038152906040526040518082805190602001908083835b602083106128cb5780518252601f1990920191602091820191016128ac565b51815160209384036101000a60001901801990921691161790526040805192909401829003909120865285019590955292909201600020805460ff1916941515949094179093555050505050565b60008060008061293061292a610dc1565b876136b1565b61293986613737565b925061294b6129466109ed565b61374d565b91508282101561297357612973611fab6129636110c8565b6114f1868663ffffffff6133c916565b61297b6109ed565b600160a060020a031663a9059cbb88856040518363ffffffff1660e060020a0281526004018083600160a060020a0316600160a060020a0316815260200182815260200192505050602060405180830381600087803b1580156129dd57600080fd5b505af11580156129f1573d6000803e3d6000fd5b505050506040513d6020811015612a0757600080fd5b5051979650505050505050565b80600160a060020a0381161515612a2a57600080fd5b600160a060020a0383161515612a4857612a43826137e3565b612a52565b612a5283836137ef565b505050565b600080808080851515612a6957612bb9565b612a71611ba0565b9450612a7b6133bf565b935084861015612a8b5785612a8d565b845b9250612a97611a64565b600160a060020a0316634a03707c30856040518363ffffffff1660e060020a0281526004018083600160a060020a0316600160a060020a0316815260200182815260200192505050600060405180830381600087803b158015612af957600080fd5b505af1158015612b0d573d6000803e3d6000fd5b5050505083612b1a6133bf565b03915082821015612b2a57600080fd5b818511612b38576000612b3c565b8185035b9050612b47816133db565b80612b50610c1b565b612710011015612b5f57600080fd5b612b676109ed565b600160a060020a0316612b78611a64565b600160a060020a03167fc9eb26923da1234c68dca895268e287fcc49c6aa94a6da3cc280180ae378de13846040518082815260200191505060405180910390a35b505050505050565b6000903b1190565b612bd281612bc1565b1515612bdd57600080fd5b7f15d63b18dbc21bf4438b7972d80076747e1d93c4f87552fe498c90cbde51665e60005260026020527f70dfdbaec92bfd068fb9a67f8c22440e995abe75330f5b6b79a478c9bc8ccbd1805473ffffffffffffffffffffffffffffffffffffffff1916600160a060020a0392909216919091179055565b60008111612c6157600080fd5b7f916daedf6915000ff68ced2f0b6773fe6f2582237f92c3c95bb4d79407230071600090815260209081527fd2ea0feb732edb0ffe32efd33a6b9d24d46b16eb34a4d07ce256537b6f131e428290556040805183815290517f4fb76205cd57c896b21511d2114137d8e901b4ccd659e1a0f97d6306795264fb929181900390910190a150565b60008111612cf457600080fd5b6111ff816138a2565b60408101516000108015612d18575060408101516020820151115b8015612d28575060208101518151115b1515612d3357600080fd5b80517f4a6a899679f26b73530d8cf1001e83b6f7702e04b6fdb98f3c62dc7e47e041a5600090815260208181527f1ab29a5cca988aee50edccdd61c5bcaa7ad4b29a03b7ee50f298ceccfe14cc4e92909255908201517f0f8803acad17c63ee38bf2de71e1888bc7a079a6f73658e274b08018bea4e29c82527f9de0f81379b4d8e60fe509315d071b56e7b732abaf193e74e0d15808b0951d095560408201517fbbb088c505d18e049d114c7c91f11724e69c55ad6c5397e2b929e68b41fa05d182527f8df5c48c6b6e11d97548adc824ba0c99103ec09830fa5d53a179984085e6eaa0557fad4123ae17c414d9c6d2fec478b402e6b01856cc250fd01fbfd252fda0089d3c9082905b60200201516040518082815260200191505060405180910390a150565b8051602082015110612e6b57600080fd5b80517f21dbcab260e413c20dc13c28b7db95e2b423d1135f42bb8b7d5214a92270d237600090815260208181527fadd938dbd083a16bae12238cd914fca0afc7a30edb55b1cd5c7f1823f1b0e42192909255908201517fc0ed44c192c86d1cc1ba51340b032c2766b4a2b0041031de13c46dd7104888d582527ff8e983ee86e5e377e9e34c9131b266382c3f04113d20de077f9e12663c7a646b557f9bebf928b90863f24cc31f726a3a7545efd409f1dcf552301b1ee3710da70d3b908290612e3d565b604c1981138015612f405750604d81125b1515612f4b57600080fd5b7f1e8ecaafaddea96ed9ac6d2642dcdfe1bebe58a930b1085842d8fc122b371ee560009081526020527fd5c78dd9468716ca9bb96be25d56436811b20aab3523a9904b12deef1cab239d55565b600160a060020a0381161515612fad57600080fd5b7f8be0079c531659141344cd1fd0a4f28419497f9722a3daafe3b4186f6b6457e0612fd66115b9565b60408051600160a060020a03928316815291841660208301528051918290030190a17f02016836a56b71f0d02689e69e326f4f4c1b9057164ef592671cf0d37c8040c060005260026020527fb7802e97e87ef2842a6cce7da7ffaeaedaa2f61a6a7870b23d9d01fc9b73712e805473ffffffffffffffffffffffffffffffffffffffff1916600160a060020a0392909216919091179055565b600160a060020a038116151561308457600080fd5b7f71483949fe7a14d16644d63320f24d10cf1d60abecc30cc677a340e82b699dd260005260026020527f21ffdf150a5d180f96d98d16f50e7b4dd63e2a067adc8386cf5af55dcecd8dd9805473ffffffffffffffffffffffffffffffffffffffff1916600160a060020a0392909216919091179055565b7f0a6f646cd611241d8073675e00d1a1ff700fbf1b53fcf473de56d1e6e4b714ba60005260046020527f078d888f9b66f3f8bfa10909e31f1e16240db73449f0500afdbbe3a70da457cc805460ff19166001179055565b8181018281101561315f57fe5b92915050565b600080613170611cab565b9150600160a060020a038216151561318757600080fd5b7fcabd46177a706f95f4bb3e2c2ba45ac4aa1eac9c545425a19c62ab6de4aeea266000908152602052427f9c965725f76a89cb212c2b5980ead7d9327c2447d5a8f0097ac455ad5415c5e3556131e66131de613928565b611dac611d1f565b90506131f0611a64565b600160a060020a031663a9059cbb83836040518363ffffffff1660e060020a0281526004018083600160a060020a0316600160a060020a0316815260200182815260200192505050600060405180830381600087803b15801561325257600080fd5b505af1158015613266573d6000803e3d6000fd5b5050604080513060248201526044810185905260606064820152600060848201819052825180830360a401815260c490920183526020820180517bffffffffffffffffffffffffffffffffffffffffffffffffffffffff167fa4c0ed360000000000000000000000000000000000000000000000000000000017815292518251600160a060020a038916965092945092839290918190849084905b83811015613319578181015183820152602001613301565b50505050905090810190601f1680156133465780820380516001836020036101000a031916815260200191505b509150506000604051808303816000865af191505050613364611ba0565b61336c610c1b565b101561337757600080fd5b60408051600160a060020a03841681526020810183905281517f86dc5ede44424c20a9b49f40c8b747abf8ddd6cf308b4b7f936542c9b1e2571a929181900390910190a15050565b6000611d296109ed565b6000828211156133d557fe5b50900390565b7fb6afb3323c9d7dc0e9dab5d34c3a1d1ae7739d2224c048d4ee7675d3c759dd1b60009081526020527f3460222b9a3ece8a5d0f3c356d71600f84469cf005d43ebf8cbead2960eb070055565b6000613432613b23565b8251149050919050565b60408051808201909152601a81527f19457468657265756d205369676e6564204d6573736167653a0a0000000000006020820152600090606083156135e257816134868651613b28565b866040516020018084805190602001908083835b602083106134b95780518252601f19909201916020918201910161349a565b51815160209384036101000a600019018019909216911617905286519190930192860191508083835b602083106135015780518252601f1990920191602091820191016134e2565b51815160209384036101000a600019018019909216911617905285519190930192850191508083835b602083106135495780518252601f19909201916020918201910161352a565b6001836020036101000a03801982511681845116808217855250505050505090500193505050506040516020818303038152906040526040518082805190602001908083835b602083106135ae5780518252601f19909201916020918201910161358f565b6001836020036101000a0380198251168184511680821785525050505050509050019150506040518091039020925061364e565b6040805190810160405280600381526020017f31303400000000000000000000000000000000000000000000000000000000008152509050818186604051602001808480519060200190808383602083106134b95780518252601f19909201916020918201910161349a565b505092915050565b6000805b83518110156136a55782600160a060020a0316848281518110151561367b57fe5b90602001906020020151600160a060020a0316141561369d57600191506136aa565b60010161365a565b600091505b5092915050565b6136be816114f184610fff565b6000808460405160200180807f746f74616c457865637574656450657244617900000000000000000000000000815250601301828152602001915050604051602081830303815290604052604051808280519060200190808383602083106125405780518252601f199092019160209182019101612521565b600061315f8261374561200c565b600003613c4f565b604080517f70a082310000000000000000000000000000000000000000000000000000000081523060048201529051600091600160a060020a038416916370a082319160248082019260209290919082900301818787803b1580156137b157600080fd5b505af11580156137c5573d6000803e3d6000fd5b505050506040513d60208110156137db57600080fd5b505192915050565b30316109e98282613c9a565b604080517f70a0823100000000000000000000000000000000000000000000000000000000815230600482015290518391600091600160a060020a038416916370a0823191602480830192602092919082900301818787803b15801561385457600080fd5b505af1158015613868573d6000803e3d6000fd5b505050506040513d602081101561387e57600080fd5b5051905061389c600160a060020a038516848363ffffffff613d0216565b50505050565b7f55b3774520b5993024893d303890baa4e84b1244a43c60034d1ced2d3cf2b04b600090815260209081527ff7d5eefab3776d7f0450bd0193564bcb4f832ce313ff2836c450fc63a4b944198290556040805183815290517f52264b89e0fceafb26e79fd49ef8a366eb6297483bf4035b027f0c99a7ad512e929181900390910190a150565b6000806000613935611a64565b600160a060020a0316634ba2363a6040518163ffffffff1660e060020a028152600401602060405180830381600087803b15801561397257600080fd5b505af1158015613986573d6000803e3d6000fd5b505050506040513d602081101561399c57600080fd5b5051604080517f20aba08b0000000000000000000000000000000000000000000000000000000081529051919350600160a060020a038416916320aba08b916004808201926020929091908290030181600087803b1580156139fd57600080fd5b505af1158015613a11573d6000803e3d6000fd5b505050506040513d6020811015613a2757600080fd5b50514211613a9e5781600160a060020a031663c92aecc46040518163ffffffff1660e060020a028152600401602060405180830381600087803b158015613a6d57600080fd5b505af1158015613a81573d6000803e3d6000fd5b505050506040513d6020811015613a9757600080fd5b5051613b09565b81600160a060020a0316639f678cca6040518163ffffffff1660e060020a028152600401602060405180830381600087803b158015613adc57600080fd5b505af1158015613af0573d6000803e3d6000fd5b505050506040513d6020811015613b0657600080fd5b50515b9050613b1c613b16611ba0565b82613d97565b9250505090565b606890565b60606000808281851515613b715760408051808201909152600181527f300000000000000000000000000000000000000000000000000000000000000060208201529450613c46565b8593505b8315613b8c57600190920191600a84049350613b75565b826040519080825280601f01601f191660200182016040528015613bba578160200160208202803883390190505b5091505060001982015b8515613c425781516000198201917f01000000000000000000000000000000000000000000000000000000000000006030600a8a060102918491908110613c0757fe5b9060200101907effffffffffffffffffffffffffffffffffffffffffffffffffffffffffffff1916908160001a905350600a86049550613bc4565b8194505b50505050919050565b6000811515613c5f57508161315f565b6000821315613c8357613c7c83600a84900a63ffffffff613ddb16565b905061315f565b61151d836000849003600a0a63ffffffff613e0416565b604051600160a060020a0383169082156108fc029083906000818181858888f1935050505015156109e9578082613ccf613e11565b600160a060020a039091168152604051908190036020019082f080158015613cfb573d6000803e3d6000fd5b5050505050565b82600160a060020a031663a9059cbb83836040518363ffffffff1660e060020a0281526004018083600160a060020a0316600160a060020a0316815260200182815260200192505050600060405180830381600087803b158015613d6557600080fd5b505af1158015613d79573d6000803e3d6000fd5b505050503d15612a525760206000803e6000511515612a5257600080fd5b600081613dca613dae82600163ffffffff6133c916565b6114f1866b033b2e3c9fd0803ce800000063ffffffff613ddb16565b811515613dd357fe5b049392505050565b6000821515613dec5750600061315f565b50818102818382811515613dfc57fe5b041461315f57fe5b60008183811515613dd357fe5b604051602180613e21833901905600608060405260405160208060218339810160405251600160a060020a038116ff00a165627a7a7230582053258a449116e0eaa7a146c19b210092dcba8a695b5189daba339514ec9d53170029",
  "source": "pragma solidity 0.4.24;\n\nimport \"../upgradeable_contracts/erc20_to_native/ForeignBridgeErcToNative.sol\";\n\ncontract ForeignBridgeErcToNativeMock is ForeignBridgeErcToNative {\n    bytes32 internal constant CHAI_TOKEN_MOCK = 0x5d6f4e61a116947624416975e8d26d4aff8f32e21ea6308dfa35cee98ed41fd8; // keccak256(abi.encodePacked(\"chaiTokenMock\"))\n\n    function setChaiToken(IChai _chaiToken) external {\n        addressStorage[CHAI_TOKEN_MOCK] = _chaiToken;\n    }\n\n    function chaiToken() public view returns (IChai) {\n        return IChai(addressStorage[CHAI_TOKEN_MOCK]);\n    }\n\n    function convertChaiToDai(uint256 amount) external {\n        _convertChaiToDai(amount);\n    }\n}\n",
  "sourcePath": "/home/analiser/bridge-frontend/contracts/mocks/ForeignBridgeErcToNativeMock.sol",
  "compiler": {
    "name": "solc",
    "version": "0.4.24+commit.e67f0147.Emscripten.clang"
  },
  "schemaVersion": "3.4.3",
  "updatedAt": "2021-09-03T05:10:27.495Z",
  "devdoc": {
    "methods": {
      "chaiBalance()": {
        "details": "Evaluates bridge balance in Chai tokens",
        "return": "Balance in chai, exact"
      },
      "claimTokens(address,address)": {
        "details": "Withdraws the erc20 tokens or native coins from this contract.",
        "params": {
          "_to": "address of the tokens/coins receiver.",
          "_token": "address of the claimed token or address(0) for native coins."
        }
      },
      "convertDaiToChai()": {
        "details": "Converts all DAI into Chai tokens, keeping minDaiTokenBalance() DAI as a buffer"
      },
      "decimalShift()": {
        "details": "Returns the value of foreign-to-home decimal shift.",
        "return": "decimal shift."
      },
      "dsrBalance()": {
        "details": "Evaluates bridge balance for tokens, holded in DSR",
        "return": "Balance in dai, truncated"
      },
      "executeSignatures(bytes,bytes)": {
        "details": "Validates provided signatures and relays a given message",
        "params": {
          "message": "bytes to be relayed",
          "signatures": "bytes blob with signatures to be validated"
        }
      },
      "initializeChaiToken()": {
        "details": "Initializes chai token"
      },
      "initializeChaiToken(address)": {
        "details": "Initializes chai token, with interestReceiver",
        "params": {
          "_interestReceiver": "Receiver address"
        }
      },
      "interestCollectionPeriod()": {
        "return": "Configured minimum interest collection period"
      },
      "interestReceiver()": {
        "return": "Configured address of a receiver"
      },
      "investedAmountInDai()": {
        "details": "Evaluates exact current invested amount, in DAI",
        "return": "Value in DAI"
      },
      "isChaiTokenEnabled()": {
        "return": "true, if chai token is enabled"
      },
      "isDaiNeedsToBeInvested()": {
        "details": "Checks if DAI balance is high enough to be partially converted to Chai Twice limit is used in order to decrease frequency of convertDaiToChai calls, In case of high bridge utilization in DAI => xDAI direction, convertDaiToChai() will be called as soon as DAI balance reaches 2 * limit, limit DAI will be left as a buffer for future operations.",
        "return": "true if convertDaiToChai() call is needed to be performed by the oracle"
      },
      "lastInterestPayment()": {
        "return": "Timestamp of last interest payment"
      },
      "maxAvailablePerTx()": {
        "details": "Retrieves maximum available bridge amount per one transaction taking into account maxPerTx() and dailyLimit() parameters.",
        "return": "minimum of maxPerTx parameter and remaining daily quota."
      },
      "minDaiTokenBalance()": {
        "details": "Evaluates edge DAI token balance, which has an impact on the invest amounts",
        "return": "Value in DAI"
      },
      "owner()": {
        "details": "Tells the address of the owner",
        "return": "the address of the owner"
      },
      "payInterest()": {
        "details": "Pays all available interest, in Dai tokens. Upgradeability owner can call this method without time restrictions, for others, the method can be called only once a specified period."
      },
      "removeChaiToken()": {
        "details": "Withdraws all invested tokens, pays remaining interest, removes chai token from contract storage"
      },
      "setGasPrice(uint256)": {
        "details": "Public setter for fallback gas price value. Only bridge owner can call this method.",
        "params": {
          "_gasPrice": "new value for the gas price."
        }
      },
      "setInterestCollectionPeriod(uint256)": {
        "details": "Configures minimum interest collection period",
        "params": {
          "period": "collection period"
        }
      },
      "setInterestReceiver(address)": {
        "params": {
          "receiver": "New receiver address"
        }
      },
      "setMinDaiTokenBalance(uint256)": {
        "details": "Sets minimum DAI limit, needed for converting DAI into CHAI"
      },
      "transferOwnership(address)": {
        "details": "Allows the current owner to transfer control of the contract to a newOwner.",
        "params": {
          "newOwner": "the address to transfer ownership to."
        }
      }
    }
  },
  "userdoc": {
    "methods": {
      "setInterestReceiver(address)": {
        "notice": "Updates interest receiver address"
      }
    }
  }
}