{
  "contractName": "ForeignAMBWithGasToken",
  "abi": [
    {
      "constant": true,
      "inputs": [],
      "name": "transactionHash",
      "outputs": [
        {
          "name": "",
          "type": "bytes32"
        }
      ],
      "payable": false,
      "stateMutability": "view",
      "type": "function"
    },
    {
      "constant": true,
      "inputs": [],
      "name": "sourceChainId",
      "outputs": [
        {
          "name": "",
          "type": "uint256"
        }
      ],
      "payable": false,
      "stateMutability": "view",
      "type": "function"
    },
    {
      "constant": false,
      "inputs": [
        {
          "name": "_contract",
          "type": "address"
        },
        {
          "name": "_data",
          "type": "bytes"
        },
        {
          "name": "_gas",
          "type": "uint256"
        },
        {
          "name": "_dataType",
          "type": "uint256"
        }
      ],
      "name": "_sendMessage",
      "outputs": [
        {
          "name": "",
          "type": "bytes32"
        }
      ],
      "payable": false,
      "stateMutability": "nonpayable",
      "type": "function"
    },
    {
      "constant": true,
      "inputs": [
        {
          "name": "_txHash",
          "type": "bytes32"
        }
      ],
      "name": "relayedMessages",
      "outputs": [
        {
          "name": "",
          "type": "bool"
        }
      ],
      "payable": false,
      "stateMutability": "view",
      "type": "function"
    },
    {
      "constant": false,
      "inputs": [
        {
          "name": "_targetMintValue",
          "type": "uint256"
        }
      ],
      "name": "setGasTokenTargetMintValue",
      "outputs": [],
      "payable": false,
      "stateMutability": "nonpayable",
      "type": "function"
    },
    {
      "constant": false,
      "inputs": [
        {
          "name": "_data",
          "type": "bytes"
        },
        {
          "name": "_signatures",
          "type": "bytes"
        }
      ],
      "name": "safeExecuteSignaturesWithAutoGasLimit",
      "outputs": [],
      "payable": false,
      "stateMutability": "nonpayable",
      "type": "function"
    },
    {
      "constant": false,
      "inputs": [
        {
          "name": "_sourceChainId",
          "type": "uint256"
        },
        {
          "name": "_destinationChainId",
          "type": "uint256"
        },
        {
          "name": "_validatorContract",
          "type": "address"
        },
        {
          "name": "_maxGasPerTx",
          "type": "uint256"
        },
        {
          "name": "_gasPrice",
          "type": "uint256"
        },
        {
          "name": "_requiredBlockConfirmations",
          "type": "uint256"
        },
        {
          "name": "_owner",
          "type": "address"
        }
      ],
      "name": "initialize",
      "outputs": [
        {
          "name": "",
          "type": "bool"
        }
      ],
      "payable": false,
      "stateMutability": "nonpayable",
      "type": "function"
    },
    {
      "constant": true,
      "inputs": [],
      "name": "isInitialized",
      "outputs": [
        {
          "name": "",
          "type": "bool"
        }
      ],
      "payable": false,
      "stateMutability": "view",
      "type": "function"
    },
    {
      "constant": true,
      "inputs": [],
      "name": "requiredBlockConfirmations",
      "outputs": [
        {
          "name": "",
          "type": "uint256"
        }
      ],
      "payable": false,
      "stateMutability": "view",
      "type": "function"
    },
    {
      "constant": false,
      "inputs": [
        {
          "name": "_data",
          "type": "bytes"
        },
        {
          "name": "_signatures",
          "type": "bytes"
        }
      ],
      "name": "executeSignatures",
      "outputs": [],
      "payable": false,
      "stateMutability": "nonpayable",
      "type": "function"
    },
    {
      "constant": true,
      "inputs": [
        {
          "name": "_data",
          "type": "bytes"
        }
      ],
      "name": "getMinimumGasUsage",
      "outputs": [
        {
          "name": "gas",
          "type": "uint256"
        }
      ],
      "payable": false,
      "stateMutability": "pure",
      "type": "function"
    },
    {
      "constant": true,
      "inputs": [
        {
          "name": "_messageId",
          "type": "bytes32"
        }
      ],
      "name": "failedMessageReceiver",
      "outputs": [
        {
          "name": "",
          "type": "address"
        }
      ],
      "payable": false,
      "stateMutability": "view",
      "type": "function"
    },
    {
      "constant": true,
      "inputs": [],
      "name": "getBridgeMode",
      "outputs": [
        {
          "name": "_data",
          "type": "bytes4"
        }
      ],
      "payable": false,
      "stateMutability": "pure",
      "type": "function"
    },
    {
      "constant": false,
      "inputs": [
        {
          "name": "_sourceChainId",
          "type": "uint256"
        },
        {
          "name": "_destinationChainId",
          "type": "uint256"
        }
      ],
      "name": "setChainIds",
      "outputs": [],
      "payable": false,
      "stateMutability": "nonpayable",
      "type": "function"
    },
    {
      "constant": true,
      "inputs": [
        {
          "name": "_messageId",
          "type": "bytes32"
        }
      ],
      "name": "failedMessageSender",
      "outputs": [
        {
          "name": "",
          "type": "address"
        }
      ],
      "payable": false,
      "stateMutability": "view",
      "type": "function"
    },
    {
      "constant": true,
      "inputs": [],
      "name": "allowReentrantRequests",
      "outputs": [
        {
          "name": "",
          "type": "bool"
        }
      ],
      "payable": false,
      "stateMutability": "view",
      "type": "function"
    },
    {
      "constant": true,
      "inputs": [],
      "name": "messageId",
      "outputs": [
        {
          "name": "id",
          "type": "bytes32"
        }
      ],
      "payable": false,
      "stateMutability": "view",
      "type": "function"
    },
    {
      "constant": true,
      "inputs": [],
      "name": "gasTokenReceiver",
      "outputs": [
        {
          "name": "",
          "type": "address"
        }
      ],
      "payable": false,
      "stateMutability": "view",
      "type": "function"
    },
    {
      "constant": false,
      "inputs": [
        {
          "name": "_maxGasPerTx",
          "type": "uint256"
        }
      ],
      "name": "setMaxGasPerTx",
      "outputs": [],
      "payable": false,
      "stateMutability": "nonpayable",
      "type": "function"
    },
    {
      "constant": true,
      "inputs": [],
      "name": "requiredSignatures",
      "outputs": [
        {
          "name": "",
          "type": "uint256"
        }
      ],
      "payable": false,
      "stateMutability": "view",
      "type": "function"
    },
    {
      "constant": true,
      "inputs": [],
      "name": "owner",
      "outputs": [
        {
          "name": "",
          "type": "address"
        }
      ],
      "payable": false,
      "stateMutability": "view",
      "type": "function"
    },
    {
      "constant": true,
      "inputs": [],
      "name": "validatorContract",
      "outputs": [
        {
          "name": "",
          "type": "address"
        }
      ],
      "payable": false,
      "stateMutability": "view",
      "type": "function"
    },
    {
      "constant": true,
      "inputs": [],
      "name": "deployedAtBlock",
      "outputs": [
        {
          "name": "",
          "type": "uint256"
        }
      ],
      "payable": false,
      "stateMutability": "view",
      "type": "function"
    },
    {
      "constant": true,
      "inputs": [],
      "name": "getBridgeInterfacesVersion",
      "outputs": [
        {
          "name": "major",
          "type": "uint64"
        },
        {
          "name": "minor",
          "type": "uint64"
        },
        {
          "name": "patch",
          "type": "uint64"
        }
      ],
      "payable": false,
      "stateMutability": "pure",
      "type": "function"
    },
    {
      "constant": true,
      "inputs": [],
      "name": "messageSourceChainId",
      "outputs": [
        {
          "name": "id",
          "type": "uint256"
        }
      ],
      "payable": false,
      "stateMutability": "view",
      "type": "function"
    },
    {
      "constant": false,
      "inputs": [
        {
          "name": "_receiver",
          "type": "address"
        }
      ],
      "name": "setGasTokenReceiver",
      "outputs": [],
      "payable": false,
      "stateMutability": "nonpayable",
      "type": "function"
    },
    {
      "constant": false,
      "inputs": [
        {
          "name": "_blockConfirmations",
          "type": "uint256"
        }
      ],
      "name": "setRequiredBlockConfirmations",
      "outputs": [],
      "payable": false,
      "stateMutability": "nonpayable",
      "type": "function"
    },
    {
      "constant": true,
      "inputs": [],
      "name": "destinationChainId",
      "outputs": [
        {
          "name": "",
          "type": "uint256"
        }
      ],
      "payable": false,
      "stateMutability": "view",
      "type": "function"
    },
    {
      "constant": false,
      "inputs": [
        {
          "name": "_gasPrice",
          "type": "uint256"
        }
      ],
      "name": "setGasPrice",
      "outputs": [],
      "payable": false,
      "stateMutability": "nonpayable",
      "type": "function"
    },
    {
      "constant": false,
      "inputs": [
        {
          "name": "_enable",
          "type": "bool"
        }
      ],
      "name": "setAllowReentrantRequests",
      "outputs": [],
      "payable": false,
      "stateMutability": "nonpayable",
      "type": "function"
    },
    {
      "constant": true,
      "inputs": [],
      "name": "gasToken",
      "outputs": [
        {
          "name": "",
          "type": "address"
        }
      ],
      "payable": false,
      "stateMutability": "pure",
      "type": "function"
    },
    {
      "constant": true,
      "inputs": [
        {
          "name": "_messageId",
          "type": "bytes32"
        }
      ],
      "name": "messageCallStatus",
      "outputs": [
        {
          "name": "",
          "type": "bool"
        }
      ],
      "payable": false,
      "stateMutability": "view",
      "type": "function"
    },
    {
      "constant": true,
      "inputs": [],
      "name": "messageSender",
      "outputs": [
        {
          "name": "sender",
          "type": "address"
        }
      ],
      "payable": false,
      "stateMutability": "view",
      "type": "function"
    },
    {
      "constant": true,
      "inputs": [],
      "name": "decimalShift",
      "outputs": [
        {
          "name": "",
          "type": "int256"
        }
      ],
      "payable": false,
      "stateMutability": "view",
      "type": "function"
    },
    {
      "constant": true,
      "inputs": [],
      "name": "gasTokenTargetMintValue",
      "outputs": [
        {
          "name": "",
          "type": "uint256"
        }
      ],
      "payable": false,
      "stateMutability": "view",
      "type": "function"
    },
    {
      "constant": true,
      "inputs": [
        {
          "name": "_messageId",
          "type": "bytes32"
        }
      ],
      "name": "failedMessageDataHash",
      "outputs": [
        {
          "name": "",
          "type": "bytes32"
        }
      ],
      "payable": false,
      "stateMutability": "view",
      "type": "function"
    },
    {
      "constant": true,
      "inputs": [],
      "name": "maxGasPerTx",
      "outputs": [
        {
          "name": "",
          "type": "uint256"
        }
      ],
      "payable": false,
      "stateMutability": "view",
      "type": "function"
    },
    {
      "constant": false,
      "inputs": [
        {
          "name": "_data",
          "type": "bytes"
        },
        {
          "name": "_signatures",
          "type": "bytes"
        },
        {
          "name": "_gas",
          "type": "uint32"
        }
      ],
      "name": "safeExecuteSignaturesWithGasLimit",
      "outputs": [],
      "payable": false,
      "stateMutability": "nonpayable",
      "type": "function"
    },
    {
      "constant": false,
      "inputs": [
        {
          "name": "_data",
          "type": "bytes"
        },
        {
          "name": "_signatures",
          "type": "bytes"
        }
      ],
      "name": "safeExecuteSignatures",
      "outputs": [],
      "payable": false,
      "stateMutability": "nonpayable",
      "type": "function"
    },
    {
      "constant": false,
      "inputs": [
        {
          "name": "_targetMintValue",
          "type": "uint256"
        },
        {
          "name": "_receiver",
          "type": "address"
        }
      ],
      "name": "setGasTokenParameters",
      "outputs": [],
      "payable": false,
      "stateMutability": "nonpayable",
      "type": "function"
    },
    {
      "constant": false,
      "inputs": [
        {
          "name": "newOwner",
          "type": "address"
        }
      ],
      "name": "transferOwnership",
      "outputs": [],
      "payable": false,
      "stateMutability": "nonpayable",
      "type": "function"
    },
    {
      "constant": true,
      "inputs": [],
      "name": "gasPrice",
      "outputs": [
        {
          "name": "",
          "type": "uint256"
        }
      ],
      "payable": false,
      "stateMutability": "view",
      "type": "function"
    },
    {
      "anonymous": false,
      "inputs": [
        {
          "indexed": true,
          "name": "messageId",
          "type": "bytes32"
        },
        {
          "indexed": false,
          "name": "encodedData",
          "type": "bytes"
        }
      ],
      "name": "UserRequestForAffirmation",
      "type": "event"
    },
    {
      "anonymous": false,
      "inputs": [
        {
          "indexed": true,
          "name": "sender",
          "type": "address"
        },
        {
          "indexed": true,
          "name": "executor",
          "type": "address"
        },
        {
          "indexed": true,
          "name": "messageId",
          "type": "bytes32"
        },
        {
          "indexed": false,
          "name": "status",
          "type": "bool"
        }
      ],
      "name": "RelayedMessage",
      "type": "event"
    },
    {
      "anonymous": false,
      "inputs": [
        {
          "indexed": false,
          "name": "gasPrice",
          "type": "uint256"
        }
      ],
      "name": "GasPriceChanged",
      "type": "event"
    },
    {
      "anonymous": false,
      "inputs": [
        {
          "indexed": false,
          "name": "requiredBlockConfirmations",
          "type": "uint256"
        }
      ],
      "name": "RequiredBlockConfirmationChanged",
      "type": "event"
    },
    {
      "anonymous": false,
      "inputs": [
        {
          "indexed": false,
          "name": "previousOwner",
          "type": "address"
        },
        {
          "indexed": false,
          "name": "newOwner",
          "type": "address"
        }
      ],
      "name": "OwnershipTransferred",
      "type": "event"
    },
    {
      "constant": false,
      "inputs": [
        {
          "name": "_contract",
          "type": "address"
        },
        {
          "name": "_data",
          "type": "bytes"
        },
        {
          "name": "_gas",
          "type": "uint256"
        }
      ],
      "name": "requireToPassMessage",
      "outputs": [
        {
          "name": "messageId",
          "type": "bytes32"
        }
      ],
      "payable": false,
      "stateMutability": "nonpayable",
      "type": "function"
    }
  ],
  "bytecode": "0x608060405234801561001057600080fd5b50613440806100206000396000f3006080604052600436106101f55763ffffffff60e060020a6000350416630ac1c31381146101fa5780631544298e14610221578063163cef351461023657806321d800ec146102a657806323b4a1fd146102d257806323caab49146102ec57806325fbf4ee14610318578063392e53cd146103515780633f0a9f65146103665780633f7658fd1461037b5780633f768c06146104125780633f9a8e7e1461046b578063437764df1461049f578063467ad35a146104e65780634a610b04146105015780634d4cb7a214610519578063669f618b1461052e5780636c388e54146105435780637bac29c7146105585780638d068043146105705780638da5cb5b14610585578063994390891461059a5780639a454b99146105af5780639cb7595a146105c45780639e307dff146106055780639f1ed0c71461061a578063acf5c6891461063b578063b075061114610653578063bf1fe42014610668578063c2231ad214610680578063c91d59fe1461069a578063cb08a10c146106af578063d67bdd25146106c7578063dae5f0fd146106dc578063dc8601b3146106f1578063de6e02b81461075a578063e37c32891461076f578063e5789d0314610787578063e6d562a11461079c578063eaa820d71461083b578063ee03361414610867578063f2fde38b1461088b578063fe173b97146108ac575b600080fd5b34801561020657600080fd5b5061020f6108c1565b60408051918252519081900360200190f35b34801561022d57600080fd5b5061020f6108d0565b34801561024257600080fd5b5060408051602060046024803582810135601f810185900485028601850190965285855261020f958335600160a060020a031695369560449491939091019190819084018382808284375094975050843595505050602090920135915061091e9050565b3480156102b257600080fd5b506102be600435610a61565b604080519115158252519081900360200190f35b3480156102de57600080fd5b506102ea600435610b2a565b005b3480156102f857600080fd5b506102ea6024600480358281019290820135918135918201910135610b93565b34801561032457600080fd5b506102be600435602435600160a060020a03604435811690606435906084359060a4359060c43516610c06565b34801561035d57600080fd5b506102be610e7a565b34801561037257600080fd5b5061020f610ecb565b34801561038757600080fd5b506040805160206004803580820135601f81018490048402850184019095528484526102ea94369492936024939284019190819084018382808284375050604080516020601f89358b018035918201839004830284018301909452808352979a999881019791965091820194509250829150840183828082843750949750610f199650505050505050565b34801561041e57600080fd5b506040805160206004803580820135601f810184900484028501840190955284845261020f943694929360249392840191908190840183828082843750949750610f699650505050505050565b34801561047757600080fd5b50610483600435610f85565b60408051600160a060020a039092168252519081900360200190f35b3480156104ab57600080fd5b506104b4611054565b604080517bffffffffffffffffffffffffffffffffffffffffffffffffffffffff199092168252519081900360200190f35b3480156104f257600080fd5b506102ea600435602435611078565b34801561050d57600080fd5b506104836004356110a2565b34801561052557600080fd5b506102be611126565b34801561053a57600080fd5b5061020f611177565b34801561054f57600080fd5b5061048361119c565b34801561056457600080fd5b506102ea6004356111f3565b34801561057c57600080fd5b5061020f61125c565b34801561059157600080fd5b506104836112d4565b3480156105a657600080fd5b5061048361132b565b3480156105bb57600080fd5b5061020f611382565b3480156105d057600080fd5b506105d96113d0565b6040805167ffffffffffffffff9485168152928416602084015292168183015290519081900360600190f35b34801561061157600080fd5b5061020f6113db565b34801561062657600080fd5b506102ea600160a060020a0360043516611400565b34801561064757600080fd5b506102ea600435611493565b34801561065f57600080fd5b5061020f6114bb565b34801561067457600080fd5b506102ea600435611509565b34801561068c57600080fd5b506102ea600435151561152e565b3480156106a657600080fd5b506104836115a5565b3480156106bb57600080fd5b506102be6004356115b8565b3480156106d357600080fd5b5061048361163c565b3480156106e857600080fd5b5061020f611661565b3480156106fd57600080fd5b5060408051602060046024803582810135601f810185900485028601850190965285855261020f958335600160a060020a031695369560449491939091019190819084018382808284375094975050933594506116af9350505050565b34801561076657600080fd5b5061020f6116cd565b34801561077b57600080fd5b5061020f60043561171b565b34801561079357600080fd5b5061020f6117e0565b3480156107a857600080fd5b506040805160206004803580820135601f81018490048402850184019095528484526102ea94369492936024939284019190819084018382808284375050604080516020601f89358b018035918201839004830284018301909452808352979a9998810197919650918201945092508291508401838280828437509497505050923563ffffffff16935061182e92505050565b34801561084757600080fd5b506102ea6024600480358281019290820135918135918201910135611874565b34801561087357600080fd5b506102ea600435600160a060020a03602435166118db565b34801561089757600080fd5b506102ea600160a060020a0360043516611992565b3480156108b857600080fd5b5061020f6119b7565b60006108cb611177565b905090565b7f67d6f42a1ed69c62022f2d160ddc6f2f0acd37ad1db0c24f4702d7d3343a4add60009081526020527ff6c66672b1a9fe5622677597b0da8fd180a2c85696efbcf7fe4b1e0f4f0f61085490565b6000806060808261092d611177565b148061093c575061093c611126565b151561094757600080fd5b61095087610f69565b861015801561096657506109626117e0565b8611155b151561097157600080fd5b61097c888787611a05565b9150610991610989611ba1565b600101611bef565b6020820151925081876040516020018083805190602001908083835b602083106109cc5780518252601f1990920191602091820191016109ad565b51815160209384036101000a600019018019909216911617905285519190930192850191508083835b60208310610a145780518252601f1990920191602091820191016109f5565b6001836020036101000a038019825116818451168082178552505050505050905001925050506040516020818303038152906040529050610a558382611c46565b50909695505050505050565b6000600460008360405160200180807f72656c617965644d657373616765730000000000000000000000000000000000815250600f0182600019166000191681526020019150506040516020818303038152906040526040518082805190602001908083835b60208310610ae65780518252601f199092019160209182019101610ac7565b51815160209384036101000a600019018019909216911617905260408051929094018290039091208652850195909552929092016000205460ff1695945050505050565b610b326112d4565b600160a060020a03163314610b4657600080fd5b7f7188f1264c90762deb4dbddcab803d6487a8f108fbcdec3ff08c642d35826f9f60009081526020527f508af815a456b6ded512875db9df6b2d5693ac1edc789fb62dc528b792885e5155565b610c0084848080601f0160208091040260200160405190810160405280939291908181526020018383808284375050604080516020601f8a01819004810282018101909252888152945088935087925082915084018382808284375063ffffffff945061182e9350505050565b50505050565b60408051600481526024810182526020810180517bffffffffffffffffffffffffffffffffffffffffffffffffffffffff167f6fde8202000000000000000000000000000000000000000000000000000000001781529151815160009330939291829190808383895b83811015610c87578181015183820152602001610c6f565b50505050905090810190601f168015610cb45780820380516001836020036101000a031916815260200191505b509150506000604051808303816000865af19150501580610d46575030600160a060020a0316636fde82026040518163ffffffff1660e060020a028152600401602060405180830381600087803b158015610d0e57600080fd5b505af1158015610d22573d6000803e3d6000fd5b505050506040513d6020811015610d3857600080fd5b5051600160a060020a031633145b80610d5057503330145b1515610d5b57600080fd5b610d63610e7a565b15610d6d57600080fd5b610d7686611ce3565b1515610d8157600080fd5b610d8b8888611ceb565b7fab54f3fbbe62c59b7876a9bf9bd5e0c22dbae93f4d8ee0438f7ce62b198eb0e0805473ffffffffffffffffffffffffffffffffffffffff1916600160a060020a03881617905560006020819052437fe66bef0282a446f9848e2903380099bb6e431483ee78778868f33b4a154c818b557f2670ecc91ec356e32067fd27b36614132d727b84a1e03e08f412a4f2cf07597490527f3d7fe2ee9790702383ef0118b516833ef2542132d3ca4ac6c77f62f1230fa610859055610e4c84611e3b565b610e5583611e51565b610e5e82611ee4565b610e66611fbb565b610e6e610e7a565b98975050505050505050565b7f0a6f646cd611241d8073675e00d1a1ff700fbf1b53fcf473de56d1e6e4b714ba60005260046020527f078d888f9b66f3f8bfa10909e31f1e16240db73449f0500afdbbe3a70da457cc5460ff1690565b7f916daedf6915000ff68ced2f0b6773fe6f2582237f92c3c95bb4d7940723007160009081526020527fd2ea0feb732edb0ffe32efd33a6b9d24d46b16eb34a4d07ce256537b6f131e425490565b6000806000806000610f296133f9565b6060610f358989612012565b610f3e8961203a565b959c50939a509198509650945092509050610f5e8787878787878761212b565b505050505050505050565b8051600090610f7f90601063ffffffff61219b16565b92915050565b6000600260008360405160200180807f6661696c65644d6573736167655265636569766572000000000000000000000081525060150182600019166000191681526020019150506040516020818303038152906040526040518082805190602001908083835b6020831061100a5780518252601f199092019160209182019101610feb565b51815160209384036101000a6000190180199092169116179052604080519290940182900390912086528501959095529290920160002054600160a060020a031695945050505050565b7f2544fbb90000000000000000000000000000000000000000000000000000000090565b6110806112d4565b600160a060020a0316331461109457600080fd5b61109e8282611ceb565b5050565b6000600260008360405160200180807f6661696c65644d65737361676553656e6465720000000000000000000000000081525060130182600019166000191681526020019150506040516020818303038152906040526040518082805190602001908083836020831061100a5780518252601f199092019160209182019101610feb565b7fffa3a5a0e192028fc343362a39c5688e5a60819a4dc5ab3ee70c25bc25b78dd660005260046020527f265a43ea29ede07170a30cb6d77d0ab5810eee752b72432f7be348bde74aa08f5460ff1690565b7fe34bb2103dc34f2c144cc216c132d6ffb55dac57575c22e089161bbe650833045490565b7f6778a39b83358b10315b40840597142f1db77a44f312ed9c0e45ee7af3bbc55260005260026020527fd0cda424605c5e6787a1f6db37df501d2e0a58cfcd57eff91a537a67146f164f54600160a060020a031690565b6111fb6112d4565b600160a060020a0316331461120f57600080fd5b7f2670ecc91ec356e32067fd27b36614132d727b84a1e03e08f412a4f2cf07597460009081526020527f3d7fe2ee9790702383ef0118b516833ef2542132d3ca4ac6c77f62f1230fa61055565b600061126661132b565b600160a060020a0316638d0680436040518163ffffffff1660e060020a028152600401602060405180830381600087803b1580156112a357600080fd5b505af11580156112b7573d6000803e3d6000fd5b505050506040513d60208110156112cd57600080fd5b5051905090565b7f02016836a56b71f0d02689e69e326f4f4c1b9057164ef592671cf0d37c8040c060005260026020527fb7802e97e87ef2842a6cce7da7ffaeaedaa2f61a6a7870b23d9d01fc9b73712e54600160a060020a031690565b7f5a74bb7e202fb8e4bf311841c7d64ec19df195fee77d7e7ae749b27921b6ddfe60005260026020527fab54f3fbbe62c59b7876a9bf9bd5e0c22dbae93f4d8ee0438f7ce62b198eb0e054600160a060020a031690565b7fb120ceec05576ad0c710bc6e85f1768535e27554458f05dcbb5c65b8c7a749b060009081526020527fe66bef0282a446f9848e2903380099bb6e431483ee78778868f33b4a154c818b5490565b600560076000909192565b7f7f0fcd9e49860f055dd0c1682d635d309ecb5e3011654c716d9eb59a7ddec7d25490565b6114086112d4565b600160a060020a0316331461141c57600080fd5b7f6778a39b83358b10315b40840597142f1db77a44f312ed9c0e45ee7af3bbc55260005260026020527fd0cda424605c5e6787a1f6db37df501d2e0a58cfcd57eff91a537a67146f164f805473ffffffffffffffffffffffffffffffffffffffff1916600160a060020a0392909216919091179055565b61149b6112d4565b600160a060020a031633146114af57600080fd5b6114b881611e51565b50565b7fbbd454018e72a3f6c02bbd785bacc49e46292744f3f6761276723823aa33232060009081526020527f242329173dfc316001df0a0c3d5a8f58a7ffb1a8b7d99c268303b9a741bacdf95490565b6115116112d4565b600160a060020a0316331461152557600080fd5b6114b881611e3b565b6115366112d4565b600160a060020a0316331461154a57600080fd5b7fffa3a5a0e192028fc343362a39c5688e5a60819a4dc5ab3ee70c25bc25b78dd660005260046020527f265a43ea29ede07170a30cb6d77d0ab5810eee752b72432f7be348bde74aa08f805460ff1916911515919091179055565b6eb3f879cb30fe243b4dfee438691c0490565b6000600460008360405160200180807f6d65737361676543616c6c537461747573000000000000000000000000000000815250601101826000191660001916815260200191505060405160208183030381529060405260405180828051906020019080838360208310610ae65780518252601f199092019160209182019101610ac7565b7f7b58b2a669d8e0992eae9eaef641092c0f686fd31070e7236865557fa1571b5b5490565b7f1e8ecaafaddea96ed9ac6d2642dcdfe1bebe58a930b1085842d8fc122b371ee560009081526020527fd5c78dd9468716ca9bb96be25d56436811b20aab3523a9904b12deef1cab239d5490565b60006116bc8484846121c4565b90506116c66121db565b9392505050565b7f7188f1264c90762deb4dbddcab803d6487a8f108fbcdec3ff08c642d35826f9f60009081526020527f508af815a456b6ded512875db9df6b2d5693ac1edc789fb62dc528b792885e515490565b60008060008360405160200180807f6661696c65644d6573736167654461746148617368000000000000000000000081525060150182600019166000191681526020019150506040516020818303038152906040526040518082805190602001908083835b6020831061179f5780518252601f199092019160209182019101611780565b51815160209384036101000a600019018019909216911617905260408051929094018290039091208652850195909552929092016000205495945050505050565b7f2670ecc91ec356e32067fd27b36614132d727b84a1e03e08f412a4f2cf07597460009081526020527f3d7fe2ee9790702383ef0118b516833ef2542132d3ca4ac6c77f62f1230fa6105490565b60008060008061183c6133f9565b60606118488989612012565b6118518961203a565b959b50939950919750909550909350909150610f5e90508686868a87878761212b565b610c0084848080601f0160208091040260200160405190810160405280939291908181526020018383808284375050604080516020601f8a018190048102820181019092528881529450889350879250829150840183828082843750610f19945050505050565b6118e36112d4565b600160a060020a031633146118f757600080fd5b7f508af815a456b6ded512875db9df6b2d5693ac1edc789fb62dc528b792885e51919091557f6778a39b83358b10315b40840597142f1db77a44f312ed9c0e45ee7af3bbc55260005260026020527fd0cda424605c5e6787a1f6db37df501d2e0a58cfcd57eff91a537a67146f164f805473ffffffffffffffffffffffffffffffffffffffff1916600160a060020a03909216919091179055565b61199a6112d4565b600160a060020a031633146119ae57600080fd5b6114b881611ee4565b7f55b3774520b5993024893d303890baa4e84b1244a43c60034d1ced2d3cf2b04b60009081526020527ff7d5eefab3776d7f0450bd0193564bcb4f832ce313ff2836c450fc63a4b944195490565b60606000806000806000806000611a1a6108d0565b9650611a2461260d565b9550611a2e6114bb565b9450611a3861265b565b93507e050000000000000000000000000000000000000000000000000000000000009250611a64611ba1565b6040805160208082018b90526c0100000000000000000000000030028284015282516034818403018152605490920192839052815167ffffffffffffffff949094169550909282918401908083835b60208310611ad25780518252601f199092019160209182019101611ab3565b6001836020036101000a03801982511681845116808217855250505050505090500191505060405180910390207bffffffffffffffffffffffffffffffffffffffff00000000000000006001021690508386604f01016040519080825280601f01601f191660200182016040528015611b55578160200160208202803883390190505b50975087518801858152878582035289604f8a015284604e8a015286604d8a01528a604c8a01528b60488a01523360348a0152828217841760208a015250505050505050509392505050565b7f7ab1577440dd7bedf920cb6de2f9fc6bf7ba98c78c85a3fa1f8311aac95e175960009081526020527fa9b0f75b23e377b9b22d27feaca5d8a12329c0049ebce1dc695b905f3aa4cd005490565b7f7ab1577440dd7bedf920cb6de2f9fc6bf7ba98c78c85a3fa1f8311aac95e1759600090815260205267ffffffffffffffff167fa9b0f75b23e377b9b22d27feaca5d8a12329c0049ebce1dc695b905f3aa4cd0055565b604080516020808252835181830152835185937f482515ce3d9494a37ce83f18b72b363449458435fafdd7a53ddea7460fe01b589386939092839283019185019080838360005b83811015611ca5578181015183820152602001611c8d565b50505050905090810190601f168015611cd25780820380516001836020036101000a031916815260200191505b509250505060405180910390a25050565b6000903b1190565b600080600080600086118015611d015750600085115b1515611d0c57600080fd5b85851415611d1957600080fd5b506000925082915060ff905060015b831580611d33575082155b15611d7b5783158015611d47575085828716145b15611d50578093505b82158015611d5f575084828616145b15611d68578092505b6101009190910260ff1790600101611d28565b5050600060208190527ff6c66672b1a9fe5622677597b0da8fd180a2c85696efbcf7fe4b1e0f4f0f6108949094557f2f30286a16f86ee067618e1a246990e40c07b7749418a6dd3133f9cfb7e814cc919091557f242329173dfc316001df0a0c3d5a8f58a7ffb1a8b7d99c268303b9a741bacdf9919091557ffb792ae4ad11102b93f26a51b3749c2b3667f8b561566a4806d49896928115949091527f7b62b32ff48350e85ce95b571fde6f8b1096bc44a26db769ad6d0b3a26bf1c6d55565b60008111611e4857600080fd5b6114b8816126a9565b60008111611e5e57600080fd5b7f916daedf6915000ff68ced2f0b6773fe6f2582237f92c3c95bb4d79407230071600090815260209081527fd2ea0feb732edb0ffe32efd33a6b9d24d46b16eb34a4d07ce256537b6f131e428290556040805183815290517f4fb76205cd57c896b21511d2114137d8e901b4ccd659e1a0f97d6306795264fb929181900390910190a150565b600160a060020a0381161515611ef957600080fd5b7f8be0079c531659141344cd1fd0a4f28419497f9722a3daafe3b4186f6b6457e0611f226112d4565b60408051600160a060020a03928316815291841660208301528051918290030190a17f02016836a56b71f0d02689e69e326f4f4c1b9057164ef592671cf0d37c8040c060005260026020527fb7802e97e87ef2842a6cce7da7ffaeaedaa2f61a6a7870b23d9d01fc9b73712e805473ffffffffffffffffffffffffffffffffffffffff1916600160a060020a0392909216919091179055565b7f0a6f646cd611241d8073675e00d1a1ff700fbf1b53fcf473de56d1e6e4b714ba60005260046020527f078d888f9b66f3f8bfa10909e31f1e16240db73449f0500afdbbe3a70da457cc805460ff19166001179055565b600061201c611177565b1461202657600080fd5b61109e828261203361132b565b600161272f565b600080600080600061204a6133f9565b6060600080604f915060208a01519850600160a060020a0360348b015116975060548a01518060601c975063ffffffff8160401c16965080601a1a95506000607f8716111561209857600080fd5b8060181a6001808260031b1b03818501945080858e01511687528260191a91506001808360031b1b039050818501945080858e0151166020880152848d51039350505050806040519080825280601f01601f19166020018201604052801561210a578160200160208202803883390190505b50925060248201915080826004350160208501375050919395979092949650565b612134876129b9565b151561213f57600080fd5b602082015161214d906129ff565b151561215857600080fd5b61216187610a61565b1561216b57600080fd5b612176876001612a11565b61219286868963ffffffff881687876000602002015187612ae3565b50505050505050565b60008215156121ac57506000610f7f565b508181028183828115156121bc57fe5b0414610f7f57fe5b60006121d3848484600061091e565b949350505050565b6000806000806121e96116cd565b93508315156121f757610c00565b6121ff61119c565b9250600160a060020a038316151561221657610c00565b61221e6115a5565b604080517fdd62ed3e0000000000000000000000000000000000000000000000000000000081523360048201523060248201529051919350600160a060020a0384169163dd62ed3e916044808201926020929091908290030181600087803b15801561228957600080fd5b505af115801561229d573d6000803e3d6000fd5b505050506040513d60208110156122b357600080fd5b5051905083811061236c57604080517f23b872dd000000000000000000000000000000000000000000000000000000008152336004820152600160a060020a038581166024830152604482018790529151918416916323b872dd916064808201926020929091908290030181600087803b15801561233057600080fd5b505af1158015612344573d6000803e3d6000fd5b505050506040513d602081101561235a57600080fd5b5051151561236757600080fd5b612517565b600081111561241a57604080517f23b872dd000000000000000000000000000000000000000000000000000000008152336004820152306024820152604481018390529051600160a060020a038416916323b872dd9160648083019260209291908290030181600087803b1580156123e357600080fd5b505af11580156123f7573d6000803e3d6000fd5b505050506040513d602081101561240d57600080fd5b5051151561241a57600080fd5b81600160a060020a031663a0712d688286036040518263ffffffff1660e060020a02815260040180828152602001915050600060405180830381600087803b15801561246557600080fd5b505af1158015612479573d6000803e3d6000fd5b5050505081600160a060020a031663a9059cbb84866040518363ffffffff1660e060020a0281526004018083600160a060020a0316600160a060020a0316815260200182815260200192505050602060405180830381600087803b1580156124e057600080fd5b505af11580156124f4573d6000803e3d6000fd5b505050506040513d602081101561250a57600080fd5b5051151561251757600080fd5b604080513060248201526044810186905260606064820152600060848201819052825180830360a401815260c490920183526020820180517bffffffffffffffffffffffffffffffffffffffffffffffffffffffff167fa4c0ed360000000000000000000000000000000000000000000000000000000017815292518251600160a060020a038816949192839291908190849084905b838110156125c55781810151838201526020016125ad565b50505050905090810190601f1680156125f25780820380516001836020036101000a031916815260200191505b509150506000604051808303816000865af150505050505050565b7fe504ae1fd6471eea80f18b8532a61a9bb91fba4f5b837f80a1cfb6752350af4460009081526020527f2f30286a16f86ee067618e1a246990e40c07b7749418a6dd3133f9cfb7e814cc5490565b7ffb792ae4ad11102b93f26a51b3749c2b3667f8b561566a4806d498969281159460009081526020527f7b62b32ff48350e85ce95b571fde6f8b1096bc44a26db769ad6d0b3a26bf1c6d5490565b7f55b3774520b5993024893d303890baa4e84b1244a43c60034d1ced2d3cf2b04b600090815260209081527ff7d5eefab3776d7f0450bd0193564bcb4f832ce313ff2836c450fc63a4b944198290556040805183815290517f52264b89e0fceafb26e79fd49ef8a366eb6297483bf4035b027f0c99a7ad512e929181900390910190a150565b6000806000606060008060008060008060008b8061275157506127518f612b3a565b151561275c57600080fd5b8c600160a060020a0316638d0680436040518163ffffffff1660e060020a028152600401602060405180830381600087803b15801561279a57600080fd5b505af11580156127ae573d6000803e3d6000fd5b505050506040513d60208110156127c457600080fd5b505160018f0151909b5060ff1699508a8a10156127e057600080fd5b6127ea8f8d612b4e565b98508a604051908082528060200260200182016040528015612816578160200160208202803883390190505b509750600096505b8a8710156129a857866020028a6021010192508960200283019150866002018e01519550828e01519450818e01519350600189878787604051600081526020016040526040518085600019166000191681526020018460ff1660ff1681526020018360001916600019168152602001826000191660001916815260200194505050505060206040516020810390808403906000865af11580156128c5573d6000803e3d6000fd5b5050506020604051035190508c600160a060020a031663facd743b826040518263ffffffff1660e060020a0281526004018082600160a060020a0316600160a060020a03168152602001915050602060405180830381600087803b15801561292c57600080fd5b505af1158015612940573d6000803e3d6000fd5b505050506040513d602081101561295657600080fd5b5051151561296357600080fd5b61296d8882612d68565b1561297757600080fd5b80888881518110151561298657fe5b600160a060020a0390921660209283029091019091015260019096019561281e565b505050505050505050505050505050565b7bffffffffffffffffffffffffffffffffffffffffffffffffffffffff1981167e0500000000000000000000000000000000000000000000000000000000000014919050565b6000612a096108d0565b909114919050565b80600460008460405160200180807f72656c617965644d657373616765730000000000000000000000000000000000815250600f0182600019166000191681526020019150506040516020818303038152906040526040518082805190602001908083835b60208310612a955780518252601f199092019160209182019101612a76565b51815160209384036101000a60001901801990921691161790526040805192909401829003909120865285019590955292909201600020805460ff1916941515949094179093555050505050565b6000612af3888884888a88612dc3565b9050612aff8682612eb9565b801515612b2457612b108683612f3c565b612b1a868861304b565b612b248689613139565b612b30888888846131bc565b5050505050505050565b6000612b4461320a565b8251149050919050565b60408051808201909152601a81527f19457468657265756d205369676e6564204d6573736167653a0a000000000000602082015260009060608315612cf45781612b98865161320f565b866040516020018084805190602001908083835b60208310612bcb5780518252601f199092019160209182019101612bac565b51815160209384036101000a600019018019909216911617905286519190930192860191508083835b60208310612c135780518252601f199092019160209182019101612bf4565b51815160209384036101000a600019018019909216911617905285519190930192850191508083835b60208310612c5b5780518252601f199092019160209182019101612c3c565b6001836020036101000a03801982511681845116808217855250505050505090500193505050506040516020818303038152906040526040518082805190602001908083835b60208310612cc05780518252601f199092019160209182019101612ca1565b6001836020036101000a03801982511681845116808217855250505050505090500191505060405180910390209250612d60565b6040805190810160405280600381526020017f3130340000000000000000000000000000000000000000000000000000000000815250905081818660405160200180848051906020019080838360208310612bcb5780518252601f199092019160209182019101612bac565b505092915050565b6000805b8351811015612db75782600160a060020a03168482815181101515612d8d57fe5b90602001906020020151600160a060020a03161415612daf5760019150612dbc565b600101612d6c565b600091505b5092915050565b600080612dcf88613336565b612dd88461335a565b612de18361337e565b8463ffffffff1480612e0157508460405a603f02811515612dfe57fe5b04115b1515612e0c57600080fd5b86600160a060020a0316858760405180828051906020019080838360005b83811015612e42578181015183820152602001612e2a565b50505050905090810190601f168015612e6f5780820380516001836020036101000a031916815260200191505b5091505060006040518083038160008787f1925050509050612e90816133a2565b612e9a6000613336565b612ea4600061335a565b612eae600061337e565b979650505050505050565b80600460008460405160200180807f6d65737361676543616c6c537461747573000000000000000000000000000000815250601101826000191660001916815260200191505060405160208183030381529060405260405180828051906020019080838360208310612a955780518252601f199092019160209182019101612a76565b806040518082805190602001908083835b60208310612f6c5780518252601f199092019160209182019101612f4d565b51815160209384036101000a6000190180199092169116179052604080519290940182900382207f6661696c65644d657373616765446174614861736800000000000000000000008383015260358084018a905285518085039091018152605590930194859052825190965060009550859492935082918401908083835b602083106130095780518252601f199092019160209182019101612fea565b51815160209384036101000a60001901801990921691161790526040805192909401829003909120865285019590955292909201600020939093555050505050565b80600260008460405160200180807f6661696c65644d6573736167655265636569766572000000000000000000000081525060150182600019166000191681526020019150506040516020818303038152906040526040518082805190602001908083835b602083106130cf5780518252601f1990920191602091820191016130b0565b51815160209384036101000a60001901801990921691161790526040805192909401829003909120865285019590955292909201600020805473ffffffffffffffffffffffffffffffffffffffff1916600160a060020a0395909516949094179093555050505050565b80600260008460405160200180807f6661696c65644d65737361676553656e646572000000000000000000000000008152506013018260001916600019168152602001915050604051602081830303815290604052604051808280519060200190808383602083106130cf5780518252601f1990920191602091820191016130b0565b60408051821515815290518391600160a060020a0380871692908816917f27333edb8bdcd40a0ae944fb121b5e2d62ea782683946654a0f5e607a908d578919081900360200190a450505050565b606890565b606060008082818515156132585760408051808201909152600181527f30000000000000000000000000000000000000000000000000000000000000006020820152945061332d565b8593505b831561327357600190920191600a8404935061325c565b826040519080825280601f01601f1916602001820160405280156132a1578160200160208202803883390190505b5091505060001982015b85156133295781516000198201917f01000000000000000000000000000000000000000000000000000000000000006030600a8a0601029184919081106132ee57fe5b9060200101907effffffffffffffffffffffffffffffffffffffffffffffffffffffffffffff1916908160001a905350600a860495506132ab565b8194505b50505050919050565b7f7b58b2a669d8e0992eae9eaef641092c0f686fd31070e7236865557fa1571b5b55565b7fe34bb2103dc34f2c144cc216c132d6ffb55dac57575c22e089161bbe6508330455565b7f7f0fcd9e49860f055dd0c1682d635d309ecb5e3011654c716d9eb59a7ddec7d255565b80806133ee57506000357bffffffffffffffffffffffffffffffffffffffffffffffffffffffff19167f3f7658fd00000000000000000000000000000000000000000000000000000000145b15156114b857600080fd5b604080518082018252906002908290803883395091929150505600a165627a7a7230582073fb362ace2d7d7e20cf5ae0cae113fc646349888224e8514f4a133226d5710f0029",
  "source": "pragma solidity 0.4.24;\n\nimport \"./ForeignAMB.sol\";\nimport \"../GasTokenConnector.sol\";\n\ncontract ForeignAMBWithGasToken is ForeignAMB, GasTokenConnector {\n    function requireToPassMessage(address _contract, bytes _data, uint256 _gas) public returns (bytes32 messageId) {\n        messageId = super.requireToPassMessage(_contract, _data, _gas);\n        _collectGasTokens();\n    }\n}\n",
  "sourcePath": "/home/analiser/bridge-frontend/contracts/upgradeable_contracts/arbitrary_message/ForeignAMBWithGasToken.sol",
  "compiler": {
    "name": "solc",
    "version": "0.4.24+commit.e67f0147.Emscripten.clang"
  },
  "schemaVersion": "3.4.3",
  "updatedAt": "2021-09-03T05:10:28.220Z",
  "devdoc": {
    "methods": {
      "_sendMessage(address,bytes,uint256,uint256)": {
        "details": "Initiates sending of an AMB message to the opposite network",
        "params": {
          "_contract": "executor address on the other side",
          "_data": "calldata passed to the executor on the other side",
          "_dataType": "AMB message dataType to be included as a part of the header",
          "_gas": "gas limit used on the other network for executing a message"
        }
      },
      "allowReentrantRequests()": {
        "return": "true, if reentrant requests are allowed."
      },
      "decimalShift()": {
        "details": "Returns the value of foreign-to-home decimal shift.",
        "return": "decimal shift."
      },
      "destinationChainId()": {
        "return": "chain id for the destination network"
      },
      "executeSignatures(bytes,bytes)": {
        "details": "Validates provided signatures and relays a given message",
        "params": {
          "_data": "bytes to be relayed",
          "_signatures": "bytes blob with signatures to be validated"
        }
      },
      "failedMessageDataHash(bytes32)": {
        "details": "Returns a data hash of the failed message that came from the other side. NOTE: dataHash was used previously to identify outgoing message before AMB message id was introduced. It is kept for backwards compatibility with old mediators contracts.",
        "params": {
          "_messageId": "id of the message from the other side that triggered a call."
        },
        "return": "keccak256 hash of message data."
      },
      "failedMessageReceiver(bytes32)": {
        "details": "Returns a receiver address of the failed message that came from the other side.",
        "params": {
          "_messageId": "id of the message from the other side that triggered a call."
        },
        "return": "receiver address."
      },
      "failedMessageSender(bytes32)": {
        "details": "Returns a sender address of the failed message that came from the other side.",
        "params": {
          "_messageId": "id of the message from the other side that triggered a call."
        },
        "return": "sender address on the other side."
      },
      "gasToken()": {
        "return": "GST2 contract address in ethereum Mainnet"
      },
      "gasTokenReceiver()": {
        "return": "Configured gas token receiver"
      },
      "gasTokenTargetMintValue()": {
        "return": "Configured gas token target mint value"
      },
      "getBridgeInterfacesVersion()": {
        "return": "(major, minor, patch) version triple"
      },
      "getMinimumGasUsage(bytes)": {
        "details": "Returns a lower limit on gas limit for the particular message data",
        "params": {
          "_data": "calldata passed to the executor on the other side"
        }
      },
      "initialize(uint256,uint256,address,uint256,uint256,uint256,address)": {
        "params": {
          "_destinationChainId": "chain id of a network where all outgoing messages are directed",
          "_gasPrice": "default gas price used by oracles for sending transactions in this network",
          "_maxGasPerTx": "maximum amount of gas per one message execution",
          "_owner": "address of new bridge owner",
          "_requiredBlockConfirmations": "number of block confirmations oracle will wait before processing passed messages",
          "_sourceChainId": "chain id of a network where this contract is deployed",
          "_validatorContract": "address of the validators contract"
        }
      },
      "messageCallStatus(bytes32)": {
        "details": "Returns a status of the message that came from the other side.",
        "params": {
          "_messageId": "id of the message from the other side that triggered a call."
        },
        "return": "true if call executed successfully."
      },
      "messageId()": {
        "details": "Returns an id of the currently processed message.",
        "return": "id of the message that originated on the other side."
      },
      "messageSender()": {
        "details": "Returns an address of the sender on the other side for the currently processed message. Can be used by executors for getting other side caller address.",
        "return": "address of the sender on the other side."
      },
      "messageSourceChainId()": {
        "details": "Returns an originating chain id of the currently processed message.",
        "return": "source chain id of the message that originated on the other side."
      },
      "owner()": {
        "details": "Tells the address of the owner",
        "return": "the address of the owner"
      },
      "safeExecuteSignatures(bytes,bytes)": {
        "details": "Validates provided signatures and relays a given message. The message is not allowed to fail. The whole tx will be revered if message fails.",
        "params": {
          "_data": "bytes to be relayed",
          "_signatures": "bytes blob with signatures to be validated"
        }
      },
      "safeExecuteSignaturesWithAutoGasLimit(bytes,bytes)": {
        "details": "Validates provided signatures and relays a given message. Passes all available gas for the execution. The message is not allowed to fail. The whole tx will be revered if message fails.",
        "params": {
          "_data": "bytes to be relayed",
          "_signatures": "bytes blob with signatures to be validated"
        }
      },
      "safeExecuteSignaturesWithGasLimit(bytes,bytes,uint32)": {
        "details": "Validates provided signatures and relays a given message. Allows to override the gas limit of the passed message. Usually it makes sense to provide a higher amount of gas for the execution. The message is not allowed to fail. The whole tx will be revered if message fails.",
        "params": {
          "_data": "bytes to be relayed",
          "_signatures": "bytes blob with signatures to be validated"
        }
      },
      "setAllowReentrantRequests(bool)": {
        "params": {
          "_enable": "true, if reentrant requests are allowed."
        }
      },
      "setChainIds(uint256,uint256)": {
        "params": {
          "_destinationChainId": "chain id for opposite network",
          "_sourceChainId": "chain id for current network"
        }
      },
      "setGasPrice(uint256)": {
        "details": "Public setter for fallback gas price value. Only bridge owner can call this method.",
        "params": {
          "_gasPrice": "new value for the gas price."
        }
      },
      "setGasTokenParameters(uint256,address)": {
        "details": "Updates gas token related parameters, target mint value and token receiver",
        "params": {
          "_receiver": "receiver of minted gas token",
          "_targetMintValue": "target amount of token to mint/transfer during one call to _collectGasTokens"
        }
      },
      "setGasTokenReceiver(address)": {
        "details": "Updates gas token receiver",
        "params": {
          "_receiver": "receiver of minted gas token"
        }
      },
      "setGasTokenTargetMintValue(uint256)": {
        "details": "Updates gas token target mint value",
        "params": {
          "_targetMintValue": "target amount of token to mint/transfer during one call to _collectGasTokens"
        }
      },
      "sourceChainId()": {
        "return": "chain id for the current network"
      },
      "transactionHash()": {
        "details": "Returns an id of the currently processed message. NOTE: transactionHash was used previously to identify incoming message before AMB message id was introduced. It is kept for backwards compatibility with old mediators contracts, although it doesn't return txHash anymore.",
        "return": "id of the message that originated on the other side."
      },
      "transferOwnership(address)": {
        "details": "Allows the current owner to transfer control of the contract to a newOwner.",
        "params": {
          "newOwner": "the address to transfer ownership to."
        }
      }
    }
  },
  "userdoc": {
    "methods": {
      "allowReentrantRequests()": {
        "notice": "Tells if passing reentrant requests is allowed."
      },
      "destinationChainId()": {
        "notice": "Internal function for retrieving chain id for the destination network"
      },
      "getBridgeInterfacesVersion()": {
        "notice": "Returns currently used bridge version"
      },
      "initialize(uint256,uint256,address,uint256,uint256,uint256,address)": {
        "notice": "Initializes AMB contract"
      },
      "setAllowReentrantRequests(bool)": {
        "notice": "Sets the flag to allow passing new AMB requests in the opposite direction, while other AMB message is being processed. Only owner can call this method."
      },
      "setChainIds(uint256,uint256)": {
        "notice": "Updates chain ids of used networks"
      },
      "sourceChainId()": {
        "notice": "Internal function for retrieving chain id for the source network"
      }
    }
  }
}