{
  "contractName": "ForeignBridgeV2",
  "abi": [
    {
      "constant": true,
      "inputs": [],
      "name": "erc677token",
      "outputs": [
        {
          "name": "",
          "type": "address"
        }
      ],
      "payable": false,
      "stateMutability": "view",
      "type": "function"
    },
    {
      "constant": true,
      "inputs": [
        {
          "name": "_txHash",
          "type": "bytes32"
        }
      ],
      "name": "relayedMessages",
      "outputs": [
        {
          "name": "",
          "type": "bool"
        }
      ],
      "payable": false,
      "stateMutability": "view",
      "type": "function"
    },
    {
      "constant": true,
      "inputs": [
        {
          "name": "_day",
          "type": "uint256"
        }
      ],
      "name": "totalSpentPerDay",
      "outputs": [
        {
          "name": "",
          "type": "uint256"
        }
      ],
      "payable": false,
      "stateMutability": "view",
      "type": "function"
    },
    {
      "constant": false,
      "inputs": [
        {
          "name": "_fee",
          "type": "uint256"
        }
      ],
      "name": "setHomeFee",
      "outputs": [],
      "payable": false,
      "stateMutability": "nonpayable",
      "type": "function"
    },
    {
      "constant": true,
      "inputs": [],
      "name": "isInitialized",
      "outputs": [
        {
          "name": "",
          "type": "bool"
        }
      ],
      "payable": false,
      "stateMutability": "view",
      "type": "function"
    },
    {
      "constant": false,
      "inputs": [
        {
          "name": "_dailyLimit",
          "type": "uint256"
        }
      ],
      "name": "setExecutionDailyLimit",
      "outputs": [],
      "payable": false,
      "stateMutability": "nonpayable",
      "type": "function"
    },
    {
      "constant": true,
      "inputs": [],
      "name": "getCurrentDay",
      "outputs": [
        {
          "name": "",
          "type": "uint256"
        }
      ],
      "payable": false,
      "stateMutability": "view",
      "type": "function"
    },
    {
      "constant": true,
      "inputs": [],
      "name": "requiredBlockConfirmations",
      "outputs": [
        {
          "name": "",
          "type": "uint256"
        }
      ],
      "payable": false,
      "stateMutability": "view",
      "type": "function"
    },
    {
      "constant": false,
      "inputs": [
        {
          "name": "message",
          "type": "bytes"
        },
        {
          "name": "signatures",
          "type": "bytes"
        }
      ],
      "name": "executeSignatures",
      "outputs": [],
      "payable": false,
      "stateMutability": "nonpayable",
      "type": "function"
    },
    {
      "constant": true,
      "inputs": [],
      "name": "getBridgeMode",
      "outputs": [
        {
          "name": "_data",
          "type": "bytes4"
        }
      ],
      "payable": false,
      "stateMutability": "pure",
      "type": "function"
    },
    {
      "constant": false,
      "inputs": [
        {
          "name": "_validatorContract",
          "type": "address"
        },
        {
          "name": "_erc677token",
          "type": "address"
        },
        {
          "name": "_dailyLimitMaxPerTxMinPerTxArray",
          "type": "uint256[3]"
        },
        {
          "name": "_foreignGasPrice",
          "type": "uint256"
        },
        {
          "name": "_requiredBlockConfirmations",
          "type": "uint256"
        },
        {
          "name": "_homeDailyLimitHomeMaxPerTxArray",
          "type": "uint256[2]"
        },
        {
          "name": "_owner",
          "type": "address"
        },
        {
          "name": "_feeManager",
          "type": "address"
        },
        {
          "name": "_homeFee",
          "type": "uint256"
        },
        {
          "name": "_decimalShift",
          "type": "int256"
        },
        {
          "name": "_bridgeOnOtherSide",
          "type": "address"
        }
      ],
      "name": "rewardableInitialize",
      "outputs": [
        {
          "name": "",
          "type": "bool"
        }
      ],
      "payable": false,
      "stateMutability": "nonpayable",
      "type": "function"
    },
    {
      "constant": true,
      "inputs": [],
      "name": "executionDailyLimit",
      "outputs": [
        {
          "name": "",
          "type": "uint256"
        }
      ],
      "payable": false,
      "stateMutability": "view",
      "type": "function"
    },
    {
      "constant": true,
      "inputs": [
        {
          "name": "_day",
          "type": "uint256"
        }
      ],
      "name": "totalExecutedPerDay",
      "outputs": [
        {
          "name": "",
          "type": "uint256"
        }
      ],
      "payable": false,
      "stateMutability": "view",
      "type": "function"
    },
    {
      "constant": false,
      "inputs": [
        {
          "name": "_feeManager",
          "type": "address"
        }
      ],
      "name": "setFeeManagerContract",
      "outputs": [],
      "payable": false,
      "stateMutability": "nonpayable",
      "type": "function"
    },
    {
      "constant": true,
      "inputs": [],
      "name": "dailyLimit",
      "outputs": [
        {
          "name": "",
          "type": "uint256"
        }
      ],
      "payable": false,
      "stateMutability": "view",
      "type": "function"
    },
    {
      "constant": false,
      "inputs": [
        {
          "name": "_token",
          "type": "address"
        },
        {
          "name": "_to",
          "type": "address"
        }
      ],
      "name": "claimTokens",
      "outputs": [],
      "payable": false,
      "stateMutability": "nonpayable",
      "type": "function"
    },
    {
      "constant": true,
      "inputs": [
        {
          "name": "_amount",
          "type": "uint256"
        }
      ],
      "name": "withinExecutionLimit",
      "outputs": [
        {
          "name": "",
          "type": "bool"
        }
      ],
      "payable": false,
      "stateMutability": "view",
      "type": "function"
    },
    {
      "constant": true,
      "inputs": [],
      "name": "executionMaxPerTx",
      "outputs": [
        {
          "name": "",
          "type": "uint256"
        }
      ],
      "payable": false,
      "stateMutability": "view",
      "type": "function"
    },
    {
      "constant": true,
      "inputs": [],
      "name": "requiredSignatures",
      "outputs": [
        {
          "name": "",
          "type": "uint256"
        }
      ],
      "payable": false,
      "stateMutability": "view",
      "type": "function"
    },
    {
      "constant": true,
      "inputs": [],
      "name": "owner",
      "outputs": [
        {
          "name": "",
          "type": "address"
        }
      ],
      "payable": false,
      "stateMutability": "view",
      "type": "function"
    },
    {
      "constant": false,
      "inputs": [
        {
          "name": "_token",
          "type": "address"
        },
        {
          "name": "_to",
          "type": "address"
        }
      ],
      "name": "claimTokensFromErc677",
      "outputs": [],
      "payable": false,
      "stateMutability": "nonpayable",
      "type": "function"
    },
    {
      "constant": true,
      "inputs": [],
      "name": "getHomeFee",
      "outputs": [
        {
          "name": "",
          "type": "uint256"
        }
      ],
      "payable": false,
      "stateMutability": "view",
      "type": "function"
    },
    {
      "constant": true,
      "inputs": [],
      "name": "maxAvailablePerTx",
      "outputs": [
        {
          "name": "",
          "type": "uint256"
        }
      ],
      "payable": false,
      "stateMutability": "view",
      "type": "function"
    },
    {
      "constant": true,
      "inputs": [],
      "name": "validatorContract",
      "outputs": [
        {
          "name": "",
          "type": "address"
        }
      ],
      "payable": false,
      "stateMutability": "view",
      "type": "function"
    },
    {
      "constant": true,
      "inputs": [],
      "name": "deployedAtBlock",
      "outputs": [
        {
          "name": "",
          "type": "uint256"
        }
      ],
      "payable": false,
      "stateMutability": "view",
      "type": "function"
    },
    {
      "constant": false,
      "inputs": [
        {
          "name": "_validatorContract",
          "type": "address"
        },
        {
          "name": "_erc677token",
          "type": "address"
        },
        {
          "name": "_dailyLimitMaxPerTxMinPerTxArray",
          "type": "uint256[3]"
        },
        {
          "name": "_foreignGasPrice",
          "type": "uint256"
        },
        {
          "name": "_requiredBlockConfirmations",
          "type": "uint256"
        },
        {
          "name": "_homeDailyLimitHomeMaxPerTxArray",
          "type": "uint256[2]"
        },
        {
          "name": "_owner",
          "type": "address"
        },
        {
          "name": "_decimalShift",
          "type": "int256"
        },
        {
          "name": "_bridgeOnOtherSide",
          "type": "address"
        }
      ],
      "name": "initialize",
      "outputs": [
        {
          "name": "",
          "type": "bool"
        }
      ],
      "payable": false,
      "stateMutability": "nonpayable",
      "type": "function"
    },
    {
      "constant": true,
      "inputs": [],
      "name": "getBridgeInterfacesVersion",
      "outputs": [
        {
          "name": "major",
          "type": "uint64"
        },
        {
          "name": "minor",
          "type": "uint64"
        },
        {
          "name": "patch",
          "type": "uint64"
        }
      ],
      "payable": false,
      "stateMutability": "pure",
      "type": "function"
    },
    {
      "constant": false,
      "inputs": [
        {
          "name": "_minPerTx",
          "type": "uint256"
        }
      ],
      "name": "setMinPerTx",
      "outputs": [],
      "payable": false,
      "stateMutability": "nonpayable",
      "type": "function"
    },
    {
      "constant": false,
      "inputs": [
        {
          "name": "_from",
          "type": "address"
        },
        {
          "name": "_value",
          "type": "uint256"
        },
        {
          "name": "_data",
          "type": "bytes"
        }
      ],
      "name": "onTokenTransfer",
      "outputs": [
        {
          "name": "",
          "type": "bool"
        }
      ],
      "payable": false,
      "stateMutability": "nonpayable",
      "type": "function"
    },
    {
      "constant": true,
      "inputs": [],
      "name": "something",
      "outputs": [
        {
          "name": "",
          "type": "address"
        }
      ],
      "payable": false,
      "stateMutability": "view",
      "type": "function"
    },
    {
      "constant": false,
      "inputs": [
        {
          "name": "_blockConfirmations",
          "type": "uint256"
        }
      ],
      "name": "setRequiredBlockConfirmations",
      "outputs": [],
      "payable": false,
      "stateMutability": "nonpayable",
      "type": "function"
    },
    {
      "constant": false,
      "inputs": [
        {
          "name": "_dailyLimit",
          "type": "uint256"
        }
      ],
      "name": "setDailyLimit",
      "outputs": [],
      "payable": false,
      "stateMutability": "nonpayable",
      "type": "function"
    },
    {
      "constant": false,
      "inputs": [
        {
          "name": "_gasPrice",
          "type": "uint256"
        }
      ],
      "name": "setGasPrice",
      "outputs": [],
      "payable": false,
      "stateMutability": "nonpayable",
      "type": "function"
    },
    {
      "constant": false,
      "inputs": [
        {
          "name": "_maxPerTx",
          "type": "uint256"
        }
      ],
      "name": "setMaxPerTx",
      "outputs": [],
      "payable": false,
      "stateMutability": "nonpayable",
      "type": "function"
    },
    {
      "constant": true,
      "inputs": [],
      "name": "decimalShift",
      "outputs": [
        {
          "name": "",
          "type": "int256"
        }
      ],
      "payable": false,
      "stateMutability": "view",
      "type": "function"
    },
    {
      "constant": true,
      "inputs": [],
      "name": "feeManagerContract",
      "outputs": [
        {
          "name": "",
          "type": "address"
        }
      ],
      "payable": false,
      "stateMutability": "view",
      "type": "function"
    },
    {
      "constant": true,
      "inputs": [],
      "name": "minPerTx",
      "outputs": [
        {
          "name": "",
          "type": "uint256"
        }
      ],
      "payable": false,
      "stateMutability": "view",
      "type": "function"
    },
    {
      "constant": true,
      "inputs": [
        {
          "name": "_amount",
          "type": "uint256"
        }
      ],
      "name": "withinLimit",
      "outputs": [
        {
          "name": "",
          "type": "bool"
        }
      ],
      "payable": false,
      "stateMutability": "view",
      "type": "function"
    },
    {
      "constant": false,
      "inputs": [
        {
          "name": "_maxPerTx",
          "type": "uint256"
        }
      ],
      "name": "setExecutionMaxPerTx",
      "outputs": [],
      "payable": false,
      "stateMutability": "nonpayable",
      "type": "function"
    },
    {
      "constant": true,
      "inputs": [],
      "name": "getFeeManagerMode",
      "outputs": [
        {
          "name": "mode",
          "type": "bytes4"
        }
      ],
      "payable": false,
      "stateMutability": "view",
      "type": "function"
    },
    {
      "constant": false,
      "inputs": [
        {
          "name": "newOwner",
          "type": "address"
        }
      ],
      "name": "transferOwnership",
      "outputs": [],
      "payable": false,
      "stateMutability": "nonpayable",
      "type": "function"
    },
    {
      "constant": true,
      "inputs": [],
      "name": "maxPerTx",
      "outputs": [
        {
          "name": "",
          "type": "uint256"
        }
      ],
      "payable": false,
      "stateMutability": "view",
      "type": "function"
    },
    {
      "constant": true,
      "inputs": [],
      "name": "gasPrice",
      "outputs": [
        {
          "name": "",
          "type": "uint256"
        }
      ],
      "payable": false,
      "stateMutability": "view",
      "type": "function"
    },
    {
      "anonymous": false,
      "inputs": [
        {
          "indexed": false,
          "name": "feeAmount",
          "type": "uint256"
        },
        {
          "indexed": true,
          "name": "transactionHash",
          "type": "bytes32"
        }
      ],
      "name": "FeeDistributedFromAffirmation",
      "type": "event"
    },
    {
      "anonymous": false,
      "inputs": [
        {
          "indexed": false,
          "name": "feeAmount",
          "type": "uint256"
        },
        {
          "indexed": true,
          "name": "transactionHash",
          "type": "bytes32"
        }
      ],
      "name": "FeeDistributedFromSignatures",
      "type": "event"
    },
    {
      "anonymous": false,
      "inputs": [
        {
          "indexed": false,
          "name": "recipient",
          "type": "address"
        },
        {
          "indexed": false,
          "name": "value",
          "type": "uint256"
        },
        {
          "indexed": false,
          "name": "transactionHash",
          "type": "bytes32"
        }
      ],
      "name": "RelayedMessage",
      "type": "event"
    },
    {
      "anonymous": false,
      "inputs": [
        {
          "indexed": false,
          "name": "recipient",
          "type": "address"
        },
        {
          "indexed": false,
          "name": "value",
          "type": "uint256"
        }
      ],
      "name": "UserRequestForAffirmation",
      "type": "event"
    },
    {
      "anonymous": false,
      "inputs": [
        {
          "indexed": false,
          "name": "newLimit",
          "type": "uint256"
        }
      ],
      "name": "DailyLimitChanged",
      "type": "event"
    },
    {
      "anonymous": false,
      "inputs": [
        {
          "indexed": false,
          "name": "newLimit",
          "type": "uint256"
        }
      ],
      "name": "ExecutionDailyLimitChanged",
      "type": "event"
    },
    {
      "anonymous": false,
      "inputs": [
        {
          "indexed": false,
          "name": "gasPrice",
          "type": "uint256"
        }
      ],
      "name": "GasPriceChanged",
      "type": "event"
    },
    {
      "anonymous": false,
      "inputs": [
        {
          "indexed": false,
          "name": "requiredBlockConfirmations",
          "type": "uint256"
        }
      ],
      "name": "RequiredBlockConfirmationChanged",
      "type": "event"
    },
    {
      "anonymous": false,
      "inputs": [
        {
          "indexed": false,
          "name": "previousOwner",
          "type": "address"
        },
        {
          "indexed": false,
          "name": "newOwner",
          "type": "address"
        }
      ],
      "name": "OwnershipTransferred",
      "type": "event"
    },
    {
      "constant": false,
      "inputs": [
        {
          "name": "_newTokenOwner",
          "type": "address"
        }
      ],
      "name": "changeTokenOwnership",
      "outputs": [],
      "payable": false,
      "stateMutability": "nonpayable",
      "type": "function"
    },
    {
      "constant": false,
      "inputs": [
        {
          "name": "_newTokenOwner",
          "type": "address"
        }
      ],
      "name": "doSomething",
      "outputs": [],
      "payable": false,
      "stateMutability": "nonpayable",
      "type": "function"
    }
  ],
  "bytecode": "0x608060405234801561001057600080fd5b506136f5806100206000396000f30060806040526004361061020b5763ffffffff60e060020a60003504166318d8f9c9811461021057806321d800ec146102415780632bd0bb051461026d57806334a9e14814610297578063392e53cd146102b15780633dd95d1b146102c65780633e6968b6146102de5780633f0a9f65146102f35780633f7658fd14610308578063437764df146103345780634396cef91461037b57806343b37dd3146103cf5780634fb3fef7146103e457806360756f7c146103fc57806367eeba0c1461041d57806369ffa08a14610432578063879ce676146104595780638aa1949a146104715780638d068043146104865780638da5cb5b1461049b5780639313dc43146104b057806394da17cd146104d757806395e54a17146104ec57806399439089146105015780639a454b99146105165780639c175e701461052b5780639cb7595a146105735780639e629f6c146105b4578063a2a6ca27146105d5578063a4c0ed36146105ed578063a7a0d5371461061e578063acf5c68914610633578063b20d30a91461064b578063bf1fe42014610663578063c6f6f2161461067b578063dae5f0fd14610693578063dbe03a8b146106a8578063df25f3f0146106bd578063e60c2d44146106d2578063ea9f4968146106f3578063f20151e11461070b578063f2ba956114610723578063f2fde38b14610738578063f968adbe14610759578063fe173b971461076e575b600080fd5b34801561021c57600080fd5b50610225610783565b60408051600160a060020a039092168252519081900360200190f35b34801561024d57600080fd5b50610259600435610792565b604080519115158252519081900360200190f35b34801561027957600080fd5b5061028560043561085b565b60408051918252519081900360200190f35b3480156102a357600080fd5b506102af600435610918565b005b3480156102bd57600080fd5b50610259610957565b3480156102d257600080fd5b506102af6004356109a8565b3480156102ea57600080fd5b50610285610a68565b3480156102ff57600080fd5b50610285610a71565b34801561031457600080fd5b506102af6024600480358281019290820135918135918201910135610abf565b34801561034057600080fd5b50610349610c34565b604080517bffffffffffffffffffffffffffffffffffffffffffffffffffffffff199092168252519081900360200190f35b34801561038757600080fd5b50610259600160a060020a0360043581169060243581169060449060a4359060c4359060e4906101243581169061014435811690610164359061018435906101a43516610c58565b3480156103db57600080fd5b50610285610ea3565b3480156103f057600080fd5b50610285600435610ef1565b34801561040857600080fd5b506102af600160a060020a0360043516610f6c565b34801561042957600080fd5b50610285611017565b34801561043e57600080fd5b506102af600160a060020a0360043581169060243516611065565b34801561046557600080fd5b506102596004356110f1565b34801561047d57600080fd5b5061028561113b565b34801561049257600080fd5b50610285611189565b3480156104a757600080fd5b50610225611201565b3480156104bc57600080fd5b506102af600160a060020a0360043581169060243516611258565b3480156104e357600080fd5b50610285611367565b3480156104f857600080fd5b50610285611380565b34801561050d57600080fd5b506102256113da565b34801561052257600080fd5b50610285611431565b34801561053757600080fd5b50610259600160a060020a0360043581169060243581169060449060a4359060c4359060e490610124358116906101443590610164351661147f565b34801561057f57600080fd5b50610588611630565b6040805167ffffffffffffffff9485168152928416602084015292168183015290519081900360600190f35b3480156105c057600080fd5b506102af600160a060020a036004351661163b565b3480156105e157600080fd5b506102af6004356116df565b3480156105f957600080fd5b5061025960048035600160a060020a031690602480359160443591820191013561177b565b34801561062a57600080fd5b5061022561180a565b34801561063f57600080fd5b506102af600435611819565b34801561065757600080fd5b506102af60043561183e565b34801561066f57600080fd5b506102af6004356118fe565b34801561068757600080fd5b506102af600435611923565b34801561069f57600080fd5b506102856119bb565b3480156106b457600080fd5b50610225611a09565b3480156106c957600080fd5b50610285611a60565b3480156106de57600080fd5b506102af600160a060020a0360043516611aae565b3480156106ff57600080fd5b50610259600435611aec565b34801561071757600080fd5b506102af600435611b37565b34801561072f57600080fd5b50610349611bb3565b34801561074457600080fd5b506102af600160a060020a0360043516611c29565b34801561076557600080fd5b50610285611c4e565b34801561077a57600080fd5b50610285611c9c565b600061078d611cea565b905090565b6000600460008360405160200180807f72656c617965644d657373616765730000000000000000000000000000000000815250600f0182600019166000191681526020019150506040516020818303038152906040526040518082805190602001908083835b602083106108175780518252601f1990920191602091820191016107f8565b51815160209384036101000a600019018019909216911617905260408051929094018290039091208652850195909552929092016000205460ff1695945050505050565b60008060008360405160200180807f746f74616c5370656e74506572446179000000000000000000000000000000008152506010018281526020019150506040516020818303038152906040526040518082805190602001908083835b602083106108d75780518252601f1990920191602091820191016108b8565b51815160209384036101000a600019018019909216911617905260408051929094018290039091208652850195909552929092016000205495945050505050565b610920611201565b600160a060020a0316331461093457600080fd5b61095461093f611a09565b826000805160206136aa833981519152611d41565b50565b7f0a6f646cd611241d8073675e00d1a1ff700fbf1b53fcf473de56d1e6e4b714ba60005260046020527f078d888f9b66f3f8bfa10909e31f1e16240db73449f0500afdbbe3a70da457cc5460ff1690565b6109b0611201565b600160a060020a031633146109c457600080fd5b6109cc61113b565b8111806109d7575080155b15156109e257600080fd5b7f21dbcab260e413c20dc13c28b7db95e2b423d1135f42bb8b7d5214a92270d237600090815260209081527fadd938dbd083a16bae12238cd914fca0afc7a30edb55b1cd5c7f1823f1b0e4218290556040805183815290517f9bebf928b90863f24cc31f726a3a7545efd409f1dcf552301b1ee3710da70d3b929181900390910190a150565b62015180420490565b7f916daedf6915000ff68ced2f0b6773fe6f2582237f92c3c95bb4d7940723007160009081526020527fd2ea0feb732edb0ffe32efd33a6b9d24d46b16eb34a4d07ce256537b6f131e425490565b600080600080610b3788888080601f0160208091040260200160405190810160405280939291908181526020018383808284375050604080516020601f8e018190048102820181019092528c815294508c93508b9250829150840183828082843750610b3094506113da9350505050565b6000611ebf565b610b7088888080601f01602080910402602001604051908101604052809392919081815260200183838082843750612149945050505050565b92965090945092509050610b83836110f1565b15610c1f57600160a060020a0381163014610b9d57600080fd5b610ba682610792565b15610bb057600080fd5b610bbb826001612184565b610bc6848484612256565b1515610bd157600080fd5b60408051600160a060020a03861681526020810185905280820184905290517f4ab7d581336d92edbea22636a613e8e76c99ac7f91137c1523db38dbfb3bf3299181900360600190a1610c2a565b610c2a84848461020b565b5050505050505050565b7f92a8d7fe0000000000000000000000000000000000000000000000000000000090565b6040805160048152602481018252602081018051600160e060020a03167f6fde8202000000000000000000000000000000000000000000000000000000001781529151815160009330939291829190808383895b83811015610cc4578181015183820152602001610cac565b50505050905090810190601f168015610cf15780820380516001836020036101000a031916815260200191505b509150506000604051808303816000865af19150501580610d83575030600160a060020a0316636fde82026040518163ffffffff1660e060020a028152600401602060405180830381600087803b158015610d4b57600080fd5b505af1158015610d5f573d6000803e3d6000fd5b505050506040513d6020811015610d7557600080fd5b5051600160a060020a031633145b80610d8d57503330145b1515610d9857600080fd5b610df38c8c8c600380602002604051908101604052809291908260036020028082843782019150505050508c8c8c600280602002604051908101604052809291908260026020028082843782019150505050508c8a8a612376565b610dfc8561249e565b1515610e0757600080fd5b7f779a349c5bee7817f04c960f525ee3e2f2516078c38c68a3149787976ee837e560005260026020527fc155b21a14c4592b97825e495fbe0d2705fb46420018cac5bfa7a09c43fae5178054600160a060020a031916600160a060020a038716179055610e8385856000805160206136aa833981519152611d41565b610e8b6124a6565b610e93610957565b9c9b505050505050505050505050565b7f21dbcab260e413c20dc13c28b7db95e2b423d1135f42bb8b7d5214a92270d23760009081526020527fadd938dbd083a16bae12238cd914fca0afc7a30edb55b1cd5c7f1823f1b0e4215490565b60008060008360405160200180807f746f74616c457865637574656450657244617900000000000000000000000000815250601301828152602001915050604051602081830303815290604052604051808280519060200190808383602083106108d75780518252601f1990920191602091820191016108b8565b610f74611201565b600160a060020a03163314610f8857600080fd5b600160a060020a0381161580610fa25750610fa28161249e565b1515610fad57600080fd5b7f779a349c5bee7817f04c960f525ee3e2f2516078c38c68a3149787976ee837e560005260026020527fc155b21a14c4592b97825e495fbe0d2705fb46420018cac5bfa7a09c43fae5178054600160a060020a031916600160a060020a0392909216919091179055565b7f4a6a899679f26b73530d8cf1001e83b6f7702e04b6fdb98f3c62dc7e47e041a560009081526020527f1ab29a5cca988aee50edccdd61c5bcaa7ad4b29a03b7ee50f298ceccfe14cc4e5490565b30600160a060020a0316636fde82026040518163ffffffff1660e060020a028152600401602060405180830381600087803b1580156110a357600080fd5b505af11580156110b7573d6000803e3d6000fd5b505050506040513d60208110156110cd57600080fd5b5051600160a060020a031633146110e357600080fd5b6110ed82826124fd565b5050565b60008061111483611108611103610a68565b610ef1565b9063ffffffff61254016565b90508061111f610ea3565b10158015611134575061113061113b565b8311155b9392505050565b7fc0ed44c192c86d1cc1ba51340b032c2766b4a2b0041031de13c46dd7104888d560009081526020527ff8e983ee86e5e377e9e34c9131b266382c3f04113d20de077f9e12663c7a646b5490565b60006111936113da565b600160a060020a0316638d0680436040518163ffffffff1660e060020a028152600401602060405180830381600087803b1580156111d057600080fd5b505af11580156111e4573d6000803e3d6000fd5b505050506040513d60208110156111fa57600080fd5b5051905090565b7f02016836a56b71f0d02689e69e326f4f4c1b9057164ef592671cf0d37c8040c060005260026020527fb7802e97e87ef2842a6cce7da7ffaeaedaa2f61a6a7870b23d9d01fc9b73712e54600160a060020a031690565b30600160a060020a0316636fde82026040518163ffffffff1660e060020a028152600401602060405180830381600087803b15801561129657600080fd5b505af11580156112aa573d6000803e3d6000fd5b505050506040513d60208110156112c057600080fd5b5051600160a060020a031633146112d657600080fd5b6112de610783565b604080517f69ffa08a000000000000000000000000000000000000000000000000000000008152600160a060020a0385811660048301528481166024830152915192909116916369ffa08a9160448082019260009290919082900301818387803b15801561134b57600080fd5b505af115801561135f573d6000803e3d6000fd5b505050505050565b600061078d6000805160206136aa833981519152612553565b6000806000806000611390611c4e565b935061139a611017565b92506113ac6113a7610a68565b61085b565b91508183116113bc5760006113c0565b8183035b90508084106113cf57806113d1565b835b94505050505090565b7f5a74bb7e202fb8e4bf311841c7d64ec19df195fee77d7e7ae749b27921b6ddfe60005260026020527fab54f3fbbe62c59b7876a9bf9bd5e0c22dbae93f4d8ee0438f7ce62b198eb0e054600160a060020a031690565b7fb120ceec05576ad0c710bc6e85f1768535e27554458f05dcbb5c65b8c7a749b060009081526020527fe66bef0282a446f9848e2903380099bb6e431483ee78778868f33b4a154c818b5490565b6040805160048152602481018252602081018051600160e060020a03167f6fde8202000000000000000000000000000000000000000000000000000000001781529151815160009330939291829190808383895b838110156114eb5781810151838201526020016114d3565b50505050905090810190601f1680156115185780820380516001836020036101000a031916815260200191505b509150506000604051808303816000865af191505015806115aa575030600160a060020a0316636fde82026040518163ffffffff1660e060020a028152600401602060405180830381600087803b15801561157257600080fd5b505af1158015611586573d6000803e3d6000fd5b505050506040513d602081101561159c57600080fd5b5051600160a060020a031633145b806115b457503330145b15156115bf57600080fd5b6116128a8a8a600380602002604051908101604052809291908260036020028082843750506040805180820182528f94508e935091508c90600290839083908082843782019150505050508a8a8a612376565b61161a6124a6565b611622610957565b9a9950505050505050505050565b600560026000909192565b600080611646611201565b600160a060020a0316331461165a57600080fd5b611662610783565b915081905080600160a060020a031663f2fde38b846040518263ffffffff1660e060020a0281526004018082600160a060020a0316600160a060020a03168152602001915050600060405180830381600087803b1580156116c257600080fd5b505af11580156116d6573d6000803e3d6000fd5b50505050505050565b6116e7611201565b600160a060020a031633146116fb57600080fd5b600081118015611711575061170e611017565b81105b80156117235750611720611c4e565b81105b151561172e57600080fd5b7fbbb088c505d18e049d114c7c91f11724e69c55ad6c5397e2b929e68b41fa05d160009081526020527f8df5c48c6b6e11d97548adc824ba0c99103ec09830fa5d53a179984085e6eaa055565b600080611786611cea565b905033600160a060020a0382161461179d57600080fd5b6117a685611aec565b15156117b157600080fd5b6117c26117bc610a68565b86612674565b6117fe81878787878080601f0160208091040260200160405190810160405280939291908181526020018383808284375061273d945050505050565b50600195945050505050565b600654600160a060020a031681565b611821611201565b600160a060020a0316331461183557600080fd5b610954816127b7565b611846611201565b600160a060020a0316331461185a57600080fd5b611862611c4e565b81118061186d575080155b151561187857600080fd5b7f4a6a899679f26b73530d8cf1001e83b6f7702e04b6fdb98f3c62dc7e47e041a5600090815260209081527f1ab29a5cca988aee50edccdd61c5bcaa7ad4b29a03b7ee50f298ceccfe14cc4e8290556040805183815290517fad4123ae17c414d9c6d2fec478b402e6b01856cc250fd01fbfd252fda0089d3c929181900390910190a150565b611906611201565b600160a060020a0316331461191a57600080fd5b6109548161284a565b61192b611201565b600160a060020a0316331461193f57600080fd5b801580611963575061194f611a60565b811180156119635750611960611017565b81105b151561196e57600080fd5b7f0f8803acad17c63ee38bf2de71e1888bc7a079a6f73658e274b08018bea4e29c60009081526020527f9de0f81379b4d8e60fe509315d071b56e7b732abaf193e74e0d15808b0951d0955565b7f1e8ecaafaddea96ed9ac6d2642dcdfe1bebe58a930b1085842d8fc122b371ee560009081526020527fd5c78dd9468716ca9bb96be25d56436811b20aab3523a9904b12deef1cab239d5490565b7f779a349c5bee7817f04c960f525ee3e2f2516078c38c68a3149787976ee837e560005260026020527fc155b21a14c4592b97825e495fbe0d2705fb46420018cac5bfa7a09c43fae51754600160a060020a031690565b7fbbb088c505d18e049d114c7c91f11724e69c55ad6c5397e2b929e68b41fa05d160009081526020527f8df5c48c6b6e11d97548adc824ba0c99103ec09830fa5d53a179984085e6eaa05490565b611ab6611201565b600160a060020a03163314611aca57600080fd5b60068054600160a060020a031916600160a060020a0392909216919091179055565b600080611afe836111086113a7610a68565b905080611b09611017565b10158015611b1e5750611b1a611c4e565b8311155b80156111345750611b2d611a60565b9092101592915050565b611b3f611201565b600160a060020a03163314611b5357600080fd5b611b5b610ea3565b8110611b6657600080fd5b7fc0ed44c192c86d1cc1ba51340b032c2766b4a2b0041031de13c46dd7104888d560009081526020527ff8e983ee86e5e377e9e34c9131b266382c3f04113d20de077f9e12663c7a646b55565b604080516004815260248101909152602081018051600160e060020a03167ff2ba95610000000000000000000000000000000000000000000000000000000017905260009081611c01611a09565b9050600460008351602085016000855af28060203d141615611c235760005193505b50505090565b611c31611201565b600160a060020a03163314611c4557600080fd5b61095481612860565b7f0f8803acad17c63ee38bf2de71e1888bc7a079a6f73658e274b08018bea4e29c60009081526020527f9de0f81379b4d8e60fe509315d071b56e7b732abaf193e74e0d15808b0951d095490565b7f55b3774520b5993024893d303890baa4e84b1244a43c60034d1ced2d3cf2b04b60009081526020527ff7d5eefab3776d7f0450bd0193564bcb4f832ce313ff2836c450fc63a4b944195490565b7fa8b0ade3e2b734f043ce298aca4cc8d19d74270223f34531d0988b7d00cba21d60005260026020527f603cd9dcbfa185d5c37504f4c8b3f16117ed744fba48d08b7aad44a162af1c9354600160a060020a031690565b6000816000805160206136aa833981519152811480611d7f57507fdeb7f3adca07d6d1f708c1774389db532a2b2f18fd05a62b957e4089f4696ed581145b1515611d8a57600080fd5b6000805160206136aa8339815191528314611dc5577f286c406600000000000000000000000000000000000000000000000000000000611de7565b7f34a9e148000000000000000000000000000000000000000000000000000000005b6040805160248082018890528251808303909101815260449091018252602081018051600160e060020a03167bffffffffffffffffffffffffffffffffffffffffffffffffffffffff19851617815291518151939550600160a060020a038916939192909182919080838360005b83811015611e6d578181015183820152602001611e55565b50505050905090810190601f168015611e9a5780820380516001836020036101000a031916815260200191505b50915050600060405180830381855af49150501515611eb857600080fd5b5050505050565b6000806000606060008060008060008060008b80611ee15750611ee18f61292a565b1515611eec57600080fd5b8c600160a060020a0316638d0680436040518163ffffffff1660e060020a028152600401602060405180830381600087803b158015611f2a57600080fd5b505af1158015611f3e573d6000803e3d6000fd5b505050506040513d6020811015611f5457600080fd5b505160018f0151909b5060ff1699508a8a1015611f7057600080fd5b611f7a8f8d61293e565b98508a604051908082528060200260200182016040528015611fa6578160200160208202803883390190505b509750600096505b8a87101561213857866020028a6021010192508960200283019150866002018e01519550828e01519450818e01519350600189878787604051600081526020016040526040518085600019166000191681526020018460ff1660ff1681526020018360001916600019168152602001826000191660001916815260200194505050505060206040516020810390808403906000865af1158015612055573d6000803e3d6000fd5b5050506020604051035190508c600160a060020a031663facd743b826040518263ffffffff1660e060020a0281526004018082600160a060020a0316600160a060020a03168152602001915050602060405180830381600087803b1580156120bc57600080fd5b505af11580156120d0573d6000803e3d6000fd5b505050506040513d60208110156120e657600080fd5b505115156120f357600080fd5b6120fd8882612b58565b1561210757600080fd5b80888881518110151561211657fe5b600160a060020a03909216602092830290910190910152600190960195611fae565b505050505050505050505050505050565b6000806000806121588561292a565b151561216357600080fd5b50505050601481015160348201516054830151606890930151919390929190565b80600460008460405160200180807f72656c617965644d657373616765730000000000000000000000000000000000815250600f0182600019166000191681526020019150506040516020818303038152906040526040518082805190602001908083835b602083106122085780518252601f1990920191602091820191016121e9565b51815160209384036101000a60001901801990921691161790526040805192909401829003909120865285019590955292909201600020805460ff1916941515949094179093555050505050565b60008060008061226d612267610a68565b87612bb3565b61227686612c39565b9250612280611a09565b9150600160a060020a038216156122d5576122ac836000846000805160206136aa833981519152612c4f565b905060008111156122d5576122c2818387612ce0565b6122d2838263ffffffff612de516565b92505b6122dd610783565b600160a060020a03166340c10f1988856040518363ffffffff1660e060020a0281526004018083600160a060020a0316600160a060020a0316815260200182815260200192505050602060405180830381600087803b15801561233f57600080fd5b505af1158015612353573d6000803e3d6000fd5b505050506040513d602081101561236957600080fd5b5051979650505050505050565b61237e610957565b1561238857600080fd5b6123918961249e565b151561239c57600080fd5b7f5a74bb7e202fb8e4bf311841c7d64ec19df195fee77d7e7ae749b27921b6ddfe60005260026020527fab54f3fbbe62c59b7876a9bf9bd5e0c22dbae93f4d8ee0438f7ce62b198eb0e08054600160a060020a031916600160a060020a038b1617905561240888612df7565b61241187612e75565b7fb120ceec05576ad0c710bc6e85f1768535e27554458f05dcbb5c65b8c7a749b06000908152602052437fe66bef0282a446f9848e2903380099bb6e431483ee78778868f33b4a154c818b556124668661284a565b61246f856127b7565b61247884612fd2565b612481826130a7565b61248a83612860565b61249381613110565b505050505050505050565b6000903b1190565b7f0a6f646cd611241d8073675e00d1a1ff700fbf1b53fcf473de56d1e6e4b714ba60005260046020527f078d888f9b66f3f8bfa10909e31f1e16240db73449f0500afdbbe3a70da457cc805460ff19166001179055565b80600160a060020a038116151561251357600080fd5b600160a060020a03831615156125315761252c8261318f565b61253b565b61253b838361319b565b505050565b8181018281101561254d57fe5b92915050565b600080806060846000805160206136aa83398151915281148061259557507fdeb7f3adca07d6d1f708c1774389db532a2b2f18fd05a62b957e4089f4696ed581145b15156125a057600080fd5b6125a8611a09565b93506000805160206136aa83398151915286146125e5577fffd6619600000000000000000000000000000000000000000000000000000000612607565b7f94da17cd000000000000000000000000000000000000000000000000000000005b60408051600481526024810190915260208082018051600160e060020a03167bffffffffffffffffffffffffffffffffffffffffffffffffffffffff19851617815282519396509194509160009182885af28060203d14161561266a5760005195505b5050505050919050565b612681816111088461085b565b6000808460405160200180807f746f74616c5370656e74506572446179000000000000000000000000000000008152506010018281526020019150506040516020818303038152906040526040518082805190602001908083835b602083106126fb5780518252601f1990920191602091820191016126dc565b51815160209384036101000a60001901801990921691161790526040805192909401829003909120865285019590955292909201600020939093555050505050565b83600160a060020a03166342966c68836040518263ffffffff1660e060020a02815260040180828152602001915050600060405180830381600087803b15801561278657600080fd5b505af115801561279a573d6000803e3d6000fd5b505050506127b16127ab8483613248565b836132a2565b50505050565b600081116127c457600080fd5b7f916daedf6915000ff68ced2f0b6773fe6f2582237f92c3c95bb4d79407230071600090815260209081527fd2ea0feb732edb0ffe32efd33a6b9d24d46b16eb34a4d07ce256537b6f131e428290556040805183815290517f4fb76205cd57c896b21511d2114137d8e901b4ccd659e1a0f97d6306795264fb929181900390910190a150565b6000811161285757600080fd5b610954816132ea565b600160a060020a038116151561287557600080fd5b7f8be0079c531659141344cd1fd0a4f28419497f9722a3daafe3b4186f6b6457e061289e611201565b60408051600160a060020a03928316815291841660208301528051918290030190a17f02016836a56b71f0d02689e69e326f4f4c1b9057164ef592671cf0d37c8040c060005260026020527fb7802e97e87ef2842a6cce7da7ffaeaedaa2f61a6a7870b23d9d01fc9b73712e8054600160a060020a031916600160a060020a0392909216919091179055565b6000612934613370565b8251149050919050565b60408051808201909152601a81527f19457468657265756d205369676e6564204d6573736167653a0a000000000000602082015260009060608315612ae457816129888651613375565b866040516020018084805190602001908083835b602083106129bb5780518252601f19909201916020918201910161299c565b51815160209384036101000a600019018019909216911617905286519190930192860191508083835b60208310612a035780518252601f1990920191602091820191016129e4565b51815160209384036101000a600019018019909216911617905285519190930192850191508083835b60208310612a4b5780518252601f199092019160209182019101612a2c565b6001836020036101000a03801982511681845116808217855250505050505090500193505050506040516020818303038152906040526040518082805190602001908083835b60208310612ab05780518252601f199092019160209182019101612a91565b6001836020036101000a03801982511681845116808217855250505050505090500191505060405180910390209250612b50565b6040805190810160405280600381526020017f31303400000000000000000000000000000000000000000000000000000000008152509050818186604051602001808480519060200190808383602083106129bb5780518252601f19909201916020918201910161299c565b505092915050565b6000805b8351811015612ba75782600160a060020a03168482815181101515612b7d57fe5b90602001906020020151600160a060020a03161415612b9f5760019150612bac565b600101612b5c565b600091505b5092915050565b612bc08161110884610ef1565b6000808460405160200180807f746f74616c457865637574656450657244617900000000000000000000000000815250601301828152602001915050604051602081830303815290604052604051808280519060200190808383602083106126fb5780518252601f1990920191602091820191016126dc565b600061254d82612c476119bb565b60000361349c565b60408051602481018690528415156044820152606480820184905282518083039091018152608490910190915260208181018051600160e060020a03167f9862f26f000000000000000000000000000000000000000000000000000000001781528251600093929184919082885af28060203d141660018114612cd157600080fd5b50506000519695505050505050565b6040805160248082018690528251808303909101815260449091018252602081018051600160e060020a03167f59d784640000000000000000000000000000000000000000000000000000000017815291518151600160a060020a03861693829180838360005b83811015612d5f578181015183820152602001612d47565b50505050905090810190601f168015612d8c5780820380516001836020036101000a031916815260200191505b50915050600060405180830381855af49150501515612daa57600080fd5b60408051848152905182917f858abdcd5efcaebb936e8e8516f0cfe9a0ef5157ff99d16cdabb6db625be90d0919081900360200190a2505050565b600082821115612df157fe5b50900390565b612e008161249e565b1515612e0b57600080fd5b7fa8b0ade3e2b734f043ce298aca4cc8d19d74270223f34531d0988b7d00cba21d60005260026020527f603cd9dcbfa185d5c37504f4c8b3f16117ed744fba48d08b7aad44a162af1c938054600160a060020a031916600160a060020a0392909216919091179055565b60408101516000108015612e90575060408101516020820151115b8015612ea0575060208101518151115b1515612eab57600080fd5b80517f4a6a899679f26b73530d8cf1001e83b6f7702e04b6fdb98f3c62dc7e47e041a5600090815260208181527f1ab29a5cca988aee50edccdd61c5bcaa7ad4b29a03b7ee50f298ceccfe14cc4e92909255908201517f0f8803acad17c63ee38bf2de71e1888bc7a079a6f73658e274b08018bea4e29c82527f9de0f81379b4d8e60fe509315d071b56e7b732abaf193e74e0d15808b0951d095560408201517fbbb088c505d18e049d114c7c91f11724e69c55ad6c5397e2b929e68b41fa05d182527f8df5c48c6b6e11d97548adc824ba0c99103ec09830fa5d53a179984085e6eaa0557fad4123ae17c414d9c6d2fec478b402e6b01856cc250fd01fbfd252fda0089d3c9082905b60200201516040518082815260200191505060405180910390a150565b8051602082015110612fe357600080fd5b80517f21dbcab260e413c20dc13c28b7db95e2b423d1135f42bb8b7d5214a92270d237600090815260208181527fadd938dbd083a16bae12238cd914fca0afc7a30edb55b1cd5c7f1823f1b0e42192909255908201517fc0ed44c192c86d1cc1ba51340b032c2766b4a2b0041031de13c46dd7104888d582527ff8e983ee86e5e377e9e34c9131b266382c3f04113d20de077f9e12663c7a646b557f9bebf928b90863f24cc31f726a3a7545efd409f1dcf552301b1ee3710da70d3b908290612fb5565b604c19811380156130b85750604d81125b15156130c357600080fd5b7f1e8ecaafaddea96ed9ac6d2642dcdfe1bebe58a930b1085842d8fc122b371ee560009081526020527fd5c78dd9468716ca9bb96be25d56436811b20aab3523a9904b12deef1cab239d55565b600160a060020a038116151561312557600080fd5b7f71483949fe7a14d16644d63320f24d10cf1d60abecc30cc677a340e82b699dd260005260026020527f21ffdf150a5d180f96d98d16f50e7b4dd63e2a067adc8386cf5af55dcecd8dd98054600160a060020a031916600160a060020a0392909216919091179055565b30316110ed82826134e7565b604080517f70a0823100000000000000000000000000000000000000000000000000000000815230600482015290518391600091600160a060020a038416916370a0823191602480830192602092919082900301818787803b15801561320057600080fd5b505af1158015613214573d6000803e3d6000fd5b505050506040513d602081101561322a57600080fd5b505190506127b1600160a060020a038516848363ffffffff61354816565b805182906000101561254d57815160141461326257600080fd5b61326b826135dd565b9050600160a060020a038116151561328257600080fd5b61328a6135e4565b600160a060020a038281169116141561254d57600080fd5b60408051600160a060020a03841681526020810183905281517f1d491a427d1f8cc0d447496f300fac39f7306122481d8e663451eb268274146b929181900390910190a15050565b7f55b3774520b5993024893d303890baa4e84b1244a43c60034d1ced2d3cf2b04b600090815260209081527ff7d5eefab3776d7f0450bd0193564bcb4f832ce313ff2836c450fc63a4b944198290556040805183815290517f52264b89e0fceafb26e79fd49ef8a366eb6297483bf4035b027f0c99a7ad512e929181900390910190a150565b606890565b606060008082818515156133be5760408051808201909152600181527f300000000000000000000000000000000000000000000000000000000000000060208201529450613493565b8593505b83156133d957600190920191600a840493506133c2565b826040519080825280601f01601f191660200182016040528015613407578160200160208202803883390190505b5091505060001982015b851561348f5781516000198201917f01000000000000000000000000000000000000000000000000000000000000006030600a8a06010291849190811061345457fe5b9060200101907effffffffffffffffffffffffffffffffffffffffffffffffffffffffffffff1916908160001a905350600a86049550613411565b8194505b50505050919050565b60008115156134ac57508161254d565b60008213156134d0576134c983600a84900a63ffffffff61363b16565b905061254d565b611134836000849003600a0a63ffffffff61366416565b604051600160a060020a0383169082156108fc029083906000818181858888f1935050505015156110ed57808261351c613679565b600160a060020a039091168152604051908190036020019082f080158015611eb8573d6000803e3d6000fd5b82600160a060020a031663a9059cbb83836040518363ffffffff1660e060020a0281526004018083600160a060020a0316600160a060020a0316815260200182815260200192505050600060405180830381600087803b1580156135ab57600080fd5b505af11580156135bf573d6000803e3d6000fd5b505050503d1561253b5760206000803e600051151561253b57600080fd5b6014015190565b7f71483949fe7a14d16644d63320f24d10cf1d60abecc30cc677a340e82b699dd260005260026020527f21ffdf150a5d180f96d98d16f50e7b4dd63e2a067adc8386cf5af55dcecd8dd954600160a060020a031690565b600082151561364c5750600061254d565b5081810281838281151561365c57fe5b041461254d57fe5b6000818381151561367157fe5b049392505050565b604051602180613689833901905600608060405260405160208060218339810160405251600160a060020a038116ff0089d93e5e92f7e37e490c25f0e50f7f4aad7cc94b308a566553280967be38bcf1a165627a7a72305820f64df19fe369aa1a506e98b7f823cbfa3586da0d9d37a4d58728f41c0760708f0029",
  "source": "pragma solidity 0.4.24;\n\nimport \"../upgradeable_contracts/native_to_erc20/ForeignBridgeNativeToErc.sol\";\n\ninterface OwnableToken {\n    function transferOwnership(address) external;\n}\n\ncontract ForeignBridgeV2 is ForeignBridgeNativeToErc {\n    function changeTokenOwnership(address _newTokenOwner) public onlyOwner {\n        address token = address(erc677token());\n        OwnableToken poa = OwnableToken(token);\n        poa.transferOwnership(_newTokenOwner);\n    }\n    // used for testing\n    address public something;\n    function doSomething(address _newTokenOwner) public onlyOwner {\n        something = _newTokenOwner;\n    }\n}\n",
  "sourcePath": "/home/analiser/bridge-frontend/contracts/mocks/ForeignBridgeV2.sol",
  "compiler": {
    "name": "solc",
    "version": "0.4.24+commit.e67f0147.Emscripten.clang"
  },
  "schemaVersion": "3.4.3",
  "updatedAt": "2021-09-03T05:10:27.500Z",
  "devdoc": {
    "methods": {
      "claimTokens(address,address)": {
        "details": "Withdraws the erc20 tokens or native coins from this contract.",
        "params": {
          "_to": "address of the tokens/coins receiver.",
          "_token": "address of the claimed token or address(0) for native coins."
        }
      },
      "claimTokensFromErc677(address,address)": {
        "details": "Withdraws erc20 tokens or native coins from the token contract. It is required since the bridge contract is the owner of the token contract.",
        "params": {
          "_to": "address of the tokens/coins receiver.",
          "_token": "address of the claimed token or address(0) for native coins."
        }
      },
      "decimalShift()": {
        "details": "Returns the value of foreign-to-home decimal shift.",
        "return": "decimal shift."
      },
      "executeSignatures(bytes,bytes)": {
        "details": "Validates provided signatures and relays a given message",
        "params": {
          "message": "bytes to be relayed",
          "signatures": "bytes blob with signatures to be validated"
        }
      },
      "feeManagerContract()": {
        "details": "Retrieves the address of the fee manager contract used.",
        "return": "address of the fee manager contract."
      },
      "getFeeManagerMode()": {
        "details": "Retrieves the mode of the used fee manager.",
        "return": "manager mode identifier, or zero bytes otherwise."
      },
      "maxAvailablePerTx()": {
        "details": "Retrieves maximum available bridge amount per one transaction taking into account maxPerTx() and dailyLimit() parameters.",
        "return": "minimum of maxPerTx parameter and remaining daily quota."
      },
      "owner()": {
        "details": "Tells the address of the owner",
        "return": "the address of the owner"
      },
      "setFeeManagerContract(address)": {
        "details": "Updates the address of the used fee manager contract. Only contract owner can call this method. If during this operation, home fee is changed, it is highly recommended to stop the bridge operations first. Otherwise, pending signature requests can become a reason for imbalance between two bridge sides.",
        "params": {
          "_feeManager": "address of the new fee manager contract, or zero address to disable fee collection."
        }
      },
      "setGasPrice(uint256)": {
        "details": "Public setter for fallback gas price value. Only bridge owner can call this method.",
        "params": {
          "_gasPrice": "new value for the gas price."
        }
      },
      "setHomeFee(uint256)": {
        "details": "Updates the fee percentage for home->foreign bridge operations. Only owner is allowed to call this method. If during this operation, home fee is changed, it is highly recommended to stop the bridge operations first. Otherwise, pending signature requests can become a reason for imbalance between two bridge sides.",
        "params": {
          "_fee": "new value for fee percentage."
        }
      },
      "transferOwnership(address)": {
        "details": "Allows the current owner to transfer control of the contract to a newOwner.",
        "params": {
          "newOwner": "the address to transfer ownership to."
        }
      }
    }
  },
  "userdoc": {
    "methods": {}
  }
}