{
  "contractName": "ForeignAMBErc20ToNative",
  "abi": [
    {
      "constant": false,
      "inputs": [
        {
          "name": "_messageId",
          "type": "bytes32"
        }
      ],
      "name": "fixFailedMessage",
      "outputs": [],
      "payable": false,
      "stateMutability": "nonpayable",
      "type": "function"
    },
    {
      "constant": false,
      "inputs": [
        {
          "name": "_bridgeContract",
          "type": "address"
        }
      ],
      "name": "setBridgeContract",
      "outputs": [],
      "payable": false,
      "stateMutability": "nonpayable",
      "type": "function"
    },
    {
      "constant": true,
      "inputs": [
        {
          "name": "_day",
          "type": "uint256"
        }
      ],
      "name": "totalSpentPerDay",
      "outputs": [
        {
          "name": "",
          "type": "uint256"
        }
      ],
      "payable": false,
      "stateMutability": "view",
      "type": "function"
    },
    {
      "constant": true,
      "inputs": [],
      "name": "isInitialized",
      "outputs": [
        {
          "name": "",
          "type": "bool"
        }
      ],
      "payable": false,
      "stateMutability": "view",
      "type": "function"
    },
    {
      "constant": false,
      "inputs": [
        {
          "name": "_dailyLimit",
          "type": "uint256"
        }
      ],
      "name": "setExecutionDailyLimit",
      "outputs": [],
      "payable": false,
      "stateMutability": "nonpayable",
      "type": "function"
    },
    {
      "constant": true,
      "inputs": [],
      "name": "getCurrentDay",
      "outputs": [
        {
          "name": "",
          "type": "uint256"
        }
      ],
      "payable": false,
      "stateMutability": "view",
      "type": "function"
    },
    {
      "constant": true,
      "inputs": [],
      "name": "getBridgeMode",
      "outputs": [
        {
          "name": "_data",
          "type": "bytes4"
        }
      ],
      "payable": false,
      "stateMutability": "pure",
      "type": "function"
    },
    {
      "constant": true,
      "inputs": [],
      "name": "executionDailyLimit",
      "outputs": [
        {
          "name": "",
          "type": "uint256"
        }
      ],
      "payable": false,
      "stateMutability": "view",
      "type": "function"
    },
    {
      "constant": true,
      "inputs": [],
      "name": "mediatorBalance",
      "outputs": [
        {
          "name": "",
          "type": "uint256"
        }
      ],
      "payable": false,
      "stateMutability": "view",
      "type": "function"
    },
    {
      "constant": true,
      "inputs": [
        {
          "name": "_day",
          "type": "uint256"
        }
      ],
      "name": "totalExecutedPerDay",
      "outputs": [
        {
          "name": "",
          "type": "uint256"
        }
      ],
      "payable": false,
      "stateMutability": "view",
      "type": "function"
    },
    {
      "constant": true,
      "inputs": [
        {
          "name": "_messageId",
          "type": "bytes32"
        }
      ],
      "name": "messageFixed",
      "outputs": [
        {
          "name": "",
          "type": "bool"
        }
      ],
      "payable": false,
      "stateMutability": "view",
      "type": "function"
    },
    {
      "constant": true,
      "inputs": [],
      "name": "dailyLimit",
      "outputs": [
        {
          "name": "",
          "type": "uint256"
        }
      ],
      "payable": false,
      "stateMutability": "view",
      "type": "function"
    },
    {
      "constant": false,
      "inputs": [
        {
          "name": "_mediatorContract",
          "type": "address"
        }
      ],
      "name": "setMediatorContractOnOtherSide",
      "outputs": [],
      "payable": false,
      "stateMutability": "nonpayable",
      "type": "function"
    },
    {
      "constant": true,
      "inputs": [],
      "name": "mediatorContractOnOtherSide",
      "outputs": [
        {
          "name": "",
          "type": "address"
        }
      ],
      "payable": false,
      "stateMutability": "view",
      "type": "function"
    },
    {
      "constant": true,
      "inputs": [
        {
          "name": "_amount",
          "type": "uint256"
        }
      ],
      "name": "withinExecutionLimit",
      "outputs": [
        {
          "name": "",
          "type": "bool"
        }
      ],
      "payable": false,
      "stateMutability": "view",
      "type": "function"
    },
    {
      "constant": true,
      "inputs": [],
      "name": "executionMaxPerTx",
      "outputs": [
        {
          "name": "",
          "type": "uint256"
        }
      ],
      "payable": false,
      "stateMutability": "view",
      "type": "function"
    },
    {
      "constant": false,
      "inputs": [
        {
          "name": "_recipient",
          "type": "address"
        },
        {
          "name": "_value",
          "type": "uint256"
        }
      ],
      "name": "handleBridgedTokens",
      "outputs": [],
      "payable": false,
      "stateMutability": "nonpayable",
      "type": "function"
    },
    {
      "constant": true,
      "inputs": [],
      "name": "owner",
      "outputs": [
        {
          "name": "",
          "type": "address"
        }
      ],
      "payable": false,
      "stateMutability": "view",
      "type": "function"
    },
    {
      "constant": true,
      "inputs": [],
      "name": "maxAvailablePerTx",
      "outputs": [
        {
          "name": "",
          "type": "uint256"
        }
      ],
      "payable": false,
      "stateMutability": "view",
      "type": "function"
    },
    {
      "constant": false,
      "inputs": [
        {
          "name": "_messageId",
          "type": "bytes32"
        }
      ],
      "name": "requestFailedMessageFix",
      "outputs": [],
      "payable": false,
      "stateMutability": "nonpayable",
      "type": "function"
    },
    {
      "constant": true,
      "inputs": [],
      "name": "getBridgeInterfacesVersion",
      "outputs": [
        {
          "name": "major",
          "type": "uint64"
        },
        {
          "name": "minor",
          "type": "uint64"
        },
        {
          "name": "patch",
          "type": "uint64"
        }
      ],
      "payable": false,
      "stateMutability": "pure",
      "type": "function"
    },
    {
      "constant": false,
      "inputs": [
        {
          "name": "_minPerTx",
          "type": "uint256"
        }
      ],
      "name": "setMinPerTx",
      "outputs": [],
      "payable": false,
      "stateMutability": "nonpayable",
      "type": "function"
    },
    {
      "constant": false,
      "inputs": [
        {
          "name": "_dailyLimit",
          "type": "uint256"
        }
      ],
      "name": "setDailyLimit",
      "outputs": [],
      "payable": false,
      "stateMutability": "nonpayable",
      "type": "function"
    },
    {
      "constant": true,
      "inputs": [],
      "name": "requestGasLimit",
      "outputs": [
        {
          "name": "",
          "type": "uint256"
        }
      ],
      "payable": false,
      "stateMutability": "view",
      "type": "function"
    },
    {
      "constant": false,
      "inputs": [
        {
          "name": "_maxPerTx",
          "type": "uint256"
        }
      ],
      "name": "setMaxPerTx",
      "outputs": [],
      "payable": false,
      "stateMutability": "nonpayable",
      "type": "function"
    },
    {
      "constant": true,
      "inputs": [],
      "name": "bridgeContract",
      "outputs": [
        {
          "name": "",
          "type": "address"
        }
      ],
      "payable": false,
      "stateMutability": "view",
      "type": "function"
    },
    {
      "constant": true,
      "inputs": [],
      "name": "decimalShift",
      "outputs": [
        {
          "name": "",
          "type": "int256"
        }
      ],
      "payable": false,
      "stateMutability": "view",
      "type": "function"
    },
    {
      "constant": true,
      "inputs": [],
      "name": "minPerTx",
      "outputs": [
        {
          "name": "",
          "type": "uint256"
        }
      ],
      "payable": false,
      "stateMutability": "view",
      "type": "function"
    },
    {
      "constant": true,
      "inputs": [
        {
          "name": "_amount",
          "type": "uint256"
        }
      ],
      "name": "withinLimit",
      "outputs": [
        {
          "name": "",
          "type": "bool"
        }
      ],
      "payable": false,
      "stateMutability": "view",
      "type": "function"
    },
    {
      "constant": false,
      "inputs": [
        {
          "name": "_maxPerTx",
          "type": "uint256"
        }
      ],
      "name": "setExecutionMaxPerTx",
      "outputs": [],
      "payable": false,
      "stateMutability": "nonpayable",
      "type": "function"
    },
    {
      "constant": false,
      "inputs": [
        {
          "name": "newOwner",
          "type": "address"
        }
      ],
      "name": "transferOwnership",
      "outputs": [],
      "payable": false,
      "stateMutability": "nonpayable",
      "type": "function"
    },
    {
      "constant": false,
      "inputs": [
        {
          "name": "_requestGasLimit",
          "type": "uint256"
        }
      ],
      "name": "setRequestGasLimit",
      "outputs": [],
      "payable": false,
      "stateMutability": "nonpayable",
      "type": "function"
    },
    {
      "constant": true,
      "inputs": [],
      "name": "maxPerTx",
      "outputs": [
        {
          "name": "",
          "type": "uint256"
        }
      ],
      "payable": false,
      "stateMutability": "view",
      "type": "function"
    },
    {
      "anonymous": false,
      "inputs": [
        {
          "indexed": true,
          "name": "messageId",
          "type": "bytes32"
        },
        {
          "indexed": false,
          "name": "recipient",
          "type": "address"
        },
        {
          "indexed": false,
          "name": "value",
          "type": "uint256"
        }
      ],
      "name": "FailedMessageFixed",
      "type": "event"
    },
    {
      "anonymous": false,
      "inputs": [
        {
          "indexed": true,
          "name": "sender",
          "type": "address"
        },
        {
          "indexed": false,
          "name": "value",
          "type": "uint256"
        },
        {
          "indexed": true,
          "name": "messageId",
          "type": "bytes32"
        }
      ],
      "name": "TokensBridgingInitiated",
      "type": "event"
    },
    {
      "anonymous": false,
      "inputs": [
        {
          "indexed": true,
          "name": "recipient",
          "type": "address"
        },
        {
          "indexed": false,
          "name": "value",
          "type": "uint256"
        },
        {
          "indexed": true,
          "name": "messageId",
          "type": "bytes32"
        }
      ],
      "name": "TokensBridged",
      "type": "event"
    },
    {
      "anonymous": false,
      "inputs": [
        {
          "indexed": false,
          "name": "newLimit",
          "type": "uint256"
        }
      ],
      "name": "DailyLimitChanged",
      "type": "event"
    },
    {
      "anonymous": false,
      "inputs": [
        {
          "indexed": false,
          "name": "newLimit",
          "type": "uint256"
        }
      ],
      "name": "ExecutionDailyLimitChanged",
      "type": "event"
    },
    {
      "anonymous": false,
      "inputs": [
        {
          "indexed": false,
          "name": "previousOwner",
          "type": "address"
        },
        {
          "indexed": false,
          "name": "newOwner",
          "type": "address"
        }
      ],
      "name": "OwnershipTransferred",
      "type": "event"
    },
    {
      "constant": false,
      "inputs": [
        {
          "name": "_bridgeContract",
          "type": "address"
        },
        {
          "name": "_mediatorContract",
          "type": "address"
        },
        {
          "name": "_dailyLimitMaxPerTxMinPerTxArray",
          "type": "uint256[3]"
        },
        {
          "name": "_executionDailyLimitExecutionMaxPerTxArray",
          "type": "uint256[2]"
        },
        {
          "name": "_requestGasLimit",
          "type": "uint256"
        },
        {
          "name": "_decimalShift",
          "type": "int256"
        },
        {
          "name": "_owner",
          "type": "address"
        },
        {
          "name": "_erc677token",
          "type": "address"
        }
      ],
      "name": "initialize",
      "outputs": [
        {
          "name": "",
          "type": "bool"
        }
      ],
      "payable": false,
      "stateMutability": "nonpayable",
      "type": "function"
    },
    {
      "constant": true,
      "inputs": [],
      "name": "erc20token",
      "outputs": [
        {
          "name": "",
          "type": "address"
        }
      ],
      "payable": false,
      "stateMutability": "view",
      "type": "function"
    },
    {
      "constant": false,
      "inputs": [
        {
          "name": "_receiver",
          "type": "address"
        },
        {
          "name": "_value",
          "type": "uint256"
        }
      ],
      "name": "relayTokens",
      "outputs": [],
      "payable": false,
      "stateMutability": "nonpayable",
      "type": "function"
    },
    {
      "constant": false,
      "inputs": [
        {
          "name": "_from",
          "type": "address"
        },
        {
          "name": "_value",
          "type": "uint256"
        },
        {
          "name": "_data",
          "type": "bytes"
        }
      ],
      "name": "onTokenTransfer",
      "outputs": [
        {
          "name": "",
          "type": "bool"
        }
      ],
      "payable": false,
      "stateMutability": "nonpayable",
      "type": "function"
    },
    {
      "constant": false,
      "inputs": [
        {
          "name": "_token",
          "type": "address"
        },
        {
          "name": "_to",
          "type": "address"
        }
      ],
      "name": "claimTokens",
      "outputs": [],
      "payable": false,
      "stateMutability": "nonpayable",
      "type": "function"
    },
    {
      "constant": false,
      "inputs": [
        {
          "name": "_receiver",
          "type": "address"
        }
      ],
      "name": "fixMediatorBalance",
      "outputs": [],
      "payable": false,
      "stateMutability": "nonpayable",
      "type": "function"
    }
  ],
  "bytecode": "0x608060405234801561001057600080fd5b50612f10806100206000396000f3006080604052600436106101c95763ffffffff60e060020a60003504166301e4f53a81146101ce5780630950d515146101f45780630b26cf661461020c5780631dcea4271461022d5780632bd0bb051461025e578063392e53cd146102885780633dd95d1b146102b15780633e6968b6146102c9578063437764df146102de57806343b37dd3146103285780634b94f8151461033d5780634fb3fef714610352578063521c5dcf1461036a57806358bf7c79146103ae57806359339982146103cf57806367eeba0c146103e757806369ffa08a146103fc5780636e5d6bea14610423578063871c076014610444578063879ce676146104595780638aa1949a146104715780638b6c0354146104865780638da5cb5b146104aa57806395e54a17146104bf5780639a4a4395146104d45780639cb7595a146104ec578063a2a6ca271461052d578063a4c0ed3614610545578063b20d30a914610576578063be3b625b1461058e578063c6f6f216146105a3578063cd596583146105bb578063dae5f0fd146105d0578063df25f3f0146105e5578063ea9f4968146105fa578063f20151e114610612578063f2fde38b1461062a578063f3b837911461064b578063f968adbe14610663575b600080fd5b3480156101da57600080fd5b506101f2600160a060020a0360043516602435610678565b005b34801561020057600080fd5b506101f260043561075a565b34801561021857600080fd5b506101f2600160a060020a0360043516610829565b34801561023957600080fd5b50610242610851565b60408051600160a060020a039092168252519081900360200190f35b34801561026a57600080fd5b50610276600435610860565b60408051918252519081900360200190f35b34801561029457600080fd5b5061029d61091d565b604080519115158252519081900360200190f35b3480156102bd57600080fd5b506101f260043561096e565b3480156102d557600080fd5b50610276610a2e565b3480156102ea57600080fd5b506102f3610a37565b604080517fffffffff000000000000000000000000000000000000000000000000000000009092168252519081900360200190f35b34801561033457600080fd5b50610276610a5b565b34801561034957600080fd5b50610276610aa9565b34801561035e57600080fd5b50610276600435610af6565b34801561037657600080fd5b5061029d600160a060020a0360043581169060243581169060449060a49060e435906101043590610124358116906101443516610b71565b3480156103ba57600080fd5b506101f2600160a060020a0360043516610d3b565b3480156103db57600080fd5b5061029d600435610eda565b3480156103f357600080fd5b50610276610fa3565b34801561040857600080fd5b506101f2600160a060020a0360043581169060243516610ff1565b34801561042f57600080fd5b506101f2600160a060020a036004351661109d565b34801561045057600080fd5b506102426110c2565b34801561046557600080fd5b5061029d600435611119565b34801561047d57600080fd5b50610276611157565b34801561049257600080fd5b506101f2600160a060020a03600435166024356111a5565b3480156104b657600080fd5b50610242611225565b3480156104cb57600080fd5b5061027661127c565b3480156104e057600080fd5b506101f26004356112d6565b3480156104f857600080fd5b50610501611627565b6040805167ffffffffffffffff9485168152928416602084015292168183015290519081900360600190f35b34801561053957600080fd5b506101f2600435611632565b34801561055157600080fd5b5061029d60048035600160a060020a03169060248035916044359182019101356116ce565b34801561058257600080fd5b506101f260043561177a565b34801561059a57600080fd5b5061027661183a565b3480156105af57600080fd5b506101f2600435611888565b3480156105c757600080fd5b50610242611920565b3480156105dc57600080fd5b50610276611977565b3480156105f157600080fd5b506102766119c5565b34801561060657600080fd5b5061029d600435611a13565b34801561061e57600080fd5b506101f2600435611a5e565b34801561063657600080fd5b506101f2600160a060020a0360043516611ada565b34801561065757600080fd5b506101f2600435611aff565b34801561066f57600080fd5b50610276611b24565b6000610682611b72565b1561068c57600080fd5b610694611b97565b905061069f82611a13565b15156106aa57600080fd5b6106bb6106b5610a2e565b83611bee565b6106db6106d6836106ca610aa9565b9063ffffffff611cb716565b611cca565b6106e56001611d16565b6106ff600160a060020a038216338463ffffffff611d3a16565b6107096000611d16565b610755813384866040516020018082600160a060020a0316600160a060020a03166c01000000000000000000000000028152601401915050604051602081830303815290604052611ddd565b505050565b600080610765611920565b600160a060020a0316331461077957600080fd5b6107816110c2565b600160a060020a0316610792611e05565b600160a060020a0316146107a557600080fd5b6107ae83610eda565b156107b857600080fd5b6107c183611e7d565b91506107cc83611f4c565b90506107d783611fcf565b6107e182826120a1565b60408051600160a060020a038416815260208101839052815185927f06297b0797e3363e96e454edd4ab62862051bf559a7a431ce09415306771d133928290030190a2505050565b610831611225565b600160a060020a0316331461084557600080fd5b61084e816120df565b50565b600061085b611b97565b905090565b60008060008360405160200180807f746f74616c5370656e74506572446179000000000000000000000000000000008152506010018281526020019150506040516020818303038152906040526040518082805190602001908083835b602083106108dc5780518252601f1990920191602091820191016108bd565b51815160209384036101000a600019018019909216911617905260408051929094018290039091208652850195909552929092016000205495945050505050565b7f0a6f646cd611241d8073675e00d1a1ff700fbf1b53fcf473de56d1e6e4b714ba60005260046020527f078d888f9b66f3f8bfa10909e31f1e16240db73449f0500afdbbe3a70da457cc5460ff1690565b610976611225565b600160a060020a0316331461098a57600080fd5b610992611157565b81118061099d575080155b15156109a857600080fd5b7f21dbcab260e413c20dc13c28b7db95e2b423d1135f42bb8b7d5214a92270d237600090815260209081527fadd938dbd083a16bae12238cd914fca0afc7a30edb55b1cd5c7f1823f1b0e4218290556040805183815290517f9bebf928b90863f24cc31f726a3a7545efd409f1dcf552301b1ee3710da70d3b929181900390910190a150565b62015180420490565b7fe177c00f0000000000000000000000000000000000000000000000000000000090565b7f21dbcab260e413c20dc13c28b7db95e2b423d1135f42bb8b7d5214a92270d23760009081526020527fadd938dbd083a16bae12238cd914fca0afc7a30edb55b1cd5c7f1823f1b0e4215490565b7f3db340e280667ee926fa8c51e8f9fcf88a0ff221a66d84d63b4778127d97d13960009081526020527ef98556deae64bbaa11436ee534ae029e85ed112aff9b71330af4c2d320eac95490565b60008060008360405160200180807f746f74616c457865637574656450657244617900000000000000000000000000815250601301828152602001915050604051602081830303815290604052604051808280519060200190808383602083106108dc5780518252601f1990920191602091820191016108bd565b60408051600481526024810182526020810180517bffffffffffffffffffffffffffffffffffffffffffffffffffffffff167f6fde8202000000000000000000000000000000000000000000000000000000001781529151815160009330939291829190808383895b83811015610bf2578181015183820152602001610bda565b50505050905090810190601f168015610c1f5780820380516001836020036101000a031916815260200191505b509150506000604051808303816000865af19150501580610cb1575030600160a060020a0316636fde82026040518163ffffffff1660e060020a028152600401602060405180830381600087803b158015610c7957600080fd5b505af1158015610c8d573d6000803e3d6000fd5b505050506040513d6020811015610ca357600080fd5b5051600160a060020a031633145b80610cbb57503330145b1515610cc657600080fd5b610d158989896003806020026040519081016040528092919082600360200280828437505060408051808201825293508d9250600291508390839080828437820191505050505089898961216a565b610d1e826121c4565b610d2661224f565b610d2e61091d565b9998505050505050505050565b60008060008030600160a060020a0316636fde82026040518163ffffffff1660e060020a028152600401602060405180830381600087803b158015610d7f57600080fd5b505af1158015610d93573d6000803e3d6000fd5b505050506040513d6020811015610da957600080fd5b5051600160a060020a03163314610dbf57600080fd5b84600160a060020a0381161515610dd557600080fd5b610ddd611b97565b600160a060020a03166370a08231306040518263ffffffff1660e060020a0281526004018082600160a060020a0316600160a060020a03168152602001915050602060405180830381600087803b158015610e3757600080fd5b505af1158015610e4b573d6000803e3d6000fd5b505050506040513d6020811015610e6157600080fd5b50519450610e6d610aa9565b9350838511610e7b57600080fd5b8385039250610e8861127c565b915060008211610e9757600080fd5b81831115610ea3578192505b610eb4610eae610a2e565b84611bee565b610ec76106d6858563ffffffff611cb716565b610ed28687856122a6565b505050505050565b6000600460008360405160200180807f6d65737361676546697865640000000000000000000000000000000000000000815250600c0182600019166000191681526020019150506040516020818303038152906040526040518082805190602001908083835b60208310610f5f5780518252601f199092019160209182019101610f40565b51815160209384036101000a600019018019909216911617905260408051929094018290039091208652850195909552929092016000205460ff1695945050505050565b7f4a6a899679f26b73530d8cf1001e83b6f7702e04b6fdb98f3c62dc7e47e041a560009081526020527f1ab29a5cca988aee50edccdd61c5bcaa7ad4b29a03b7ee50f298ceccfe14cc4e5490565b30600160a060020a0316636fde82026040518163ffffffff1660e060020a028152600401602060405180830381600087803b15801561102f57600080fd5b505af1158015611043573d6000803e3d6000fd5b505050506040513d602081101561105957600080fd5b5051600160a060020a0316331461106f57600080fd5b611077611b97565b600160a060020a038381169116141561108f57600080fd5b611099828261248d565b5050565b6110a5611225565b600160a060020a031633146110b957600080fd5b61084e816124cb565b7f98aa806e31e94a687a31c65769cb99670064dd7f5a87526da075c5fb4eab988060005260026020527f0c1206883be66049a02d4937078367c00b3d71dd1a9465df969363c6ddeac96d54600160a060020a031690565b600080611130836106ca61112b610a2e565b610af6565b90508061113b610a5b565b10158015611150575061114c611157565b8311155b9392505050565b7fc0ed44c192c86d1cc1ba51340b032c2766b4a2b0041031de13c46dd7104888d560009081526020527ff8e983ee86e5e377e9e34c9131b266382c3f04113d20de077f9e12663c7a646b5490565b6111ad611920565b600160a060020a031633146111c157600080fd5b6111c96110c2565b600160a060020a03166111da611e05565b600160a060020a0316146111ed57600080fd5b6111f681611119565b1561121b5761120c611206610a2e565b82612542565b61121682826125c8565b611099565b61109982826101c9565b7f02016836a56b71f0d02689e69e326f4f4c1b9057164ef592671cf0d37c8040c060005260026020527fb7802e97e87ef2842a6cce7da7ffaeaedaa2f61a6a7870b23d9d01fc9b73712e54600160a060020a031690565b600080600080600061128c611b24565b9350611296610fa3565b92506112a86112a3610a2e565b610860565b91508183116112b85760006112bc565b8183035b90508084106112cb57806112cd565b835b94505050505090565b600060606112e2611920565b600160a060020a031663cb08a10c846040518263ffffffff1660e060020a028152600401808260001916600019168152602001915050602060405180830381600087803b15801561133257600080fd5b505af1158015611346573d6000803e3d6000fd5b505050506040513d602081101561135c57600080fd5b50511561136857600080fd5b30611371611920565b600160a060020a0316633f9a8e7e856040518263ffffffff1660e060020a028152600401808260001916600019168152602001915050602060405180830381600087803b1580156113c157600080fd5b505af11580156113d5573d6000803e3d6000fd5b505050506040513d60208110156113eb57600080fd5b5051600160a060020a03161461140057600080fd5b6114086110c2565b600160a060020a0316611419611920565b600160a060020a0316634a610b04856040518263ffffffff1660e060020a028152600401808260001916600019168152602001915050602060405180830381600087803b15801561146957600080fd5b505af115801561147d573d6000803e3d6000fd5b505050506040513d602081101561149357600080fd5b5051600160a060020a0316146114a857600080fd5b50506040805160248082018490528251808303909101815260449091019091526020810180517bffffffffffffffffffffffffffffffffffffffffffffffffffffffff167f0950d515000000000000000000000000000000000000000000000000000000009081179091529061151c611920565b600160a060020a031663dc8601b36115326110c2565b8361153b61183a565b6040518463ffffffff1660e060020a0281526004018084600160a060020a0316600160a060020a0316815260200180602001838152602001828103825284818151815260200191508051906020019080838360005b838110156115a8578181015183820152602001611590565b50505050905090810190601f1680156115d55780820380516001836020036101000a031916815260200191505b50945050505050602060405180830381600087803b1580156115f657600080fd5b505af115801561160a573d6000803e3d6000fd5b505050506040513d602081101561162057600080fd5b5050505050565b600160026000909192565b61163a611225565b600160a060020a0316331461164e57600080fd5b6000811180156116645750611661610fa3565b81105b80156116765750611673611b24565b81105b151561168157600080fd5b7fbbb088c505d18e049d114c7c91f11724e69c55ad6c5397e2b929e68b41fa05d160009081526020527f8df5c48c6b6e11d97548adc824ba0c99103ec09830fa5d53a179984085e6eaa055565b6000806116d9611b97565b905033600160a060020a038216146116f057600080fd5b6116f8611b72565b15156117325761170785611a13565b151561171257600080fd5b61172361171d610a2e565b86611bee565b6117326106d6866106ca610aa9565b61176e81878787878080601f01602080910402602001604051908101604052809392919081815260200183838082843750611ddd945050505050565b50600195945050505050565b611782611225565b600160a060020a0316331461179657600080fd5b61179e611b24565b8111806117a9575080155b15156117b457600080fd5b7f4a6a899679f26b73530d8cf1001e83b6f7702e04b6fdb98f3c62dc7e47e041a5600090815260209081527f1ab29a5cca988aee50edccdd61c5bcaa7ad4b29a03b7ee50f298ceccfe14cc4e8290556040805183815290517fad4123ae17c414d9c6d2fec478b402e6b01856cc250fd01fbfd252fda0089d3c929181900390910190a150565b7f2dfd6c9f781bb6bbb5369c114e949b69ebb440ef3d4dd6b2836225eb1dc3a2be60009081526020527f2de0d2cdc19d356cb53b5984f91bfd3b31fe0c678a0d190a6db39274bb34753f5490565b611890611225565b600160a060020a031633146118a457600080fd5b8015806118c857506118b46119c5565b811180156118c857506118c5610fa3565b81105b15156118d357600080fd5b7f0f8803acad17c63ee38bf2de71e1888bc7a079a6f73658e274b08018bea4e29c60009081526020527f9de0f81379b4d8e60fe509315d071b56e7b732abaf193e74e0d15808b0951d0955565b7f811bbb11e8899da471f0e69a3ed55090fc90215227fc5fb1cb0d6e962ea7b74f60005260026020527fb4ed64697d3ef8518241966f7c6f28b0d72f20f51198717d198d2d55076c593d54600160a060020a031690565b7f1e8ecaafaddea96ed9ac6d2642dcdfe1bebe58a930b1085842d8fc122b371ee560009081526020527fd5c78dd9468716ca9bb96be25d56436811b20aab3523a9904b12deef1cab239d5490565b7fbbb088c505d18e049d114c7c91f11724e69c55ad6c5397e2b929e68b41fa05d160009081526020527f8df5c48c6b6e11d97548adc824ba0c99103ec09830fa5d53a179984085e6eaa05490565b600080611a25836106ca6112a3610a2e565b905080611a30610fa3565b10158015611a455750611a41611b24565b8311155b80156111505750611a546119c5565b9092101592915050565b611a66611225565b600160a060020a03163314611a7a57600080fd5b611a82610a5b565b8110611a8d57600080fd5b7fc0ed44c192c86d1cc1ba51340b032c2766b4a2b0041031de13c46dd7104888d560009081526020527ff8e983ee86e5e377e9e34c9131b266382c3f04113d20de077f9e12663c7a646b55565b611ae2611225565b600160a060020a03163314611af657600080fd5b61084e81612642565b611b07611225565b600160a060020a03163314611b1b57600080fd5b61084e81612719565b7f0f8803acad17c63ee38bf2de71e1888bc7a079a6f73658e274b08018bea4e29c60009081526020527f9de0f81379b4d8e60fe509315d071b56e7b732abaf193e74e0d15808b0951d095490565b7f6168652c307c1e813ca11cfb3a601f1cf3b22452021a5052d8b05f1f1f8a3e925490565b7fa8b0ade3e2b734f043ce298aca4cc8d19d74270223f34531d0988b7d00cba21d60005260026020527f603cd9dcbfa185d5c37504f4c8b3f16117ed744fba48d08b7aad44a162af1c9354600160a060020a031690565b611bfb816106ca84610860565b6000808460405160200180807f746f74616c5370656e74506572446179000000000000000000000000000000008152506010018281526020019150506040516020818303038152906040526040518082805190602001908083835b60208310611c755780518252601f199092019160209182019101611c56565b51815160209384036101000a60001901801990921691161790526040805192909401829003909120865285019590955292909201600020939093555050505050565b81810182811015611cc457fe5b92915050565b7f3db340e280667ee926fa8c51e8f9fcf88a0ff221a66d84d63b4778127d97d13960009081526020527ef98556deae64bbaa11436ee534ae029e85ed112aff9b71330af4c2d320eac955565b7f6168652c307c1e813ca11cfb3a601f1cf3b22452021a5052d8b05f1f1f8a3e9255565b604080517f23b872dd000000000000000000000000000000000000000000000000000000008152600160a060020a038481166004830152306024830152604482018490529151918516916323b872dd9160648082019260009290919082900301818387803b158015611dab57600080fd5b505af1158015611dbf573d6000803e3d6000fd5b505050503d156107555760206000803e600051151561075557600080fd5b611de5611b72565b1515611dff57611dff83611df9858461277a565b846122a6565b50505050565b6000611e0f611920565b600160a060020a031663d67bdd256040518163ffffffff1660e060020a028152600401602060405180830381600087803b158015611e4c57600080fd5b505af1158015611e60573d6000803e3d6000fd5b505050506040513d6020811015611e7657600080fd5b5051905090565b6000600260008360405160200180807f6d657373616765526563697069656e740000000000000000000000000000000081525060100182600019166000191681526020019150506040516020818303038152906040526040518082805190602001908083835b60208310611f025780518252601f199092019160209182019101611ee3565b51815160209384036101000a6000190180199092169116179052604080519290940182900390912086528501959095529290920160002054600160a060020a031695945050505050565b60008060008360405160200180807f6d65737361676556616c75650000000000000000000000000000000000000000815250600c018260001916600019168152602001915050604051602081830303815290604052604051808280519060200190808383602083106108dc5780518252601f1990920191602091820191016108bd565b6001600460008360405160200180807f6d65737361676546697865640000000000000000000000000000000000000000815250600c0182600019166000191681526020019150506040516020818303038152906040526040518082805190602001908083835b602083106120545780518252601f199092019160209182019101612035565b51815160209384036101000a60001901801990921691161790526040805192909401829003909120865285019590955292909201600020805460ff19169415159490941790935550505050565b6120bc6106d6826120b0610aa9565b9063ffffffff6127d416565b61109982826120c9611b97565b600160a060020a0316919063ffffffff6127e616565b6120e881612849565b15156120f357600080fd5b7f811bbb11e8899da471f0e69a3ed55090fc90215227fc5fb1cb0d6e962ea7b74f60005260026020527fb4ed64697d3ef8518241966f7c6f28b0d72f20f51198717d198d2d55076c593d805473ffffffffffffffffffffffffffffffffffffffff1916600160a060020a0392909216919091179055565b61217261091d565b1561217c57600080fd5b612185876120df565b61218e866124cb565b61219783612719565b6121a085612851565b6121a9846129ae565b6121b282612a83565b6121bb81612642565b50505050505050565b6121cd81612849565b15156121d857600080fd5b7fa8b0ade3e2b734f043ce298aca4cc8d19d74270223f34531d0988b7d00cba21d60005260026020527f603cd9dcbfa185d5c37504f4c8b3f16117ed744fba48d08b7aad44a162af1c93805473ffffffffffffffffffffffffffffffffffffffff1916600160a060020a0392909216919091179055565b7f0a6f646cd611241d8073675e00d1a1ff700fbf1b53fcf473de56d1e6e4b714ba60005260046020527f078d888f9b66f3f8bfa10909e31f1e16240db73449f0500afdbbe3a70da457cc805460ff19166001179055565b60408051600160a060020a038416602482015260448082018490528251808303909101815260649091019091526020810180517bffffffffffffffffffffffffffffffffffffffffffffffffffffffff167f8b6c035400000000000000000000000000000000000000000000000000000000908117909152906000612329611920565b600160a060020a031663dc8601b361233f6110c2565b8461234861183a565b6040518463ffffffff1660e060020a0281526004018084600160a060020a0316600160a060020a0316815260200180602001838152602001828103825284818151815260200191508051906020019080838360005b838110156123b557818101518382015260200161239d565b50505050905090810190601f1680156123e25780820380516001836020036101000a031916815260200191505b50945050505050602060405180830381600087803b15801561240357600080fd5b505af1158015612417573d6000803e3d6000fd5b505050506040513d602081101561242d57600080fd5b5051905061243b8185612aec565b6124458187612b6e565b6040805185815290518291600160a060020a038916917f3a5557a7cf72d28e8da836aeff2de822440d01a036e571c12c4c48611a0a41799181900360200190a3505050505050565b80600160a060020a03811615156124a357600080fd5b600160a060020a03831615156124c1576124bc82612c5c565b610755565b6107558383612c68565b7f98aa806e31e94a687a31c65769cb99670064dd7f5a87526da075c5fb4eab988060005260026020527f0c1206883be66049a02d4937078367c00b3d71dd1a9465df969363c6ddeac96d805473ffffffffffffffffffffffffffffffffffffffff1916600160a060020a0392909216919091179055565b61254f816106ca84610af6565b6000808460405160200180807f746f74616c45786563757465645065724461790000000000000000000000000081525060130182815260200191505060405160208183030381529060405260405180828051906020019080838360208310611c755780518252601f199092019160209182019101611c56565b6000806125d483612d15565b91506125de612d2b565b90506125ef6106d6836120b0610aa9565b6125fc84836120c9611b97565b6040805183815290518291600160a060020a038716917f2f9a6098d4503a127779ba975f5f6b04f842362b1809f346989e9abc0b4dedb69181900360200190a350505050565b600160a060020a038116151561265757600080fd5b7f8be0079c531659141344cd1fd0a4f28419497f9722a3daafe3b4186f6b6457e0612680611225565b60408051600160a060020a03928316815291841660208301528051918290030190a17f02016836a56b71f0d02689e69e326f4f4c1b9057164ef592671cf0d37c8040c060005260026020527fb7802e97e87ef2842a6cce7da7ffaeaedaa2f61a6a7870b23d9d01fc9b73712e805473ffffffffffffffffffffffffffffffffffffffff1916600160a060020a0392909216919091179055565b612721612d72565b81111561272d57600080fd5b7f2dfd6c9f781bb6bbb5369c114e949b69ebb440ef3d4dd6b2836225eb1dc3a2be60009081526020527f2de0d2cdc19d356cb53b5984f91bfd3b31fe0c678a0d190a6db39274bb34753f55565b8051829060001015611cc457815160141461279457600080fd5b61279d82612db9565b9050600160a060020a03811615156127b457600080fd5b6127bc612dc0565b600160a060020a0382811691161415611cc457600080fd5b6000828211156127e057fe5b50900390565b82600160a060020a031663a9059cbb83836040518363ffffffff1660e060020a0281526004018083600160a060020a0316600160a060020a0316815260200182815260200192505050600060405180830381600087803b158015611dab57600080fd5b6000903b1190565b6040810151600010801561286c575060408101516020820151115b801561287c575060208101518151115b151561288757600080fd5b80517f4a6a899679f26b73530d8cf1001e83b6f7702e04b6fdb98f3c62dc7e47e041a5600090815260208181527f1ab29a5cca988aee50edccdd61c5bcaa7ad4b29a03b7ee50f298ceccfe14cc4e92909255908201517f0f8803acad17c63ee38bf2de71e1888bc7a079a6f73658e274b08018bea4e29c82527f9de0f81379b4d8e60fe509315d071b56e7b732abaf193e74e0d15808b0951d095560408201517fbbb088c505d18e049d114c7c91f11724e69c55ad6c5397e2b929e68b41fa05d182527f8df5c48c6b6e11d97548adc824ba0c99103ec09830fa5d53a179984085e6eaa0557fad4123ae17c414d9c6d2fec478b402e6b01856cc250fd01fbfd252fda0089d3c9082905b60200201516040518082815260200191505060405180910390a150565b80516020820151106129bf57600080fd5b80517f21dbcab260e413c20dc13c28b7db95e2b423d1135f42bb8b7d5214a92270d237600090815260208181527fadd938dbd083a16bae12238cd914fca0afc7a30edb55b1cd5c7f1823f1b0e42192909255908201517fc0ed44c192c86d1cc1ba51340b032c2766b4a2b0041031de13c46dd7104888d582527ff8e983ee86e5e377e9e34c9131b266382c3f04113d20de077f9e12663c7a646b557f9bebf928b90863f24cc31f726a3a7545efd409f1dcf552301b1ee3710da70d3b908290612991565b604c1981138015612a945750604d81125b1515612a9f57600080fd5b7f1e8ecaafaddea96ed9ac6d2642dcdfe1bebe58a930b1085842d8fc122b371ee560009081526020527fd5c78dd9468716ca9bb96be25d56436811b20aab3523a9904b12deef1cab239d55565b806000808460405160200180807f6d65737361676556616c75650000000000000000000000000000000000000000815250600c01826000191660001916815260200191505060405160208183030381529060405260405180828051906020019080838360208310611c755780518252601f199092019160209182019101611c56565b80600260008460405160200180807f6d657373616765526563697069656e740000000000000000000000000000000081525060100182600019166000191681526020019150506040516020818303038152906040526040518082805190602001908083835b60208310612bf25780518252601f199092019160209182019101612bd3565b51815160209384036101000a60001901801990921691161790526040805192909401829003909120865285019590955292909201600020805473ffffffffffffffffffffffffffffffffffffffff1916600160a060020a0395909516949094179093555050505050565b30316110998282612dca565b604080517f70a0823100000000000000000000000000000000000000000000000000000000815230600482015290518391600091600160a060020a038416916370a0823191602480830192602092919082900301818787803b158015612ccd57600080fd5b505af1158015612ce1573d6000803e3d6000fd5b505050506040513d6020811015612cf757600080fd5b50519050611dff600160a060020a038516848363ffffffff6127e616565b6000611cc482612d23611977565b600003612e2b565b6000612d35611920565b600160a060020a031663669f618b6040518163ffffffff1660e060020a028152600401602060405180830381600087803b158015611e4c57600080fd5b6000612d7c611920565b600160a060020a031663e5789d036040518163ffffffff1660e060020a028152600401602060405180830381600087803b158015611e4c57600080fd5b6014015190565b600061085b6110c2565b604051600160a060020a0383169082156108fc029083906000818181858888f193505050501515611099578082612dff612eb4565b600160a060020a039091168152604051908190036020019082f080158015611620573d6000803e3d6000fd5b6000811515612e3b575081611cc4565b6000821315612e5f57612e5883600a84900a63ffffffff612e7616565b9050611cc4565b611150836000849003600a0a63ffffffff612e9f16565b6000821515612e8757506000611cc4565b50818102818382811515612e9757fe5b0414611cc457fe5b60008183811515612eac57fe5b049392505050565b604051602180612ec4833901905600608060405260405160208060218339810160405251600160a060020a038116ff00a165627a7a72305820d396a58fe0af50e42f39ed044a52cfbb2c1f5a367f95a6ffba4d553b4288bc5f0029",
  "source": "pragma solidity 0.4.24;\n\nimport \"./BasicAMBErc20ToNative.sol\";\nimport \"../BaseERC677Bridge.sol\";\nimport \"../ReentrancyGuard.sol\";\nimport \"../../libraries/SafeERC20.sol\";\nimport \"../MediatorBalanceStorage.sol\";\n\n/**\n* @title ForeignAMBErc20ToNative\n* @dev Foreign mediator implementation for erc20-to-native bridge intended to work on top of AMB bridge.\n* It is design to be used as implementation contract of EternalStorageProxy contract.\n*/\ncontract ForeignAMBErc20ToNative is BasicAMBErc20ToNative, ReentrancyGuard, BaseERC677Bridge, MediatorBalanceStorage {\n    using SafeERC20 for ERC677;\n\n    /**\n    * @dev Stores the initial parameters of the mediator.\n    * @param _bridgeContract the address of the AMB bridge contract.\n    * @param _mediatorContract the address of the mediator contract on the other network.\n    * @param _dailyLimitMaxPerTxMinPerTxArray array with limit values for the assets to be bridged to the other network.\n    *   [ 0 = dailyLimit, 1 = maxPerTx, 2 = minPerTx ]\n    * @param _executionDailyLimitExecutionMaxPerTxArray array with limit values for the assets bridged from the other network.\n    *   [ 0 = executionDailyLimit, 1 = executionMaxPerTx ]\n    * @param _requestGasLimit the gas limit for the message execution.\n    * @param _decimalShift number of decimals shift required to adjust the amount of tokens bridged.\n    * @param _owner address of the owner of the mediator contract\n    * @param _erc677token address of the erc677 token contract\n    */\n    function initialize(\n        address _bridgeContract,\n        address _mediatorContract,\n        uint256[3] _dailyLimitMaxPerTxMinPerTxArray, // [ 0 = dailyLimit, 1 = maxPerTx, 2 = minPerTx ]\n        uint256[2] _executionDailyLimitExecutionMaxPerTxArray, // [ 0 = executionDailyLimit, 1 = executionMaxPerTx ]\n        uint256 _requestGasLimit,\n        int256 _decimalShift,\n        address _owner,\n        address _erc677token\n    ) external onlyRelevantSender returns (bool) {\n        _initialize(\n            _bridgeContract,\n            _mediatorContract,\n            _dailyLimitMaxPerTxMinPerTxArray,\n            _executionDailyLimitExecutionMaxPerTxArray,\n            _requestGasLimit,\n            _decimalShift,\n            _owner\n        );\n        setErc677token(_erc677token);\n        setInitialize();\n        return isInitialized();\n    }\n\n    /**\n    * @dev Public getter for token contract.\n    * Internal _erc677token() is hidden from the end users, in order to not confuse them with the supported token standard.\n    * @return address of the used token contract\n    */\n    function erc20token() external view returns (ERC677) {\n        return _erc677token();\n    }\n\n    /**\n    * @dev It will initiate the bridge operation that will lock the amount of tokens transferred and mint the native tokens on\n    * the other network. The user should first call Approve method of the ERC677 token.\n    * @param _receiver address that will receive the native tokens on the other network.\n    * @param _value amount of tokens to be transferred to the other network.\n    */\n    function relayTokens(address _receiver, uint256 _value) external {\n        // This lock is to prevent calling passMessage twice.\n        // When transferFrom is called, after the transfer, the ERC677 token will call onTokenTransfer from this contract\n        // which will call passMessage.\n        require(!lock());\n        ERC677 token = _erc677token();\n        require(withinLimit(_value));\n        addTotalSpentPerDay(getCurrentDay(), _value);\n        _setMediatorBalance(mediatorBalance().add(_value));\n\n        setLock(true);\n        token.safeTransferFrom(msg.sender, _value);\n        setLock(false);\n        bridgeSpecificActionsOnTokenTransfer(token, msg.sender, _value, abi.encodePacked(_receiver));\n    }\n\n    /**\n    * @dev This method is called when transferAndCall is used from ERC677 to transfer the tokens to this contract.\n    * It will initiate the bridge operation that will lock the amount of tokens transferred and mint the native tokens on\n    * the other network.\n    * @param _from address that transferred the tokens.\n    * @param _value amount of tokens transferred.\n    * @param _data this parameter could contain the address of an alternative receiver of the tokens on the other network,\n    * otherwise it will be empty.\n    */\n    function onTokenTransfer(address _from, uint256 _value, bytes _data) external returns (bool) {\n        ERC677 token = _erc677token();\n        require(msg.sender == address(token));\n        if (!lock()) {\n            require(withinLimit(_value));\n            addTotalSpentPerDay(getCurrentDay(), _value);\n            _setMediatorBalance(mediatorBalance().add(_value));\n        }\n        bridgeSpecificActionsOnTokenTransfer(token, _from, _value, _data);\n        return true;\n    }\n\n    /**\n    * @dev Allows to transfer any locked token on this contract that is not part of the bridge operations.\n    * @param _token address of the token, if it is not provided, native tokens will be transferred.\n    * @param _to address that will receive the locked tokens on this contract.\n    */\n    function claimTokens(address _token, address _to) external onlyIfUpgradeabilityOwner {\n        // Since bridged tokens are locked at this contract, it is not allowed to claim them with the use of claimTokens function\n        require(_token != address(_erc677token()));\n        claimValues(_token, _to);\n    }\n\n    /**\n    * @dev Allows to send to the other network the amount of locked tokens that can be forced into the contract\n    * without the invocation of the required methods.\n    * @param _receiver the address that will receive the native coins on the other network\n    */\n    function fixMediatorBalance(address _receiver) external onlyIfUpgradeabilityOwner validAddress(_receiver) {\n        uint256 balance = _erc677token().balanceOf(address(this));\n        uint256 expectedBalance = mediatorBalance();\n        require(balance > expectedBalance);\n        uint256 diff = balance - expectedBalance;\n        uint256 available = maxAvailablePerTx();\n        require(available > 0);\n        if (diff > available) {\n            diff = available;\n        }\n        addTotalSpentPerDay(getCurrentDay(), diff);\n        _setMediatorBalance(expectedBalance.add(diff));\n        passMessage(_receiver, _receiver, diff);\n    }\n\n    /**\n    * @dev Unlock the amount of tokens that were bridged from the other network.\n    * @param _receiver address that will receive the tokens\n    * @param _value amount of tokens to be received\n    */\n    function executeActionOnBridgedTokens(address _receiver, uint256 _value) internal {\n        uint256 valueToTransfer = _unshiftValue(_value);\n        bytes32 _messageId = messageId();\n\n        _setMediatorBalance(mediatorBalance().sub(valueToTransfer));\n        _erc677token().safeTransfer(_receiver, valueToTransfer);\n        emit TokensBridged(_receiver, valueToTransfer, _messageId);\n    }\n\n    /**\n    * @dev Unlock back the amount of tokens that were bridged to the other network but failed.\n    * @param _receiver address that will receive the tokens\n    * @param _value amount of tokens to be received\n    */\n    function executeActionOnFixedTokens(address _receiver, uint256 _value) internal {\n        _setMediatorBalance(mediatorBalance().sub(_value));\n        _erc677token().safeTransfer(_receiver, _value);\n    }\n\n    /**\n    * @dev Locks the amount of tokens and makes the request to mint the native tokens on the other network.\n    * @param _from address that transferred the tokens.\n    * @param _value amount of tokens transferred.\n    * @param _data this parameter could contain the address of an alternative receiver of the native tokens on the other\n    * network, otherwise it will be empty.\n    */\n    function bridgeSpecificActionsOnTokenTransfer(\n        ERC677, /*_token*/\n        address _from,\n        uint256 _value,\n        bytes _data\n    ) internal {\n        if (!lock()) {\n            passMessage(_from, chooseReceiver(_from, _data), _value);\n        }\n    }\n\n    /**\n    * @dev Tells the address of the mediator contract on the other side, used by chooseReceiver method\n    * to avoid sending the native tokens to that address.\n    * @return address of the mediator contract con the other side\n    */\n    function bridgeContractOnOtherSide() internal view returns (address) {\n        return mediatorContractOnOtherSide();\n    }\n}\n",
  "sourcePath": "/home/analiser/bridge-frontend/contracts/upgradeable_contracts/amb_erc20_to_native/ForeignAMBErc20ToNative.sol",
  "compiler": {
    "name": "solc",
    "version": "0.4.24+commit.e67f0147.Emscripten.clang"
  },
  "schemaVersion": "3.4.3",
  "updatedAt": "2021-09-03T05:10:28.039Z",
  "devdoc": {
    "methods": {
      "bridgeContract()": {
        "details": "Get the AMB interface for the bridge contract address",
        "return": "AMB interface for the bridge contract address"
      },
      "claimTokens(address,address)": {
        "details": "Allows to transfer any locked token on this contract that is not part of the bridge operations.",
        "params": {
          "_to": "address that will receive the locked tokens on this contract.",
          "_token": "address of the token, if it is not provided, native tokens will be transferred."
        }
      },
      "decimalShift()": {
        "details": "Returns the value of foreign-to-home decimal shift.",
        "return": "decimal shift."
      },
      "erc20token()": {
        "details": "Public getter for token contract. Internal _erc677token() is hidden from the end users, in order to not confuse them with the supported token standard.",
        "return": "address of the used token contract"
      },
      "fixFailedMessage(bytes32)": {
        "details": "Handles the request to fix transferred assets which bridged message execution failed on the other network. It uses the information stored by passMessage method when the assets were initially transferred",
        "params": {
          "_messageId": "id of the message which execution failed on the other network."
        }
      },
      "fixMediatorBalance(address)": {
        "details": "Allows to send to the other network the amount of locked tokens that can be forced into the contract without the invocation of the required methods.",
        "params": {
          "_receiver": "the address that will receive the native coins on the other network"
        }
      },
      "getBridgeInterfacesVersion()": {
        "details": "Tells the bridge interface version that this contract supports.",
        "return": "major value of the versionminor value of the versionpatch value of the version"
      },
      "getBridgeMode()": {
        "details": "Tells the bridge mode that this contract supports.",
        "return": "_data 4 bytes representing the bridge mode"
      },
      "handleBridgedTokens(address,uint256)": {
        "details": "Handles the bridged tokens. Checks that the value is inside the execution limits and invokes the method to execute the Mint or Unlock accordingly.",
        "params": {
          "_recipient": "address that will receive the tokens",
          "_value": "amount of tokens to be received"
        }
      },
      "initialize(address,address,uint256[3],uint256[2],uint256,int256,address,address)": {
        "details": "Stores the initial parameters of the mediator.",
        "params": {
          "_bridgeContract": "the address of the AMB bridge contract.",
          "_dailyLimitMaxPerTxMinPerTxArray": "array with limit values for the assets to be bridged to the other network.  [ 0 = dailyLimit, 1 = maxPerTx, 2 = minPerTx ]",
          "_decimalShift": "number of decimals shift required to adjust the amount of tokens bridged.",
          "_erc677token": "address of the erc677 token contract",
          "_executionDailyLimitExecutionMaxPerTxArray": "array with limit values for the assets bridged from the other network.  [ 0 = executionDailyLimit, 1 = executionMaxPerTx ]",
          "_mediatorContract": "the address of the mediator contract on the other network.",
          "_owner": "address of the owner of the mediator contract",
          "_requestGasLimit": "the gas limit for the message execution."
        }
      },
      "maxAvailablePerTx()": {
        "details": "Retrieves maximum available bridge amount per one transaction taking into account maxPerTx() and dailyLimit() parameters.",
        "return": "minimum of maxPerTx parameter and remaining daily quota."
      },
      "mediatorBalance()": {
        "details": "Tells the expected mediator balance.",
        "return": "the current expected mediator balance."
      },
      "mediatorContractOnOtherSide()": {
        "details": "Tells the mediator contract address from the other network.",
        "return": "the address of the mediator contract."
      },
      "messageFixed(bytes32)": {
        "details": "Tells if a message sent to the AMB bridge has been fixed.",
        "return": "bool indicating the status of the message."
      },
      "onTokenTransfer(address,uint256,bytes)": {
        "details": "This method is called when transferAndCall is used from ERC677 to transfer the tokens to this contract. It will initiate the bridge operation that will lock the amount of tokens transferred and mint the native tokens on the other network.",
        "params": {
          "_data": "this parameter could contain the address of an alternative receiver of the tokens on the other network, otherwise it will be empty.",
          "_from": "address that transferred the tokens.",
          "_value": "amount of tokens transferred."
        }
      },
      "owner()": {
        "details": "Tells the address of the owner",
        "return": "the address of the owner"
      },
      "relayTokens(address,uint256)": {
        "details": "It will initiate the bridge operation that will lock the amount of tokens transferred and mint the native tokens on the other network. The user should first call Approve method of the ERC677 token.",
        "params": {
          "_receiver": "address that will receive the native tokens on the other network.",
          "_value": "amount of tokens to be transferred to the other network."
        }
      },
      "requestFailedMessageFix(bytes32)": {
        "details": "Method to be called when a bridged message execution failed. It will generate a new message requesting to fix/roll back the transferred assets on the other network.",
        "params": {
          "_messageId": "id of the message which execution failed."
        }
      },
      "requestGasLimit()": {
        "details": "Tells the gas limit to be used in the message execution by the AMB bridge on the other network.",
        "return": "the gas limit for the message execution."
      },
      "setBridgeContract(address)": {
        "details": "Sets the AMB bridge contract address. Only the owner can call this method.",
        "params": {
          "_bridgeContract": "the address of the bridge contract."
        }
      },
      "setMediatorContractOnOtherSide(address)": {
        "details": "Sets the mediator contract address from the other network. Only the owner can call this method.",
        "params": {
          "_mediatorContract": "the address of the mediator contract."
        }
      },
      "setRequestGasLimit(uint256)": {
        "details": "Sets the gas limit to be used in the message execution by the AMB bridge on the other network. This value can't exceed the parameter maxGasPerTx defined on the AMB bridge. Only the owner can call this method.",
        "params": {
          "_requestGasLimit": "the gas limit for the message execution."
        }
      },
      "transferOwnership(address)": {
        "details": "Allows the current owner to transfer control of the contract to a newOwner.",
        "params": {
          "newOwner": "the address to transfer ownership to."
        }
      }
    },
    "title": "ForeignAMBErc20ToNative"
  },
  "userdoc": {
    "methods": {}
  }
}