{
  "contractName": "ForeignBridgeErc677ToErc677",
  "abi": [
    {
      "constant": true,
      "inputs": [],
      "name": "erc677token",
      "outputs": [
        {
          "name": "",
          "type": "address"
        }
      ],
      "payable": false,
      "stateMutability": "view",
      "type": "function"
    },
    {
      "constant": true,
      "inputs": [
        {
          "name": "_txHash",
          "type": "bytes32"
        }
      ],
      "name": "relayedMessages",
      "outputs": [
        {
          "name": "",
          "type": "bool"
        }
      ],
      "payable": false,
      "stateMutability": "view",
      "type": "function"
    },
    {
      "constant": true,
      "inputs": [
        {
          "name": "_day",
          "type": "uint256"
        }
      ],
      "name": "totalSpentPerDay",
      "outputs": [
        {
          "name": "",
          "type": "uint256"
        }
      ],
      "payable": false,
      "stateMutability": "view",
      "type": "function"
    },
    {
      "constant": true,
      "inputs": [],
      "name": "isInitialized",
      "outputs": [
        {
          "name": "",
          "type": "bool"
        }
      ],
      "payable": false,
      "stateMutability": "view",
      "type": "function"
    },
    {
      "constant": false,
      "inputs": [
        {
          "name": "_dailyLimit",
          "type": "uint256"
        }
      ],
      "name": "setExecutionDailyLimit",
      "outputs": [],
      "payable": false,
      "stateMutability": "nonpayable",
      "type": "function"
    },
    {
      "constant": true,
      "inputs": [],
      "name": "getCurrentDay",
      "outputs": [
        {
          "name": "",
          "type": "uint256"
        }
      ],
      "payable": false,
      "stateMutability": "view",
      "type": "function"
    },
    {
      "constant": true,
      "inputs": [],
      "name": "requiredBlockConfirmations",
      "outputs": [
        {
          "name": "",
          "type": "uint256"
        }
      ],
      "payable": false,
      "stateMutability": "view",
      "type": "function"
    },
    {
      "constant": false,
      "inputs": [
        {
          "name": "message",
          "type": "bytes"
        },
        {
          "name": "signatures",
          "type": "bytes"
        }
      ],
      "name": "executeSignatures",
      "outputs": [],
      "payable": false,
      "stateMutability": "nonpayable",
      "type": "function"
    },
    {
      "constant": true,
      "inputs": [],
      "name": "getBridgeMode",
      "outputs": [
        {
          "name": "_data",
          "type": "bytes4"
        }
      ],
      "payable": false,
      "stateMutability": "pure",
      "type": "function"
    },
    {
      "constant": true,
      "inputs": [],
      "name": "executionDailyLimit",
      "outputs": [
        {
          "name": "",
          "type": "uint256"
        }
      ],
      "payable": false,
      "stateMutability": "view",
      "type": "function"
    },
    {
      "constant": true,
      "inputs": [
        {
          "name": "_day",
          "type": "uint256"
        }
      ],
      "name": "totalExecutedPerDay",
      "outputs": [
        {
          "name": "",
          "type": "uint256"
        }
      ],
      "payable": false,
      "stateMutability": "view",
      "type": "function"
    },
    {
      "constant": true,
      "inputs": [],
      "name": "dailyLimit",
      "outputs": [
        {
          "name": "",
          "type": "uint256"
        }
      ],
      "payable": false,
      "stateMutability": "view",
      "type": "function"
    },
    {
      "constant": false,
      "inputs": [
        {
          "name": "_token",
          "type": "address"
        },
        {
          "name": "_to",
          "type": "address"
        }
      ],
      "name": "claimTokens",
      "outputs": [],
      "payable": false,
      "stateMutability": "nonpayable",
      "type": "function"
    },
    {
      "constant": true,
      "inputs": [
        {
          "name": "_amount",
          "type": "uint256"
        }
      ],
      "name": "withinExecutionLimit",
      "outputs": [
        {
          "name": "",
          "type": "bool"
        }
      ],
      "payable": false,
      "stateMutability": "view",
      "type": "function"
    },
    {
      "constant": true,
      "inputs": [],
      "name": "executionMaxPerTx",
      "outputs": [
        {
          "name": "",
          "type": "uint256"
        }
      ],
      "payable": false,
      "stateMutability": "view",
      "type": "function"
    },
    {
      "constant": true,
      "inputs": [],
      "name": "requiredSignatures",
      "outputs": [
        {
          "name": "",
          "type": "uint256"
        }
      ],
      "payable": false,
      "stateMutability": "view",
      "type": "function"
    },
    {
      "constant": true,
      "inputs": [],
      "name": "owner",
      "outputs": [
        {
          "name": "",
          "type": "address"
        }
      ],
      "payable": false,
      "stateMutability": "view",
      "type": "function"
    },
    {
      "constant": true,
      "inputs": [],
      "name": "maxAvailablePerTx",
      "outputs": [
        {
          "name": "",
          "type": "uint256"
        }
      ],
      "payable": false,
      "stateMutability": "view",
      "type": "function"
    },
    {
      "constant": true,
      "inputs": [],
      "name": "validatorContract",
      "outputs": [
        {
          "name": "",
          "type": "address"
        }
      ],
      "payable": false,
      "stateMutability": "view",
      "type": "function"
    },
    {
      "constant": true,
      "inputs": [],
      "name": "deployedAtBlock",
      "outputs": [
        {
          "name": "",
          "type": "uint256"
        }
      ],
      "payable": false,
      "stateMutability": "view",
      "type": "function"
    },
    {
      "constant": true,
      "inputs": [],
      "name": "getBridgeInterfacesVersion",
      "outputs": [
        {
          "name": "major",
          "type": "uint64"
        },
        {
          "name": "minor",
          "type": "uint64"
        },
        {
          "name": "patch",
          "type": "uint64"
        }
      ],
      "payable": false,
      "stateMutability": "pure",
      "type": "function"
    },
    {
      "constant": false,
      "inputs": [
        {
          "name": "_minPerTx",
          "type": "uint256"
        }
      ],
      "name": "setMinPerTx",
      "outputs": [],
      "payable": false,
      "stateMutability": "nonpayable",
      "type": "function"
    },
    {
      "constant": false,
      "inputs": [
        {
          "name": "_from",
          "type": "address"
        },
        {
          "name": "_value",
          "type": "uint256"
        },
        {
          "name": "_data",
          "type": "bytes"
        }
      ],
      "name": "onTokenTransfer",
      "outputs": [
        {
          "name": "",
          "type": "bool"
        }
      ],
      "payable": false,
      "stateMutability": "nonpayable",
      "type": "function"
    },
    {
      "constant": false,
      "inputs": [
        {
          "name": "_blockConfirmations",
          "type": "uint256"
        }
      ],
      "name": "setRequiredBlockConfirmations",
      "outputs": [],
      "payable": false,
      "stateMutability": "nonpayable",
      "type": "function"
    },
    {
      "constant": false,
      "inputs": [
        {
          "name": "_dailyLimit",
          "type": "uint256"
        }
      ],
      "name": "setDailyLimit",
      "outputs": [],
      "payable": false,
      "stateMutability": "nonpayable",
      "type": "function"
    },
    {
      "constant": false,
      "inputs": [
        {
          "name": "_gasPrice",
          "type": "uint256"
        }
      ],
      "name": "setGasPrice",
      "outputs": [],
      "payable": false,
      "stateMutability": "nonpayable",
      "type": "function"
    },
    {
      "constant": false,
      "inputs": [
        {
          "name": "_maxPerTx",
          "type": "uint256"
        }
      ],
      "name": "setMaxPerTx",
      "outputs": [],
      "payable": false,
      "stateMutability": "nonpayable",
      "type": "function"
    },
    {
      "constant": true,
      "inputs": [],
      "name": "decimalShift",
      "outputs": [
        {
          "name": "",
          "type": "int256"
        }
      ],
      "payable": false,
      "stateMutability": "view",
      "type": "function"
    },
    {
      "constant": true,
      "inputs": [],
      "name": "minPerTx",
      "outputs": [
        {
          "name": "",
          "type": "uint256"
        }
      ],
      "payable": false,
      "stateMutability": "view",
      "type": "function"
    },
    {
      "constant": true,
      "inputs": [
        {
          "name": "_amount",
          "type": "uint256"
        }
      ],
      "name": "withinLimit",
      "outputs": [
        {
          "name": "",
          "type": "bool"
        }
      ],
      "payable": false,
      "stateMutability": "view",
      "type": "function"
    },
    {
      "constant": false,
      "inputs": [
        {
          "name": "_maxPerTx",
          "type": "uint256"
        }
      ],
      "name": "setExecutionMaxPerTx",
      "outputs": [],
      "payable": false,
      "stateMutability": "nonpayable",
      "type": "function"
    },
    {
      "constant": false,
      "inputs": [
        {
          "name": "newOwner",
          "type": "address"
        }
      ],
      "name": "transferOwnership",
      "outputs": [],
      "payable": false,
      "stateMutability": "nonpayable",
      "type": "function"
    },
    {
      "constant": true,
      "inputs": [],
      "name": "maxPerTx",
      "outputs": [
        {
          "name": "",
          "type": "uint256"
        }
      ],
      "payable": false,
      "stateMutability": "view",
      "type": "function"
    },
    {
      "constant": true,
      "inputs": [],
      "name": "gasPrice",
      "outputs": [
        {
          "name": "",
          "type": "uint256"
        }
      ],
      "payable": false,
      "stateMutability": "view",
      "type": "function"
    },
    {
      "anonymous": false,
      "inputs": [
        {
          "indexed": false,
          "name": "recipient",
          "type": "address"
        },
        {
          "indexed": false,
          "name": "value",
          "type": "uint256"
        },
        {
          "indexed": false,
          "name": "transactionHash",
          "type": "bytes32"
        }
      ],
      "name": "RelayedMessage",
      "type": "event"
    },
    {
      "anonymous": false,
      "inputs": [
        {
          "indexed": false,
          "name": "recipient",
          "type": "address"
        },
        {
          "indexed": false,
          "name": "value",
          "type": "uint256"
        }
      ],
      "name": "UserRequestForAffirmation",
      "type": "event"
    },
    {
      "anonymous": false,
      "inputs": [
        {
          "indexed": false,
          "name": "newLimit",
          "type": "uint256"
        }
      ],
      "name": "DailyLimitChanged",
      "type": "event"
    },
    {
      "anonymous": false,
      "inputs": [
        {
          "indexed": false,
          "name": "newLimit",
          "type": "uint256"
        }
      ],
      "name": "ExecutionDailyLimitChanged",
      "type": "event"
    },
    {
      "anonymous": false,
      "inputs": [
        {
          "indexed": false,
          "name": "gasPrice",
          "type": "uint256"
        }
      ],
      "name": "GasPriceChanged",
      "type": "event"
    },
    {
      "anonymous": false,
      "inputs": [
        {
          "indexed": false,
          "name": "requiredBlockConfirmations",
          "type": "uint256"
        }
      ],
      "name": "RequiredBlockConfirmationChanged",
      "type": "event"
    },
    {
      "anonymous": false,
      "inputs": [
        {
          "indexed": false,
          "name": "previousOwner",
          "type": "address"
        },
        {
          "indexed": false,
          "name": "newOwner",
          "type": "address"
        }
      ],
      "name": "OwnershipTransferred",
      "type": "event"
    },
    {
      "constant": false,
      "inputs": [
        {
          "name": "_validatorContract",
          "type": "address"
        },
        {
          "name": "_erc20token",
          "type": "address"
        },
        {
          "name": "_requiredBlockConfirmations",
          "type": "uint256"
        },
        {
          "name": "_gasPrice",
          "type": "uint256"
        },
        {
          "name": "_dailyLimitMaxPerTxMinPerTxArray",
          "type": "uint256[3]"
        },
        {
          "name": "_homeDailyLimitHomeMaxPerTxArray",
          "type": "uint256[2]"
        },
        {
          "name": "_owner",
          "type": "address"
        },
        {
          "name": "_decimalShift",
          "type": "int256"
        }
      ],
      "name": "initialize",
      "outputs": [
        {
          "name": "",
          "type": "bool"
        }
      ],
      "payable": false,
      "stateMutability": "nonpayable",
      "type": "function"
    },
    {
      "constant": true,
      "inputs": [],
      "name": "erc20token",
      "outputs": [
        {
          "name": "",
          "type": "address"
        }
      ],
      "payable": false,
      "stateMutability": "view",
      "type": "function"
    }
  ],
  "bytecode": "0x608060405234801561001057600080fd5b506129f5806100206000396000f3006080604052600436106101a85763ffffffff60e060020a6000350416630e6a39db81146101ad57806318d8f9c9146102015780631dcea4271461023257806321d800ec146102475780632bd0bb051461025f578063392e53cd146102895780633dd95d1b1461029e5780633e6968b6146102b85780633f0a9f65146102cd5780633f7658fd146102e2578063437764df1461030e57806343b37dd3146103585780634fb3fef71461036d57806367eeba0c1461038557806369ffa08a1461039a578063879ce676146103c15780638aa1949a146103d95780638d068043146103ee5780638da5cb5b1461040357806395e54a1714610418578063994390891461042d5780639a454b99146104425780639cb7595a14610457578063a2a6ca2714610498578063a4c0ed36146104b0578063acf5c689146104e1578063b20d30a9146104f9578063bf1fe42014610511578063c6f6f21614610529578063dae5f0fd14610541578063df25f3f014610556578063ea9f49681461056b578063f20151e114610583578063f2fde38b1461059b578063f968adbe146105bc578063fe173b97146105d1575b600080fd5b3480156101b957600080fd5b506101ed600160a060020a03600435811690602435811690604435906064359060849060e4906101243516610144356105e6565b604080519115158252519081900360200190f35b34801561020d57600080fd5b506102166107a0565b60408051600160a060020a039092168252519081900360200190f35b34801561023e57600080fd5b506102166107af565b34801561025357600080fd5b506101ed6004356107b9565b34801561026b57600080fd5b50610277600435610882565b60408051918252519081900360200190f35b34801561029557600080fd5b506101ed61093f565b3480156102aa57600080fd5b506102b6600435610990565b005b3480156102c457600080fd5b50610277610a50565b3480156102d957600080fd5b50610277610a59565b3480156102ee57600080fd5b506102b66024600480358281019290820135918135918201910135610aa7565b34801561031a57600080fd5b50610323610c1c565b604080517fffffffff000000000000000000000000000000000000000000000000000000009092168252519081900360200190f35b34801561036457600080fd5b50610277610c40565b34801561037957600080fd5b50610277600435610c8e565b34801561039157600080fd5b50610277610d09565b3480156103a657600080fd5b506102b6600160a060020a0360043581169060243516610d57565b3480156103cd57600080fd5b506101ed600435610e03565b3480156103e557600080fd5b50610277610e4d565b3480156103fa57600080fd5b50610277610e9b565b34801561040f57600080fd5b50610216610f13565b34801561042457600080fd5b50610277610f6a565b34801561043957600080fd5b50610216610fc4565b34801561044e57600080fd5b5061027761101b565b34801561046357600080fd5b5061046c611069565b6040805167ffffffffffffffff9485168152928416602084015292168183015290519081900360600190f35b3480156104a457600080fd5b506102b6600435611074565b3480156104bc57600080fd5b506101ed60048035600160a060020a0316906024803591604435918201910135611110565b3480156104ed57600080fd5b506102b660043561119f565b34801561050557600080fd5b506102b66004356111c7565b34801561051d57600080fd5b506102b6600435611287565b34801561053557600080fd5b506102b66004356112ac565b34801561054d57600080fd5b50610277611344565b34801561056257600080fd5b50610277611392565b34801561057757600080fd5b506101ed6004356113e0565b34801561058f57600080fd5b506102b660043561142b565b3480156105a757600080fd5b506102b6600160a060020a03600435166114a7565b3480156105c857600080fd5b506102776114cc565b3480156105dd57600080fd5b5061027761151a565b60408051600481526024810182526020810180517bffffffffffffffffffffffffffffffffffffffffffffffffffffffff167f6fde8202000000000000000000000000000000000000000000000000000000001781529151815160009330939291829190808383895b8381101561066757818101518382015260200161064f565b50505050905090810190601f1680156106945780820380516001836020036101000a031916815260200191505b509150506000604051808303816000865af19150501580610726575030600160a060020a0316636fde82026040518163ffffffff1660e060020a028152600401602060405180830381600087803b1580156106ee57600080fd5b505af1158015610702573d6000803e3d6000fd5b505050506040513d602081101561071857600080fd5b5051600160a060020a031633145b8061073057503330145b151561073b57600080fd5b61078b89898989896003806020026040519081016040528092919082600360200280828437505060408051808201825293508d925060029150839083908082843782019150505050508989611568565b61079361093f565b9998505050505050505050565b60006107aa611691565b905090565b60006107aa6107a0565b6000600460008360405160200180807f72656c617965644d657373616765730000000000000000000000000000000000815250600f0182600019166000191681526020019150506040516020818303038152906040526040518082805190602001908083835b6020831061083e5780518252601f19909201916020918201910161081f565b51815160209384036101000a600019018019909216911617905260408051929094018290039091208652850195909552929092016000205460ff1695945050505050565b60008060008360405160200180807f746f74616c5370656e74506572446179000000000000000000000000000000008152506010018281526020019150506040516020818303038152906040526040518082805190602001908083835b602083106108fe5780518252601f1990920191602091820191016108df565b51815160209384036101000a600019018019909216911617905260408051929094018290039091208652850195909552929092016000205495945050505050565b7f0a6f646cd611241d8073675e00d1a1ff700fbf1b53fcf473de56d1e6e4b714ba60005260046020527f078d888f9b66f3f8bfa10909e31f1e16240db73449f0500afdbbe3a70da457cc5460ff1690565b610998610f13565b600160a060020a031633146109ac57600080fd5b6109b4610e4d565b8111806109bf575080155b15156109ca57600080fd5b7f21dbcab260e413c20dc13c28b7db95e2b423d1135f42bb8b7d5214a92270d237600090815260209081527fadd938dbd083a16bae12238cd914fca0afc7a30edb55b1cd5c7f1823f1b0e4218290556040805183815290517f9bebf928b90863f24cc31f726a3a7545efd409f1dcf552301b1ee3710da70d3b929181900390910190a150565b62015180420490565b7f916daedf6915000ff68ced2f0b6773fe6f2582237f92c3c95bb4d7940723007160009081526020527fd2ea0feb732edb0ffe32efd33a6b9d24d46b16eb34a4d07ce256537b6f131e425490565b600080600080610b1f88888080601f0160208091040260200160405190810160405280939291908181526020018383808284375050604080516020601f8e018190048102820181019092528c815294508c93508b9250829150840183828082843750610b189450610fc49350505050565b60006116e8565b610b5888888080601f01602080910402602001604051908101604052809392919081815260200183838082843750611972945050505050565b92965090945092509050610b6b83610e03565b15610c0757600160a060020a0381163014610b8557600080fd5b610b8e826107b9565b15610b9857600080fd5b610ba38260016119ad565b610bae848484611a7f565b1515610bb957600080fd5b60408051600160a060020a03861681526020810185905280820184905290517f4ab7d581336d92edbea22636a613e8e76c99ac7f91137c1523db38dbfb3bf3299181900360600190a1610c12565b610c128484846101a8565b5050505050505050565b7fba4690f50000000000000000000000000000000000000000000000000000000090565b7f21dbcab260e413c20dc13c28b7db95e2b423d1135f42bb8b7d5214a92270d23760009081526020527fadd938dbd083a16bae12238cd914fca0afc7a30edb55b1cd5c7f1823f1b0e4215490565b60008060008360405160200180807f746f74616c457865637574656450657244617900000000000000000000000000815250601301828152602001915050604051602081830303815290604052604051808280519060200190808383602083106108fe5780518252601f1990920191602091820191016108df565b7f4a6a899679f26b73530d8cf1001e83b6f7702e04b6fdb98f3c62dc7e47e041a560009081526020527f1ab29a5cca988aee50edccdd61c5bcaa7ad4b29a03b7ee50f298ceccfe14cc4e5490565b30600160a060020a0316636fde82026040518163ffffffff1660e060020a028152600401602060405180830381600087803b158015610d9557600080fd5b505af1158015610da9573d6000803e3d6000fd5b505050506040513d6020811015610dbf57600080fd5b5051600160a060020a03163314610dd557600080fd5b610ddd6107af565b600160a060020a0383811691161415610df557600080fd5b610dff8282611b3d565b5050565b600080610e2683610e1a610e15610a50565b610c8e565b9063ffffffff611b8016565b905080610e31610c40565b10158015610e465750610e42610e4d565b8311155b9392505050565b7fc0ed44c192c86d1cc1ba51340b032c2766b4a2b0041031de13c46dd7104888d560009081526020527ff8e983ee86e5e377e9e34c9131b266382c3f04113d20de077f9e12663c7a646b5490565b6000610ea5610fc4565b600160a060020a0316638d0680436040518163ffffffff1660e060020a028152600401602060405180830381600087803b158015610ee257600080fd5b505af1158015610ef6573d6000803e3d6000fd5b505050506040513d6020811015610f0c57600080fd5b5051905090565b7f02016836a56b71f0d02689e69e326f4f4c1b9057164ef592671cf0d37c8040c060005260026020527fb7802e97e87ef2842a6cce7da7ffaeaedaa2f61a6a7870b23d9d01fc9b73712e54600160a060020a031690565b6000806000806000610f7a6114cc565b9350610f84610d09565b9250610f96610f91610a50565b610882565b9150818311610fa6576000610faa565b8183035b9050808410610fb95780610fbb565b835b94505050505090565b7f5a74bb7e202fb8e4bf311841c7d64ec19df195fee77d7e7ae749b27921b6ddfe60005260026020527fab54f3fbbe62c59b7876a9bf9bd5e0c22dbae93f4d8ee0438f7ce62b198eb0e054600160a060020a031690565b7fb120ceec05576ad0c710bc6e85f1768535e27554458f05dcbb5c65b8c7a749b060009081526020527fe66bef0282a446f9848e2903380099bb6e431483ee78778868f33b4a154c818b5490565b600560026000909192565b61107c610f13565b600160a060020a0316331461109057600080fd5b6000811180156110a657506110a3610d09565b81105b80156110b857506110b56114cc565b81105b15156110c357600080fd5b7fbbb088c505d18e049d114c7c91f11724e69c55ad6c5397e2b929e68b41fa05d160009081526020527f8df5c48c6b6e11d97548adc824ba0c99103ec09830fa5d53a179984085e6eaa055565b60008061111b611691565b905033600160a060020a0382161461113257600080fd5b61113b856113e0565b151561114657600080fd5b611157611151610a50565b86611b93565b61119381878787878080601f01602080910402602001604051908101604052809392919081815260200183838082843750611c5c945050505050565b50600195945050505050565b6111a7610f13565b600160a060020a031633146111bb57600080fd5b6111c481611c75565b50565b6111cf610f13565b600160a060020a031633146111e357600080fd5b6111eb6114cc565b8111806111f6575080155b151561120157600080fd5b7f4a6a899679f26b73530d8cf1001e83b6f7702e04b6fdb98f3c62dc7e47e041a5600090815260209081527f1ab29a5cca988aee50edccdd61c5bcaa7ad4b29a03b7ee50f298ceccfe14cc4e8290556040805183815290517fad4123ae17c414d9c6d2fec478b402e6b01856cc250fd01fbfd252fda0089d3c929181900390910190a150565b61128f610f13565b600160a060020a031633146112a357600080fd5b6111c481611d08565b6112b4610f13565b600160a060020a031633146112c857600080fd5b8015806112ec57506112d8611392565b811180156112ec57506112e9610d09565b81105b15156112f757600080fd5b7f0f8803acad17c63ee38bf2de71e1888bc7a079a6f73658e274b08018bea4e29c60009081526020527f9de0f81379b4d8e60fe509315d071b56e7b732abaf193e74e0d15808b0951d0955565b7f1e8ecaafaddea96ed9ac6d2642dcdfe1bebe58a930b1085842d8fc122b371ee560009081526020527fd5c78dd9468716ca9bb96be25d56436811b20aab3523a9904b12deef1cab239d5490565b7fbbb088c505d18e049d114c7c91f11724e69c55ad6c5397e2b929e68b41fa05d160009081526020527f8df5c48c6b6e11d97548adc824ba0c99103ec09830fa5d53a179984085e6eaa05490565b6000806113f283610e1a610f91610a50565b9050806113fd610d09565b10158015611412575061140e6114cc565b8311155b8015610e465750611421611392565b9092101592915050565b611433610f13565b600160a060020a0316331461144757600080fd5b61144f610c40565b811061145a57600080fd5b7fc0ed44c192c86d1cc1ba51340b032c2766b4a2b0041031de13c46dd7104888d560009081526020527ff8e983ee86e5e377e9e34c9131b266382c3f04113d20de077f9e12663c7a646b55565b6114af610f13565b600160a060020a031633146114c357600080fd5b6111c481611d1e565b7f0f8803acad17c63ee38bf2de71e1888bc7a079a6f73658e274b08018bea4e29c60009081526020527f9de0f81379b4d8e60fe509315d071b56e7b732abaf193e74e0d15808b0951d095490565b7f55b3774520b5993024893d303890baa4e84b1244a43c60034d1ced2d3cf2b04b60009081526020527ff7d5eefab3776d7f0450bd0193564bcb4f832ce313ff2836c450fc63a4b944195490565b61157061093f565b1561157a57600080fd5b61158388611df5565b151561158e57600080fd5b7f5a74bb7e202fb8e4bf311841c7d64ec19df195fee77d7e7ae749b27921b6ddfe60005260026020527fab54f3fbbe62c59b7876a9bf9bd5e0c22dbae93f4d8ee0438f7ce62b198eb0e0805473ffffffffffffffffffffffffffffffffffffffff1916600160a060020a038a1617905561160787611dfd565b7fb120ceec05576ad0c710bc6e85f1768535e27554458f05dcbb5c65b8c7a749b06000908152602052437fe66bef0282a446f9848e2903380099bb6e431483ee78778868f33b4a154c818b5561165c86611c75565b61166585611d08565b61166e84611e06565b61167783611f63565b61168081612038565b61168982611d1e565b610c126120a1565b7fa8b0ade3e2b734f043ce298aca4cc8d19d74270223f34531d0988b7d00cba21d60005260026020527f603cd9dcbfa185d5c37504f4c8b3f16117ed744fba48d08b7aad44a162af1c9354600160a060020a031690565b6000806000606060008060008060008060008b8061170a575061170a8f6120f8565b151561171557600080fd5b8c600160a060020a0316638d0680436040518163ffffffff1660e060020a028152600401602060405180830381600087803b15801561175357600080fd5b505af1158015611767573d6000803e3d6000fd5b505050506040513d602081101561177d57600080fd5b505160018f0151909b5060ff1699508a8a101561179957600080fd5b6117a38f8d61210c565b98508a6040519080825280602002602001820160405280156117cf578160200160208202803883390190505b509750600096505b8a87101561196157866020028a6021010192508960200283019150866002018e01519550828e01519450818e01519350600189878787604051600081526020016040526040518085600019166000191681526020018460ff1660ff1681526020018360001916600019168152602001826000191660001916815260200194505050505060206040516020810390808403906000865af115801561187e573d6000803e3d6000fd5b5050506020604051035190508c600160a060020a031663facd743b826040518263ffffffff1660e060020a0281526004018082600160a060020a0316600160a060020a03168152602001915050602060405180830381600087803b1580156118e557600080fd5b505af11580156118f9573d6000803e3d6000fd5b505050506040513d602081101561190f57600080fd5b5051151561191c57600080fd5b6119268882612326565b1561193057600080fd5b80888881518110151561193f57fe5b600160a060020a039092166020928302909101909101526001909601956117d7565b505050505050505050505050505050565b600080600080611981856120f8565b151561198c57600080fd5b50505050601481015160348201516054830151606890930151919390929190565b80600460008460405160200180807f72656c617965644d657373616765730000000000000000000000000000000000815250600f0182600019166000191681526020019150506040516020818303038152906040526040518082805190602001908083835b60208310611a315780518252601f199092019160209182019101611a12565b51815160209384036101000a60001901801990921691161790526040805192909401829003909120865285019590955292909201600020805460ff1916941515949094179093555050505050565b600080611a93611a8d610a50565b85612381565b611a9c84612407565b9050611aa66107af565b600160a060020a031663a9059cbb86836040518363ffffffff1660e060020a0281526004018083600160a060020a0316600160a060020a0316815260200182815260200192505050602060405180830381600087803b158015611b0857600080fd5b505af1158015611b1c573d6000803e3d6000fd5b505050506040513d6020811015611b3257600080fd5b505195945050505050565b80600160a060020a0381161515611b5357600080fd5b600160a060020a0383161515611b7157611b6c8261241d565b611b7b565b611b7b8383612429565b505050565b81810182811015611b8d57fe5b92915050565b611ba081610e1a84610882565b6000808460405160200180807f746f74616c5370656e74506572446179000000000000000000000000000000008152506010018281526020019150506040516020818303038152906040526040518082805190602001908083835b60208310611c1a5780518252601f199092019160209182019101611bfb565b51815160209384036101000a60001901801990921691161790526040805192909401829003909120865285019590955292909201600020939093555050505050565b611c6f611c6984836124d6565b83612530565b50505050565b60008111611c8257600080fd5b7f916daedf6915000ff68ced2f0b6773fe6f2582237f92c3c95bb4d79407230071600090815260209081527fd2ea0feb732edb0ffe32efd33a6b9d24d46b16eb34a4d07ce256537b6f131e428290556040805183815290517f4fb76205cd57c896b21511d2114137d8e901b4ccd659e1a0f97d6306795264fb929181900390910190a150565b60008111611d1557600080fd5b6111c481612578565b600160a060020a0381161515611d3357600080fd5b7f8be0079c531659141344cd1fd0a4f28419497f9722a3daafe3b4186f6b6457e0611d5c610f13565b60408051600160a060020a03928316815291841660208301528051918290030190a17f02016836a56b71f0d02689e69e326f4f4c1b9057164ef592671cf0d37c8040c060005260026020527fb7802e97e87ef2842a6cce7da7ffaeaedaa2f61a6a7870b23d9d01fc9b73712e805473ffffffffffffffffffffffffffffffffffffffff1916600160a060020a0392909216919091179055565b6000903b1190565b6111c4816125fe565b60408101516000108015611e21575060408101516020820151115b8015611e31575060208101518151115b1515611e3c57600080fd5b80517f4a6a899679f26b73530d8cf1001e83b6f7702e04b6fdb98f3c62dc7e47e041a5600090815260208181527f1ab29a5cca988aee50edccdd61c5bcaa7ad4b29a03b7ee50f298ceccfe14cc4e92909255908201517f0f8803acad17c63ee38bf2de71e1888bc7a079a6f73658e274b08018bea4e29c82527f9de0f81379b4d8e60fe509315d071b56e7b732abaf193e74e0d15808b0951d095560408201517fbbb088c505d18e049d114c7c91f11724e69c55ad6c5397e2b929e68b41fa05d182527f8df5c48c6b6e11d97548adc824ba0c99103ec09830fa5d53a179984085e6eaa0557fad4123ae17c414d9c6d2fec478b402e6b01856cc250fd01fbfd252fda0089d3c9082905b60200201516040518082815260200191505060405180910390a150565b8051602082015110611f7457600080fd5b80517f21dbcab260e413c20dc13c28b7db95e2b423d1135f42bb8b7d5214a92270d237600090815260208181527fadd938dbd083a16bae12238cd914fca0afc7a30edb55b1cd5c7f1823f1b0e42192909255908201517fc0ed44c192c86d1cc1ba51340b032c2766b4a2b0041031de13c46dd7104888d582527ff8e983ee86e5e377e9e34c9131b266382c3f04113d20de077f9e12663c7a646b557f9bebf928b90863f24cc31f726a3a7545efd409f1dcf552301b1ee3710da70d3b908290611f46565b604c19811380156120495750604d81125b151561205457600080fd5b7f1e8ecaafaddea96ed9ac6d2642dcdfe1bebe58a930b1085842d8fc122b371ee560009081526020527fd5c78dd9468716ca9bb96be25d56436811b20aab3523a9904b12deef1cab239d55565b7f0a6f646cd611241d8073675e00d1a1ff700fbf1b53fcf473de56d1e6e4b714ba60005260046020527f078d888f9b66f3f8bfa10909e31f1e16240db73449f0500afdbbe3a70da457cc805460ff19166001179055565b6000612102612689565b8251149050919050565b60408051808201909152601a81527f19457468657265756d205369676e6564204d6573736167653a0a0000000000006020820152600090606083156122b25781612156865161268e565b866040516020018084805190602001908083835b602083106121895780518252601f19909201916020918201910161216a565b51815160209384036101000a600019018019909216911617905286519190930192860191508083835b602083106121d15780518252601f1990920191602091820191016121b2565b51815160209384036101000a600019018019909216911617905285519190930192850191508083835b602083106122195780518252601f1990920191602091820191016121fa565b6001836020036101000a03801982511681845116808217855250505050505090500193505050506040516020818303038152906040526040518082805190602001908083835b6020831061227e5780518252601f19909201916020918201910161225f565b6001836020036101000a0380198251168184511680821785525050505050509050019150506040518091039020925061231e565b6040805190810160405280600381526020017f31303400000000000000000000000000000000000000000000000000000000008152509050818186604051602001808480519060200190808383602083106121895780518252601f19909201916020918201910161216a565b505092915050565b6000805b83518110156123755782600160a060020a0316848281518110151561234b57fe5b90602001906020020151600160a060020a0316141561236d576001915061237a565b60010161232a565b600091505b5092915050565b61238e81610e1a84610c8e565b6000808460405160200180807f746f74616c45786563757465645065724461790000000000000000000000000081525060130182815260200191505060405160208183030381529060405260405180828051906020019080838360208310611c1a5780518252601f199092019160209182019101611bfb565b6000611b8d82612415611344565b6000036127b5565b3031610dff8282612800565b604080517f70a0823100000000000000000000000000000000000000000000000000000000815230600482015290518391600091600160a060020a038416916370a0823191602480830192602092919082900301818787803b15801561248e57600080fd5b505af11580156124a2573d6000803e3d6000fd5b505050506040513d60208110156124b857600080fd5b50519050611c6f600160a060020a038516848363ffffffff61286816565b8051829060001015611b8d5781516014146124f057600080fd5b6124f9826128fd565b9050600160a060020a038116151561251057600080fd5b612518612904565b600160a060020a0382811691161415611b8d57600080fd5b60408051600160a060020a03841681526020810183905281517f1d491a427d1f8cc0d447496f300fac39f7306122481d8e663451eb268274146b929181900390910190a15050565b7f55b3774520b5993024893d303890baa4e84b1244a43c60034d1ced2d3cf2b04b600090815260209081527ff7d5eefab3776d7f0450bd0193564bcb4f832ce313ff2836c450fc63a4b944198290556040805183815290517f52264b89e0fceafb26e79fd49ef8a366eb6297483bf4035b027f0c99a7ad512e929181900390910190a150565b61260781611df5565b151561261257600080fd5b7fa8b0ade3e2b734f043ce298aca4cc8d19d74270223f34531d0988b7d00cba21d60005260026020527f603cd9dcbfa185d5c37504f4c8b3f16117ed744fba48d08b7aad44a162af1c93805473ffffffffffffffffffffffffffffffffffffffff1916600160a060020a0392909216919091179055565b606890565b606060008082818515156126d75760408051808201909152600181527f3000000000000000000000000000000000000000000000000000000000000000602082015294506127ac565b8593505b83156126f257600190920191600a840493506126db565b826040519080825280601f01601f191660200182016040528015612720578160200160208202803883390190505b5091505060001982015b85156127a85781516000198201917f01000000000000000000000000000000000000000000000000000000000000006030600a8a06010291849190811061276d57fe5b9060200101907effffffffffffffffffffffffffffffffffffffffffffffffffffffffffffff1916908160001a905350600a8604955061272a565b8194505b50505050919050565b60008115156127c5575081611b8d565b60008213156127e9576127e283600a84900a63ffffffff61295b16565b9050611b8d565b610e46836000849003600a0a63ffffffff61298416565b604051600160a060020a0383169082156108fc029083906000818181858888f193505050501515610dff578082612835612999565b600160a060020a039091168152604051908190036020019082f080158015612861573d6000803e3d6000fd5b5050505050565b82600160a060020a031663a9059cbb83836040518363ffffffff1660e060020a0281526004018083600160a060020a0316600160a060020a0316815260200182815260200192505050600060405180830381600087803b1580156128cb57600080fd5b505af11580156128df573d6000803e3d6000fd5b505050503d15611b7b5760206000803e6000511515611b7b57600080fd5b6014015190565b7f71483949fe7a14d16644d63320f24d10cf1d60abecc30cc677a340e82b699dd260005260026020527f21ffdf150a5d180f96d98d16f50e7b4dd63e2a067adc8386cf5af55dcecd8dd954600160a060020a031690565b600082151561296c57506000611b8d565b5081810281838281151561297c57fe5b0414611b8d57fe5b6000818381151561299157fe5b049392505050565b6040516021806129a9833901905600608060405260405160208060218339810160405251600160a060020a038116ff00a165627a7a72305820bc673d62e36449c727138881509a6626ef919f680d74cbcb7b892541fa373f000029",
  "source": "pragma solidity 0.4.24;\n\nimport \"./BasicForeignBridgeErcToErc.sol\";\nimport \"../ERC677Bridge.sol\";\n\ncontract ForeignBridgeErc677ToErc677 is ERC677Bridge, BasicForeignBridgeErcToErc {\n    function initialize(\n        address _validatorContract,\n        address _erc20token,\n        uint256 _requiredBlockConfirmations,\n        uint256 _gasPrice,\n        uint256[3] _dailyLimitMaxPerTxMinPerTxArray, // [ 0 = _dailyLimit, 1 = _maxPerTx, 2 = _minPerTx ]\n        uint256[2] _homeDailyLimitHomeMaxPerTxArray, // [ 0 = _homeDailyLimit, 1 = _homeMaxPerTx ]\n        address _owner,\n        int256 _decimalShift\n    ) external onlyRelevantSender returns (bool) {\n        _initialize(\n            _validatorContract,\n            _erc20token,\n            _requiredBlockConfirmations,\n            _gasPrice,\n            _dailyLimitMaxPerTxMinPerTxArray,\n            _homeDailyLimitHomeMaxPerTxArray,\n            _owner,\n            _decimalShift\n        );\n\n        return isInitialized();\n    }\n\n    function erc20token() public view returns (ERC20) {\n        return erc677token();\n    }\n\n    function setErc20token(address _token) internal {\n        setErc677token(_token);\n    }\n\n    function fireEventOnTokenTransfer(address _from, uint256 _value) internal {\n        emit UserRequestForAffirmation(_from, _value);\n    }\n}\n",
  "sourcePath": "/home/analiser/bridge-frontend/contracts/upgradeable_contracts/erc20_to_erc20/ForeignBridgeErc677ToErc677.sol",
  "compiler": {
    "name": "solc",
    "version": "0.4.24+commit.e67f0147.Emscripten.clang"
  },
  "schemaVersion": "3.4.3",
  "updatedAt": "2021-09-03T05:10:28.257Z",
  "devdoc": {
    "methods": {
      "claimTokens(address,address)": {
        "details": "Withdraws the erc20 tokens or native coins from this contract. Bridged token cannot be withdrawn by this function.",
        "params": {
          "_to": "address of the tokens/coins receiver.",
          "_token": "address of the claimed token or address(0) for native coins."
        }
      },
      "decimalShift()": {
        "details": "Returns the value of foreign-to-home decimal shift.",
        "return": "decimal shift."
      },
      "executeSignatures(bytes,bytes)": {
        "details": "Validates provided signatures and relays a given message",
        "params": {
          "message": "bytes to be relayed",
          "signatures": "bytes blob with signatures to be validated"
        }
      },
      "maxAvailablePerTx()": {
        "details": "Retrieves maximum available bridge amount per one transaction taking into account maxPerTx() and dailyLimit() parameters.",
        "return": "minimum of maxPerTx parameter and remaining daily quota."
      },
      "owner()": {
        "details": "Tells the address of the owner",
        "return": "the address of the owner"
      },
      "setGasPrice(uint256)": {
        "details": "Public setter for fallback gas price value. Only bridge owner can call this method.",
        "params": {
          "_gasPrice": "new value for the gas price."
        }
      },
      "transferOwnership(address)": {
        "details": "Allows the current owner to transfer control of the contract to a newOwner.",
        "params": {
          "newOwner": "the address to transfer ownership to."
        }
      }
    }
  },
  "userdoc": {
    "methods": {}
  }
}