{
  "contractName": "HomeBridgeErcToErcPOSDAO",
  "abi": [
    {
      "constant": true,
      "inputs": [
        {
          "name": "_message",
          "type": "bytes32"
        }
      ],
      "name": "numMessagesSigned",
      "outputs": [
        {
          "name": "",
          "type": "uint256"
        }
      ],
      "payable": false,
      "stateMutability": "view",
      "type": "function"
    },
    {
      "constant": true,
      "inputs": [
        {
          "name": "_hash",
          "type": "bytes32"
        },
        {
          "name": "_index",
          "type": "uint256"
        }
      ],
      "name": "signature",
      "outputs": [
        {
          "name": "",
          "type": "bytes"
        }
      ],
      "payable": false,
      "stateMutability": "view",
      "type": "function"
    },
    {
      "constant": true,
      "inputs": [],
      "name": "erc677token",
      "outputs": [
        {
          "name": "",
          "type": "address"
        }
      ],
      "payable": false,
      "stateMutability": "view",
      "type": "function"
    },
    {
      "constant": false,
      "inputs": [
        {
          "name": "_fee",
          "type": "uint256"
        }
      ],
      "name": "setForeignFee",
      "outputs": [],
      "payable": false,
      "stateMutability": "nonpayable",
      "type": "function"
    },
    {
      "constant": true,
      "inputs": [
        {
          "name": "_day",
          "type": "uint256"
        }
      ],
      "name": "totalSpentPerDay",
      "outputs": [
        {
          "name": "",
          "type": "uint256"
        }
      ],
      "payable": false,
      "stateMutability": "view",
      "type": "function"
    },
    {
      "constant": false,
      "inputs": [
        {
          "name": "_fee",
          "type": "uint256"
        }
      ],
      "name": "setHomeFee",
      "outputs": [],
      "payable": false,
      "stateMutability": "nonpayable",
      "type": "function"
    },
    {
      "constant": true,
      "inputs": [],
      "name": "isInitialized",
      "outputs": [
        {
          "name": "",
          "type": "bool"
        }
      ],
      "payable": false,
      "stateMutability": "view",
      "type": "function"
    },
    {
      "constant": false,
      "inputs": [
        {
          "name": "_dailyLimit",
          "type": "uint256"
        }
      ],
      "name": "setExecutionDailyLimit",
      "outputs": [],
      "payable": false,
      "stateMutability": "nonpayable",
      "type": "function"
    },
    {
      "constant": true,
      "inputs": [],
      "name": "getCurrentDay",
      "outputs": [
        {
          "name": "",
          "type": "uint256"
        }
      ],
      "payable": false,
      "stateMutability": "view",
      "type": "function"
    },
    {
      "constant": true,
      "inputs": [],
      "name": "requiredBlockConfirmations",
      "outputs": [
        {
          "name": "",
          "type": "uint256"
        }
      ],
      "payable": false,
      "stateMutability": "view",
      "type": "function"
    },
    {
      "constant": true,
      "inputs": [],
      "name": "requiredMessageLength",
      "outputs": [
        {
          "name": "",
          "type": "uint256"
        }
      ],
      "payable": false,
      "stateMutability": "pure",
      "type": "function"
    },
    {
      "constant": true,
      "inputs": [],
      "name": "getBridgeMode",
      "outputs": [
        {
          "name": "_data",
          "type": "bytes4"
        }
      ],
      "payable": false,
      "stateMutability": "pure",
      "type": "function"
    },
    {
      "constant": true,
      "inputs": [],
      "name": "executionDailyLimit",
      "outputs": [
        {
          "name": "",
          "type": "uint256"
        }
      ],
      "payable": false,
      "stateMutability": "view",
      "type": "function"
    },
    {
      "constant": true,
      "inputs": [
        {
          "name": "_hash",
          "type": "bytes32"
        }
      ],
      "name": "message",
      "outputs": [
        {
          "name": "",
          "type": "bytes"
        }
      ],
      "payable": false,
      "stateMutability": "view",
      "type": "function"
    },
    {
      "constant": true,
      "inputs": [
        {
          "name": "_day",
          "type": "uint256"
        }
      ],
      "name": "totalExecutedPerDay",
      "outputs": [
        {
          "name": "",
          "type": "uint256"
        }
      ],
      "payable": false,
      "stateMutability": "view",
      "type": "function"
    },
    {
      "constant": false,
      "inputs": [
        {
          "name": "_feeManager",
          "type": "address"
        }
      ],
      "name": "setFeeManagerContract",
      "outputs": [],
      "payable": false,
      "stateMutability": "nonpayable",
      "type": "function"
    },
    {
      "constant": false,
      "inputs": [
        {
          "name": "signature",
          "type": "bytes"
        },
        {
          "name": "message",
          "type": "bytes"
        }
      ],
      "name": "submitSignature",
      "outputs": [],
      "payable": false,
      "stateMutability": "nonpayable",
      "type": "function"
    },
    {
      "constant": true,
      "inputs": [],
      "name": "dailyLimit",
      "outputs": [
        {
          "name": "",
          "type": "uint256"
        }
      ],
      "payable": false,
      "stateMutability": "view",
      "type": "function"
    },
    {
      "constant": true,
      "inputs": [
        {
          "name": "_withdrawal",
          "type": "bytes32"
        }
      ],
      "name": "numAffirmationsSigned",
      "outputs": [
        {
          "name": "",
          "type": "uint256"
        }
      ],
      "payable": false,
      "stateMutability": "view",
      "type": "function"
    },
    {
      "constant": true,
      "inputs": [
        {
          "name": "_withdrawal",
          "type": "bytes32"
        }
      ],
      "name": "affirmationsSigned",
      "outputs": [
        {
          "name": "",
          "type": "bool"
        }
      ],
      "payable": false,
      "stateMutability": "view",
      "type": "function"
    },
    {
      "constant": false,
      "inputs": [
        {
          "name": "_validatorContract",
          "type": "address"
        },
        {
          "name": "_dailyLimitMaxPerTxMinPerTxArray",
          "type": "uint256[3]"
        },
        {
          "name": "_homeGasPrice",
          "type": "uint256"
        },
        {
          "name": "_requiredBlockConfirmations",
          "type": "uint256"
        },
        {
          "name": "_erc677token",
          "type": "address"
        },
        {
          "name": "_foreignDailyLimitForeignMaxPerTxArray",
          "type": "uint256[2]"
        },
        {
          "name": "_owner",
          "type": "address"
        },
        {
          "name": "_decimalShift",
          "type": "int256"
        }
      ],
      "name": "initialize",
      "outputs": [
        {
          "name": "",
          "type": "bool"
        }
      ],
      "payable": false,
      "stateMutability": "nonpayable",
      "type": "function"
    },
    {
      "constant": true,
      "inputs": [
        {
          "name": "_amount",
          "type": "uint256"
        }
      ],
      "name": "withinExecutionLimit",
      "outputs": [
        {
          "name": "",
          "type": "bool"
        }
      ],
      "payable": false,
      "stateMutability": "view",
      "type": "function"
    },
    {
      "constant": true,
      "inputs": [],
      "name": "executionMaxPerTx",
      "outputs": [
        {
          "name": "",
          "type": "uint256"
        }
      ],
      "payable": false,
      "stateMutability": "view",
      "type": "function"
    },
    {
      "constant": true,
      "inputs": [],
      "name": "requiredSignatures",
      "outputs": [
        {
          "name": "",
          "type": "uint256"
        }
      ],
      "payable": false,
      "stateMutability": "view",
      "type": "function"
    },
    {
      "constant": true,
      "inputs": [],
      "name": "owner",
      "outputs": [
        {
          "name": "",
          "type": "address"
        }
      ],
      "payable": false,
      "stateMutability": "view",
      "type": "function"
    },
    {
      "constant": true,
      "inputs": [
        {
          "name": "_message",
          "type": "bytes32"
        }
      ],
      "name": "messagesSigned",
      "outputs": [
        {
          "name": "",
          "type": "bool"
        }
      ],
      "payable": false,
      "stateMutability": "view",
      "type": "function"
    },
    {
      "constant": false,
      "inputs": [
        {
          "name": "_token",
          "type": "address"
        },
        {
          "name": "_to",
          "type": "address"
        }
      ],
      "name": "claimTokensFromErc677",
      "outputs": [],
      "payable": false,
      "stateMutability": "nonpayable",
      "type": "function"
    },
    {
      "constant": true,
      "inputs": [],
      "name": "getHomeFee",
      "outputs": [
        {
          "name": "",
          "type": "uint256"
        }
      ],
      "payable": false,
      "stateMutability": "view",
      "type": "function"
    },
    {
      "constant": true,
      "inputs": [],
      "name": "maxAvailablePerTx",
      "outputs": [
        {
          "name": "",
          "type": "uint256"
        }
      ],
      "payable": false,
      "stateMutability": "view",
      "type": "function"
    },
    {
      "constant": true,
      "inputs": [],
      "name": "validatorContract",
      "outputs": [
        {
          "name": "",
          "type": "address"
        }
      ],
      "payable": false,
      "stateMutability": "view",
      "type": "function"
    },
    {
      "constant": false,
      "inputs": [
        {
          "name": "recipient",
          "type": "address"
        },
        {
          "name": "value",
          "type": "uint256"
        },
        {
          "name": "transactionHash",
          "type": "bytes32"
        }
      ],
      "name": "executeAffirmation",
      "outputs": [],
      "payable": false,
      "stateMutability": "nonpayable",
      "type": "function"
    },
    {
      "constant": true,
      "inputs": [],
      "name": "deployedAtBlock",
      "outputs": [
        {
          "name": "",
          "type": "uint256"
        }
      ],
      "payable": false,
      "stateMutability": "view",
      "type": "function"
    },
    {
      "constant": true,
      "inputs": [],
      "name": "getBridgeInterfacesVersion",
      "outputs": [
        {
          "name": "major",
          "type": "uint64"
        },
        {
          "name": "minor",
          "type": "uint64"
        },
        {
          "name": "patch",
          "type": "uint64"
        }
      ],
      "payable": false,
      "stateMutability": "pure",
      "type": "function"
    },
    {
      "constant": true,
      "inputs": [],
      "name": "outOfLimitAmount",
      "outputs": [
        {
          "name": "",
          "type": "uint256"
        }
      ],
      "payable": false,
      "stateMutability": "view",
      "type": "function"
    },
    {
      "constant": false,
      "inputs": [
        {
          "name": "_minPerTx",
          "type": "uint256"
        }
      ],
      "name": "setMinPerTx",
      "outputs": [],
      "payable": false,
      "stateMutability": "nonpayable",
      "type": "function"
    },
    {
      "constant": false,
      "inputs": [
        {
          "name": "_from",
          "type": "address"
        },
        {
          "name": "_value",
          "type": "uint256"
        },
        {
          "name": "_data",
          "type": "bytes"
        }
      ],
      "name": "onTokenTransfer",
      "outputs": [
        {
          "name": "",
          "type": "bool"
        }
      ],
      "payable": false,
      "stateMutability": "nonpayable",
      "type": "function"
    },
    {
      "constant": false,
      "inputs": [
        {
          "name": "hashMsg",
          "type": "bytes32"
        },
        {
          "name": "unlockOnForeign",
          "type": "bool"
        },
        {
          "name": "valueToUnlock",
          "type": "uint256"
        }
      ],
      "name": "fixAssetsAboveLimits",
      "outputs": [],
      "payable": false,
      "stateMutability": "nonpayable",
      "type": "function"
    },
    {
      "constant": false,
      "inputs": [
        {
          "name": "_blockConfirmations",
          "type": "uint256"
        }
      ],
      "name": "setRequiredBlockConfirmations",
      "outputs": [],
      "payable": false,
      "stateMutability": "nonpayable",
      "type": "function"
    },
    {
      "constant": false,
      "inputs": [
        {
          "name": "_dailyLimit",
          "type": "uint256"
        }
      ],
      "name": "setDailyLimit",
      "outputs": [],
      "payable": false,
      "stateMutability": "nonpayable",
      "type": "function"
    },
    {
      "constant": false,
      "inputs": [
        {
          "name": "_gasPrice",
          "type": "uint256"
        }
      ],
      "name": "setGasPrice",
      "outputs": [],
      "payable": false,
      "stateMutability": "nonpayable",
      "type": "function"
    },
    {
      "constant": false,
      "inputs": [
        {
          "name": "_maxPerTx",
          "type": "uint256"
        }
      ],
      "name": "setMaxPerTx",
      "outputs": [],
      "payable": false,
      "stateMutability": "nonpayable",
      "type": "function"
    },
    {
      "constant": true,
      "inputs": [],
      "name": "decimalShift",
      "outputs": [
        {
          "name": "",
          "type": "int256"
        }
      ],
      "payable": false,
      "stateMutability": "view",
      "type": "function"
    },
    {
      "constant": true,
      "inputs": [],
      "name": "feeManagerContract",
      "outputs": [
        {
          "name": "",
          "type": "address"
        }
      ],
      "payable": false,
      "stateMutability": "view",
      "type": "function"
    },
    {
      "constant": true,
      "inputs": [],
      "name": "minPerTx",
      "outputs": [
        {
          "name": "",
          "type": "uint256"
        }
      ],
      "payable": false,
      "stateMutability": "view",
      "type": "function"
    },
    {
      "constant": true,
      "inputs": [
        {
          "name": "_amount",
          "type": "uint256"
        }
      ],
      "name": "withinLimit",
      "outputs": [
        {
          "name": "",
          "type": "bool"
        }
      ],
      "payable": false,
      "stateMutability": "view",
      "type": "function"
    },
    {
      "constant": false,
      "inputs": [
        {
          "name": "_maxPerTx",
          "type": "uint256"
        }
      ],
      "name": "setExecutionMaxPerTx",
      "outputs": [],
      "payable": false,
      "stateMutability": "nonpayable",
      "type": "function"
    },
    {
      "constant": true,
      "inputs": [],
      "name": "getFeeManagerMode",
      "outputs": [
        {
          "name": "mode",
          "type": "bytes4"
        }
      ],
      "payable": false,
      "stateMutability": "view",
      "type": "function"
    },
    {
      "constant": false,
      "inputs": [
        {
          "name": "newOwner",
          "type": "address"
        }
      ],
      "name": "transferOwnership",
      "outputs": [],
      "payable": false,
      "stateMutability": "nonpayable",
      "type": "function"
    },
    {
      "constant": true,
      "inputs": [],
      "name": "maxPerTx",
      "outputs": [
        {
          "name": "",
          "type": "uint256"
        }
      ],
      "payable": false,
      "stateMutability": "view",
      "type": "function"
    },
    {
      "constant": true,
      "inputs": [],
      "name": "gasPrice",
      "outputs": [
        {
          "name": "",
          "type": "uint256"
        }
      ],
      "payable": false,
      "stateMutability": "view",
      "type": "function"
    },
    {
      "constant": true,
      "inputs": [
        {
          "name": "_number",
          "type": "uint256"
        }
      ],
      "name": "isAlreadyProcessed",
      "outputs": [
        {
          "name": "",
          "type": "bool"
        }
      ],
      "payable": false,
      "stateMutability": "pure",
      "type": "function"
    },
    {
      "constant": true,
      "inputs": [],
      "name": "getForeignFee",
      "outputs": [
        {
          "name": "",
          "type": "uint256"
        }
      ],
      "payable": false,
      "stateMutability": "view",
      "type": "function"
    },
    {
      "anonymous": false,
      "inputs": [
        {
          "indexed": false,
          "name": "recipient",
          "type": "address"
        },
        {
          "indexed": false,
          "name": "value",
          "type": "uint256"
        }
      ],
      "name": "UserRequestForSignature",
      "type": "event"
    },
    {
      "anonymous": false,
      "inputs": [
        {
          "indexed": false,
          "name": "recipient",
          "type": "address"
        },
        {
          "indexed": false,
          "name": "value",
          "type": "uint256"
        },
        {
          "indexed": false,
          "name": "transactionHash",
          "type": "bytes32"
        }
      ],
      "name": "AffirmationCompleted",
      "type": "event"
    },
    {
      "anonymous": false,
      "inputs": [
        {
          "indexed": true,
          "name": "signer",
          "type": "address"
        },
        {
          "indexed": false,
          "name": "messageHash",
          "type": "bytes32"
        }
      ],
      "name": "SignedForUserRequest",
      "type": "event"
    },
    {
      "anonymous": false,
      "inputs": [
        {
          "indexed": true,
          "name": "signer",
          "type": "address"
        },
        {
          "indexed": false,
          "name": "transactionHash",
          "type": "bytes32"
        }
      ],
      "name": "SignedForAffirmation",
      "type": "event"
    },
    {
      "anonymous": false,
      "inputs": [
        {
          "indexed": false,
          "name": "authorityResponsibleForRelay",
          "type": "address"
        },
        {
          "indexed": false,
          "name": "messageHash",
          "type": "bytes32"
        },
        {
          "indexed": false,
          "name": "NumberOfCollectedSignatures",
          "type": "uint256"
        }
      ],
      "name": "CollectedSignatures",
      "type": "event"
    },
    {
      "anonymous": false,
      "inputs": [
        {
          "indexed": false,
          "name": "newLimit",
          "type": "uint256"
        }
      ],
      "name": "DailyLimitChanged",
      "type": "event"
    },
    {
      "anonymous": false,
      "inputs": [
        {
          "indexed": false,
          "name": "newLimit",
          "type": "uint256"
        }
      ],
      "name": "ExecutionDailyLimitChanged",
      "type": "event"
    },
    {
      "anonymous": false,
      "inputs": [
        {
          "indexed": false,
          "name": "gasPrice",
          "type": "uint256"
        }
      ],
      "name": "GasPriceChanged",
      "type": "event"
    },
    {
      "anonymous": false,
      "inputs": [
        {
          "indexed": false,
          "name": "requiredBlockConfirmations",
          "type": "uint256"
        }
      ],
      "name": "RequiredBlockConfirmationChanged",
      "type": "event"
    },
    {
      "anonymous": false,
      "inputs": [
        {
          "indexed": false,
          "name": "feeAmount",
          "type": "uint256"
        },
        {
          "indexed": true,
          "name": "transactionHash",
          "type": "bytes32"
        }
      ],
      "name": "FeeDistributedFromAffirmation",
      "type": "event"
    },
    {
      "anonymous": false,
      "inputs": [
        {
          "indexed": false,
          "name": "feeAmount",
          "type": "uint256"
        },
        {
          "indexed": true,
          "name": "transactionHash",
          "type": "bytes32"
        }
      ],
      "name": "FeeDistributedFromSignatures",
      "type": "event"
    },
    {
      "anonymous": false,
      "inputs": [
        {
          "indexed": false,
          "name": "previousOwner",
          "type": "address"
        },
        {
          "indexed": false,
          "name": "newOwner",
          "type": "address"
        }
      ],
      "name": "OwnershipTransferred",
      "type": "event"
    },
    {
      "anonymous": false,
      "inputs": [
        {
          "indexed": false,
          "name": "recipient",
          "type": "address"
        },
        {
          "indexed": false,
          "name": "value",
          "type": "uint256"
        },
        {
          "indexed": true,
          "name": "messageId",
          "type": "bytes32"
        }
      ],
      "name": "MediatorAmountLimitExceeded",
      "type": "event"
    },
    {
      "anonymous": false,
      "inputs": [
        {
          "indexed": false,
          "name": "recipient",
          "type": "address"
        },
        {
          "indexed": false,
          "name": "value",
          "type": "uint256"
        },
        {
          "indexed": true,
          "name": "transactionHash",
          "type": "bytes32"
        },
        {
          "indexed": false,
          "name": "messageId",
          "type": "bytes32"
        }
      ],
      "name": "AmountLimitExceeded",
      "type": "event"
    },
    {
      "anonymous": false,
      "inputs": [
        {
          "indexed": true,
          "name": "messageId",
          "type": "bytes32"
        },
        {
          "indexed": false,
          "name": "value",
          "type": "uint256"
        },
        {
          "indexed": false,
          "name": "remaining",
          "type": "uint256"
        }
      ],
      "name": "AssetAboveLimitsFixed",
      "type": "event"
    },
    {
      "constant": false,
      "inputs": [
        {
          "name": "_validatorContract",
          "type": "address"
        },
        {
          "name": "_dailyLimitMaxPerTxMinPerTxArray",
          "type": "uint256[3]"
        },
        {
          "name": "_homeGasPrice",
          "type": "uint256"
        },
        {
          "name": "_requiredBlockConfirmations",
          "type": "uint256"
        },
        {
          "name": "_erc677token",
          "type": "address"
        },
        {
          "name": "_foreignDailyLimitForeignMaxPerTxArray",
          "type": "uint256[2]"
        },
        {
          "name": "_owner",
          "type": "address"
        },
        {
          "name": "_feeManager",
          "type": "address"
        },
        {
          "name": "_homeFeeForeignFeeArray",
          "type": "uint256[2]"
        },
        {
          "name": "_blockReward",
          "type": "address"
        },
        {
          "name": "_decimalShift",
          "type": "int256"
        }
      ],
      "name": "rewardableInitialize",
      "outputs": [
        {
          "name": "",
          "type": "bool"
        }
      ],
      "payable": false,
      "stateMutability": "nonpayable",
      "type": "function"
    },
    {
      "constant": false,
      "inputs": [
        {
          "name": "_validatorContract",
          "type": "address"
        },
        {
          "name": "_dailyLimitMaxPerTxMinPerTxArray",
          "type": "uint256[3]"
        },
        {
          "name": "_homeGasPrice",
          "type": "uint256"
        },
        {
          "name": "_requiredBlockConfirmations",
          "type": "uint256"
        },
        {
          "name": "_erc677token",
          "type": "address"
        },
        {
          "name": "_foreignDailyLimitForeignMaxPerTxArray",
          "type": "uint256[2]"
        },
        {
          "name": "_owner",
          "type": "address"
        },
        {
          "name": "_feeManager",
          "type": "address"
        },
        {
          "name": "_homeFeeForeignFeeArray",
          "type": "uint256[2]"
        },
        {
          "name": "_decimalShift",
          "type": "int256"
        }
      ],
      "name": "rewardableInitialize",
      "outputs": [
        {
          "name": "",
          "type": "bool"
        }
      ],
      "payable": false,
      "stateMutability": "nonpayable",
      "type": "function"
    },
    {
      "constant": true,
      "inputs": [],
      "name": "blockRewardContract",
      "outputs": [
        {
          "name": "blockReward",
          "type": "address"
        }
      ],
      "payable": false,
      "stateMutability": "view",
      "type": "function"
    },
    {
      "constant": false,
      "inputs": [
        {
          "name": "_blockReward",
          "type": "address"
        }
      ],
      "name": "setBlockRewardContract",
      "outputs": [],
      "payable": false,
      "stateMutability": "nonpayable",
      "type": "function"
    }
  ],
  "bytecode": "0x608060405234801561001057600080fd5b50614e02806100206000396000f3006080604052600436106102845763ffffffff60e060020a6000350416630cbf060181146102895780631812d996146102b357806318d8f9c91461034357806327a3e16b14610374578063286c4066146103975780632bd0bb05146103af57806334a9e148146103c7578063392e53cd146103df5780633dd95d1b146104085780633e6968b6146104205780633f0a9f6514610435578063408fef2e1461044a578063437764df1461045f57806343b37dd3146104a6578063490a32c6146104bb5780634fb3fef7146104d357806356b54bae146104eb57806360756f7c14610500578063630cea8e1461052157806367eeba0c1461054d5780636ae1a976146105625780637698da241461057a578063865c802814610592578063879ce676146105d25780638a25ebb9146105ea5780638aa1949a1461063c5780638d068043146106515780638da5cb5b146106665780638f4b4b981461067b5780639313dc431461069357806394da17cd146106ba57806395e54a17146106cf57806399439089146106e4578063995b2cff146106f95780639a454b99146107205780639cb7595a14610735578063a018934514610776578063a2a6ca271461078b578063a4c0ed36146107a3578063a7444c0d146107d4578063acf5c689146107f4578063b20d30a91461080c578063bf1fe42014610824578063c6f6f2161461083c578063dae5f0fd14610854578063dbe03a8b14610869578063df25f3f01461087e578063e13d3c7914610893578063ea9f4968146108dd578063f20151e1146108f5578063f2ba95611461090d578063f2fde38b14610922578063f968adbe14610943578063fe173b9714610958578063ffd19e8c1461096d578063ffd6619614610985575b600080fd5b34801561029557600080fd5b506102a160043561099a565b60408051918252519081900360200190f35b3480156102bf57600080fd5b506102ce600435602435610a5f565b6040805160208082528351818301528351919283929083019185019080838360005b838110156103085781810151838201526020016102f0565b50505050905090810190601f1680156103355780820380516001836020036101000a031916815260200191505b509250505060405180910390f35b34801561034f57600080fd5b50610358610c3c565b60408051600160a060020a039092168252519081900360200190f35b34801561038057600080fd5b50610395600160a060020a0360043516610c4c565b005b3480156103a357600080fd5b50610395600435610c82565b3480156103bb57600080fd5b506102a1600435610cc1565b3480156103d357600080fd5b50610395600435610d3c565b3480156103eb57600080fd5b506103f4610d78565b604080519115158252519081900360200190f35b34801561041457600080fd5b50610395600435610dc9565b34801561042c57600080fd5b506102a1610e89565b34801561044157600080fd5b506102a1610e92565b34801561045657600080fd5b506102a1610ee0565b34801561046b57600080fd5b50610474610eea565b604080517bffffffffffffffffffffffffffffffffffffffffffffffffffffffff199092168252519081900360200190f35b3480156104b257600080fd5b506102a1610f0e565b3480156104c757600080fd5b506102ce600435610f5c565b3480156104df57600080fd5b506102a16004356110c4565b3480156104f757600080fd5b5061035861113f565b34801561050c57600080fd5b50610395600160a060020a03600435166111b6565b34801561052d57600080fd5b50610395602460048035828101929082013591813591820191013561126e565b34801561055957600080fd5b506102a1611704565b34801561056e57600080fd5b506102a1600435611752565b34801561058657600080fd5b506103f46004356117d5565b34801561059e57600080fd5b506103f4600160a060020a036004358116906024906084359060a4359060c43581169060e49061012435166101443561189e565b3480156105de57600080fd5b506103f4600435611a4e565b3480156105f657600080fd5b506103f4600160a060020a036004358116906024906084359060a4359060c43581169060e4906101243581169061014435811690610164906101a435166101c435611a98565b34801561064857600080fd5b506102a1611c82565b34801561065d57600080fd5b506102a1611cd0565b34801561067257600080fd5b50610358611d48565b34801561068757600080fd5b506103f4600435611d9f565b34801561069f57600080fd5b50610395600160a060020a0360043581169060243516611e23565b3480156106c657600080fd5b506102a1611f32565b3480156106db57600080fd5b506102a1611f4b565b3480156106f057600080fd5b50610358611fa5565b34801561070557600080fd5b50610395600160a060020a0360043516602435604435611ffc565b34801561072c57600080fd5b506102a16122fa565b34801561074157600080fd5b5061074a612348565b6040805167ffffffffffffffff9485168152928416602084015292168183015290519081900360600190f35b34801561078257600080fd5b506102a1612353565b34801561079757600080fd5b506103956004356123a1565b3480156107af57600080fd5b506103f460048035600160a060020a031690602480359160443591820191013561243d565b3480156107e057600080fd5b5061039560043560243515156044356124cc565b34801561080057600080fd5b506103956004356126dd565b34801561081857600080fd5b50610395600435612702565b34801561083057600080fd5b506103956004356127c2565b34801561084857600080fd5b506103956004356127e7565b34801561086057600080fd5b506102a161287f565b34801561087557600080fd5b506103586128cd565b34801561088a57600080fd5b506102a1612924565b34801561089f57600080fd5b506103f4600160a060020a036004358116906024906084359060a4359060c43581169060e4906101243581169061014435166101646101a435612972565b3480156108e957600080fd5b506103f4600435612b51565b34801561090157600080fd5b50610395600435612b9c565b34801561091957600080fd5b50610474612c18565b34801561092e57600080fd5b50610395600160a060020a0360043516612c8d565b34801561094f57600080fd5b506102a1612cb2565b34801561096457600080fd5b506102a1612d00565b34801561097957600080fd5b506103f4600435612d4e565b34801561099157600080fd5b506102a1612d76565b60008060008360405160200180807f6e756d4d657373616765735369676e656400000000000000000000000000000081525060110182600019166000191681526020019150506040516020818303038152906040526040518082805190602001908083835b60208310610a1e5780518252601f1990920191602091820191016109ff565b51815160209384036101000a600019018019909216911617905260408051929094018290039091208652850195909552929092016000205495945050505050565b604080516020808201859052818301849052825180830384018152606092830193849052805192936000939192909182918401908083835b60208310610ab65780518252601f199092019160209182019101610a97565b51815160209384036101000a6000190180199092169116179052604080519290940182900382207f7369676e6174757265730000000000000000000000000000000000000000000083830152602a80840182905285518085039091018152604a9093019485905282519097506003965060009550919392508291908401908083835b60208310610b575780518252601f199092019160209182019101610b38565b6001836020036101000a0380198251168184511680821785525050505050509050019150506040518091039020600019166000191681526020019081526020016000208054600181600116156101000203166002900480601f016020809104026020016040519081016040528092919081815260200182805460018160011615610100020316600290048015610c2e5780601f10610c0357610100808354040283529160200191610c2e565b820191906000526020600020905b815481529060010190602001808311610c1157829003601f168201915b505050505091505092915050565b6000610c46612d8f565b90505b90565b6000610c56611d48565b600160a060020a03163314610c6a57600080fd5b610c726128cd565b9050610c7e8183612de6565b5050565b610c8a611d48565b600160a060020a03163314610c9e57600080fd5b610cbe610ca96128cd565b82600080516020614d97833981519152612eb8565b50565b60008060008360405160200180807f746f74616c5370656e745065724461790000000000000000000000000000000081525060100182815260200191505060405160208183030381529060405260405180828051906020019080838360208310610a1e5780518252601f1990920191602091820191016109ff565b610d44611d48565b600160a060020a03163314610d5857600080fd5b610cbe610d636128cd565b82600080516020614db7833981519152612eb8565b7f0a6f646cd611241d8073675e00d1a1ff700fbf1b53fcf473de56d1e6e4b714ba60005260046020527f078d888f9b66f3f8bfa10909e31f1e16240db73449f0500afdbbe3a70da457cc5460ff1690565b610dd1611d48565b600160a060020a03163314610de557600080fd5b610ded611c82565b811180610df8575080155b1515610e0357600080fd5b7f21dbcab260e413c20dc13c28b7db95e2b423d1135f42bb8b7d5214a92270d237600090815260209081527fadd938dbd083a16bae12238cd914fca0afc7a30edb55b1cd5c7f1823f1b0e4218290556040805183815290517f9bebf928b90863f24cc31f726a3a7545efd409f1dcf552301b1ee3710da70d3b929181900390910190a150565b62015180420490565b7f916daedf6915000ff68ced2f0b6773fe6f2582237f92c3c95bb4d7940723007160009081526020527fd2ea0feb732edb0ffe32efd33a6b9d24d46b16eb34a4d07ce256537b6f131e425490565b6000610c46613024565b7fba4690f50000000000000000000000000000000000000000000000000000000090565b7f21dbcab260e413c20dc13c28b7db95e2b423d1135f42bb8b7d5214a92270d23760009081526020527fadd938dbd083a16bae12238cd914fca0afc7a30edb55b1cd5c7f1823f1b0e4215490565b6060600360008360405160200180807f6d6573736167657300000000000000000000000000000000000000000000000081525060080182600019166000191681526020019150506040516020818303038152906040526040518082805190602001908083835b60208310610fe15780518252601f199092019160209182019101610fc2565b6001836020036101000a0380198251168184511680821785525050505050509050019150506040518091039020600019166000191681526020019081526020016000208054600181600116156101000203166002900480601f0160208091040260200160405190810160405280929190818152602001828054600181600116156101000203166002900480156110b85780601f1061108d576101008083540402835291602001916110b8565b820191906000526020600020905b81548152906001019060200180831161109b57829003601f168201915b50505050509050919050565b60008060008360405160200180807f746f74616c45786563757465645065724461790000000000000000000000000081525060130182815260200191505060405160208183030381529060405260405180828051906020019080838360208310610a1e5780518252601f1990920191602091820191016109ff565b600080606061114c6128cd565b60408051600481526024810190915260208082018051600160e060020a03167f56b54bae0000000000000000000000000000000000000000000000000000000017815282519395509193509160009182865af28060203d1416156111b05760005193505b50505090565b6111be611d48565b600160a060020a031633146111d257600080fd5b600160a060020a03811615806111ec57506111ec81613029565b15156111f757600080fd5b7f779a349c5bee7817f04c960f525ee3e2f2516078c38c68a3149787976ee837e560005260026020527fc155b21a14c4592b97825e495fbe0d2705fb46420018cac5bfa7a09c43fae517805473ffffffffffffffffffffffffffffffffffffffff1916600160a060020a0392909216919091179055565b600080600080600061127e611fa5565b600160a060020a031663facd743b336040518263ffffffff1660e060020a0281526004018082600160a060020a0316600160a060020a03168152602001915050602060405180830381600087803b1580156112d857600080fd5b505af11580156112ec573d6000803e3d6000fd5b505050506040513d602081101561130257600080fd5b5051151561130f57600080fd5b61134887878080601f01602080910402602001604051908101604052809392919081815260200183838082843750613031945050505050565b151561135357600080fd5b6113bd89898080601f0160208091040260200160405190810160405280939291908181526020018383808284375050604080516020601f8f018190048102820181019092528d815294508d93508c9250829150840183828082843750600094506130459350505050565b600160a060020a031633146113d157600080fd5b8686604051602001808383808284378201915050925050506040516020818303038152906040526040518082805190602001908083835b602083106114275780518252601f199092019160209182019101611408565b51815160209384036101000a600019018019909216911617905260408051929094018290038220336c0100000000000000000000000002838301526034808401829052855180850390910181526054909301948590528251909b509195509293508392850191508083835b602083106114b15780518252601f199092019160209182019101611492565b6001836020036101000a038019825116818451168082178552505050505050905001915050604051809103902093506114e98561099a565b92506114f483612d4e565b156114fe57600080fd5b6001928301928311156115235761151484611d9f565b1561151e57600080fd5b61155d565b61155d8588888080601f01602080910402602001604051908101604052809392919081815260200183838082843750613144945050505050565b61156884600161321b565b604080516020808201889052600019860182840152825180830384018152606090920192839052815191929182918401908083835b602083106115bc5780518252601f19909201916020918201910161159d565b51815160209384036101000a600019018019909216911617905260408051929094018290038220601f8f018290048202830182019094528d825292965061161d9450869350918d91508c9081908401838280828437506132ed945050505050565b6116278584613370565b60408051868152905133917fbf06885f40778f5ccfb64497d3f92ce568ddaedb7e2fb4487f72690418cf8e4c919081900360200190a2611665611cd0565b90508083106116f9576116808561167b85613435565b613370565b604080513381526020810187905280820183905290517f415557404d88a0c0b8e3b16967cafffc511213fd9c465c16832ee17ed57d72379181900360600190a16116f987878080601f0160208091040260200160405190810160405280939291908181526020018383808284375061345a945050505050565b505050505050505050565b7f4a6a899679f26b73530d8cf1001e83b6f7702e04b6fdb98f3c62dc7e47e041a560009081526020527f1ab29a5cca988aee50edccdd61c5bcaa7ad4b29a03b7ee50f298ceccfe14cc4e5490565b60008060008360405160200180807f6e756d41666669726d6174696f6e735369676e65640000000000000000000000815250601501826000191660001916815260200191505060405160208183030381529060405260405180828051906020019080838360208310610a1e5780518252601f1990920191602091820191016109ff565b6000600460008360405160200180807f61666669726d6174696f6e735369676e6564000000000000000000000000000081525060120182600019166000191681526020019150506040516020818303038152906040526040518082805190602001908083835b6020831061185a5780518252601f19909201916020918201910161183b565b51815160209384036101000a600019018019909216911617905260408051929094018290039091208652850195909552929092016000205460ff1695945050505050565b6040805160048152602481018252602081018051600160e060020a03167f6fde8202000000000000000000000000000000000000000000000000000000001781529151815160009330939291829190808383895b8381101561190a5781810151838201526020016118f2565b50505050905090810190601f1680156119375780820380516001836020036101000a031916815260200191505b509150506000604051808303816000865af191505015806119c9575030600160a060020a0316636fde82026040518163ffffffff1660e060020a028152600401602060405180830381600087803b15801561199157600080fd5b505af11580156119a5573d6000803e3d6000fd5b505050506040513d60208110156119bb57600080fd5b5051600160a060020a031633145b806119d357503330145b15156119de57600080fd5b611a318989600380602002604051908101604052809291908260036020028082843750506040805180820182528e94508d93508c9250908b906002908390839080828437820191505050505089896134b3565b611a396135b5565b611a41610d78565b9998505050505050505050565b600080611a7183611a65611a60610e89565b6110c4565b9063ffffffff61360c16565b905080611a7c610f0e565b10158015611a915750611a8d611c82565b8311155b9392505050565b6040805160048152602481018252602081018051600160e060020a03167f6fde8202000000000000000000000000000000000000000000000000000000001781529151815160009330939291829190808383895b83811015611b04578181015183820152602001611aec565b50505050905090810190601f168015611b315780820380516001836020036101000a031916815260200191505b509150506000604051808303816000865af19150501580611bc3575030600160a060020a0316636fde82026040518163ffffffff1660e060020a028152600401602060405180830381600087803b158015611b8b57600080fd5b505af1158015611b9f573d6000803e3d6000fd5b505050506040513d6020811015611bb557600080fd5b5051600160a060020a031633145b80611bcd57503330145b1515611bd857600080fd5b611c588c8c600380602002604051908101604052809291908260036020028082843782019150505050508c8c8c8c600280602002604051908101604052809291908260026020028082843782019150505050508c8c8c6002806020026040519081016040528092919082600260200280828437508f935061361f92505050565b611c628584612de6565b611c6a6135b5565b611c72610d78565b9c9b505050505050505050505050565b7fc0ed44c192c86d1cc1ba51340b032c2766b4a2b0041031de13c46dd7104888d560009081526020527ff8e983ee86e5e377e9e34c9131b266382c3f04113d20de077f9e12663c7a646b5490565b6000611cda611fa5565b600160a060020a0316638d0680436040518163ffffffff1660e060020a028152600401602060405180830381600087803b158015611d1757600080fd5b505af1158015611d2b573d6000803e3d6000fd5b505050506040513d6020811015611d4157600080fd5b5051905090565b7f02016836a56b71f0d02689e69e326f4f4c1b9057164ef592671cf0d37c8040c060005260026020527fb7802e97e87ef2842a6cce7da7ffaeaedaa2f61a6a7870b23d9d01fc9b73712e54600160a060020a031690565b6000600460008360405160200180807f6d657373616765735369676e6564000000000000000000000000000000000000815250600e0182600019166000191681526020019150506040516020818303038152906040526040518082805190602001908083836020831061185a5780518252601f19909201916020918201910161183b565b30600160a060020a0316636fde82026040518163ffffffff1660e060020a028152600401602060405180830381600087803b158015611e6157600080fd5b505af1158015611e75573d6000803e3d6000fd5b505050506040513d6020811015611e8b57600080fd5b5051600160a060020a03163314611ea157600080fd5b611ea9610c3c565b604080517f69ffa08a000000000000000000000000000000000000000000000000000000008152600160a060020a0385811660048301528481166024830152915192909116916369ffa08a9160448082019260009290919082900301818387803b158015611f1657600080fd5b505af1158015611f2a573d6000803e3d6000fd5b505050505050565b6000610c46600080516020614db78339815191526136ef565b6000806000806000611f5b612cb2565b9350611f65611704565b9250611f77611f72610e89565b610cc1565b9150818311611f87576000611f8b565b8183035b9050808410611f9a5780611f9c565b835b94505050505090565b7f5a74bb7e202fb8e4bf311841c7d64ec19df195fee77d7e7ae749b27921b6ddfe60005260026020527fab54f3fbbe62c59b7876a9bf9bd5e0c22dbae93f4d8ee0438f7ce62b198eb0e054600160a060020a031690565b6000806000612009611fa5565b600160a060020a031663facd743b336040518263ffffffff1660e060020a0281526004018082600160a060020a0316600160a060020a03168152602001915050602060405180830381600087803b15801561206357600080fd5b505af1158015612077573d6000803e3d6000fd5b505050506040513d602081101561208d57600080fd5b5051151561209a57600080fd5b604080516c01000000000000000000000000600160a060020a0389160260208083019190915260348201889052605480830188905283518084039091018152607490920192839052815191929182918401908083835b6020831061210f5780518252601f1990920191602091820191016120f0565b6001836020036101000a0380198251168184511680821785525050505050509050019150506040518091039020925061214785611a4e565b156122ee57604080516c010000000000000000000000003302602080830191909152603480830187905283518084039091018152605490920192839052815191929182918401908083835b602083106121b15780518252601f199092019160209182019101612192565b6001836020036101000a038019825116818451168082178552505050505050905001915050604051809103902091506121e9826117d5565b156121f357600080fd5b6121fe8260016137fe565b61220783611752565b905061221281612d4e565b1561221c57600080fd5b6001016122298382613881565b60408051858152905133917f5df9cc3eb93d8a9a481857a3b70a8ca966e6b80b25cf0ee2cce180ec5afa80a1919081900360200190a2612267611cd0565b81106122e95761227f8361227a83613435565b613881565b600085111561229f5761229486868686613903565b151561229f57600080fd5b60408051600160a060020a03881681526020810187905280820186905290517f6fc115a803b8703117d9a3956c5a15401cb42401f91630f015eb6b043fa762539181900360600190a15b611f2a565b611f2a86868686613a25565b7fb120ceec05576ad0c710bc6e85f1768535e27554458f05dcbb5c65b8c7a749b060009081526020527fe66bef0282a446f9848e2903380099bb6e431483ee78778868f33b4a154c818b5490565b600560026000909192565b7f145286dc85799b6fb9fe322391ba2d95683077b2adf34dd576dedc437e537ba760009081526020527fba10c7a68bf463c41368d64adcf7df23c0de931ea3b09f061e2dfec302fef95f5490565b6123a9611d48565b600160a060020a031633146123bd57600080fd5b6000811180156123d357506123d0611704565b81105b80156123e557506123e2612cb2565b81105b15156123f057600080fd5b7fbbb088c505d18e049d114c7c91f11724e69c55ad6c5397e2b929e68b41fa05d160009081526020527f8df5c48c6b6e11d97548adc824ba0c99103ec09830fa5d53a179984085e6eaa055565b600080612448612d8f565b905033600160a060020a0382161461245f57600080fd5b61246885612b51565b151561247357600080fd5b61248461247e610e89565b86613ac4565b6124c081878787878080601f01602080910402602001604051908101604052809392919081815260200183838082843750613b4a945050505050565b50600195945050505050565b600080600080600080600030600160a060020a0316636fde82026040518163ffffffff1660e060020a028152600401602060405180830381600087803b15801561251557600080fd5b505af1158015612529573d6000803e3d6000fd5b505050506040513d602081101561253f57600080fd5b5051600160a060020a0316331461255557600080fd5b61255e8a611752565b965061256987612d4e565b1561257357600080fd5b61257c8a613bc4565b9096509450600160a060020a038616158015906125995750600085115b80156125a55750878510155b15156125b057600080fd5b6125d06125cb896125bf612353565b9063ffffffff613d4b16565b613d5d565b6125e0858963ffffffff613d4b16565b93506125ec848b613daa565b604080518981526020810186905281518c927f5bcec6564fe8d2cbb4e4eb8237510ceb6b291a5c2ee2e429948d25e9c924c1fa928290030190a288156126d157612634612cb2565b88111561264057600080fd5b6126486128cd565b9250879150600160a060020a0383161561268c5761267788600085600080516020614db7833981519152613e2c565b9050612689888263ffffffff613d4b16565b91505b60408051600160a060020a03881681526020810184905281517f127650bcfb0ba017401abe4931453a405140a8fd36fece67bae2db174d3fdd63929181900390910190a15b50505050505050505050565b6126e5611d48565b600160a060020a031633146126f957600080fd5b610cbe81613ebd565b61270a611d48565b600160a060020a0316331461271e57600080fd5b612726612cb2565b811180612731575080155b151561273c57600080fd5b7f4a6a899679f26b73530d8cf1001e83b6f7702e04b6fdb98f3c62dc7e47e041a5600090815260209081527f1ab29a5cca988aee50edccdd61c5bcaa7ad4b29a03b7ee50f298ceccfe14cc4e8290556040805183815290517fad4123ae17c414d9c6d2fec478b402e6b01856cc250fd01fbfd252fda0089d3c929181900390910190a150565b6127ca611d48565b600160a060020a031633146127de57600080fd5b610cbe81613f50565b6127ef611d48565b600160a060020a0316331461280357600080fd5b8015806128275750612813612924565b811180156128275750612824611704565b81105b151561283257600080fd5b7f0f8803acad17c63ee38bf2de71e1888bc7a079a6f73658e274b08018bea4e29c60009081526020527f9de0f81379b4d8e60fe509315d071b56e7b732abaf193e74e0d15808b0951d0955565b7f1e8ecaafaddea96ed9ac6d2642dcdfe1bebe58a930b1085842d8fc122b371ee560009081526020527fd5c78dd9468716ca9bb96be25d56436811b20aab3523a9904b12deef1cab239d5490565b7f779a349c5bee7817f04c960f525ee3e2f2516078c38c68a3149787976ee837e560005260026020527fc155b21a14c4592b97825e495fbe0d2705fb46420018cac5bfa7a09c43fae51754600160a060020a031690565b7fbbb088c505d18e049d114c7c91f11724e69c55ad6c5397e2b929e68b41fa05d160009081526020527f8df5c48c6b6e11d97548adc824ba0c99103ec09830fa5d53a179984085e6eaa05490565b6040805160048152602481018252602081018051600160e060020a03167f6fde8202000000000000000000000000000000000000000000000000000000001781529151815160009330939291829190808383895b838110156129de5781810151838201526020016129c6565b50505050905090810190601f168015612a0b5780820380516001836020036101000a031916815260200191505b509150506000604051808303816000865af19150501580612a9d575030600160a060020a0316636fde82026040518163ffffffff1660e060020a028152600401602060405180830381600087803b158015612a6557600080fd5b505af1158015612a79573d6000803e3d6000fd5b505050506040513d6020811015612a8f57600080fd5b5051600160a060020a031633145b80612aa757503330145b1515612ab257600080fd5b612b328b8b600380602002604051908101604052809291908260036020028082843782019150505050508b8b8b8b600280602002604051908101604052809291908260026020028082843782019150505050508b8b8b6002806020026040519081016040528092919082600260200280828437508f935061361f92505050565b612b3a6135b5565b612b42610d78565b9b9a5050505050505050505050565b600080612b6383611a65611f72610e89565b905080612b6e611704565b10158015612b835750612b7f612cb2565b8311155b8015611a915750612b92612924565b9092101592915050565b612ba4611d48565b600160a060020a03163314612bb857600080fd5b612bc0610f0e565b8110612bcb57600080fd5b7fc0ed44c192c86d1cc1ba51340b032c2766b4a2b0041031de13c46dd7104888d560009081526020527ff8e983ee86e5e377e9e34c9131b266382c3f04113d20de077f9e12663c7a646b55565b604080516004815260248101909152602081018051600160e060020a03167ff2ba95610000000000000000000000000000000000000000000000000000000017905260009081612c666128cd565b9050600460008351602085016000855af28060203d1416156111b057600051935050505090565b612c95611d48565b600160a060020a03163314612ca957600080fd5b610cbe81613fd6565b7f0f8803acad17c63ee38bf2de71e1888bc7a079a6f73658e274b08018bea4e29c60009081526020527f9de0f81379b4d8e60fe509315d071b56e7b732abaf193e74e0d15808b0951d095490565b7f55b3774520b5993024893d303890baa4e84b1244a43c60034d1ced2d3cf2b04b60009081526020527ff7d5eefab3776d7f0450bd0193564bcb4f832ce313ff2836c450fc63a4b944195490565b7f80000000000000000000000000000000000000000000000000000000000000009081161490565b6000610c46600080516020614d978339815191526136ef565b7fa8b0ade3e2b734f043ce298aca4cc8d19d74270223f34531d0988b7d00cba21d60005260026020527f603cd9dcbfa185d5c37504f4c8b3f16117ed744fba48d08b7aad44a162af1c9354600160a060020a031690565b60408051600160a060020a038381166024808401919091528351808403909101815260449092018352602082018051600160e060020a03167f27a3e16b000000000000000000000000000000000000000000000000000000001781529251825191861693909182919080838360005b83811015612e6d578181015183820152602001612e55565b50505050905090810190601f168015612e9a5780820380516001836020036101000a031916815260200191505b50915050600060405180830381855af49150501515610c7e57600080fd5b600081600080516020614db7833981519152811480612ee45750600080516020614d9783398151915281145b1515612eef57600080fd5b600080516020614db78339815191528314612f2a577f286c406600000000000000000000000000000000000000000000000000000000612f4c565b7f34a9e148000000000000000000000000000000000000000000000000000000005b6040805160248082018890528251808303909101815260449091018252602081018051600160e060020a03167bffffffffffffffffffffffffffffffffffffffffffffffffffffffff19851617815291518151939550600160a060020a038916939192909182919080838360005b83811015612fd2578181015183820152602001612fba565b50505050905090810190601f168015612fff5780820380516001836020036101000a031916815260200191505b50915050600060405180830381855af4915050151561301d57600080fd5b5050505050565b606890565b6000903b1190565b600061303b613024565b8251149050919050565b6000806000808651604114151561305b57600080fd5b505050602084015160408501516060860151601b60ff60f860020a830416148061308e5750601c60ff60f860020a830416145b151561309957600080fd5b7f7fffffffffffffffffffffffffffffff5d576e7357a4501ddfe92f46681b20a08211156130c657600080fd5b60016130d287876140ad565b60408051600080825260208083018085529490945260ff60f860020a870416828401526060820188905260808201879052915160a08083019493601f198301938390039091019190865af115801561312e573d6000803e3d6000fd5b5050604051601f19015198975050505050505050565b80600360008460405160200180807f6d6573736167657300000000000000000000000000000000000000000000000081525060080182600019166000191681526020019150506040516020818303038152906040526040518082805190602001908083835b602083106131c85780518252601f1990920191602091820191016131a9565b51815160001960209485036101000a01908116901991909116179052604080519490920184900390932086528583019690965250929093016000208451613216959194509201919050614cfe565b505050565b80600460008460405160200180807f6d657373616765735369676e6564000000000000000000000000000000000000815250600e0182600019166000191681526020019150506040516020818303038152906040526040518082805190602001908083835b6020831061329f5780518252601f199092019160209182019101613280565b51815160209384036101000a60001901801990921691161790526040805192909401829003909120865285019590955292909201600020805460ff1916941515949094179093555050505050565b80600360008460405160200180807f7369676e61747572657300000000000000000000000000000000000000000000815250600a018260001916600019168152602001915050604051602081830303815290604052604051808280519060200190808383602083106131c85780518252601f1990920191602091820191016131a9565b806000808460405160200180807f6e756d4d657373616765735369676e656400000000000000000000000000000081525060110182600019166000191681526020019150506040516020818303038152906040526040518082805190602001908083835b602083106133f35780518252601f1990920191602091820191016133d4565b51815160209384036101000a60001901801990921691161790526040805192909401829003909120865285019590955292909201600020939093555050505050565b7f80000000000000000000000000000000000000000000000000000000000000001790565b6000806000806134686128cd565b9350600160a060020a0384161561301d57613482856142c7565b5093509350506134a683600186600080516020614db7833981519152600102613e2c565b905061301d818584614302565b6134bb610d78565b156134c557600080fd5b6134ce88613029565b15156134d957600080fd5b7fab54f3fbbe62c59b7876a9bf9bd5e0c22dbae93f4d8ee0438f7ce62b198eb0e0805473ffffffffffffffffffffffffffffffffffffffff1916600160a060020a038a161790557fb120ceec05576ad0c710bc6e85f1768535e27554458f05dcbb5c65b8c7a749b06000908152602052437fe66bef0282a446f9848e2903380099bb6e431483ee78778868f33b4a154c818b5561357587614410565b61357e86613f50565b61358785613ebd565b6135908361456d565b61359981614642565b6135a282613fd6565b6135ab846146ab565b5050505050505050565b7f0a6f646cd611241d8073675e00d1a1ff700fbf1b53fcf473de56d1e6e4b714ba60005260046020527f078d888f9b66f3f8bfa10909e31f1e16240db73449f0500afdbbe3a70da457cc805460ff19166001179055565b8181018281101561361957fe5b92915050565b61362f8a8a8a8a8a8a8a886134b3565b61363883613029565b151561364357600080fd5b7f779a349c5bee7817f04c960f525ee3e2f2516078c38c68a3149787976ee837e560005260026020527fc155b21a14c4592b97825e495fbe0d2705fb46420018cac5bfa7a09c43fae517805473ffffffffffffffffffffffffffffffffffffffff1916600160a060020a03851617905581516136cf908490600080516020614db7833981519152612eb8565b6126d1838360016020020151600080516020614d97833981519152612eb8565b60008080606084600080516020614db783398151915281148061371f5750600080516020614d9783398151915281145b151561372a57600080fd5b6137326128cd565b9350600080516020614db7833981519152861461376f577fffd6619600000000000000000000000000000000000000000000000000000000613791565b7f94da17cd000000000000000000000000000000000000000000000000000000005b60408051600481526024810190915260208082018051600160e060020a03167bffffffffffffffffffffffffffffffffffffffffffffffffffffffff19851617815282519396509194509160009182885af28060203d1416156137f45760005195505b5050505050919050565b80600460008460405160200180807f61666669726d6174696f6e735369676e6564000000000000000000000000000081525060120182600019166000191681526020019150506040516020818303038152906040526040518082805190602001908083836020831061329f5780518252601f199092019160209182019101613280565b806000808460405160200180807f6e756d41666669726d6174696f6e735369676e656400000000000000000000008152506015018260001916600019168152602001915050604051602081830303815290604052604051808280519060200190808383602083106133f35780518252601f1990920191602091820191016133d4565b6000806000806139138588614736565b61392461391e610e89565b8861477d565b61392d87614803565b92506139376128cd565b9150600160a060020a038216156139835761396383600084600080516020614d97833981519152613e2c565b9050613970818388614816565b613980838263ffffffff613d4b16565b92505b61398b610c3c565b600160a060020a03166340c10f1989856040518363ffffffff1660e060020a0281526004018083600160a060020a0316600160a060020a0316815260200182815260200192505050602060405180830381600087803b1580156139ed57600080fd5b505af1158015613a01573d6000803e3d6000fd5b505050506040513d6020811015613a1757600080fd5b505198975050505050505050565b600080613a3183613bc4565b9092509050600160a060020a038216158015613a4b575080155b1515613a5657600080fd5b613a656125cb86611a65612353565b613a70868685614924565b60408051600160a060020a038816815260208101879052808201859052905185917f26c0a209907d8e06e55b84dfc43d1429e22a3bab2b4f9cfd49d5f7f447a42c4f919081900360600190a2505050505050565b613ad181611a6584610cc1565b6000808460405160200180807f746f74616c5370656e7450657244617900000000000000000000000000000000815250601001828152602001915050604051602081830303815290604052604051808280519060200190808383602083106133f35780518252601f1990920191602091820191016133d4565b83600160a060020a03166342966c68836040518263ffffffff1660e060020a02815260040180828152602001915050600060405180830381600087803b158015613b9357600080fd5b505af1158015613ba7573d6000803e3d6000fd5b50505050613bbe613bb88483614a1a565b83614a74565b50505050565b600080600260008460405160200180807f74784f75744f664c696d6974526563697069656e74000000000000000000000081525060150182600019166000191681526020019150506040516020818303038152906040526040518082805190602001908083835b60208310613c4a5780518252601f199092019160209182019101613c2b565b51815160209384036101000a600019018019909216911617905260408051929094018290039091208652858101969096525092830160009081205484517f74784f75744f664c696d697456616c75650000000000000000000000000000008188015260318082018b9052865180830390910181526051909101958690528051600160a060020a0390921698509195869592945091925082918401908083835b60208310613d085780518252601f199092019160209182019101613ce9565b51815160209384036101000a6000190180199092169116179052604080519290940182900390912086528501959095529290920160002054949694955050505050565b600082821115613d5757fe5b50900390565b7f145286dc85799b6fb9fe322391ba2d95683077b2adf34dd576dedc437e537ba760009081526020527fba10c7a68bf463c41368d64adcf7df23c0de931ea3b09f061e2dfec302fef95f55565b816000808360405160200180807f74784f75744f664c696d697456616c75650000000000000000000000000000008152506011018260001916600019168152602001915050604051602081830303815290604052604051808280519060200190808383602083106133f35780518252601f1990920191602091820191016133d4565b60408051602481018690528415156044820152606480820184905282518083039091018152608490910190915260208181018051600160e060020a03167f9862f26f000000000000000000000000000000000000000000000000000000001781528251600093929184919082885af28060203d141660018114613eae57600080fd5b50506000519695505050505050565b60008111613eca57600080fd5b7f916daedf6915000ff68ced2f0b6773fe6f2582237f92c3c95bb4d79407230071600090815260209081527fd2ea0feb732edb0ffe32efd33a6b9d24d46b16eb34a4d07ce256537b6f131e428290556040805183815290517f4fb76205cd57c896b21511d2114137d8e901b4ccd659e1a0f97d6306795264fb929181900390910190a150565b7f55b3774520b5993024893d303890baa4e84b1244a43c60034d1ced2d3cf2b04b600090815260209081527ff7d5eefab3776d7f0450bd0193564bcb4f832ce313ff2836c450fc63a4b944198290556040805183815290517f52264b89e0fceafb26e79fd49ef8a366eb6297483bf4035b027f0c99a7ad512e929181900390910190a150565b600160a060020a0381161515613feb57600080fd5b7f8be0079c531659141344cd1fd0a4f28419497f9722a3daafe3b4186f6b6457e0614014611d48565b60408051600160a060020a03928316815291841660208301528051918290030190a17f02016836a56b71f0d02689e69e326f4f4c1b9057164ef592671cf0d37c8040c060005260026020527fb7802e97e87ef2842a6cce7da7ffaeaedaa2f61a6a7870b23d9d01fc9b73712e805473ffffffffffffffffffffffffffffffffffffffff1916600160a060020a0392909216919091179055565b60408051808201909152601a81527f19457468657265756d205369676e6564204d6573736167653a0a00000000000060208201526000906060831561425357816140f78651614b0c565b866040516020018084805190602001908083835b6020831061412a5780518252601f19909201916020918201910161410b565b51815160209384036101000a600019018019909216911617905286519190930192860191508083835b602083106141725780518252601f199092019160209182019101614153565b51815160209384036101000a600019018019909216911617905285519190930192850191508083835b602083106141ba5780518252601f19909201916020918201910161419b565b6001836020036101000a03801982511681845116808217855250505050505090500193505050506040516020818303038152906040526040518082805190602001908083835b6020831061421f5780518252601f199092019160209182019101614200565b6001836020036101000a038019825116818451168082178552505050505050905001915050604051809103902092506142bf565b6040805190810160405280600381526020017f313034000000000000000000000000000000000000000000000000000000000081525090508181866040516020018084805190602001908083836020831061412a5780518252601f19909201916020918201910161410b565b505092915050565b6000806000806142d685613031565b15156142e157600080fd5b50505050601481015160348201516054830151606890930151919390929190565b6000831115613216576040805160248082018690528251808303909101815260449091018252602081018051600160e060020a03167f59d784640000000000000000000000000000000000000000000000000000000017815291518151600160a060020a03861693829180838360005b8381101561438a578181015183820152602001614372565b50505050905090810190601f1680156143b75780820380516001836020036101000a031916815260200191505b50915050600060405180830381855af491505015156143d557600080fd5b60408051848152905182917f858abdcd5efcaebb936e8e8516f0cfe9a0ef5157ff99d16cdabb6db625be90d0919081900360200190a2505050565b6040810151600010801561442b575060408101516020820151115b801561443b575060208101518151115b151561444657600080fd5b80517f4a6a899679f26b73530d8cf1001e83b6f7702e04b6fdb98f3c62dc7e47e041a5600090815260208181527f1ab29a5cca988aee50edccdd61c5bcaa7ad4b29a03b7ee50f298ceccfe14cc4e92909255908201517f0f8803acad17c63ee38bf2de71e1888bc7a079a6f73658e274b08018bea4e29c82527f9de0f81379b4d8e60fe509315d071b56e7b732abaf193e74e0d15808b0951d095560408201517fbbb088c505d18e049d114c7c91f11724e69c55ad6c5397e2b929e68b41fa05d182527f8df5c48c6b6e11d97548adc824ba0c99103ec09830fa5d53a179984085e6eaa0557fad4123ae17c414d9c6d2fec478b402e6b01856cc250fd01fbfd252fda0089d3c9082905b60200201516040518082815260200191505060405180910390a150565b805160208201511061457e57600080fd5b80517f21dbcab260e413c20dc13c28b7db95e2b423d1135f42bb8b7d5214a92270d237600090815260208181527fadd938dbd083a16bae12238cd914fca0afc7a30edb55b1cd5c7f1823f1b0e42192909255908201517fc0ed44c192c86d1cc1ba51340b032c2766b4a2b0041031de13c46dd7104888d582527ff8e983ee86e5e377e9e34c9131b266382c3f04113d20de077f9e12663c7a646b557f9bebf928b90863f24cc31f726a3a7545efd409f1dcf552301b1ee3710da70d3b908290614550565b604c19811380156146535750604d81125b151561465e57600080fd5b7f1e8ecaafaddea96ed9ac6d2642dcdfe1bebe58a930b1085842d8fc122b371ee560009081526020527fd5c78dd9468716ca9bb96be25d56436811b20aab3523a9904b12deef1cab239d55565b6146b481613029565b15156146bf57600080fd5b7fa8b0ade3e2b734f043ce298aca4cc8d19d74270223f34531d0988b7d00cba21d60005260026020527f603cd9dcbfa185d5c37504f4c8b3f16117ed744fba48d08b7aad44a162af1c93805473ffffffffffffffffffffffffffffffffffffffff1916600160a060020a0392909216919091179055565b60008061474284613bc4565b9092509050600160a060020a03821615613bbe5780831461476257600080fd5b61476e60008086614924565b613bbe6125cb846125bf612353565b61478a81611a65846110c4565b6000808460405160200180807f746f74616c457865637574656450657244617900000000000000000000000000815250601301828152602001915050604051602081830303815290604052604051808280519060200190808383602083106133f35780518252601f1990920191602091820191016133d4565b60006136198261481161287f565b614c17565b6000831115613216576040805160248082018690528251808303909101815260449091018252602081018051600160e060020a03167f054d46ec0000000000000000000000000000000000000000000000000000000017815291518151600160a060020a03861693829180838360005b8381101561489e578181015183820152602001614886565b50505050905090810190601f1680156148cb5780820380516001836020036101000a031916815260200191505b50915050600060405180830381855af491505015156148e957600080fd5b60408051848152905182917fa52d3c9cbc541772e4edd92e2e4e2a3865ab73630f25deed8a6c8de41ff0f65c919081900360200190a2505050565b82600260008360405160200180807f74784f75744f664c696d6974526563697069656e74000000000000000000000081525060150182600019166000191681526020019150506040516020818303038152906040526040518082805190602001908083835b602083106149a85780518252601f199092019160209182019101614989565b51815160209384036101000a60001901801990921691161790526040805192909401829003909120865285019590955292909201600020805473ffffffffffffffffffffffffffffffffffffffff1916600160a060020a03959095169490941790935550613216915083905082613daa565b8051829060001015613619578151601414614a3457600080fd5b614a3d82614c62565b9050600160a060020a0381161515614a5457600080fd5b614a5c614c69565b600160a060020a038281169116141561361957600080fd5b80600080614a806128cd565b9150600160a060020a03821615614ac157614aac83600084600080516020614db7833981519152613e2c565b9050614abe838263ffffffff613d4b16565b92505b60408051600160a060020a03871681526020810185905281517f127650bcfb0ba017401abe4931453a405140a8fd36fece67bae2db174d3fdd63929181900390910190a15050505050565b60606000808281851515614b555760408051808201909152600181527f300000000000000000000000000000000000000000000000000000000000000060208201529450614c0e565b8593505b8315614b7057600190920191600a84049350614b59565b826040519080825280601f01601f191660200182016040528015614b9e578160200160208202803883390190505b5091505060001982015b8515614c0a57815160001982019160f860020a6030600a8a060102918491908110614bcf57fe5b9060200101907effffffffffffffffffffffffffffffffffffffffffffffffffffffffffffff1916908160001a905350600a86049550614ba8565b8194505b50505050919050565b6000811515614c27575081613619565b6000821315614c4b57614c4483600a84900a63ffffffff614cc016565b9050613619565b611a91836000849003600a0a63ffffffff614ce916565b6014015190565b7f71483949fe7a14d16644d63320f24d10cf1d60abecc30cc677a340e82b699dd260005260026020527f21ffdf150a5d180f96d98d16f50e7b4dd63e2a067adc8386cf5af55dcecd8dd954600160a060020a031690565b6000821515614cd157506000613619565b50818102818382811515614ce157fe5b041461361957fe5b60008183811515614cf657fe5b049392505050565b828054600181600116156101000203166002900490600052602060002090601f016020900481019282601f10614d3f57805160ff1916838001178555614d6c565b82800160010185558215614d6c579182015b82811115614d6c578251825591602001919060010190614d51565b50614d78929150614d7c565b5090565b610c4991905b80821115614d785760008155600101614d825600deb7f3adca07d6d1f708c1774389db532a2b2f18fd05a62b957e4089f4696ed589d93e5e92f7e37e490c25f0e50f7f4aad7cc94b308a566553280967be38bcf1a165627a7a7230582013bc09d50f5cf327dadbb1f9fcb63a6866b5d1881bafc194fa3cf66c99542d730029",
  "source": "pragma solidity 0.4.24;\n\nimport \"./HomeBridgeErcToErc.sol\";\n\ncontract HomeBridgeErcToErcPOSDAO is HomeBridgeErcToErc {\n    bytes4 internal constant BLOCK_REWARD_CONTRACT_SELECTOR = 0x56b54bae; // blockRewardContract()\n    bytes4 internal constant SET_BLOCK_REWARD_CONTRACT = 0x27a3e16b; // setBlockRewardContract(address)\n\n    function rewardableInitialize(\n        address _validatorContract,\n        uint256[3] _dailyLimitMaxPerTxMinPerTxArray, // [ 0 = _dailyLimit, 1 = _maxPerTx, 2 = _minPerTx ]\n        uint256 _homeGasPrice,\n        uint256 _requiredBlockConfirmations,\n        address _erc677token,\n        uint256[2] _foreignDailyLimitForeignMaxPerTxArray, // [ 0 = _foreignDailyLimit, 1 = _foreignMaxPerTx ]\n        address _owner,\n        address _feeManager,\n        uint256[2] _homeFeeForeignFeeArray, // [ 0 = _homeFee, 1 = _foreignFee ]\n        address _blockReward,\n        int256 _decimalShift\n    ) external onlyRelevantSender returns (bool) {\n        _rewardableInitialize(\n            _validatorContract,\n            _dailyLimitMaxPerTxMinPerTxArray,\n            _homeGasPrice,\n            _requiredBlockConfirmations,\n            _erc677token,\n            _foreignDailyLimitForeignMaxPerTxArray,\n            _owner,\n            _feeManager,\n            _homeFeeForeignFeeArray,\n            _decimalShift\n        );\n        _setBlockRewardContract(_feeManager, _blockReward);\n        setInitialize();\n\n        return isInitialized();\n    }\n\n    function blockRewardContract() public view returns (address blockReward) {\n        address feeManager = feeManagerContract();\n        bytes memory callData = abi.encodeWithSelector(BLOCK_REWARD_CONTRACT_SELECTOR);\n\n        assembly {\n            let result := callcode(gas, feeManager, 0x0, add(callData, 0x20), mload(callData), 0, 32)\n\n            if and(eq(returndatasize, 32), result) {\n                blockReward := mload(0)\n            }\n        }\n    }\n\n    function setBlockRewardContract(address _blockReward) external onlyOwner {\n        address feeManager = feeManagerContract();\n        _setBlockRewardContract(feeManager, _blockReward);\n    }\n\n    function _setBlockRewardContract(address _feeManager, address _blockReward) internal {\n        require(_feeManager.delegatecall(abi.encodeWithSelector(SET_BLOCK_REWARD_CONTRACT, _blockReward)));\n    }\n}\n",
  "sourcePath": "/home/analiser/bridge-frontend/contracts/upgradeable_contracts/erc20_to_erc20/HomeBridgeErcToErcPOSDAO.sol",
  "compiler": {
    "name": "solc",
    "version": "0.4.24+commit.e67f0147.Emscripten.clang"
  },
  "schemaVersion": "3.4.3",
  "updatedAt": "2021-09-03T05:10:28.285Z",
  "devdoc": {
    "methods": {
      "claimTokensFromErc677(address,address)": {
        "details": "Withdraws erc20 tokens or native coins from the token contract. It is required since the bridge contract is the owner of the token contract.",
        "params": {
          "_to": "address of the tokens/coins receiver.",
          "_token": "address of the claimed token or address(0) for native coins."
        }
      },
      "decimalShift()": {
        "details": "Returns the value of foreign-to-home decimal shift.",
        "return": "decimal shift."
      },
      "executeAffirmation(address,uint256,bytes32)": {
        "details": "Executes a message affirmation for some Foreign side event. Can be called only by a current bridge validator.",
        "params": {
          "recipient": "tokens/coins of receiver address, where the assets should be unlocked/minted.",
          "transactionHash": "reference event transaction hash on the Foreign side of the bridge.",
          "value": "amount of assets to unlock/mint."
        }
      },
      "feeManagerContract()": {
        "details": "Retrieves the address of the fee manager contract used.",
        "return": "address of the fee manager contract."
      },
      "fixAssetsAboveLimits(bytes32,bool,uint256)": {
        "details": "Fixes locked tokens, that were out of execution limits during the call to executeAffirmation.",
        "params": {
          "hashMsg": "reference for bridge operation that was out of execution limits.",
          "unlockOnForeign": "true if fixed tokens should be unlocked to the other side of the bridge.",
          "valueToUnlock": "unlocked amount of tokens, should be less than txAboveLimitsValue. Should be less than maxPerTx(), if tokens need to be unlocked on the other side."
        }
      },
      "getFeeManagerMode()": {
        "details": "Retrieves the mode of the used fee manager.",
        "return": "manager mode identifier, or zero bytes otherwise."
      },
      "maxAvailablePerTx()": {
        "details": "Retrieves maximum available bridge amount per one transaction taking into account maxPerTx() and dailyLimit() parameters.",
        "return": "minimum of maxPerTx parameter and remaining daily quota."
      },
      "outOfLimitAmount()": {
        "details": "Total amount coins/tokens that were bridged from the other side and are out of execution limits.",
        "return": "total amount of all bridge operations above limits."
      },
      "owner()": {
        "details": "Tells the address of the owner",
        "return": "the address of the owner"
      },
      "setFeeManagerContract(address)": {
        "details": "Updates the address of the used fee manager contract. Only contract owner can call this method. If during this operation, home fee is changed, it is highly recommended to stop the bridge operations first. Otherwise, pending signature requests can become a reason for imbalance between two bridge sides.",
        "params": {
          "_feeManager": "address of the new fee manager contract, or zero address to disable fee collection."
        }
      },
      "setForeignFee(uint256)": {
        "details": "Updates the fee percentage for foreign->home bridge operations. Only owner is allowed to call this method.",
        "params": {
          "_fee": "new value for fee percentage."
        }
      },
      "setGasPrice(uint256)": {
        "details": "Public setter for fallback gas price value. Only bridge owner can call this method.",
        "params": {
          "_gasPrice": "new value for the gas price."
        }
      },
      "setHomeFee(uint256)": {
        "details": "Updates the fee percentage for home->foreign bridge operations. Only owner is allowed to call this method. If during this operation, home fee is changed, it is highly recommended to stop the bridge operations first. Otherwise, pending signature requests can become a reason for imbalance between two bridge sides.",
        "params": {
          "_fee": "new value for fee percentage."
        }
      },
      "transferOwnership(address)": {
        "details": "Allows the current owner to transfer control of the contract to a newOwner.",
        "params": {
          "newOwner": "the address to transfer ownership to."
        }
      }
    }
  },
  "userdoc": {
    "methods": {}
  }
}